:020000040800F2
:100000000000012081D6070815D707081548030806
:1000100015D7070815D7070815D7070800000000EF
:1000200000000000000000000000000015D70708D5
:1000300015D707080000000015D70708510102086E
:1000400015D7070815D7070815D7070815D70708C4
:1000500015D7070815D7070831D7010835D7010884
:1000600039D701083DD7010841D70108814401086B
:1000700095440108A9440108BD440108D144010880
:10008000E5440108F944010815D7070815D7070802
:1000900015D7070815D7070815D7070845D701084A
:1000A000414F0108654E0108554F0108514E0108A6
:1000B0008D4E0108A14E0108B54E010875360108A4
:1000C00069360108A93601089D36010815D70708C9
:1000D00015D707082D520108395201084552010869
:1000E00049D7010815D7070815D70708694F010830
:1000F000F14E0108194F0108DD4E01080D450108B8
:1001000015D7070815D70708C94E010815D70708DE
:10011000515201085D52010815D70708B56401085E
:100120002145010835450108494501085D4501089B
:100130007145010815D7070815D7070815D707080F
:1001400015D7070815D7070815D707082D54010834
:100150008545010899450108AD4501086952010826
:10016000DD360108D136010815D7070815D707086D
:1001700015D7070815D7070815D70708000000008E
:1001800015D7070815D707087552010881520108CD
:1001900015D7070815D7070815D7070815D7070873
:1001A000000000000000000015D7070815D7070859
:1001B00015D7070815D7070815D7070811370108FD
:0801C0000537010815D70708F7
:0801C800E4D107000100000072
:1001D0000882022002070000010014002882022089
:1001E000020800000100140048820220010C0000F7
:1001F00000037600688202200112000000037600EE
:10020000888202200114000000001E00A882022043
:10021000011A000000000D00C88202200115000034
:1002200000000C00E88202200116000000000C0013
:1002300008830220011B000000000E00288302201A
:10024000011C000000001E0048830220011700006E
:1002500000000C00688302200118000000000E005E
:10026000888302200119000000000C00A8830220EE
:10027000011E000000000C00C8830220011F0000C6
:1002800000000C00E8830220012801000000180093
:100290000884022001200000000048002884022079
:1002A00001210000000049004884022001220000D2
:1002B00000004A00688402200123000000004B0077
:1002C000888402200124000000004C00A884022041
:1002D0000125000000004D00C88402200126000016
:1002E00000004E00E88402200127000000004F00BB
:1002F00008850220012B000000002900288502202B
:10030000012C01000000290048850220012D010078
:100310000000700068850220012E010000005200DC
:1003200088850220012F010000002800A8850220F6
:100330000130010000002800C885022002290500C4
:1003400000035400E88502200231000000021F0073
:10035000088602200133000000003C0028860220AD
:0803600001360000000020003E
:020000040801F1
:10000000836B1A6C12F0500F21D11A6C196842F4EC
:1000100000721A648A6812F0405F1BD19A69CAB9EB
:10002000CA6A12F4700F02D08A68500512D44A6866
:1000300022F020024A601A6C22F480721A641A6C50
:10004000D20407D41A6C42F001021A6470479B6B09
:10005000DB6C1847704700BF704700BF836B4022BE
:100060001A645A6C42F004025A647047002280F805
:10007000422090F84130292B04D090F841302A2BAF
:1000800018D070474FF0280C2123016880F841C038
:10009000036390F8413003EA0C0363450B680CBF1F
:1000A0006FF0420C6FF0F20C03EA0C030B6080F867
:1000B0004020704710B422232824016880F8414072
:1000C000036390F841302340A3420C680CBF6FF0EB
:1000D00044036FF0F40323405DF8044B0B6080F899
:1000E000402070470023202210B4164C4363C462A2
:1000F000036380F8412080F842304B0711D5436AF2
:100100000268591C526A41621A70038D4BB1428DCC
:10011000013B013A038593B24385436C43F00403EA
:1001200043640368102490F84120002190F8412096
:100130001A6822F0FE021A60DC615DF8044B80F858
:10014000401070470000FFFF00224F4B10B480F8B2
:100150004220C3624285436C1943416490F84130A8
:10016000282B07D090F84130292B03D090F841304C
:100170002A2B2DD190F841204FF0280C90F84130D7
:10018000002402F0280203F02803282A0CBF46228C
:10019000F622282B03680CBFD1436FF0F6011A68D2
:1001A0000A401A60394A80F841C0426304631A6801
:1001B000196812F4804223D111F4004133D190F830
:1001C0004130602B58D080F840105DF8044B7047E8
:1001D000036890F8412090F841201A6822F0FE024E
:1001E0001A6090F84120602A02D0202280F8412035
:1001F0000022026342631A68196812F48042DBD05D
:1002000021F48041826B224C19600023146580F830
:10021000403092F83530022B18D0802310465DF81C
:10022000044B5365BCE11C68C16B24F400441C60A2
:10023000174B0B6580F8402091F83530022B10D019
:10024000802308465DF8044B4B65A9E1116805233E
:1002500082F835300B685DF8044B23F001030B6026
:1002600070470A68052381F8353013685DF8044B40
:1002700023F0010313607047202380F8401080F8BA
:1002800041305DF8044B70470000FFFF1103010887
:10029000A105010803689A69196810B4D4052FD51F
:1002A0000C061FD5416C4FF4807441F0010141648C
:1002B0005105DC6129D5416C4FF48064920541F011
:1002C00008014164DC6106D5426C4FF4007142F0D4
:1002D00002024264D961436C13F00B0F0CD15DF83C
:1002E000044B70475405F6D49405F4D50906EBD4B5
:1002F000436C13F00B0FF2D0416C5DF8044B23E715
:100300005405F1D50906D6D4E5E79205DCD4E2E739
:1003100090F84030012B00F0E0800123F0B50D464D
:1003200083B0044680F84030E90623D5D30621D5B2
:10033000438D9BB2002B5AD1C36AB3F1007F6CD0BE
:10034000C36AB3F1007F68D0E36A13F5803F04D03D
:1003500094F84130292B00F00D8123681021D961D8
:10036000A90601D5930663D40023184684F84030CB
:1003700003B0F0BD68071AD42B0701D517073ED488
:10038000AE07EDD59007EBD5638D9BB2002B00F047
:10039000A680636A591C616221681B788B62638D39
:1003A000218D013B01399BB221856385D8E7510737
:1003B000E2D5638D9BB263B1636A2168581C496AB8
:1003C00060621970638D218D013B01399BB22185DB
:1003D0006385638D9BB2002BC2D1E36A13F5803F26
:1003E000BED020460192FFF741FE019AB8E70368AC
:1003F0001021D961436C43F004034364B0E794F8DF
:10040000413003F02803282B236800F09080082156
:10041000D961002384F84030A2E794F84130282BBA
:1004200092D1294620460192FFF75CFE019A97E798
:100430002368202108225848D961DA6194F84120C4
:1004400094F84120196821F0FE011960596841F4BF
:10045000004159605A6802405A609A69970701D56D
:1004600000229A629A69D60703D49A6942F001027F
:100470009A611A68500425D41A68110422D4628D36
:1004800092B21AB1626C42F0040262646A0707D544
:10049000626A5B6A511C61621370238D002B2DD13F
:1004A0000023236384F84230626C6363002A30D1F6
:1004B000E36A3A4A93421CD194F84130202384F8ED
:1004C000413051E794F84120212A0CBFA26BE26B26
:1004D0001268526892B26285D1E702207047E36ADF
:1004E000B3F1807F3FF47DAFE36A002B3FF479AF37
:1004F00036E72023E26284F8413035E7628D013B24
:10050000013A238593B26385636C43F0040363640B
:10051000C6E7616C2046FFF717FE94F84130282BA0
:100520007FF422AF29462046FFF7DCFD1CE7E06898
:10053000996902289E699968DF6813D1C1F3C211D5
:1005400081EA164111F006010CD1A06C0130A064C3
:10055000A06C02287FF404AF0820A164D86184F85D
:100560004010FDE6196821F0B8011960002384F8F5
:100570004030F5E623681021D96199698F0701D5CC
:10058000002199629969CE073FF52BAF996941F037
:100590000101996125E700BF00E800FE0000FFFFB0
:1005A000836B00211868426830B442F40042D3E9FA
:1005B0000E5442602965216593F84120602A02D1DA
:1005C000202283F8412030BC704700BF3C4AB0F184
:1005D000804F0368A0EB0202B2FA82F270B44FEAD5
:1005E000521210D07AB9374D374CA04218BFA842EA
:1005F0002BD1364C23F070034D68041B2B43B4FA07
:1006000084F4640908E04C6823F0700323432F4C02
:10061000041BB4FA84F46409CD6823F440732B43BB
:100620004D6923F080032B4303608B68C3620B6822
:10063000836222B91CB9012370BC436170470B6906
:100640000363012370BC4361704704F58064A042DA
:1006500024D004F57844A04220D01D4C1D4DA0426A
:1006600018BFA8420CBF0124002427D01A4EA5F5BC
:100670009435A84218BFB042CED0184CA0421DD02D
:1006800004F58064A04219D04D6923F080038C6882
:100690000A682B430360C4628262CCE74D6823F092
:1006A00070030A4C2B430E4D041BA842B4FA84F489
:1006B0004FEA5414B0D0002CAED1CEE70024ABE703
:1006C0000000014000040040000800400004014018
:1006D000004401400040014000480140001C00402F
:1006E000000C00400022836BA3F85A20A3F852208C
:1006F000704700BF436ADA0710B406D50168846A00
:100700004A6822F4003222434A609C0706D50168F9
:10071000C46A4A6822F4803222434A60590706D5E7
:100720000168046B4A6822F4802222434A601A0757
:1007300006D50168446B4A6822F4004222434A60AD
:10074000DC0606D50168846B8A6822F48052224355
:100750008A60990606D50168C46B8A6822F4005243
:1007600022438A605A060AD50168046C4A68B4F5C7
:10077000801F22F4801242EA04024A600BD01B065A
:1007800006D50268816C536823F400230B43536041
:100790005DF8044B70474A68446C22F4C00222435F
:1007A0004A60ECE7036942681F2B70B430D9A3F1AB
:1007B000200520215468A940214227D08169087C66
:1007C000022835D048681F2BC9681B4D4E68016947
:1007D000C1F30324194951F8244015F804C00568F1
:1007E00056F80C4024F0010446F80C40407901EB27
:1007F0004001098C01F4F050E96821EA0001E96048
:1008000010D9A3F1200120238B40D36070BC704726
:100810002021146899402142F8D08169087C02287F
:10082000D0D105E0202101FA03F370BC936070473A
:1008300000200874C6E700BFE85C0808B05B080841
:10084000D0E907239A4201D3D01A7047C0681044F8
:10085000C01A7047D0E909239A4204D30069D31A19
:100860000138C01A7047006902440138D31AC01A0F
:10087000704700BFD0E90902101AB0FA80F04009B1
:10088000704700BF016A034640694A1C405CD96852
:100890008A4228BF00221A62704700BF436A8269F9
:1008A00010B4D154436A416B046901330A68A3420E
:1008B00028BF00235DF8044B42F0800243620A60C7
:1008C000704700BF436BD86910F0100002D01022AF
:1008D00001201A62704700BF704700BF704700BF19
:1008E00001207047014B1868704700BF202D012080
:1008F000044B93F80002A0F10300B0FA80F0400925
:10090000704700BF202D0120012380F84930704737
:10091000064BD3E98E02431E9042A3EB02038CBF29
:100920000020012003EB0030704700BF202D012084
:10093000D0F8183223B100221046C3F814227047B1
:100940000220704701F00F01D0F83022C1EBC10145
:1009500002EB8102D0E98630B2F8102203F5037170
:1009600010B5C468D3F80402C3F80C22A0470020D5
:1009700010BD00BFD0F81C3283B110B5D0F81842BA
:1009800094F80002FF2807D09B68214694F80122C2
:100990009847FF2384F80032002010BD00207047E4
:1009A0000346432201481A80704700BF000001201F
:1009B0000346432201481A80704700BF44000120CB
:1009C0000346432201481A80704700BF8800012077
:1009D00003460A2201481A80704700BFCC0001205C
:1009E0000346202201481A80704700BFD80001202A
:1009F0000346202201481A80704700BFF8000120FA
:100A00000346202201481A80704700BF18010120C8
:100A100003460A2201481A80704700BF38010120AE
:100A2000064B4FF0120C064A506803F11402A1F86D
:100A300000C002280CBF1846104670474401012030
:100A400050280040042301480B8070476C010120AE
:100A5000214BD3F82024D3F8280430B512184FF0D6
:100A60001A040C8001D11D4830BD1C494FF0000E06
:100A7000D3F824048C467546130FB2F1204F0EF1C3
:100A8000020E8CF8035003F1300403F137034FEAF0
:100A900002120CF1020C34BF8CF800408CF80030CC
:100AA000BEF1100FE8D100221446030FB0F1204F21
:100AB00002F10202CC7403F1300C03F137034FEA68
:100AC000001001F1020134BF81F810C00B74082A34
:100AD000EBD1024830BD00BF00F0F01F70010120D3
:100AE00000207047212810B505D0222830D02028BA
:100AF00014D0002010BD0029FBD0072AF9D11B4BD0
:100B000093F89001D3F88C4193F8912193F89231A6
:100B1000087100200C604A718B7110BD0029E8D06B
:100B2000072AE6D1114B0C79114A086883F89041E5
:100B3000D2F840224C798979C3F88C0183F891412D
:100B400083F89211002AD4D0014600209047D0E7C4
:100B50000029CED0022ACCD1054BD3F84432002B49
:100B6000C7D0098800209847C3E700BF00000120D4
:100B7000202D012003682DE9F04F13F0010587B007
:100B800000F01781A9498A6822F400028A60426B4A
:100B90008C681443B2FA82F28C6013F400244FEA9A
:100BA000521200F00B81A14FC16BD7F88C60B1F5E8
:100BB000801F26F4401646EA0106C7F88C6000F054
:100BC0008882B1FA81F113F480174FEA511140F095
:100BD000FA8013F0807618BF012200969E0600F17D
:100BE0000C82DE060ED5DFF844C2DCF88CE02EF075
:100BF000807ECCF88CE0DCF88CE0866B4EEA060E4A
:100C0000CCF88CE05E040AD5DFF820E2466EDEF810
:100C100090C02CF4403C4CEA060CCEF890C01E0468
:100C20000AD5DFF808E2866EDEF890C02CF4402C7E
:100C30004CEA060CCEF890C0DE030AD5DFF8ECE1F2
:100C4000C66EDEF890C02CF4401C4CEA060CCEF8C0
:100C500090C09E030AD5DFF8D4E1066FDEF890C09D
:100C60002CF4400C4CEA060CCEF890C05E060AD577
:100C7000DFF8B8E1466CDEF890C02CF0030C4CEACB
:100C8000060CCEF890C01E060AD5DFF8A0E1866CEF
:100C9000DEF890C02CF00C0C4CEA060CCEF890C09C
:100CA000DE050AD5DFF884E1C66CDEF890C02CF0D2
:100CB000300C4CEA060CCEF890C09E050AD5DFF841
:100CC0006CE1066DDEF890C02CF0C00C4CEA060C0E
:100CD000CEF890C05E050AD5DFF850E1466DDEF82B
:100CE00090C02CF4407C4CEA060CCEF890C01E0557
:100CF0000AD5DFF838E1866DDEF890C02CF4406C40
:100D00004CEA060CCEF890C0DE040AD5DFF81CE1F0
:100D1000C66DDEF890C02CF4405C4CEA060CCEF8B0
:100D200090C09E040AD5DFF804E1066EDEF890C09C
:100D30002CF4404C4CEA060CCEF890C05E020AD56A
:100D4000DFF8E8E0866FDEF890C02CF0806C4CEAAB
:100D5000060CCEF890C013F4001E0FD0DFF8CC8044
:100D6000D0F87C90D8F890C0B9F1006F2CF0006CEE
:100D700008BF01214CEA090CC8F890C05E030AD5EF
:100D8000DFF8A880466FD8F890C02CF0407C4CEA81
:100D9000060CC8F890C01E022AD4B3F1007F36D0EA
:100DA000D60734D4012900F09981002007B0BDE8AE
:100DB000F08F13F400242A467FF4F5AE214613F495
:100DC00080173FF406AFDFF864E0D0F840C0DEF8EB
:100DD0008C60BCF5800F26F4400646EA0C06CEF87F
:100DE0008C6000F07981BCF1000F08BF0121F0E6B2
:100DF000DFF83880B3F1007FD0F88060D8F890C079
:100E00002CF0805C4CEA060CC8F890C0C8D1DFF822
:100E10001C80DFF81CC0D8F80020009E22F0806201
:100E2000C8F80020DCF848920BE000BF0038024010
:100E3000202D0120DCF84822A2EB0902642A00F2EE
:100E4000D880D8F800201201F4D40096002D43D0A9
:100E5000426B002A40D1D8F884504FF4403999FAB7
:100E6000A9F2B2FA82F6D8F88420019602924FF0E5
:100E7000706292FAA2FABAFA8AF647F6C07B039633
:100E80009BFAABFBBBFA8BFB99FAA9F9B9FA89F982
:100E900092FAA2F24FF0E04AB2FA82F29AFAAAFA71
:100EA000019E05F44035BAFA8AFAF540039E05FA28
:100EB00009F9029D05F07065F5409540426802FA17
:100EC0000BFB826802FA0AF24BEA020242EA0909C3
:100ED00049EA0505C8F88450002C40F0B18127B1DB
:100EE000026CB2F5800F00F0B081009A002A43D066
:100EF000DFF81C944FF07066D9F8842096FAA6FBB0
:100F0000D9F88450BBFA8BFB00954FF0E04595FA79
:100F1000A5F8B8FA88F647F6C07A01969AFAAAFABE
:100F20004FF44038BAFA8AFA98FAA8F84FF0706687
:100F3000B8FA88F896FAA6F6B6FA86F695FAA5F5FE
:100F400002F07062B5FA85F522FA0BF202FA06F6A3
:100F5000009A02F0E04B019A2BFA02FB42680BFA6E
:100F600005FB056902FA0AF205FA08F52A43164359
:100F700046EA0B06C9F884609B0126D547F6C07384
:100F800093FAA3F34FF44038B3FA83F298FAA8F82F
:100F90004FF07066B8FA88F896FAA6F64FF0E0457A
:100FA000B6FA86F695FAA5F54368B5FA85F5934045
:100FB000026902FA08F21343C268B240134382681E
:100FC000AA401343D24AC2F88430D14A136843F08E
:100FD00080631360DCF8485204E0DCF848325B1BA5
:100FE000642B06D813681E01F7D501297FF4DDAE06
:100FF00074E0032007B0BDE8F08FDFF814E39A46F1
:10100000DFF81083DEF84090DFF80CC349F0805918
:10101000009ECEF84090DEF840E00EF0805ECDF805
:1010200014E0DDF814E0D8F800E04EF4807EC8F853
:1010300000E0DCF8489206E0DCF84832A3EB090E49
:10104000BEF1640FD5D8D8F80030DB05F4D5DFF851
:10105000C0825346D0F830E0D8F87090009619F46A
:1010600040791DD00EF4407ACA4519D0D8F870E006
:10107000D8F870902EF4407E49F48039C8F870900A
:10108000D8F8709029F48039C8F87090C8F870E0EA
:10109000D8F870E01EF0010F40F04281D0F830E047
:1010A0000EF4407CBCF5407F00F01D81DFF86082CB
:1010B000D8F808C02CF4F81CC8F808C0DFF850C2F3
:1010C000CEF30B0EDCF870804EEA080ECCF870E020
:1010D00087E50021012272E601227AE58C4ADFF8D9
:1010E00038C2136823F080531360DCF8481205E01F
:1010F000DCF848325B1A642B3FF67BAF13689D0027
:10110000F6D4002C40F0FE80002F45D0036C002B5D
:1011100042D17F4C4FF44036D4F8881096FAA6F9A5
:101120004FF0E042B9FA89F9D4F8883092FAA2F780
:1011300047F6C075B7FA87F795FAA5F5B5FA85F5BC
:1011400096FAA6F6B6FA86F84FF0706696FAA6F604
:10115000B6FA86F692FAA2F203F0E043B2FA82F20D
:1011600001F44031FB4021FA09F103FA02F243692C
:1011700001FA08F1AB408569B5402B430B4313439B
:10118000C4F88830D4F88C30826A23F4F853013ADA
:1011900043EA0223C4F88C30BEF1000F3ED0C36F87
:1011A000B3F1006F3AD15A4C4FF07061D4F88870A7
:1011B00091FAA1F84FF0E042B8FA88F8D4F88830F4
:1011C00092FAA2FE47F6C076BEFA8EFE96FAA6F610
:1011D0004FF44035B6FA86F695FAA5F5B5FA85F5D9
:1011E00091FAA1F1B1FA81F192FAA2F203F0E0438F
:1011F000B2FA82F207F0706723FA0EF327FA08F7C3
:1012000003FA02F24369006A07FA01F1B34000FAF7
:1012100005F52B430B431343C4F888303C4A13684D
:1012200043F080531360DCF8481205E0DCF84832E4
:101230005B1A642B3FF6DDAE13689B00F6D5B4E570
:10124000C26BB2F5801F7FF44AAEDFF8C4904FF452
:101250004035D9F8848095FAA5F2B2FA82F6D9F829
:101260008420019602924FF0E04292FAA2FABAFA72
:101270008AF647F6C07B03969BFAABFBBBFA8BFB67
:1012800095FAA5F54FF0706AB5FA85F59AFAAAFABB
:10129000BAFA8AFA92FAA2F2019E08F44038B2FA37
:1012A00082F228FA06F8039E08FA05F8029D05F076
:1012B000E045F5409540426802FA0BFBC26802FA2D
:1012C0000AF24BEA020242EA080848EA0505C9F8B0
:1012D0008450D9F88C50426A25F01F05013A2A4300
:1012E000C9F88C2001E6DFF82890DFF83080D9F8C3
:1012F00008C00EEA08082CF4F81C4CEA080CC9F8DF
:1013000008C0DBE6C36B002B3FF403AFFCE600BF75
:101310000038024000700040202D0120FFFCFF0F2C
:10132000DCF848A241F288399B46009E06E0DCF8D2
:101330004832A3EB0A0ECE453FF65BAED8F87030CC
:101340009B07F4D55B460096A8E600BF2DE9F04761
:10135000046982B0C3681C4044D0814688464FF07F
:10136000004501F1500701F13806B4FA84F325FA7B
:1013700003F21B3BD2431440C9F81020B8F1000F10
:101380005DD0042B2CD8DFE803F050463B3003003F
:10139000D8F81030D9F82CA033B19B6823B11FFACC
:1013A0008AF108F108009847D8F8283033B19B68D3
:1013B00023B11FFA8AF108F120009847D8F840308D
:1013C0002BB19B681BB11FFA8AF130469847D8F8B9
:1013D00058302BB19B681BB11FFA8AF138469847E9
:1013E000002CC2D102B0BDE8F087D8F8103008F167
:1013F0000800D9F834105B689847002CB5D1F1E7A4
:10140000D8F8283008F12000D9F838105B689847E0
:10141000002CAAD1E6E7D8F840303046D9F83C1085
:101420005B689847002CA0D1DCE7D8F858303846E4
:10143000D9F840105B689847002C96D1D2E7042B6E
:1014400007D8DFE803F00319140F0A00D9F8403079
:101450000193019B002C88D1C4E7D9F82C3001936B
:10146000019BF7E7D9F834300193019BF2E7D9F8F3
:1014700038300193019BEDE7D9F83C300193019B93
:10148000E8E700BF2A4B00222A48D3F894312A49C2
:1014900030B52A4C83B0C4F85C22C4F85422A0FBB7
:1014A000032394F88922C4F84C1242F20F71DB0C2A
:1014B000C4F85812013BC4F85032002A32D002233B
:1014C0001F491D484FF4000584F88932FFF77EF864
:1014D0001C4B01223720062184F889221A6C42F025
:1014E00020021A641B6C03F020030193019B67F038
:1014F000DFFED4F84C3200201349D4F81C224D6092
:10150000D96841F00101D960196841F00101196001
:101510000E490F4BC2F81002C4E99000C2E98131B4
:1015200003B030BD02F0FF0084F88802C7E700BFB7
:101530000000012083DE1B4300140040202D012009
:10154000702F01200038024000E100E0D84901205E
:10155000D8390120436BDA69910670B5044614D579
:10156000586AE36AC0B2002B00F0BC80216B984738
:10157000636B1A6822F480721A609A6822F0010282
:101580009A609A6942F008029A61DA69D20701D535
:1015900001221A62DA69960701D502221A62DA6913
:1015A000550701D504221A62DA69100701D508220D
:1015B0001A62DA69110613D594F89D20212A0FD0FA
:1015C000D4E909128A4200F09980A169895C01324C
:1015D000C9B299622169B2FBF1F001FB1022A2624B
:1015E000DA69520600D470BDDA6904F134001D686E
:1015F0001607996815D1960602D5A90600F1A980AB
:10160000160602D5280600F192805106EBD56A062F
:10161000E9D51A68202122F040021A6084F89D1052
:1016200070BD01F0010105F4907C5CEA0106E7D091
:10163000D60709D5EE0507D501261E62D4F8A060AD
:1016400046F00106C4F8A060960763D4560708D593
:1016500039B104261E62D4F8A06046F00206C4F830
:10166000A06016070CD505F0200C5CEA010107D03C
:1016700008211962D4F8A01041F00801C4F8A010A4
:10168000D4F8A0100029AED0960601D5AD067FD4BF
:10169000D4F8A020110703D49A6812F040027BD03E
:1016A0001A68202122F490721A609A6822F00102CE
:1016B0009A6084F89E109A68520694D59A68D4F875
:1016C000980022F040029A6000288CD090F83530C3
:1016D000394A022B026540D08023BDE87040436543
:1016E000FFF700B8E3696269D054E369E268013347
:1016F000B3FBF2F102FB1133E36139E70022A4F8F6
:1017000086201A6822F080021A60DA6952067FF594
:101710006AAF69E70029A4D002261E62D4F8A0604F
:1017200046F00406C4F8A06056079AD591E794F8ED
:101730009D20212A7FF457AFB4F8862092B2AAB92F
:101740001A6822F080021A601A6842F040021A6099
:1017500070BDBDE870406AF045BA0268052380F8A4
:101760003530136823F00103136070BDE26BB2F5EE
:10177000805F14D0D4F88020511CC4F880101278F7
:101780009A62B4F88630013B9BB2A4F8863070BDF3
:101790006AF028FA636B7BE7C4F8A02070BD626C26
:1017A000002AE7D1D4F8802032F8021BC1F30801E7
:1017B0009962C4F88020E4E7E506010870B50B786B
:1017C0000C46054613F0600223D0202A24D1CA8893
:1017D00022B31B06D0F8186242D5D0F81C3231462D
:1017E00060789B689847E288D5F830320221002063
:1017F000AA61C5F8F4114FF48071EA61198703F109
:1018000038015E64C3E913201A69012A22D19E645B
:1018100020E04B780A2B08D0002070BDD0F81C3295
:1018200048789B689847002070BDD0F8303201217D
:1018300002204FF48074C5E90611C5F8F4011A6559
:101840001A691648012AD96403F1380158641C87C3
:1018500008BF98641868D2B26AF024F8002070BDFE
:101860004978032386F8012286F80012C0F808217F
:10187000C0F8F431C0F80C21D0F830320020C3E9B0
:1018800083201A6903F5FC71C3F80462012AA3F8E6
:10189000F801DFD1C3F80862DCE700BFAC2F0120FC
:1018A000214938B50A68D1F8903253B1002AFCD0EA
:1018B00013F8014B013AC1F890320A6012B1204688
:1018C00038BDFEE7D1F81C020028F8D00D7DD1F814
:1018D0003432D0F80402ADB91A690121C3F82C5290
:1018E0004FF40075012AA3F81412C3F8200203F57F
:1018F0000571C3F8285214D01868D2B26AF050F8B3
:10190000204638BDC3F82C2201211A694025A3F8CE
:10191000141203F50571012AC3F82002C3F82852F6
:10192000EAD1C3F82402E7E7202D012038B50022D0
:10193000D0F8284205461B4B84F8381204F50B708A
:1019400022720D21C4F82C3204F50374D5F830321C
:10195000DA6640F201121866A3F854201A699966F3
:1019600003F15401012AD2B208BF586618686AF020
:1019700017F8D5F830321F2000220121C3F8204289
:10198000C3E98A021A69A3F814128A42186803F597
:101990000571D2B208BFC3F82442BDE8384069F0EF
:1019A000FFBF00BF555342532DE9F047137882B073
:1019B000914604468A465A2B5CD8DFE813F0D400DF
:1019C0005B005B007E005B005B005B005B005B001C
:1019D0005B005B005B005B005B005B005B005B002F
:1019E0005B00AE005B005B005B005B005B005B00CC
:1019F0005B00D00175005B005B0075005B005B0065
:101A00005B005B00F4015B001A025B005B005801A5
:101A10005B00E6005B005B005B005B0045015B0078
:101A20005B005B005B005B005B005B005B005B00DE
:101A30005B005B005B005B005B005B005B005B00CE
:101A40005B005B005B005B005B005B005B005B00BE
:101A50005B005B005B005B005B005B005B005B00AE
:101A60005B005B005B005B005B005B005B005B009E
:101A70005B003902D0F8282205244FF4005092F878
:101A80005D3202EBC3010133DBB281F83C42C1F8A5
:101A90004002042B00F0198282F85D324FF0FF35CE
:101AA000284602B0BDE8F0870023D0F828221D4662
:101AB0005381284602B0BDE8F087D0F828320C24C4
:101AC000002070211D19D860186158619861288222
:101AD0001973DC7493F85C1293F85D428C4213D056
:101AE00003EBC104013194F83C52C9B29D7304293F
:101AF00094F841521D7694F8404218BF83F85C1266
:101B00005C7608BF83F85C021221598199F80420A1
:101B10008A4223D800255A81C2E799F80130D0F8CB
:101B20002802DB0700F1A881D4F82C3201EBC101B7
:101B300099F80450DC6904EB81042279531DAB420F
:101B400028BF2B4643814BB103F10B0223440244CF
:101B500013F8011DA34202F80119F9D10025284606
:101B600002B0BDE8F087D0F82862D6F81472002FD2
:101B700040F0C882D0F82C3208469B68984705464A
:101B8000002840F0A28270818AE7D0F8286296F897
:101B90000880B8F1000F40F0A08196F91832002BB0
:101BA000C0F2F682D0F82C3208469B689847074668
:101BB000002840F0BE82D4F82C325046DB689847AB
:101BC0000546002840F00682D9F80210D4F8280211
:101BD00009BAD0F86022C6F86412B9F807305BBAC7
:101BE0009BB25F18C6F86832974200F21E82B6F8C0
:101BF0005E2202FB03F302FB01F1D6F814229342AA
:101C0000C6E9991340F0B8810121B3F5007F06F1D0
:101C10000C0606F8041C28BF4FF40073D4F83002F9
:101C20000269C0F82832012AC0F82C52C0F820629C
:101C3000D2B2A0F8141200F5057108BFC0F82462F2
:101C4000006869F0ADFE2BE799F80130D0F8282242
:101C500013F0020340F02A81B2F86812D2E9980426
:101C60002144814200F207821D46538118E7D0F8D3
:101C700028723E7A002E40F02E8197F91832002B00
:101C800080F21082D0F82C3208469B6898470028D2
:101C900040F0F780D9F80250D4F828622DBAD6F86F
:101CA0006022C7F86452B9F807305BBA9BB205EB03
:101CB000030CC7F86832944500F25482B7F85E22EC
:101CC00002FB03F302FB05F502223A72D7F8142255
:101CD0009342C7E9995340F094814FF40073D6F8CA
:101CE0006422D4F82C1206F10C057B815046D6F8FC
:101CF0006872D1F8108029469F4228BF1F46B6F867
:101D00005E32B2FBF3F2B7FBF3F39BB2C04700289D
:101D1000C0F29E81D4F830320022DA6640F201121D
:101D20001D6603F15401A3F854201A691868012AAA
:101D30009F66D2B208BF5D6669F032FED6F83432D3
:101D4000D6E99925DB1B3A44ED1BC6F83432C6E9C7
:101D50009925002D7FF402AF03233372A0E6D0F85B
:101D600028720822CD4D07F113037A8107F10B0683
:101D70000022C3F1070001E092F8302003F80129A6
:101D8000C218B34215FA82F2F6D1D4F82C3250467A
:101D9000DB68984700283FF4E1AEBB7B002563F089
:101DA0007F03BB737CE6D0F82862002708460DF15C
:101DB0000202F76001A937617761D4F82C325B68C1
:101DC00098470546002840F0EF80BDF80220082122
:101DD000019B52BAF173013BF2820C22190EF3748B
:101DE00072811A0C1B0A317472740222B374B282AB
:101DF00056E6D0E98A6308465B6806F25E2206F57D
:101E0000187198470546002840F0C880D6F860321F
:101E10000821B6F85E22013B718152BA3082190E58
:101E2000F37372821A0C1B0A31737273B37337E641
:101E3000D0F828720822994D07F113037A8107F12F
:101E40000B060022C3F1070001E092F8382003F8E6
:101E50000129C218B34215FA82F2F6D1D4F82C3215
:101E60005046DB68984700283FF478AEFB7B00259E
:101E700063F07F03FB7313E60722894C134642810C
:101E800062E6D4F828224FF46850022492F85D32BA
:101E9000591C02EBC303C9B283F83C42C3F84002A9
:101EA000042900F0908182F85D12F7E592F85D3226
:101EB00005244FF41050591C02EBC303C9B283F838
:101EC0003C42C3F840020429EDD100234FF0FF3516
:101ED00082F85D32E4E53E46FFE6D6F868520846F1
:101EE000B6F85E3206F10C07B5F5007FD6F864222D
:101EF000D4F82C1228BF4FF40075D1F8148039465D
:101F0000B2FBF3F2B5FBF3F39BB2C0470028C0F27B
:101F10005F81D6F86432D6F834222B44521BC6F8BF
:101F20006432D6F86832C6F83422591BC6F86812F3
:101F300021B920460D46FFF7F9FCB1E5B1F5007F68
:101F4000D4F830020B464FF0000228BF4FF4007364
:101F50000121C0F820720025A0F8141200F50571C7
:101F6000C0E98A320269012AD2B208BFC0F82472DD
:101F7000006869F015FD93E590F85D3205244FF493
:101F8000005100EBC3020133DBB282F83C42C2F8DD
:101F90004012042B59D080F85D327FE5D4F8282216
:101FA0004FF4685002246AE5D4F828224FF46850B0
:101FB00002244FF0FF3592F85D32591C02EBC30347
:101FC000C9B283F83C42C3F84002042916D082F813
:101FD0005D1265E5D4F828224FF41C50022492F8D3
:101FE0005D32591C02EBC303C9B283F83C42C3F80B
:101FF000400204297FF457AF4FF0FF3582F85D723D
:102000004EE596F85D3205211A46013306EBC20211
:10201000DBB282F83C124FF40051042BC2F840129C
:1020200000F0B18086F85D3238E590F85D32052128
:102030001A46013300EBC202DBB282F83C124FF4C5
:102040000451042BC2F84012A5D180F85D5225E559
:10205000D4F828224FF48850042492F85D3202EB21
:10206000C3010133DBB281F83C42C1F84002A34214
:102070007FF412AD29E792F85D120524084601317C
:1020800002EBC000C9B280F83C424FF4045404296A
:10209000C0F840427FF407AF18E700BFB05B080804
:1020A000D85B080897F85D3205211A46013307EB23
:1020B000C202DBB282F83C124FF40051042BC2F88A
:1020C00040127BD087F85D32E8E4D4F82822022061
:1020D0004FF0FF3592F85D321946013302EBC10132
:1020E000DBB281F83C024FF46850042BC1F8400287
:1020F00018BF82F85D324FF0050308BF82F85D72A9
:102100003372CDE496F85D3205204FF400511A4643
:102110000133DBB206EBC202042B82F83C02C2F8A8
:1021200040127FF47FAF00234FF0FF3586F85D3219
:10213000B6E4D4F828224FF46850022492F85D32B5
:1021400092F85D12013302EBC101DBB281F83C422F
:10215000042BC1F840027FF49FAC4FF0FF3582F8AA
:102160005D829DE496F85D3205211A46013306EB47
:10217000C202DBB282F83C124FF40451042BC2F8C5
:1021800040127FF44FAF4FF0FF3586F85D0287E4D1
:1021900096F85D3205211A46013306EBC202DBB226
:1021A00082F83C124FF40051042BC2F840127FF425
:1021B00039AF4FF0FF3586F85D8271E44FF0FF359F
:1021C00087F85D626CE44FF0FF3582F85D6267E48A
:1021D000D4F828224FF44070042492F85D32194656
:1021E000013302EBC1013DE7D0F8281210B50B7A9C
:1021F000022B07D0033B012B02D80021FFF796FBEF
:10220000002010BD01F21B2291F819120446FFF7BD
:10221000CBFB0028F4DA01212046FFF787FBEFE72C
:10222000F8B50C4E96F80032032B00D0F8BD0D46E1
:102230001446D6F8947208E005F054FBD6F89432B0
:10224000241A0544DB1B322BF0D8002C21462846EB
:10225000F2DCF8BD202D0120F8B590F848305D1C67
:102260000344EDB280F8485083F8341090F84930B8
:10227000012B02D1132D00D8F8BD002380F848307F
:10228000002DF9D00B4F97F80032032BF4D1D7F87B
:10229000946200F1340401E0002DEDD0294620467F
:1022A00005F020FBD7F894322D1A04449B1B322BE7
:1022B000F2D9F8BD202D0120F8B5002390F8485040
:1022C000A0F8483005B9F8BD0B4F97F80032032B42
:1022D000F9D1D7F8946200F1340401E0002DF2D076
:1022E0002946204605F0FEFAD7F894322D1A044408
:1022F0009B1B322BF2D9F8BD202D012070B5037C39
:102300000446002B44D1D0F830024FF4007302226F
:10231000812169F07BF94FF4007302220121D4F886
:10232000300269F073F9082303228221D4F83002C5
:1023300069F06CF94FF4077072F0D8FB0546C4F8E9
:102340001802002849D0D4F81C321B689847002294
:10235000267CC5F81422D4F83032D5F80402C5F82A
:10236000182226B340240121C3F820020026A3F836
:10237000141203F50571C3E98A421A69012AD2B21F
:1023800008BFC3F82402186869F00AFB304670BD24
:10239000402302228121D0F8300269F037F940232E
:1023A00002220121D4F8300269F030F9BBE70122A2
:1023B0004FF40071C3F82002A3F814221A69012A0D
:1023C000D2B2C3E98A1608BFC3F8240203F5057127
:1023D000186869F0E5FA304670BD0126D6E700BFFF
:1023E00038B5037C0446002B56D1D0F830024FF4A8
:1023F00000730222012169F009F94FF400730222EF
:102400008121D4F8300269F001F94FF41B7072F0A9
:102410006DFB0546C4F8280200284CD00020D4F8F3
:102420002C322881A5F85C021B689847D4F830024A
:1024300090F8B8330468012B14D010221F4B22618E
:1024400001E0013B02D02269D106FAD460221B4B85
:10245000226101E0013B02D022699206FAD40023F6
:1024600080F8B8331F22002305F5037500F50571C8
:10247000C0F82822C0F82C3201230269C0F820528B
:102480009A42A0F81432D2B208BFC0F824522046B3
:1024900069F086FA002038BD402302220121D0F8DD
:1024A000300269F0B3F8402302228121D4F83002CF
:1024B00069F0ACF8A9E7012038BD00BF400D03006A
:1024C00038B5D0F8305240F20112044695F8B833CE
:1024D000A5F85420012B09D001222868114685F85F
:1024E000B82369F025FB002385F8B833D4F83052BF
:1024F000012195F8B833A5F814128B4208D00022B8
:10250000286885F8B81369F013FB002385F8B83301
:10251000D4F830524FF4817295F8B833A5F8702092
:10252000012B09D001220221286885F8B82369F01F
:10253000FFFA002385F8B833D4F8183253B1D4F831
:102540001C325B689847D4F8180272F0D7FA00235F
:10255000C4F81832002038BD38B5D0F83052012107
:10256000044695F8B833A5F814128B4208D000221F
:10257000286885F8B81369F0DBFA002385F8B833CA
:10258000D4F8305240F2011295F8B833A5F854202F
:10259000012B09D001222868114685F8B82369F07B
:1025A000C7FA002385F8B833D4F8280272F0A6FAE7
:1025B0000020C4F8280238BDF8B50B780C46054653
:1025C000D0F8287213F0600632D0202E2DD14A7830
:1025D000FE2A00F09D80FF2A40F095804A88002A5C
:1025E00040F0BC80CA88002A40F0B880190600F18B
:1025F000B5804FF480731F2407F5037001213B81E0
:102600000026D5F83032C3E98A421A69C3F820029D
:10261000012AA3F81412D2B203F5057108BFC3F85A
:102620002402186869F0BCF900E000263046F8BDC5
:102630004B780A2B00F09B800B2B00F09580012B30
:10264000F4D1D0F830728A8897F8B803D1B2012853
:1026500000F0FE804FFA82FC87F8B833BCF1000F1F
:10266000C0F29F801023386803617C4B01E0013B7E
:1026700002D00269D206FAD401F07F0E002387F857
:10268000B833BCF1000FC0F29D80C1EBC1031C2226
:1026900007EB830302FB0171002283F8F8E101F5E7
:1026A000FC7183F8F92197F8B833012B0FD001237F
:1026B000386887F8B8334A78097869F039FA00231E
:1026C00087F8B83394F90430002BC0F28D802B7C4E
:1026D000002B40F094804FF4007302220121D5F8C2
:1026E000300268F093FFD5F828727B7A022B00F055
:1026F00096802279D20999D0012B97D001212846C2
:10270000FFF714F992E7022669F058F83046F8BD51
:102710004E881EBBCC88012C20D118061ED5D5F8BA
:102720002C329B699847022338604FF48071C5F8BA
:10273000F431D5F830321A691868012AD2B2C5E9E5
:1027400006441E654FF00006198703F13801DC646A
:102750005F6408BF9F6469F0A5F867E70226284612
:1027600069F02CF83046F8BD8B787B605EE7D0F8D6
:102770003032012202210437C0F8F41103F138018C
:10278000C0E90622DA644FF4807218681A871A6961
:102790005F64012A1E65D2B208BF9F6469F082F8A7
:1027A00044E701F07F0E38682C4B4FEA8E1242F05E
:1027B0002002026102E0013B3FF460AF0269920631
:1027C000F9D45BE7CEEBCE0301221C2107EB830398
:1027D00001FB0E7183F838E083F83920383197F81F
:1027E000B83393427FF463AF2B7C83B94FF400730B
:1027F00002228121D5F8300268F008FF73E74023F8
:1028000002220121D5F8300268F000FF6BE7402377
:1028100002228121D5F8300268F0F8FE63E7D5F88E
:10282000304240F201130122A4F8543094F8B83336
:1028300084F85620934208D01146206884F8B823C3
:1028400068F056FF002384F8B83300237B72EDE66E
:102850004FFA82FC01F07F0E13E700BF400D03002A
:10286000F8B5D0F82862054696F8182212B9D6F8BD
:102870001432CBB9D5F8304240F201130122A4F84A
:10288000543094F8B83384F85620934208D0114657
:10289000206884F8B82368F02BFF002384F8B8334D
:1028A000737A022B17D0F8BD747A002CE2D1D0F8DD
:1028B0003072012197F8B833A7F814128B4287F8C9
:1028C0001612D7D02246386887F8B81368F010FF80
:1028D00087F8B843CEE7D5F830021F24002206F56A
:1028E00003760121C0F82062A0F8141200F50571EA
:1028F000C0E98A420269012AD2B208BFC0F8246244
:102900000068BDE8F84069F04BB800BF70B5D0F87A
:1029100028420546267A5EB1012E07D104F21B2219
:1029200094F81912FFF740F8002831DB002070BD41
:10293000D4F81032C4F83032D4F81432C4F8343237
:10294000D0F83032B3F82C321F2B08D1334BD4F8E7
:102950000C229A4203D194F8191201291DD994F836
:102960005D324FF40051052004EBC3020133DBB2AA
:1029700082F83C02C2F840122846042B08BF00230C
:1029800084F85D3202236372FFF76AFF002070BD96
:1029900001212846FEF7CAFFC8E794F81A32013B26
:1029A0000F2BDCD804F21B22FEF7FEFF0028237A4F
:1029B00029DB013B022BB9D9618951B3D5F8282213
:1029C0000C34D2F81432D2F83402994282F83862C8
:1029D00028BF19460423401A1372D5F83032C2F8C2
:1029E00034021A69996640F20111012A1868A3F8A5
:1029F0005410D2B203F154011C66DE6608BF5C6657
:102A000068F0CEFF92E7052BC2D02846FFF728FFDB
:102A10008CE72846FEF78AFF88E700BF55534243FC
:102A200008B520B9044866F017FA044808BD044800
:102A300066F012FA014808BD90090908B82F012074
:102A4000B4090908024808B566F006FA014808BD4D
:102A5000D8090908B82F0120024808B566F0FCF92A
:102A6000014808BDE0090908B82F0120024808B54F
:102A700066F0F2F9014808BDEC090908B82F0120F9
:102A800082B006490190D1F84802D1F84832019A43
:102A90001B1A9342F9D302B0704700BF202D0120CA
:102AA0002DE9F04F002385B0DFF85C820D688C4F74
:102AB00003E00133102B00F0C48001229A4032EA77
:102AC000050402EA050CF4D14E6826F01009B9F1AC
:102AD000020F40F0B98003F007044FEAD30E4FF025
:102AE0000F0A4FEA840900EB8E0E0AFA09FADEF8A3
:102AF000204024EA0A0A0C6904FA09F406F00309E2
:102B000044EA0A04CEF820404FEA430E0324D0F8EA
:102B100000A009FA0EF904FA0EF42AEA040AE443C2
:102B200049EA0A090194C0F80090D0F808A0019C75
:102B30000AEA040ACC6804FA0EF949EA0A09C0F85C
:102B40000890C6F30019D0F804A009FA03F92AEA9C
:102B5000020249EA02024260C268019C14408A688B
:102B600002FA0EF22243C260F200A2D5D8F8442045
:102B700023F0030E03F0030942F480420EF1804E6D
:102B80004FEA8909C8F844200EF59C3ED8F8442045
:102B900002F480420392039A0F22DEF8084002FA00
:102BA00009F224EA02024F4CA04221D004F58064CD
:102BB000A04264D04C4CA04267D04C4CA0426AD09A
:102BC0004B4CA0426DD04B4CA04276D04A4CA04218
:102BD00079D04A4CA0426AD0494CA04279D0494CA5
:102BE000A0420CBF09240A2404FA09F942EA0902A6
:102BF000CEF80820F4033A686FEA0C0E03F10103E3
:102C000054BF0EEA02024CEA02023A60B2037C6848
:102C100054BF0EEA04044CEA0404F2027C60BC686F
:102C200054BF0EEA04044CEA0404BC60B402FA681F
:102C300054BF0EEA02024CEA0202102BFA607FF443
:102C40003CAF05B0BDE8F08F4FEA430E0324D0F847
:102C500000B006F0030A04FA0EF409F1FF390AFA8B
:102C60000EFA2BEA040BB9F1010F6FEA04044AEAE9
:102C70000B0A0194C0F800A03FF66EAF55E701249F
:102C800004FA09F942EA0902B2E7022404FA09F94E
:102C900042EA0902ACE7032404FA09F942EA09020C
:102CA000A6E7042404FA09F942EA0902A0E7072486
:102CB00004FA09F942EA09029AE7052404FA09F933
:102CC00042EA090294E7062404FA09F942EA0902F1
:102CD0008EE7082404FA09F942EA090288E700BFEE
:102CE000003C01400000024000080240000C02408D
:102CF000001002400014024000180240001C024074
:102D0000002002400024024000380240194A936823
:102D100003F00C03042B2AD0082B26D1516847F668
:102D2000C07C536801F03F0150685B029CFAACF232
:102D300048BF114BB2FA82F258BF104B00EA0C00A8
:102D4000B3FBF1F1D0400B4B4FF4403201FB00F0EC
:102D50005B6892FAA2F2B2FA82F203F44033D340F3
:102D600001335B00B0FBF3F0704704487047024842
:102D7000704700BF0038024000127A000024F400BF
:102D80000169826838B5044603680A43C06961690D
:102D90001D680A43B54902432940E5680A431A60A1
:102DA0005968A26921F440512943256A59602A4390
:102DB000996821F430610A43AD498B429A6043D04F
:102DC000AC4A93421CD0AC4A934200F01A81AB4A01
:102DD000934200F02A81AA4A93426AD0A94A9342B8
:102DE00000F0A980A84A934200F05E81A74A93426E
:102DF00000F07281B0F5004F00F09A80012038BDDC
:102E000002F5FA32A249D2F8902002F00C020A44EC
:102E100092F84420B0F5004F42D0082AEED801A025
:102E200050F822F0F92E0108632E0108512F0108F5
:102E3000FD2D0108D72E0108FD2D0108FD2D0108EB
:102E4000FD2D01081D2F0108924A9149D2F89020CA
:102E500002F00302013A022A1ED9B0F5004F00F039
:102E6000AF808C484FF46042856892FAA2F2B2FAC1
:102E700082F205F46045D540874A64680020294401
:102E8000D2F8942191F85410CA4002EB5402B2FBDC
:102E9000F4F292B2DA6038BD0A4492F84020B9E701
:102EA000082A45D8DFE802F06C8C5E449C44444418
:102EB000970002F5F432D2F8902002F44072B2F595
:102EC000007F42D023D89AB1B2F5807F92D1B0F57D
:102ED000004F00F08580FFF719FF03460020D4E97A
:102EE000001203EB5203B3FBF2F39BB2CB6038BD8D
:102EF000B0F5004F664943D066484FF4E05285680C
:102F000092FAA2F2B2FA82F205F4E055B3E7B2F512
:102F1000407F7FF46FAFB0F5004F5CD06168002058
:102F20004A0802F50042B2FBF1F292B2DA6038BD13
:102F300000220120FAE702F59232D2F8902002F442
:102F40004062B2F5006F40F08480B0F5004F09D0C8
:102F500061680020514A02EB5102B2FBF1F292B2D9
:102F6000DA6038BD62684E4901EB52010020B1FBC6
:102F7000F2F1C1F3420221F00F010A4392B2D5E708
:102F8000444A4FF4E050926890FAA0F0B0FA80F012
:102F900002F4E052C24064680A44610892F85400A6
:102FA0003D4AD2F89421C240002001EB4201B1FB1E
:102FB000F4F1C1F3420221F00F010A4392B2B5E7E6
:102FC000344A4FF46040926890FAA0F0B0FA80F072
:102FD00002F46042DEE76268510801F58031C5E71E
:102FE000FFF794FED4E90032540804EB40010020BE
:102FF000B1FBF2F1C1F3420221F00F010A4392B298
:1030000094E702F5F832D2F8902002F03002202A3C
:103010009BD006D8002A3FF46BAF102A3FF457AF7D
:10302000E8E6302A3FF477AFE4E602F5F632D2F86C
:10303000902002F0C002802A87D006D8002A3FF4F0
:1030400057AF402A3FF443AFD4E6C02A3FF463AF02
:10305000D0E605D832B3B2F5806F3FF438AFC9E699
:10306000B2F5406F3FF457AFC4E600BFF369FFEF1E
:10307000001001400044004000480040004C004067
:10308000005000400014014000780040007C0040E7
:10309000B05B080800380240000001200024F40062
:1030A0000048E8011849D8E602F5E032D2F890204D
:1030B00002F44052B2F5005F3FF447AF07D8002A50
:1030C0003FF416AFB2F5805F3FF401AF92E6B2F580
:1030D000405F3FF420AF8DE602F5DE32D2F890205B
:1030E00002F44042B2F5004F3FF42FAF07D8002A58
:1030F0003FF4FEAEB2F5804F3FF4E9AE7AE6B2F5AA
:10310000404F3FF408AF75E6B05B08088848894A2D
:103110008949121A30B5A5B06FF050FB874A884B29
:103120000021D2F88840874844F47004C2F88840EF
:103130001C6844F001041C6099601C682040824CAB
:1031400018605C601868814C20F480201860D96099
:103150009460BFF34F8FBFF36F8FC2F85012BFF36D
:103160004F8FBFF36F8F516941F400315161BFF34D
:103170004F8FBFF36F8F196C754A41F080511964FE
:10318000196C01F0805101910199116841F440419D
:103190001160126802F440420092009A9A6802F0AC
:1031A0000C02042A00F099809A6802F00C02082AA6
:1031B00000F08F80624A674C136843F480331360D9
:1031C000D4F8481204E0D4F848325B1A642B7FD854
:1031D00013689803F7D55A4A936803F00C03082B39
:1031E00076D0136823F080731360D4F8481204E09B
:1031F000D4F848325B1A022B6AD813689B01F7D4C3
:1032000047F6C07393FAA3F34FF44031B3FA83F057
:1032100091FAA1F14FF0706191FAA1F14FF4D873D6
:10322000B1FA81F18340092088404B490343194397
:10323000434B5160116841F080711160D4F848121D
:1032400004E0D4F84822521A022A41D81A6895019B
:10325000F7D5196C3E4A41F0805119641B6C03F09C
:1032600080530293029B136843F480331360D4F8B5
:10327000481206E0D4F848325B1AB3F57A7F00F2C0
:10328000D5805368D803F5D51368314943F400332A
:103290001360D4F8482206E0D4F848329B1AB3F5FC
:1032A0007A7F00F2C3804B689B03F5D54FF4001280
:1032B0004FF000634FF4C07103A8039207222293DA
:1032C0000323CDE908120B93FDF754FC48B1FEE748
:1032D000FEE75B685C027FF56DAF194B1D4C1B6808
:1032E00079E71E4A136803F00F03062B0BD8136807
:1032F00023F00F0343F007031360136803F00F0379
:10330000072B40F092800E4B9A6822F0F0029A60F0
:103310001A68950140F189809A6841F2883022F05C
:10332000030242F002029A60D4F848121DE000BF86
:1033300000000000282D0000DC83090800ED00E0FB
:1033400000380240FFFFF6FE1030002400000008A5
:1033500000700040202D012008004020003C024069
:10336000D4F84822521A82425FD89A6802F00C02BE
:10337000082AF5D1524A136818070AD5136823F0B2
:103380000F0343F007031360136803F00F03072BC9
:103390004BD14C4CA36823F4E05343F4A053A360F7
:1033A000A36823F4604343F40043A360FFF7AEFC3B
:1033B000A368F02191FAA1F2B2FA82F403EA0102C1
:1033C000414DE240414B424C2A4492F85C2020FAA5
:1033D00002F2A3FB0203C4F894219B09013BB3F161
:1033E000807F09D24FF0E02253613A4B83F82310DB
:1033F00000239361072313614FF0FF30002165F034
:1034000057FF0023344A03A8CDE914330392CDE9D2
:103410001633CDE91833CDE91A33CDE91C33CDE9A4
:103420001E33FDF7A7FB10B1FEE7FEE7FEE7254BD5
:10343000D3F88C2022F08072C3F88C20D3F88C2033
:1034400042F08072C3F88C209A6802F00C02042AC1
:1034500031D0082A14D0214BC4F89431194AD4F839
:10346000943192681E49C2F30312154495F85C200A
:10347000D3408B42C4F8943100D0FEE725B030BD74
:1034800059685A6849025B6802F03F0248BF154913
:10349000C3F3881358BF1149B1FBF2F202FB03F3E7
:1034A000084A5268C2F3014201325200B3FBF2F300
:1034B000C4F89431D2E70B4BC4F89431CEE700BF87
:1034C000003C024000380240B05B0808D34D621057
:1034D0000000012000ED00E0C0FF03000024F40024
:1034E00000E6DF0C00127A002DE9F8430668054675
:1034F0008846C6F30E041CBB554B9E423AD3554B2F
:103500009E4236D9544B9E42C0F09680534B9E4209
:1035100040F2948003F500339E4240F2918003F51F
:1035200080239E4240F28E8003F580239E4240F22B
:103530008B80B6F1016FC0F0898005200DF036FA5E
:10354000474F97F8AC33012B0FD00123D1F80090EF
:1035500087F8AC3365F054FE8046002846D000233F
:103560006FF0010087F8AC3301E06FF00100BDE8B7
:10357000F88301243A4F97F8AC33012B59D001233B
:1035800087F8AC3365F03CFE00284FD1354E7823E8
:10359000326922F440723261326942F4007232615F
:1035A000326922F0F802326193FAA3F3B3FA83F39B
:1035B0009C4033691C4344F002043461336943F492
:1035C00080333361BFF34F8F65F01AFE336923F008
:1035D0007A03336150BB0123D8F800902E6887F836
:1035E000AC3365F00DFE80460028B8D11D4C236930
:1035F00023F440732361236943F400732361236937
:1036000043F001032361C6F80090BFF34F8F65F0CC
:10361000F7FD236923F00103236187F8AC830028B9
:10362000A3D12B6804332B60BDE8F883002387F80F
:10363000AC334FF0FF309AE702249BE7032499E76D
:10364000042497E7052495E7062493E7072491E7E8
:1036500000800008FFFF000800800108FFFF01084C
:10366000202D0120003C02400148FCF713BE00BFA2
:10367000D8300120084810B4D0F8B833D0F8EC4363
:1036800099691A682CB1234600F56E705DF8044BF9
:1036900018475DF8044B7047202D01200148FCF7C6
:1036A000F9BD00BF28310120084810B4D0F8083413
:1036B000D0F83C4499691A682CB1234600F5816022
:1036C0005DF8044B18475DF8044B7047202D01202E
:1036D0000148FCF7DFBD00BF78310120084810B475
:1036E000D0F85834D0F88C4499691A682CB1234624
:1036F00000F58B605DF8044B18475DF8044B70478C
:10370000202D01200148FCF7C5BD00BFC8310120B4
:10371000084810B4D0F8A834D0F8DC4499691A6885
:103720002CB1234600F595605DF8044B18475DF811
:10373000044B7047202D01202DE9F04FDFF888B3AE
:1037400000EB4004430083B00BEB84040193D4F8F6
:103750009831002B00F07981814694F89E0165F044
:10376000A9FB94F89C010AF0BDF8064694F89D0167
:103770000AF0B8F809F101038046DBB2002E00F030
:10378000878140F60C123372F280002800F07681B7
:10379000037240F60C23C3803368B2889A61D8F86C
:1037A0000030B8F804209A611121304609270AF048
:1037B00051F8112140460AF04DF86525002E00F021
:1037C00047813268B3881169194200F041811B04B6
:1037D00093610CF00FFD04460D460CF00BFD001B31
:1037E00061EB0501052871F10003F6D316B13368CA
:1037F000B2889A610CF0FEFC04460D460CF0FAFC0F
:10380000001B61EB0501052871F10003F6D3013FB0
:10381000D3D11EB1B38832681B0493610CF0EAFC6B
:1038200004460D460CF0E6FC001B61EB0501052883
:1038300071F10003F6D3B8F1000F05D0B8F80430E9
:10384000D8F800201B0493610CF0D4FC04460D460C
:103850000CF0D0FC001B61EB0501052871F10003A1
:10386000F6D316B13368B2889A610CF0C3FC0446F3
:103870000D460CF0BFFC001B61EB0501052871F142
:103880000003F6D3B8F1000F04D0D8F80030B8F830
:1038900004209A61019B30463E21874C03EB0907C7
:1038A00009EB89064FEA89050BEB870704EB06163F
:1038B00097F8A22109F0F2FF97F8A22140463E2195
:1038C00009F0ECFFD7F898314FF4E052C6F8B8335E
:1038D0007A4B9B6892FAA2F2B2FA82F203F4E053B6
:1038E0007749D34097F89F21DBF894010B44022AD3
:1038F00093F8543020FA03F000F0C480032A00F05B
:10390000D480012A14BF4FF4C8714FF4487165F098
:10391000F5FAC6F8BC0305EB0903002204EB031318
:10392000C3F8C023C3E9F222C3E9F5220122C3F898
:10393000C42393F8F92302F0FF01002A00F0B280BB
:1039400005EB0902242704EB0212D2E9EE3182F8DA
:10395000F973186821F0706120F001001860196196
:10396000996821F4004199604FF40041996001F198
:103970000071586801435960D2F8D013D868090221
:1039800020F40040D860D96000211960186840F028
:10399000010018602020C2F8FC1382F8F903C2F875
:1039A000E81382F8FA1392F8F9032028C6B217D167
:1039B00092F8F803012813D082F8F973186820F000
:1039C00001001860186820F48050186018681860AA
:1039D000186840F00100186082F8F96382F8F81363
:1039E000019B022103EB09060BEB860696F9A10168
:1039F00065F05EFC96F9A13196F8A121002B07DB5A
:103A000002F01F0101225B098A402E4941F8232060
:103A1000019B02214B440BEB830B9BF9A00165F04A
:103A200047FC9BF9A0319BF8A021002B07DB02F09B
:103A30001F0101225B098A40224941F823204D449D
:103A4000012304EB051484F8B43303B0BDE8F08F10
:103A5000013D0DD00CF0CEFB04468A460CF0CAFBAB
:103A6000001B61EB0A01052871F10003F6D3A5E6FE
:103A7000002E3FF4AEAE3268B388A8E63368B28851
:103A80009A6191E6642165F039FAC6F8BC0342E711
:103A900000283FF489AE88F8083040F60C23A8F8D7
:103AA00006307CE683F8F8134AE7C82165F026FA69
:103AB000C6F8BC032FE700BF202D012000380240CC
:103AC000B05B080800E100E0000001202DE9F04FA4
:103AD000441C83B09DF834A000F0BA800446BC4D6D
:103AE00000EB80004FEA840905EB001090F8B483E6
:103AF000B8F1000F00F0AE80002B18BFFF2A0CBFFA
:103B0000012600261AEA060A40F0A88090F8F96318
:103B1000202E40F01D819FB2002B00F0198190F8FB
:103B2000F833012B00F014810123D5F8486280F8A6
:103B3000F833D0F8B80305E0D5F848329B1B192BB1
:103B400000F21581836913F40043F5D109EB040AEF
:103B50004FF0210E4FF0400C019205EB0A1B8BF841
:103B6000F9E3CBF8EC338BF8FAC3CBF8FC330C9BBE
:103B7000ABF8E2734F00CBF8DC33436823F07F737C
:103B800023F4593323F47F7323F0030343EA4103FF
:103B9000904901EB0A1A9049194341603146504659
:103BA00065F004FB019A002840F0ED80DBF8B813C3
:103BB0008A6205E0D5F84822921B0A2A00F2B681F3
:103BC0008B6913F08003F5D009EB040205EB0212B8
:103BD000B2F8E2339BB2FF2B40F28D814B687F48F5
:103BE00003407F483B431843FF23A2F8E03348607B
:103BF00009EB040305EB031B019305E0BBF8E2337B
:103C00009BB2002B00F087813146504665F0CEFA1A
:103C1000002840F09780DBF8DC13DBF8B823481C61
:103C2000BBF8E033CBF8DC03013B09789BB291622F
:103C3000BBF8E213ABF8E033013989B2ABF8E21319
:103C4000002BDBD1BBF8E2339BB2002BD6D0D0E007
:103C50004FF00008404603B0BDE8F08F90F8F9231C
:103C6000202A75D190F8F823012A71D00122D5F8C5
:103C700048B280F8F823D0F8B80306E0D5F8482217
:103C8000A2EB0B02192A00F20F81826912F40042A2
:103C9000F4D14F0009EB04010C9E9BB205EB01111E
:103CA000C1F8DC632126C1F8EC2381F8F963102602
:103CB00081F8FA63C1F8FC23A1F8E233B1F8E233EA
:103CC0009BB2FF2B40F2E0804368444A1340454AD0
:103CD0003B431A43FF23A1F8E033426009EB04069B
:103CE0003C4B03EB061805EB0616B6F8E2339BB225
:103CF00033B9E6E0B6F8E2339BB2002B00F0E18086
:103D00005946404665F052FAE0B9D6F8DC23D6F8B9
:103D1000B813501CB6F8E033C6F8DC03013B127848
:103D20009BB28A62B6F8E223A6F8E033013A92B277
:103D3000A6F8E223002BDDD1B6F8E2339BB2002BCC
:103D4000D8D031E009EB040305EB0313D3F8FC33BF
:103D5000B5F8F4344FF00008204601339BB2A5F8C3
:103D6000F434FFF7E9FC404603B0BDE8F08FA1440E
:103D70000023202205EB091989F8F92389F8F83383
:103D800089F8FA33E4E7DBF8FC33A14405EB0919C1
:103D9000D9F8FC33002389F8F833D9E7D5F848225D
:103DA000A2EB0B020A2A58D88B6913F08003F5D0D6
:103DB000B6F8E2339BB2FF2B2FD94B68074A13406A
:103DC000074A3B431A43FF23A6F8E0334A6091E7D2
:103DD000202D0120D830012000200101009800FC96
:103DE0000000FF010020FF01D5F848329B1B0A2B81
:103DF0003FD8906910F08000F6D0BBF8E2339BB258
:103E0000FF2B1AD9536857490B4057493B43194375
:103E1000FF23ABF8E0335160F0E6B6F8E2335148E7
:103E20009BB24A68A6F8E033DBB2024047EA03439C
:103E3000134343F000734B605CE7BBF8E23349483F
:103E40009BB25168ABF8E033DBB2014047EA034371
:103E50000B4343F000735360D0E6A144194620237E
:103E600005EB091989F8F93389F8F81389F8FA1379
:103E70006EE7A144202305EB091989F8F93389F885
:103E8000F80389F8FA0363E7B1F8E23342689BB2BA
:103E9000A1F8E033DBB2334947EA03430A40134356
:103EA000324A1A43426019E709EB04030022202139
:103EB00005EB031383F8F91383F8F82383F8FA2347
:103EC00046E75946404665F047F900287FF43AAF87
:103ED0004C442021D04605EB0415254CD5F8B833C9
:103EE000D9615A6822405A6085F8F91385F8F803B9
:103EF00085F8FA03AEE6B2F8E2331A489BB2A2F8AC
:103F0000E033DBB24A6847EA03430240134343F01D
:103F100000734B606CE63146504665F01DF9019B1D
:103F200070B105EB031BDBF8FC3311E709EB04026E
:103F3000202105EB021282F8F91382F8FA3324E704
:103F4000DBF8B82320240A4E05EB0315D461516831
:103F5000314051608BF8F94385F8F8038BF8FA0388
:103F600078E600BF009800FC0000FF01002000027E
:103F700000E800FE2DE9F04F054683B0681C9DF86F
:103F8000347000F04C810846C54C05EB8501AE004D
:103F900004EB011191F8B493B9F1000F00F08780A0
:103FA000FF2A14BF002707F001070097002F00F039
:103FB000828091F8F923202A6ED191F8F823012A02
:103FC0006AD00122D4F8488281F8F823D1F8B813D6
:103FD00006E0D4F84822A2EB0802192A00F2A181D7
:103FE0008A6912F40042F4D14FEA400970194FF087
:103FF000220C9BB204EB00100C9F80F8F9C34FF029
:10400000100CC0F8DC7380F8FAC3C0F8FC23A0F8E9
:10401000E233B0F8E233C0F8EC239BB2FF2B40F25E
:104020008F814B689F4A13409F4A43EA09031A4312
:10403000FF23A0F8E0334A6006EB050A9B4B03EB35
:104040000A1B04EB0A1ABAF8E2339BB2002B00F009
:10405000BA81DAF8B8730DE0DAF8B873BB6913F017
:10406000200340F02781D4F84822A2EB08020A2A54
:1040700000F23881BB69414658465B0700F1D580A4
:10408000BB69DA06EAD565F029F80028E4D073198F
:1040900004EB0313D3F8FC33B4F8F43428464FF0A0
:1040A000000901339BB2A4F8F434FFF745FB4846FE
:1040B00003B0BDE8F08F91F8F9735FFA87FC0C9FAD
:1040C000002FE9D0BCF1200FE6D191F8F873012F51
:1040D000E2D00127D1F8B8C381F8F873D4F84812B8
:1040E00005E0D4F848727F1A192F00F21A81DCF823
:1040F000187017F40047F4D106EB050E9BB24FF091
:10410000220A4FF0400B04EB0E180192009188F840
:10411000F9A388F8FAB3C8F8FC73A8F8E2330C9B4B
:10412000C8F8EC73C8F8DC335E4FDCF804303B4071
:10413000470043EA400343F49033CCF804305B4B30
:1041400003EB0E1A504665F031F8DDE90012002845
:1041500040F00681D8F8B803826205E0D4F848221E
:10416000521A0A2A00F26C81836913F04003F5D0D9
:10417000721904EB0212B2F8E2339BB2FF2B40F249
:104180004D814368DFF81CC103EA0C03DFF818C156
:104190003B4343EA0C0CFF23A2F8E033C0F804C011
:1041A00006EB050BDFF8FCC04FF0FF0E04EB0B181D
:1041B000D8F8B80305E0D4F84822521A0A2A00F2C7
:1041C000DA80836913F00403F5D0D8F8DC33426A4F
:1041D000581CC8F8DC031A70B8F8E033B8F8E223CA
:1041E000013B013A9BB292B2A8F8E033A8F8E2236F
:1041F0002BB9B8F8E2339BB2002B40F0C780B8F877
:10420000E2339BB2002BD3D1504664F0A5FF0028C7
:1042100000F01F8104EB0B1BDBF8FC333CE74FF095
:104220000009484603B0BDE8F08FDAF8DC337A6A5B
:10423000591CCAF8DC131A70BAF8E033BAF8E22352
:10424000013B013A9BB292B2AAF8E033AAF8E2230A
:10425000002B7FF4F8AEBAF8E2339BB2002B3FF4A8
:10426000F2AEDAF8B81305E0D4F84822A2EB08025F
:104270000A2A62D88B6913F08003F5D0BAF8E233CA
:104280009BB2FF2B3DD94B68064A1340084A43EACC
:1042900009031A43FF23AAF8E0334A60D3E600BFBC
:1042A000202D0120009800FC0024FF01D8300120BF
:1042B0000000FF0120216F4AF9617B681340002252
:1042C0007B60731904EB0313C3F8FC2383F8F82312
:1042D00083F8F91383F8FA23731904EB0313D3F863
:1042E000FC33D9E6721904EB021282F8F833D2F8E3
:1042F000FC3343F02003C2F8FC33202382F8F93367
:10430000C5E6BAF8E2335C489BB24A68AAF8E033E3
:10431000DBB2024049EA0343134343F000734B60AE
:1043200091E67319002204EB0313202183F8F8238C
:1043300083F8F91383F8FA23AEE61A467319F2E705
:10434000B0F8E2334A689BB2A0F8E033DBB24A48E7
:1043500049EA034302401343484A1A434A606BE662
:10436000D8F8FC33731904EB0313D3F8FC230022B1
:1043700083F8F82390E67219202104EB021282F8E8
:10438000F91382F8F83382F8FA3385E6D8F8B803DF
:1043900004E0D4F84822521A0A2AECD8836913F0B0
:1043A0008003F6D0B8F8E2339BB2FF2B26D94368DE
:1043B000A8F8E0E303EA0C033B4343F0FF7343F444
:1043C000803343601BE74146584664F0C5FE002831
:1043D0007FF45DAE35442021DDF8009004EB051438
:1043E000244DD4F8B833D9615A682A405A6084F809
:1043F000F91384F8F80384F8FA0358E6B8F8E233BE
:1044000042689BB202EA0C02A8F8E033DBB247EA4A
:104410000343134343F000734360F0E6B2F8E23322
:10442000DFF854C09BB2A2F8E033DBB2426847EA3F
:10443000034302EA0C021343104A1A434260AFE6F8
:104440007219202104EB021282F8F91382F8FA3370
:1044500088E7D8F8B8332021064D04EB0B14D96156
:104460005A682A405A6088F8F91384F8F80388F8E3
:10447000FA031CE600E800FE009800FC002400029D
:104480000348D0F8D43113B100F5E47018477047F1
:10449000000001200348D0F8F43113B100F5F470A6
:1044A00018477047000001200348D0F8143213B1B8
:1044B00000F5027018477047000001200348D0F84B
:1044C000343213B100F50A7018477047000001201C
:1044D0000348D0F8543213B100F5127018477047F2
:1044E000000001200348D0F8743213B100F51A70AF
:1044F00018477047000001200348D0F8943213B1E8
:1045000000F5227018477047000001200348D0F8DA
:10451000B43213B100F52A7018477047000001202B
:104520000348D0F8D43213B100F532701847704701
:10453000000001200348D0F8F43213B100F53A70BE
:1045400018477047000001200348D0F8143313B116
:1045500000F5427018477047000001200348D0F86A
:10456000343313B100F54A7018477047000001203A
:104570000348D0F8543313B100F552701847704710
:10458000000001200348D0F8743313B100F55A70CD
:1045900018477047000001200348D0F8943313B146
:1045A00000F5627018477047000001200348D0F8FA
:1045B000B43313B100F56A7018477047000001204A
:1045C00010B4446844F480544460DBB140F2E93CE8
:1045D00002E0BCF1010C19D08468A407F9D5AAB394
:1045E00012F8014B40F2E93C047302E0BCF1010C0B
:1045F0000CD08468E407F9D5C46809B101F8014B0F
:10460000013BE3D101205DF8044B7047144B984205
:104610000DD0A3F5784398421CD003F580639842EF
:104620001BD003F57843984212D14FF0030C0D4B89
:104630000CEB8C0C002003EB8C0CBCF8D833013352
:104640009BB2ACF8D8335DF8044B7047FF24C9E740
:104650000020F8E74FF0010CE9E74FF0020CE6E725
:1046600000300140000001202DE9F041314A82B0C4
:10467000314D00240746036801E052F83450AB4244
:104680000AD001340E2CF8D100212C4A05200191CA
:1046900004F000F8019B18E0294B03EB8408D8F8DC
:1046A000F864B6B178790021431C00EB400203EBBB
:1046B000430306EBC202DB00D760C2E90411F154E8
:1046C000182303FB006606F10803184602B0BDE894
:1046D000F0810721682004F0BFF8C8F8F80400B39F
:1046E0006822314670F012FA1248D8F8F8143346AE
:1046F00000EBC404104A89600962896309650C6093
:1047000001E050F83320954205D001330E2BF8D14B
:104710004E600E46C6E70B4E06EB83164E600E4605
:10472000C0E701460190084A052003F0B3FF019B52
:10473000CBE700BF1C5C080800000140FC09090829
:10474000202D012050320120240A09082DE9F043D0
:10475000002587B0382223482946234F234E244C76
:1047600070F0D4F957F825103246002301E054F8D0
:104770003320914230D001330E2BF8D10020053583
:1047800064F098FB372DEDD1DFF85C900025DFF861
:104790006880184F09F1DC0699F8040009F1140942
:1047A00009F0A0F8044690B103683B4408EB93235A
:1047B00093F8DC0064F07EFBA2880223206801A944
:1047C0000595CDE90125CDE90335FEF769F9B14538
:1047D000E2D107B0BDE8F083074A02EBC30393F8C8
:1047E0007000CCE7183201201804012000000140BD
:1047F0001C5C08080000FEBFB05B080830B40C4C1D
:104800000022234603E0013214330B2A0CD093F824
:1048100004C08445F7D1DD68294201D10029F2D1D5
:10482000142000FB024000E0002030BC704700BFB5
:1048300018040120036807EE902A59480139F8EE60
:10484000677ADFED586A90ED657A1A68B8EE477AB4
:1048500070B587EE270A5C6884B015688EB230EEBA
:10486000260A6BF0BDF923680138AB4280B272D0E2
:104870000023802194F83D20E660A360A161C4E993
:104880000050C4E90433002A00F083800223211D74
:10489000284684F83D30FBF799FE434B01229D42A8
:1048A00084F83D205ED0B5F1804F5BD0A3F57C430A
:1048B0009D4210D003F580639D420CD03B4A03F526
:1048C0007C439D4218BF954205D003F570539D422D
:1048D00001D004B070BD94F83C30012BF9D02368AE
:1048E0000222334984F83D209A681140314A996088
:1048F00099680A4001219A602F4A84F83D100021EE
:10490000954284F83C100AD002F58062954206D0A8
:104910002A4A954203D0A2F578429542D9D194F81B
:104920003C10002201290392CDE90122D1D01E487A
:104930005A68834299682FD000F5806083422BD05B
:1049400022F0700221F0800100205A60996084F802
:104950003C0004B070BD6368834289D1E368B34210
:1049600086D1B6E794F83C30012BB2D02368022000
:104970000F4984F83D0098680E4A01400120996073
:1049800099680A4000219A6084F83D0084F83C1040
:10499000C5E784F83C2079E722F47002D0E700BF35
:1049A000000001200AD7233C00000140000C004019
:1049B0008800FEFFF8FFFEFF0004004000040140F5
:1049C000F0B44468A37913F002025AD19446036804
:1049D00064795B68A248204493F83C40012C90F82D
:1049E000E4004CD0012483F83C40022483F83D408D
:1049F00014283ED8DFE810F049003D003D003D009E
:104A000072003D003D003D00C2003D003D003D0004
:104A10009B003D003D003D00E9003D003D003D00A4
:104A2000150018688F4E046AB04224F480140462A2
:104A3000046A456824F40014476D44EA02528A4C23
:104A400004EA070444F4C04400F0E68006F58066FA
:104A5000B04200F0E18045604465C1650262426D8C
:104A600042F400624265426D22F480624265426D0A
:104A700042650121002283F83D1083F83C20F0BC00
:104A8000704702224FF0080CA1E71868774D046ABE
:104A9000744E24F00104B0420462046A24F002045B
:104AA00042EA04024468876905EA070545F06005A3
:104AB00000F0B88006F58066B04200F0B380446034
:104AC000856141630262826942F008028261826903
:104AD00022F00402826182698261CAE71868644D2B
:104AE000046A604E24F01004B0420462046A24F0A8
:104AF000200444EA02124468876905EA070545F480
:104B0000C04500F09B8006F58066B04200F09680BC
:104B10004460856181630262826942F4006282615D
:104B2000826922F48062826182698261A1E71868E9
:104B30004C4E046AB04224F480540462046A45680E
:104B400024F40054C76944EA0232494C04EA0704D9
:104B500044F4C0446FD006F58066B0426BD0456027
:104B6000C46101640262C26942F40062C261C26946
:104B700022F48062C261C269C2617AE718683B4D63
:104B8000046A384E24F48074B0420462046A24F447
:104B9000007444EA02224468C76905EA070545F043
:104BA000600554D006F58066B04250D04460C561BF
:104BB000C1630262C26942F00802C261C26922F0A6
:104BC0000402C261C269C26153E71868254E046AD3
:104BD000B04224F480340462046A456824F400344A
:104BE000476D44EA0242234C04EA070444F060049F
:104BF00015D006F58066B04211D0456044658165E8
:104C00000262426D42F008024265426D22F00402E7
:104C10004265426D42652CE745F480251BE745F46B
:104C20008035EAE722F0080244F440744CEA0202BC
:104C300022F0040243E745F4804590E722F0800229
:104C400044F4406442EA0C1222F0400260E722F48D
:104C5000006244F4405442EA0C2222F48062A5E748
:104C6000B05B080800000140FF8FFFFE8CFFFEFFD5
:104C7000FF8CFFFE8FFFFEFF42685379032B0FD896
:104C8000DFE803F00B080502106840307047106839
:104C90003C307047106838307047106834307047C7
:104CA0000020704743689A7952071CD512490422A4
:104CB00010B404685879636801445DF8044B1B68BC
:104CC00091F8E400196A824021EA02011962196A26
:104CD0000A431A625A6C42F400425A641A6842F05B
:104CE00001021A607047044A5B79016813444868FE
:104CF00093F8E41066F0B2BFB05B0808F0B5446802
:104D0000364A2469C368C4F303245B6852F82460FC
:104D1000EFF31184102585F312884568304F95F81C
:104D200005E0D0F80CC002EB4E02D5F800E0128C82
:104D300002F4F055DEF80C2022EA0502CEF80C2031
:104D400017F806E0DCF8102053F80E501F2A25F063
:104D5000010543F80E5036D9203A2025DCF804C06E
:104D600005FA02F2CCF80C20E2B282F31188BA5DA7
:104D70001C4C03EB020C46684569DCF804703C40AF
:104D80000C43CCF804407179032924D8DFE801F002
:104D90001815120231684031CCF80C500124CCF8BF
:104DA0000810995841F01001995099582143995091
:104DB0000474F0BD31683C31EEE731683831EBE71F
:104DC00031683431E8E72025DCF804C005FA02F246
:104DD000CCF80820C8E70021DEE700BFB05B080878
:104DE000E85C08080000FFFF03681A7E012A29D04A
:104DF000002293F83010012904D1022142F480628C
:104E000083F8301093F84810012905D093F860100A
:104E100001290AD072B97047022142F4006283F876
:104E2000481093F86010012904D1022142F4805205
:104E300083F860101B6800211B685962D9680A4317
:104E4000DA60704702214FF400721976D1E700BF93
:104E5000024B0348D3F8F814FCF778BA202D012050
:104E60000000014010B5064C0648D4F8F814FCF7D1
:104E70006DFAD4F81C150448BDE81040FCF766BA7A
:104E8000202D01200000014000440140034B4FF061
:104E90008040D3F8FC14FCF759BA00BF202D012044
:104EA000024B0348D3F80015FCF750BA202D01201F
:104EB00000040040024B0348D3F80415FCF746BA3F
:104EC000202D012000080040024B0348D3F80815AC
:104ED000FCF73CBA202D0120000C0040024B034897
:104EE000D3F81415FCF732BA202D0120000401403C
:104EF00010B5064C0648D4F81415FCF727FAD4F878
:104F000028150448BDE81040FCF720BA202D0120E8
:104F100000040140001C004010B5064C0648D4F8BF
:104F20001415FCF713FAD4F82C150448BDE810400A
:104F3000FCF70CBA202D01200004014000200040A5
:104F4000024B0348D3F81815FCF700BA202D0120B6
:104F500000400140024B0348D3F82015FCF7F6B996
:104F6000202D012000480140024B0348D3F82415AE
:104F7000FCF7ECB9202D012000180040704700BF5D
:104F800030B501208FB009F057FB012800F0BB803D
:104F900062494FF6FF04624AC868624B2040624C87
:104FA000624D0243CA605A6F1A6B42F480221A6340
:104FB0001A6B02F480220D920D9A1A6B42F4801241
:104FC0001A631A6B02F480120C920C9A1A6B42F458
:104FD00080021A631A6B02F480020B920B9A1A6B0E
:104FE00042F000521A631A6B02F000520A920A9AB7
:104FF0001A6B42F080421A631A6B02F080420992E7
:10500000099A1A6C42F400321A641A6C02F40032E3
:105010000892089A1A6C42F480221A641A6C02F4FC
:1050200080220792079A1A6C42F400221A641A6CC2
:1050300002F400220692069A1A6C42F480121A6454
:105040001A6C02F480120592059A1A6C42F08042A2
:105050001A641A6C02F080420492049A1A6C42F0AC
:1050600000421A641A6C02F000420392039A5A6CCE
:1050700042F010025A645A6C02F010020292029A34
:105080005A6C42F020025A64586CD4F8942100F013
:10509000200001900198586C40F4006058645B6CEB
:1050A000234803F400630093009BD1F8FC40214B9C
:1050B00044F08074C1F8FC40A3FB024300249B0C25
:1050C000C5F8B0381C4BC0F8B03F1C4B4460A3FB84
:1050D000022302689B0942F00102013B0260B3F126
:1050E000807F08D24FF0E022F0205361072381F83F
:1050F0002300946113614FF0E022136943F004032D
:1051000013610FB030BD002109F09CFA0C4B1A68F6
:1051100082F308885B689847FEE700BF00ED00E077
:105120000003FA050038024000000120202D012074
:10513000001000E083DE1B4355CEACC5D34D62109A
:105140000000F01F2DE9F041364E984606EB800333
:10515000D3F8E840002C61D004F1AE0306F5847664
:105160000546E160A36104F5D77366601746E36105
:105170004FF4807394F8AD00261DC4E9043323680E
:10518000C4F8A830A36308F0ADFB18F0080F1DD1D8
:10519000BA0794F8AC8032D4FB0724D4D4F8B81200
:1051A00094F9B70264F084F894F9B73294F8B7220E
:1051B000002B08DB02F01F0201215B091A4801FAEB
:1051C00002F240F823203046BDE8F0810135EDB20F
:1051D00018B140F206730572C38094F8B62202211A
:1051E00008F05CFBDAE70135404608F07BFBEDB2E6
:1051F0000028F2D040F206630572C380EDE76B1C15
:10520000DBB218B1037240F20653C38094F8B622A1
:10521000022108F043FBFB07C0D5E4E726463046F1
:10522000BDE8F081B05B080800E100E00148FCF750
:1052300091B900BFF80401200148FCF78BB900BF09
:10524000B40701200148FCF785B900BF700A0120AE
:105250000148FCF77FB900BF2C0D01200148FCF785
:1052600079B900BFE80F01200148FCF773B900BF0E
:10527000A41201200148FCF76DB900BF60150120A0
:105280000148FCF767B900BF1C180120426B2421BC
:10529000002370B580F89D1004461168806804F101
:1052A000340521F001011160136053609360A1790E
:1052B000A0638802C4F8A03084F89C3000F48050C9
:1052C00084F89D30E364E063080384F89E3000F4C2
:1052D00000506365A36420640802637900F4806071
:1052E00013F00106606401D00420A06413F00203EF
:1052F00003D0A06C40F00800A064C80709D5002EB8
:1053000065D13BB3A36D43F00103A3654FF40033B4
:10531000E365090720D5242394F89D10284684F8D6
:105320009D30136823F001031360FDF729FD012868
:1053300033D0A36D002B56D1636B28465A6822F4F4
:1053400090425A609A6822F022029A609A6842F06B
:1053500008021BE00B07DED4242394F89D10284696
:1053600084F89D30136823F001031360FDF708FDF6
:10537000012812D0A36D002B31D1636B28465A68E7
:1053800022F490425A609A6822F02A029A601A68BF
:1053900042F001021A6066F0F5FB6279D5070DD57F
:1053A000D4F8A430196841F480711960996841F00B
:1053B00001019960196841F020011960900705D535
:1053C000D4F8A420136843F08003136070BDA06D6F
:1053D00040F00200A0654FF48030206691E7284637
:1053E000FBF788F9C9E72846FBF784F9A4E700BF73
:1053F00081604BE7417149E710B51C2008F072FA53
:105400000446112108F026FA54B1A388C820226866
:105410001B0493610AF01CFF2368A2889A6110BDE7
:10542000C820BDE810400AF013BF00BF2DE9F04FBF
:10543000874D87B0D5F8B448636913F00103019331
:1054400002D007B0BDE8F08F6269A3691A42F8D0B4
:105450006369A26913409E0701D5022363616369F2
:10546000A2691340180377D423465A6999690A4000
:10547000560300F1DC8059699A69114200F1C2803B
:105480005A6999690A40110507D5D4F80828D20746
:1054900000F1BF814FF400625A615A6999690A406C
:1054A00017010FD54FF000625A6195F8A02C002A21
:1054B00040F07981012285F8A02C5A6DC2F3830255
:1054C000C5F8A42C5A6999690A40D60400F12582CE
:1054D0005A6999690A40910400F1B6815A6999693B
:1054E0000A40D20612D59A6922F010029A61226A05
:1054F000C2F3434102F00F00022900F05E81062949
:1055000000F091839A6942F010029A615A69996990
:105510000A40170700F16C825A6999690A40D6025D
:1055200000F162825A6999690A40940200F1588236
:105530005A6999690A40500000F14E825A69996986
:105540000A4051077FF57DAF5C68620700F16B810F
:105550005A6814435C6074E7D4F81868D4F81C38AF
:105560001E40360C80D004F53067DFF8E880234613
:105570004FF0000BA24608E076080BF1010B07F193
:10558000200708F11C0800F03C82F107F4D503F570
:1055900030625FFA8BF103F5006302EB411294680D
:1055A0005B691C40E2071FD50123D5F8C408984267
:1055B000BB600CD13B69D8F80022C3F31203D31AA5
:1055C000C8F81032D8F804321344C8F80432D5F8B9
:1055D000B03C002940F06982D3F8F421032A00F09E
:1055E000C382012800F01385230700F10E82E20632
:1055F00001D51023BB60A30601D52023BB60D5F8DD
:10560000B438B9E7D4F8042822F00102C4F8042819
:1056100095F8A02C012A00F01381D5F8B02C92F84F
:10562000FD1182F8FC114FF000425A6128E7D3F8CF
:105630001878D3F81C281740BFB2002F3FF41BAFD7
:105640000022044E04F51068029491460DE000BF5C
:10565000202D0120D43501207F0809F1010906F130
:105660001C0608F1200800F0CE81F807F4D5D3F825
:1056700010285FFA89FAD3F8344824FA0AF4E401CE
:10568000E4B2144303F5106202EB4A12926814402C
:10569000E10729D502980121D0F8342801FA09F14F
:1056A00022EA0102C0F834280122D5F8C408C8F85B
:1056B0000820904203D1D6E910120A447264D5F84A
:1056C000B0BCBAF1000F40F0FE81DBF8F421022AF1
:1056D00000F074829BF80022012A02D100228BF88C
:1056E0000022012800F0B884220702D50822C8F859
:1056F0000820E00602D51022C8F80820610602D56D
:105700004022C8F80820A20702D50222C8F80820C3
:105710002006A1D5326C03EB491CD6E9131EDCF838
:1057200018090CF5106CA1EB0E0480B29442A8BFCE
:105730001446E21C48BFA21DB0EBA20F40F2A881A4
:1057400072460AF1010A9E4603EB0A3A13468B425F
:1057500080F09D81346CC91A95F8C4288C42A8BF8A
