:020000040800F2
:100000000000011081FA060811230008D9480208EF
:1000100021FB060821FB060821FB06080000000062
:100020000000000000000000000000007D47000804
:1000300081470008000000008547000831D2000811
:1000400021FB060821FB060821FB060821FB060808
:1000500021FB060821FB060875A3000879A3000808
:1000600021FB06087DA3000881A30008C928000819
:10007000DD280008F12800080529000819290008D2
:100080002D2900084129000821FB060821FB06084C
:1000900021FB060821FB060821FB060885A30008B2
:1000A000752700089D270008C5270008612700085C
:1000B000ED270008012800081528000821FB060884
:1000C00021FB060821FB060821FB060821FB060888
:1000D00021FB060815230008212300082D23000812
:1000E00089A3000821FB0608894700085128000859
:1000F00079280008A12800083D2800085529000893
:1001000021FB060821FB06082928000821FB060818
:10011000392300084523000821FB060821FB0608B7
:10012000692900087D29000891290008A5290008EF
:10013000B929000821FB060821FB060821FB060857
:1001400021FB060821FB060821FB0608DD47000805
:10015000C9290008D9290008E92900085123000805
:1001600021FB060821FB060821FB060821FB0608E7
:1001700021FB060821FB060821FB060821FB0608D7
:0801800021FB060821FB060823
:10019000D0E907239A422FBFD01AC0688018C01A2E
:1001A000704700BFD0E9092300699A4238BF12188E
:1001B000D31A0138C01A7047D0E90902101AB0FAF0
:1001C00080F04009704700BF0246036A4069D16869
:1001D000C05C01338B4228BF00231362704700BF0D
:1001E000436A8269D154436A0169426B01338B428D
:1001F00028BF00234362D36843F08003D360704775
:10020000436B188810F0100002D01A889B880120D8
:10021000704700BF436B99891A88890610B5044658
:100220000AD592B2900607D5E26A002A29D09888AA
:10023000216B80B29047636B99891A88090692B244
:100240000FD510060DD5D4E909128A4214D0A16940
:100250002069895C99800132B2FBF0F100FB112228
:10026000A262998A1A88C90592B204D5D20744BFFE
:100270004FF6F7721A8010BDDA6822F08002DA6059
:10028000EFE79B88E2696169DBB28B54E269E16860
:10029000636B0132B2FBF1F001FB1022E261CBE7AC
:1002A000036942681F2B10B40AD95468A3F1200CCB
:1002B000202101FA0CF1214207D15DF8044B70476F
:1002C0001468202199402142F7D081690024C86830
:1002D0000C7480684C68016821F00101016020689D
:1002E00094F805C00C4C818934F81C4089B221EA8D
:1002F00004011F2B818107D9A3F1200120238B400A
:100300005DF8044BD3607047202101FA03F35DF8D8
:10031000044B9360704700BF6C62070882B00922EB
:10032000274B8DF80720DA68D00319D4DA68D10694
:1003300040D4DA68D20541D4DA6812F0E00F3BD13C
:10034000DB6813F0020F14BF082309238DF8073070
:100350009DF80730012B0AD09DF8070002B07047C6
:1003600001238DF807309DF80730012BF4D1144A92
:1003700012E0D368DB0519D4D36813F0E00F17D16E
:10038000D36813F0020F14BF082309238DF8073038
:100390009DF80730012BDFD1D168C8034FF001036E
:1003A000F4D4D368D906E4D50623EFE70223EDE7BA
:1003B0000723EBE70623D4E70723D2E70223D0E79E
:1003C000003C0240704700BF704700BF01207047EB
:1003D000034BD3E90003C01AC0F30A00704700BF03
:1003E00038220020054AD2E900138B42FDD0D118F3
:1003F0000133C3F30A03087A5360704738220020A0
:10040000064BD3F8080800B97047D3F80808A0F1E4
:100410000500B0FA80F04009704700BF3822002084
:10042000012380F849307047044BD3E90003C01A18
:10043000C0F30A00C0F50060704700BF38220020FA
:1004400010B5D0F8E83504461B699847032384F8B3
:100450001231002010BD00BF08B5042290F812111F
:10046000D0F8E83580F8131180F81221DB6898473E
:10047000002008BD08B5D0F8E435DB6903B1984722
:10048000002008BD08B5D0F8E4351B6A9847002065
:1004900008BD00BF08B5D0F8E4355B6A9847002076
:1004A00008BD00BF037830B403B30446C0F1010CAB
:1004B00004EB0C0314F8015FDBB2002DF8D101331B
:1004C0005B00DCB2138003230C704B7004785CB1CA
:1004D000022300255A1CD2B2CC548D5410F8014F7F
:1004E0000233DBB2002CF5D130BC70470224234626
:1004F000E8E700BF10B5074C2068FF2808D0064980
:10050000D1F80C2801F5016100F080F8FF23236089
:10051000002010BD000000203822002043230148A5
:100520000B80704704000020122301480B807047A5
:1005300048000020042301480B8070475C00002025
:1005400008B5044B04480A461946FFF7ABFF0846B6
:1005500008BD00BF502A00205010080808B5044B01
:1005600004480A461946FFF79DFF084608BD00BF2C
:10057000502A00206010080808B5044B04480A46B9
:100580001946FFF78FFF084608BD00BF502A00201C
:100590006810080808B5044B04480A461946FFF7D6
:1005A00081FF084608BD00BF502A002074100808CB
:1005B00008B5044B04480A461946FFF773FF08467E
:1005C00008BD00BF502A002080100808704700BFF7
:1005D000704700BF704700BF704700BF704700BF43
:1005E000704700BF044B00200522C3F80828C3F859
:1005F0001809C3F81C09704738220020024B00205C
:10060000C3F80808704700BF38220020212838B5F9
:100610000C4605D022282DD0202813D0002038BD2C
:100620000029FBD0072AF9D1194BD3F8200993F8F8
:10063000241993F8252993F82639206021716271D5
:10064000A371EBE70029E9D0072AE7D1104DD5F8CF
:100650001C3913B109680020984720682179627914
:10066000A379C5F8200985F8241985F8252985F886
:100670002639D3E70029D1D0022ACFD1044BD3F8B1
:100680001839002BCAD0098800209847C6E700BF58
:100690003822002010B4124CD4E900329A1AC2F366
:1006A0000A020A44B2F5006F13D8B1B101444A1EE0
:1006B000013810F801CFE118824203F1010381F8FB
:1006C00008C0C3F30A03F4D1236000205DF8044B93
:1006D000704702205DF8044B70470846F6E700BFFC
:1006E0003822002010B5812104466DF0C7F920465C
:1006F00001216DF0C3F9204682216DF0BFF9FFF7AB
:100700007DFF002010BD00BFC169026910B4002345
:1007100040F20114A0F844410B60D169846D21F0CE
:1007200002014FF0010CD161A0F89CC32360D16994
:10073000044821F4003180F827395DF8044BD16179
:100740001846704738220020202301480B8070474C
:1007500060000020122301480B80704780000020B9
:10076000042301480B807047940000200A4608B516
:10077000054920B90548FFF795FE034808BD044820
:10078000FFF790FE004808BD602B0020901008087D
:10079000A810080808B5044B04480A461946FFF794
:1007A00081FE084608BD00BF602B0020C01008086D
:1007B0002048D0F8E837D0F8EC2730B59B184FF038
:1007C0001A040C8001D11C4830BD1B4AD0F8EA172E
:1007D0004FF0000E10467546B3F1204F4FEA137CE0
:1007E0000CF130040EF1020E2ABF0CF1370C8470AC
:1007F00080F802C0BEF1100FC5704FEA031300F17C
:100800000200E9D100200446B1F1204F4FEA1173F4
:1008100003F1300C00F102002ABF373382F812C016
:1008200093740828D4744FEA011102F10202EBD14B
:10083000014830BD00F0FF1F9800002008B5044BB0
:1008400004480A461946FFF72DFE084608BD00BFBA
:10085000602B0020D410080808B5044B04480A4651
:100860001946FFF71FFE084608BD00BF602B002099
:10087000E0100808034BD3F8502CB3F8543C138312
:1008800000207047382200204FF40070034B1060A6
:10089000D3F8983C0B600020704700BF382200203E
:1008A00000207047012070470120704700207047EA
:1008B00010B51C6994420DD396468A188C46944212
:1008C000996938BFA4EB0E0C71446246BDE8104034
:1008D00072F00CBB10BD00BF704700BF704700BF77
:1008E000D0ED007AD0ED036A30EE677AE6EE877AD3
:1008F000B0EE670AC0ED007A704700BFD0ED017A14
:10090000F5EE407AF1EE10FA09D1DFED0E7A60EEE5
:10091000A70AB7EE007AC7EE207AC0ED017A31EE71
:10092000277AD0ED007A80ED021AC1EE076A30EE28
:10093000677AC0ED036AE6EE877AB0EE670AC0ED2B
:10094000007A7047DB0FC94090ED017AD0ED036A61
:10095000D0ED027A30EE470AA6EE807A90ED000ADA
:1009600080ED017A37EE676AE6EE867A37EEC07A76
:10097000C0ED027AA6EE870A80ED000A704700BF3C
:10098000D0ED056AD0ED017A90ED007A90ED066A1F
:10099000D0ED025A90ED035A80ED050A66EEA77A73
:1009A000C0ED066AE7EE007A90ED077AE5EE867A0A
:1009B00090ED086AD0ED045A80ED087AE5EE477AAA
:1009C000E5EEC67AB0EE670AC0ED077A704700BF61
:1009D000D0ED057A90ED006A90ED037AD0ED025AE1
:1009E000E6EE007AF0EE406AB0EE670A90ED016A3A
:1009F000D0ED047A27EE407A67EEC07AA6EE267A2A
:100A0000E5EEA67A90ED066AC0ED067A36EE077A34
:100A100080ED057A704700BF03685A1C02601970A8
:100A2000704700BF03685A1C02601970704700BF0E
:100A3000024BD3F8C80C03681B6818473822002003
:100A4000007970470079C0F3401070470079400981
:100A5000704700BF90F83C20034602F0FF0012B13F
:100A6000002283F83C2070472DE9F84346697EB99F
:100A7000D0F80080C8F30D0904460F46B9F1000F05
:100A800026D03F68FFF74AFC092804D06FF0010622
:100A90003046BDE8F8834A4D2B6923F440732B613F
:100AA0002B6943F400732B612B6943F001032B6125
:100AB000C8F80070FFF732FC2B69092823F0010306
:100AC0002B61E3D12368043323603046BDE8F8830B
:100AD0003C4B98452AD303F58043984524D303F52E
:100AE0008043984554D3384B984554D903F5803307
:100AF000984553D903F50033984552D903F500338F
:100B0000984551D903F5003398453ED903F5003394
:100B100098454CD903F5802398454BD9B8F1016F1E
:100B20004BD305200DF07AF94FF00809FFF7F6FBDB
:100B3000092804D04FF0FF363046BDE8F883204D39
:100B40002B6923F440732B612B6943F400732B61F1
:100B50002B6923F0F8032B612B6943EA090343F067
:100B600002032B612B6943F480332B61FFF7D6FB23
:100B70002B6923F002032B612B69092823F0F8036A
:100B80002B61D7D1D4F800807BE74FF03809CDE74F
:100B90004FF01009CAE74FF01809C7E74FF02009D6
:100BA000C4E74FF02809C1E74FF03009BEE74FF026
:100BB0004009BBE74FF04809B8E74FF05809B5E7DF
:100BC000003C024000400008FFFF00082DE9F04112
:100BD0000446D0E90030134483421DD88E188E425B
:100BE00017D00D4604F10C08002701E0AE4210D0EA
:100BF00023695A1C2261234415F8010B1873042A37
:100C0000F4D141462046FFF72FFFAE42C4E90470FD
:100C1000EED16069BDE8F0814FF0FF30FAE700BF28
:100C20002DE9F0411E4E96F8CC3C002BFBD199B338
:100C3000014400F1FF384F1ED6F8D03CD6F8D42C32
:100C40000133C3F30A039A4216D10CF039FB044670
:100C50000D460CF035FB031B61EB0501B3F57A7F04
:100C600071F10003F5D3D6F8D03CD6F8D42C01337B
:100C7000C3F30A039342E8D0D6F8D02CD6F8D03C80
:100C800018F8011F32440133C3F30A03B84582F850
:100C9000D81CC6F8D03CCFD10020BDE8F08100BF01
:100CA000382200200A4B10B5D3F8084804B910BD0B
:100CB000D3F80838052BFAD1064C002A0846D4F898
:100CC000E0331146F3DDFFF7ABFFD4F8E03310BD9E
:100CD000382200203033002090F84820531C024472
:100CE000DBB280F8483082F8341090F849200AB11D
:100CF000132B03D9002280F8482003B970470A4A11
:100D0000D2F808180029F9D0D2F80828052AF5D118
:100D100010B5064C19463430D4F8E033FFF780FFA5
:100D2000D4F8E03310BD00BF38220020303300205B
:100D300090F848100023A0F8483001B97047094BDB
:100D4000D3F80828002AF9D0D3F80838052BF5D1B4
:100D500010B5054C3430D4F8E033FFF761FFD4F818
:100D6000E03310BD38220020303300202DE9F04759
:100D70005D4E1F4606EB80039C68002C00F0AD80A2
:100D800004F13E03A36104F59F73E3614FF48073A4
:100D9000C4E904332836236866600546E16094F8A8
:100DA0003D00A363904609F075FB814694F8440228
:100DB00094F83CA0261D00284FD194F8450268BB4A
:100DC000D4F8403283BB390734D418F0020F60D115
:100DD00018F0010F44D194F9472294F84712D4F83F
:100DE0004832002A10DB41481B018418DBB284F82A
:100DF00000335209012301F01F0103FA01F140F809
:100E000022103046BDE8F087394A01F00F010A444C
:100E10001B01DBB213763046BDE8F0876AF004FCB4
:100E2000D4F84032002BCED0324A116B0B43390735
:100E30001363CAD50135EDB2B9F1000FCBD040F242
:100E40000673FA0689F80850A9F8063036D4BB06AE
:100E500094F8462245D4322133E06AF0E5FBACE752
:100E6000504609F017FB0135EDB20028B3D040F22F
:100E700006620572C28094F84622022109F0FEFC47
:100E800094F9472294F84712D4F84832002AAADA93
:100E9000BAE76B1CDBB2B9F1000F99D089F80830C2
:100EA00040F20653A9F8063094F84622484602213B
:100EB00009F0E4FC18F0010F8DD0D1E794F8462238
:100EC0000221484609F0DAFC94F9472294F84712C7
:100ED000D4F84832002A86DA96E726463046BDE83E
:100EE000F0871221EDE700BF6C62070800E100E027
:100EF000FCEC00E0003802402DE9F047038A8489C9
:100F0000A4B21C4082B045D0814688464FF00045CF
:100F100001F14C0701F13406B4FA84F325FA03F227
:100F2000D24391B2A9F8101014401B3BB8F1000F46
:100F30005DD0042B2CD8DFE803F050463B30030093
:100F4000D8F80C30D9F82CA033B19B6823B11FFA24
:100F50008AF108F104009847D8F8243033B19B682F
:100F600023B11FFA8AF108F11C009847D8F83C30E9
:100F70002BB19B681BB11FFA8AF130469847D8F80D
:100F800054302BB19B681BB11FFA8AF13846984741
:100F9000002CC1D102B0BDE8F087D8F80C30D9F8E8
:100FA00034105B6808F104009847002CB4D1F1E7D5
:100FB000D8F82430D9F838105B6808F11C0098473D
:100FC000002CA9D1E6E7D8F83C30D9F83C105B6892
:100FD00030469847002C9FD1DCE7D8F85430D9F838
:100FE00040105B6838469847002C95D1D2E7042B17
:100FF00007D8DFE803F00319140F0A00D9F84030CE
:101000000193019B002C87D1C4E7D9F82C300193C0
:10101000019BF7E7D9F834300193019BF2E7D9F847
:1010200038300193019BEDE7D9F83C300193019BE7
:10103000E8E700BF70B5254C94F8CC2C012A034694
:1010400003D0022A09D0002070BD214ED6F8E45307
:101050008DB984F8CC5C002070BD002540F20112EF
:10106000C0E95455C0E95655A0F8442100F5A271D5
:101070006CF014FEEDE7402D22D823D0D4F8D41C18
:10108000144AC3F858510A44C3E954220022C3F851
:101090005C2140F2011203F5A271A3F84421184625
:1010A0006CF0FCFDD4F8D43CD6F8E4232B44C3F315
:1010B0000A03521BC4F8D43CC6F8E423002070BDD8
:1010C0004025DBE7022284F8CC2CD7E73822002029
:1010D00030330020102F002001EB810138B500EBE8
:1010E000C1010E4DB1F88C1304462846FFF7D2FA21
:1010F000E378C4F8A85340210022C4E9EC1201228D
:1011000093422046A4F89C2304F5677108BFC4F8F5
:10111000AC536CF0C3FD002038BD00BF1837002071
:1011200070B52B4CD4F828340F2B04D05A1CC4F8BB
:101130002824002070BD274D95F8CC3C0022C4F82F
:101140002824002BF5D1D5F8D42CD5F8D03C9A42E0
:10115000EFD0D5F8D42CD5F8D03C9A422CD8D5F87D
:10116000D06CD5F8D43CF61A402EC4F8E46328D9E4
:10117000012385F8CC3C4026D5F8D42C164BC0F87A
:1011800058611344C0E954330023C0F85C3140F285
:101190000113A0F8443100F5A2716CF07FFDD5F881
:1011A000D43CD4F8E4233344C3F30A03921BC5F8B8
:1011B000D43CC4F8E423BCE7D5F8D46CC6F500668B
:1011C000D2E70CBF0223012385F8CC3CD4E700BF53
:1011D0003033002038220020102F002038B5224D57
:1011E000D5F8343495F84CC4044623B195F8383416
:1011F0005CEA030331D00123E06984F8463140F210
:101200000112A4F8442102681849002AA8BFC2F3B9
:1012100080739B0301EA124143F020030B4363F305
:101220001F42BCF1020F026000D038BDE278104BC3
:10123000C4F8A8331F200021C4E9EC01012A4FF0B3
:101240000101A4F89C1308BFC4F8AC3304F567711E
:101250002046BDE838406CF021BD012169F0C8FF8F
:1012600095F84CC4C7E700BF30330020DFBFFFFF55
:101270005C37002070B590F8CF2590F8D13590F804
:10128000CE5590F8D0C590F8CC1590F8CD6505EB0B
:1012900002250CEB032C90F8D32590F8D23503EB04
:1012A0000223012284B080F8112101F01F029BB2B9
:1012B000ADB21FFA8CFC012A04468DF80810ADF877
:1012C0000A50ADF80CC0ADF80E30C0F840318DF8C2
:1012D00009600AD0022A57D0002A3CD001F08001D0
:1012E00069F086FF002004B070BD90F81231032B26
:1012F0002BD15FFA8CFCBCF1010F26D8D0F8E43575
:1013000002A99B689847BDF80E30002BEAD1C4E9CA
:101310004A33C4E94C3304214FF4807284F811112C
:10132000A4F81C2104F58E7120466CF049FC636D15
:10133000C44A1A61E278012AD4D104F2CC545C6127
:101340004FF0802219681A60CCE7204669F018FF38
:10135000002004B070BD092EF7D801A252F826F083
:101360000B1400081B1500084B1300085515000846
:101370004B130008831500082F1400084B130008B6
:1013800099140008C914000801F0600120295FFACF
:101390008CF334D0012E00F06181032E00F0958192
:1013A000002E9FD190F81221022A00F01B81032AFF
:1013B000CBD11CF0800F40F0A48103EB830300EB42
:1013C000C30393F87633002B00F0A6819E4B0122D5
:1013D000C3F85C249D4A0223C4E94E334FF4807065
:1013E000002184F81131A4F81C01C4E94C31C4E98E
:1013F0004A2204F58E7120466CF0E2FB72E7D0F8C9
:10140000E43502A99B6898476CE790F81231023BDB
:10141000012B9AD88C4BD0F818210021C3F8541412
:1014200012B10222C3F85424894A0223D4E72E0AB7
:10143000022EADF8063000F0CD81032E00F0918130
:10144000012E82D1D0F8EC3580781B680DF10601B1
:101450009847BDF80630002B3FF444AFBDF80E208E
:10146000002A3FF43FAF934228BF13464FF48072E7
:101470000221A4F81C210022C4E94A0084F81111B9
:10148000C4E94E33C4E94C3204F58E712046ADF800
:1014900006306CF095FB25E7012B7FF456AF90F8F2
:1014A0001221022A00F04981032A7FF44EAF4FF443
:1014B000807100F588720220A4F81C11C4E94E3333
:1014C00084F81101002190E7EDB25F4E012D86F8FE
:1014D0004D543FF63AAF90F81231022B00F02181C3
:1014E000032B7FF432AF002D00F07F8190F81011B4
:1014F000012910D0D0F8E4355B68984796F84D1470
:10150000D4F8E43584F810111B6820469847D4F8C5
:10151000E8359B6898470023F9E690F81231023BC2
:10152000012B3FF612AF012D7FF4DCAED0F8E4358D
:1015300000259B68C0F8185102A9984704224FF46F
:101540008073C4E94A55C4E94C5584F81121A4F8C4
:101550001C31E7E6012D00F0CC80022D7FF4C2AEF5
:101560005FFA8CF3002B7FF4BDAE02694FEA1C23B7
:10157000023B5268032B00F25681DFE803F05B4226
:101580006B5F5CEA03037FF4E0AE90F81221032A5C
:101590003FF4DBAE016905F07F0680F8146108684E
:1015A0001A4665F30A1202430A604FF4807204215E
:1015B000C4E94A33C4E94C3384F81111A4F81C215E
:1015C00004F58E7120466CF0FBFA636D1D4A1A61BA
:1015D000E278012A0DD0002E00F01281022384F857
:1015E00012317FE65A063FF47DAE194669F000FEDF
:1015F00078E604F2CC525A614FF0802219681A60E2
:10160000E9E7032363F3061201210F4D84F8161155
:101610000421002384F811114FF48071A4F81C11E7
:10162000C4E94A33C4E94C3304F58E712046C5F849
:1016300058247AE6022363F30612E5E7052363F3F1
:101640000612E1E718000860303300208C370020D4
:1016500084370020042363F30612D5E790F81221A3
:10166000022ABFD0032A7FF470AE002D7FF43AAE79
:1016700013F07F023FF44FAF1CF0800F40F0C480A6
:1016800003EB830100EBC10181F8742381F87653E9
:1016900081F87553282101FB030300EB820293F8C4
:1016A0007713506D03688A1E012A6FF35553D4F8DF
:1016B000E4258CBFC3F30071012161F31C739268B0
:1016C000036002A92046904725E790F81221022ADC
:1016D00088D0032A7FF439AE25B9590602D01946BD
:1016E00069F086FDD4F8E43502A99B682046984746
:1016F00011E7D0F8E43502A99B68C0F81851984763
:1017000009E703F07F0303EB830300EBC30393F8C4
:101710001E31002B7FF45AAE454B0022C3F85C24E7
:1017200058E6002D3FF40AAF01210322D0F8E4353A
:1017300080F8101180F81221E6E63E4984F8112164
:101740004FF480700022C4E94A11A4F81C01C4E9D6
:101750004E33C4E94C3204F58E7120466CF030FAF9
:10176000C0E5EDB2052D3FF6F0ADDFE805F02B2327
:101770001B130B03D0F8EC3580789B690DF1060143
:10178000984766E6D0F8EC3580785B690DF1060184
:1017900098475EE6D0F8EC3580781B690DF10601BC
:1017A000984756E6D0F8EC358078DB680DF10601F5
:1017B00098474EE6D0F8EC3580789B680DF106012D
:1017C000984746E6D0F8EC3580785B680DF1060165
:1017D00098473EE6D0F8E43580789B6A0DF1060123
:1017E00098474670C4F8F00533E60222D0F8E43595
:1017F00080F8122180F810515B68294698479DE6D1
:10180000012384F812316DE5282303FB020181F8DE
:101810001C2100EB820281F81E5181F81D61906944
:1018200091F81F113EE7012363F30612ECE600BFB7
:10183000303300208037002010B5044629B990F8D5
:101840001121032A0DD0002010BDD0F8E4359B698A
:10185000002BF8D090F81221032AF4D198470020E9
:1018600010BDD0F890230B46D0F87C138A4213D9D0
:10187000C078521A0128C4F8902336D08A4228BF73
:101880000A4692B2C4E9E22304F55D71A4F8743308
:1018900020466CF095F9D6E7D0F8E4351B691BB10A
:1018A00090F81221032A1ED000234FF480720421E5
:1018B000C4E94A33C4E94C3384F81111A4F81C215B
:1018C00004F58E7120466CF07BF9636D104A1A6145
:1018D000E278012AB7D104F2CC545C614FF0802247
:1018E00019681A60AFE79847DEE78A42D4F88003A8
:1018F000A4F8743328BF0A46084492B2C4E9E2232C
:1019000004F55D71C4F88003C4F88403C0E700BF28
:101910001800086038B5044649B990F81131022B17
:1019200011D094F81631012B40D0002038BDD0F8EA
:10193000E4355B69002BF8D090F81221032AF4D12A
:101940009847002038BDD0F83831D0F82421934290
:1019500036D9C178012908BFD0F82811A3EB0203BA
:1019600018BFD0F82821C0F8383108BF52189BB2F0
:101970004FF480710025C0E94C35A0F81C11C0E976
:101980004A2200F58E716CF01BF9E378C4F880539D
:10199000012BC4E9E255A4F8745308BFC4F884537A
:1019A00004F55D7120466CF00BF9BAE72A4B226909
:1019B000D3F858145160002384F81631002038BD44
:1019C000D0F83C31B3FBF2F502FB1535ADB99A42C4
:1019D00013D8D0F8402193420FD24FF48073A0F86F
:1019E0001C31C0E94A55C0E94C5500F58E716CF0C8
:1019F000E7F8E378C4F84051C8E7D4F8E435DB6889
:101A00001BB194F81221032A23D0E2780023012A83
:101A10004FF0050108BFC4F88433C4E9E23384F809
:101A20001111C4F88033A4F8743304F55D712046B5
:101A30006CF0C6F8636D094A1A61E278012A7FF4F6
:101A400070AF04F2CC525A614FF0802219681A60CC
:101A500067E720469847D8E7303300201800086031
:101A6000F8B50B7813F060060D46044620D0202E02
:101A700025D1CE884EB31B0649D5384F68783246FB
:101A80003946FEF7C3FDEB880222002684F81121B7
:101A90004FF48072C4E94E33C4E94A77C4E94C3646
:101AA000A4F81C2104F58E7120466CF089F80AE038
:101AB0004B780A2B17D00B2B0ED0062B03D12046C8
:101AC00069F05EFB02263046F8BD022248781144D8
:101AD000FEF79CFD3046F8BD8B78002B3AD1204BA9
:101AE000C3F86064EFE7022280F811214FF480729E
:101AF000A0F81C211B4A0123C0E94E33C0E94A2249
:101B0000C0E94C3600F58E716CF05AF8DBE7164BE5
:101B1000164A4978116003F501620321C0E9E466C1
:101B200080F81111C0F88863C0F88023C078C3F82A
:101B30000C6801284FF00003C4F88C33A4F8743308
:101B400004F55D7108BFC4F8842320466CF038F8B2
:101B50000026B8E769F014FBB5E700BF482A00206B
:101B60003033002090370020382200200000002071
:101B7000002310B51946044640226BF0B1FF8021C6
:101B80002046002340226BF0ABFFD4F8E835A07864
:101B9000012284F812215B689847002010BD00BF25
:101BA00010B502230446402281216BF099FF2046A4
:101BB0000223402201216BF093FF204603230822D9
:101BC00082216BF08DFF0E4B0222A3F84C20FEF712
:101BD00009FDE2780B4BC4F8A83340200021C4E98A
:101BE000EC01012A4FF00101A4F89C13204604F5F2
:101BF000677108BFC4F8AC336CF050F8002010BD1A
:101C0000000000201837002070B5812182B0044602
:101C1000314E6BF033FF012120466BF02FFF002582
:101C2000022340228121204686F827596BF058FF75
:101C300001210223402220466BF052FF274B86F8F9
:101C40002759D3F8642483F84C54126828469047E7
:101C50000095009BE16843F010030093009B0B612B
:101C60000A691F4B009203E00A690092013B02D00F
:101C7000009AD006F8D400230193019B43F020037F
:101C80000193019A164B012060F38A120192019A86
:101C90000A610A69019203E00A690192013B02D0DC
:101CA000019A9206F8D4E2780E4BC4F8A8330021CA
:101CB0001F20C4E9EC01012A4FF00101A4F89C1394
:101CC00004F5677105D020466BF0E8FF002002B0F4
:101CD00070BDC4F8AC33F6E7382200203033002062
:101CE000400D03005C3700202DE9F047089F88462F
:101CF00015460021202204461E4673F097FA4FB184
:101D00003B68E3811B0C23827B687A89E3821B0C8E
:101D10006282238340466CF0A5FEEB0619D4431E75
:101D2000B8B108EB000701E0013B12D317F801CD71
:101D3000BCF12E0FF8D1C01A421E032AA8BF0322FD
:101D4000082B03F1010AA8BF08239146C2441A4692
:101D500006E008280246C246A8BF08224FF0000944
:101D60004FF0203341462360636004F108072046AA
:101D700071F0BCF8174B23815146BB704A46384678
:101D800071F0B4F8611EE31D11F801CFACF1610EE2
:101D9000BEF1190F9CBFACF1200C81F800C08B4242
:101DA000F2D1384604F10B0110F8013BA3F16102B6
:101DB000192A9CBF203B00F8013C8842F4D118232B
:101DC0002373330CA382E572099B6683E361BDE84C
:101DD000F08700BF202020002DE9F04FDFF8949419
:101DE000D9F8500CB9F8544C448387B0002B00F05C
:101DF000DE8001F5FE781344DFF87CB403931646C9
:101E000001F12007C24621E0002E64D0D9F8A43C9D
:101E1000B34200F0D180D9F8A03CB34200F0048175
:101E2000D9F8A83CD9F8AC1CB3424BD8B14200F267
:101E30009E81711A204669F051F9039B01369E423A
:101E400007F500770AF5007A00F0AD80D9F8B05CAC
:101E5000B542A7F12004D7D8751BD9F8C08C05F07E
:101E60000702EB080492D8F830200233934203D3E0
:101E7000D8F8382093420BD941461846059369F0AB
:101E8000FDF8059B8046002800F09181C9F8C00C40
:101E900098F80420002A40F03981D8F82850002D05
:101EA00000F07E81D8F830209B1A049A02EBC3031D
:101EB000D8F80C20204602EB43224FF40071434631
:101EC000A847BAE7B142B4D920464FF400720021C6
:101ED00073F0ACF9B1E74FF400723146204673F06D
:101EE000A5F9802387F89E310C2387F8A231D9F811
:101EF000A03CD74AD9F8981CC4F8C6319342C4F81C
:101F0000CA1100F33981D34AD34C82FB03021A442D
:101F1000D817C0EB621284FB0254D04D85FB03C579
:101F2000C0EB2530C2EB821587F8A1015B1B801046
:101F300020F03F0001330343144487F8A031D31746
:101F4000C3EBE4142244C24B87F89F214A1E9A42F5
:101F500000F31E81BF4BC04883FB02311144D317ED
:101F6000C3EB611180FB0140BC4C84FB0254C3EB0A
:101F70002433C1EB811487F8A531121B9B1023F089
:101F80003F0301321343084487F8A431CB17C3EB56
:101F9000E010014487F8A311552387F8DE31AA2306
:101FA00087F8DF3149E7D9F8500CB9F8544C04836D
:101FB000002007B0BDE8F08F4FF0FF3384F8EC311C
:101FC00084F8ED3184F8EE3184F8EF31D9F8B83C7B
:101FD000C4F8E8315223237063706123A37084F83E
:101FE000E73141230025E37084F8E631722384F859
:101FF000E43184F8E5314FF4F0722946A7F11C0072
:1020000073F014F95523C7F8D051C7F8D451C7F865
:10201000D85184F8FE316FF0550384F8FC5184F8F0
:10202000FD5184F8FF3108E700214FF4007220468B
:1020300073F0FCF88A4A03CA47F81D0CEB2007F836
:10204000200C582007F81F0C902047F8191C07F89F
:102050001E0C002302220821F820E372227307F8E5
:10206000131CA273E37307F8102C07F80B0CD9F8B4
:10207000A00C84F82C20D9F8982C6376121A2262CE
:10208000D9F8A80CD9F8AC2CE376121A3F202076A8
:102090004FF0FF30A0763E20207701206377A377B2
:1020A000E37784F82D3084F82E3084F82F30626284
:1020B00084F8300084F8313087F82610802187F8C2
:1020C0002010292187F82210942187F823100E214F
:1020D00087F824100D21634A87F82510552187F8C9
:1020E000DE11AA2187F8DF1103CA5F4BC7F827006A
:1020F000C7F82B1003CB1388A7F82F309378C7F8B5
:102100003200C7F8361087F8313096E64FF4007287
:102110000021204673F08AF8049B002B4ED1D8F89A
:102120004030002B00F0AA80049AD8F830304F4994
:10213000CDE9002220461122FFF7D6FDD8F8403025
:102140001A6C002A00F0AD80049A1B6BCDE90022C6
:10215000474911223846FFF7C7FDD8F8448007F1F8
:1021600020044FF4E075B8F1000F3FD165E6F11A95
:10217000204668F0B3FF60E6FF2387F89F3187F8B9
:10218000A13187F8A031324B4A1E9A427FF7E2AE66
:10219000FF2387F8A33187F8A53187F8A431FBE640
:1021A000294620464FF4007273F040F845E6A7F147
:1021B000240343F804BF9A45FBD13EE6D8F84030EB
:1021C000049AD8F84480002B0CBF01230223C3EBF0
:1021D00002154346002B3FF430AE013D9B6CF9D114
:1021E00098464FF40075002B3FF427AE2544203469
:1021F000234620354446049698460EE05CF81C1BA6
:10220000236BCDF800C000260196FFF76DFDA46C8E
:1022100008F12008CCB1454517D02379A44604F134
:102220001C0E1122A8F12000002BE7D1627926694B
:10223000236B216842F02102CDE900E6FFF754FD4F
:10224000A46C08F12008002CE5D1049EF5E500BF40
:10225000FF03FB00832008828180808097554541E1
:10226000F0100808FC10080808110808D017080822
:10227000E818080838220020DEADBEEF049BD9F82C
:102280009C1CCDE9003320460822FFF72DFDD8F82D
:102290004480B8F1000F3FF4D0AD3C464FF4F075E8
:1022A000A4E7049BCDE9003352E700BF8C461346F8
:1022B00001466246184648F011BD00BF1049114B57
:1022C000D1F8882042F4700210B4C1F888201A684E
:1022D0000D4C002042F001021A6098601A6822F04A
:1022E000847222F480321A605C601A68074C22F40F
:1022F00080221A60D8608C605DF8044B704700BF84
:1023000000ED00E00038024010300024000000081A
:10231000704700BF0148FDF77DBF00BFB800002037
:102320000148FDF777BF00BF040300200148FDF717
:1023300071BF00BF500500200148FDF76BBF00BF13
:102340009C0700200148FDF765BF00BFE809002099
:102350000148FDF75FBF00BF340C0020704700BF8D
:10236000704700BF38B5D0E9004307EE902A1B68DC
:10237000354A20680139934204688DB216D002F5BF
:102380008062934212D002F5705293420ED002F551
:10239000806293420AD002F58062934206D02B4BB2
:1023A000D3F87C3E5B0807EE103A04E0274B03F6B7
:1023B0007C6393ED007ADFED266AB8EE477AF8EE9B
:1023C000677A87EE270A30EE260A6DF079FF1E4AFB
:1023D00023880138944280B29BB212D002F5806209
:1023E00094420ED0B4F1804F0BD0A2F580329442CB
:1023F00007D002F58062944203D002F580629442D5
:1024000002D123F070039BB2124A944212D002F51B
:10241000806294420ED023F4407302F56C429BB26A
:1024200094422380E56220850AD10023238601237C
:10243000A38238BD2380E56220850123A38238BDB5
:10244000054B9C42F1D0F8E700000140000000205D
:102450000AD7233C001000400004014070B54068DA
:10246000837903F0020213F0040300F0C9804FF0F7
:10247000000E134604247246754690F805C0BCF160
:10248000030F30D8DFE80CF08E5F30020368188C41
:1024900020F480500004000C1884188C9C8820F4D0
:1024A000005000042A43000C40EA0232988B6C4D25
:1024B00020F4E6400004000CAB42A4B240F4C0405B
:1024C00000F0B08005F58065AB4200F0AB809C80E9
:1024D000988319641A849A8B22F400621204120CF5
:1024E00042F400629A8370BD2A4305685C4E288CD2
:1024F00020F480700004000C2884288CB5F804C0F7
:1025000020F400700004000C40EA0222A88B20F0A6
:1025100073000004000CB5421FFA8CFC40F0600010
:1025200073D006F58066B5426FD0A5F804C0A883C5
:10253000E9632A84AB8B23F008031B041B0C43F0D4
:102540000803AB8370BD2A430568454E288C20F0F4
:1025500010000004000C2884288CB5F804C020F07A
:1025600020000004000C40EA0212288B20F4E64010
:102570000004000CB5421FFA8CFC40F4C04061D04E
:1025800006F58066B5425DD0A5F804C02883A9632E
:102590002A842B8B23F400631B041B0C43F400637D
:1025A0002B8370BD00682E4E2A43058C25F0010553
:1025B0002D042D0C0584058CB0F804C025F002050F
:1025C0002D042D0C2A43058B25F073052D042D0CAD
:1025D000B0421FFA8CFC45F0600528D006F58066F5
:1025E000B04224D0A0F804C0058341630284038B69
:1025F00023F008031B041B0C43F00803038370BD86
:102600004FF4807E1C46012537E722F4006242EA3F
:10261000032222F480622CF4405C42EA04224CEA59
:102620000E1C82E724F4804444EA8E144FE74FF6F0
:10263000F37616402CF4407C46EA03024EEA0C0C7A
:102640002243CFE722F0800242EA031222F0400246
:102650002CF4406C42EA04124CEA8E0C94E700BF62
:102660000000014042685379032B0FD8DFE803F0E4
:102670000B08050210684030704710683C30704706
:102680001068383070471068343070470020704749
:1026900070B4EFF31182102383F31288C468466884
:1026A000A5682B6823F001032B603568114B767900
:1026B00033F81660AB899BB223EA0603AB8123692A
:1026C00065681F2B11D9203B202404FA03F3EB602B
:1026D000D3B283F31188C3689B6859601A680124D8
:1026E00022431A60047470BC7047202404FA03F378
:1026F000AB60EDE76C62070803681A7D012A04BF2E
:1027000002221A7593F82C100CBF4FF400720022AD
:10271000012904D1022183F82C1042F4806293F83D
:102720004410012905D093F85C1001290AD072B930
:102730007047022183F8441093F85C10012942F499
:10274000006204D1022183F85C1042F48052416897
:10275000096800234B628B899BB21A438A817047B8
:10276000024B0348D3F86814FEF7C6BB3033002091
:102770000000014010B5064C0648D4F86814FEF776
:10278000BBFBD4F888140448BDE81040FEF7B4BB86
:1027900030330020000001400040014010B5064CDD
:1027A0000648D4F86814FEF7A7FBD4F88C14044844
:1027B000BDE81040FEF7A0BB303300200000014010
:1027C0000044014010B5064C0648D4F86814FEF7E2
:1027D00093FBD4F890140448BDE81040FEF78CBB7E
:1027E000303300200000014000480140034B4FF00F
:1027F0008040D3F86C14FEF77FBB00BF303300205D
:10280000024B0348D3F87014FEF776BB3033002038
:1028100000040040024B0348D3F87414FEF76CBB6D
:102820003033002000080040024B0348D3F87814EE
:10283000FEF762BB30330020000C0040024B03481F
:10284000D3F88414FEF758BB303300200004014055
:1028500010B5064C0648D4F88414FEF74DFBD4F8A6
:1028600094140448BDE81040FEF746BB3033002006
:10287000000401400018004010B5064C0648D4F88A
:102880008414FEF739FBD4F898140448BDE81040CE
:10289000FEF732BB3033002000040140001C004032
:1028A00010B5064C0648D4F88414FEF725FBD4F87E
:1028B0009C140448BDE81040FEF71EBB30330020D6
:1028C00000040140002000400348D0F88C3E13B1C2
:1028D00000F5686018477047000000200348D0F8F2
:1028E000AC3E13B100F56A60184770470000002045
:1028F0000348D0F8CC3E13B100F56C601847704720
:10290000000000200348D0F8EC3E13B100F56E60E3
:1029100018477047000000200348D0F80C3F13B15F
:1029200000F5706018477047000000200348D0F899
:102930002C3F13B100F5726018477047000000206B
:102940000348D0F84C3F13B100F574601847704746
:10295000000000200348D0F86C3F13B100F576600A
:1029600018477047000000200348D0F88C3F13B18F
:1029700000F5786018477047000000200348D0F841
:10298000AC3F13B100F57A60184770470000002093
:102990000348D0F8CC3F13B100F57C60184770476E
:1029A000000000200348D0F8EC3F13B100F57E6032
:1029B00018477047000000200248C36803B1184759
:1029C000704700BF001000200248C36A0BB12030DE
:1029D00018477047001000200248C36C0BB140300C
:1029E00018477047001000200248C36E0BB16030DA
:1029F000184770470010002002683649002310B4C1
:102A000022F0010221248842026003604360836057
:102A1000C3600361446138D02F4B98422ED02F4BB6
:102A200098423CD02E4B984240D02E4B984232D008
:102A30002D4B984241D02D4B984246D02C4B98427A
:102A400017D02C4B98423CD02B4B984216D02B4B96
:102A5000984224D02A4B984228D02A4B98421AD028
:102A6000294B984229D0294B98422ED0284B984286
:102A700008D14FF03D5243F8AC2C03E04FF47462A0
:102A800043F8202C5DF8044B7047224B5DF8044B53
:102A90003D229A607047204A43F8642CF2E74FF4D5
:102AA00074125DF8044B43F8382C70474FF0746291
:102AB0005DF8044B43F8502C7047184A43F87C2CBF
:102AC000E0E73D2243F8082CDCE7154A43F8942C54
:102AD000D8E700BF1060024028600240406002401A
:102AE000586002407060024088600240A06002406E
:102AF000B860024010640240286402404064024012
:102B0000586402407064024088640240A06402403D
:102B1000B8640240006002403D000020400F0020E9
:102B200000003D2000222DE9F04713460D684FF0CC
:102B3000010E032604E00133102B02F1020239D00A
:102B40000EFA03FC3CEA0504F5D1076806FA02F424
:102B500027EA040707600F79D0F800A007FA02F906
:102B6000013F49EA0A09012FA046C0F800906FEA28
:102B7000040411D887683C4084604C79876894408D
:102B80003C438460446824EA0C0444608C794768C0
:102B90009C40A4B23C434460C46824EA0804C46076
:102BA000CC79C768944001333C43102BC46002F1D8
:102BB0000202C5D1BDE8F0872DE9F0412348244F3A
:102BC000244E254C82B03822002172F02FFB0025C4
:102BD00057F825103246002301E054F83320914283
:102BE0002ED001330E2BF8D10020053568F01CFDE6
:102BF0002D2DEDD1DFF85880184F08F1B4054FF0B6
:102C0000007698F8040007F045FC08F11408044623
:102C100088B1036803F13F4303F57E0307EB932379
:102C200093F8C80068F000FDA3880196206800931F
:102C30006946FFF777FFA845E3D102B0BDE8F08110
:102C4000064A02EBC30393F85C00CEE798370020F6
:102C50008010002000000140C46207086C62070871
:102C6000224A936803F00C03042B10B421D0082BE4
:102C700022D01F4B03601D4C1E4AA168C1F30311F3
:102C8000114491F83C10CB404360A168C1F382210C
:102C9000114491F83C1023FA01F18160A1685DF8BC
:102CA000044BC1F342310A4492F83C20D340C36044
:102CB0007047114B0360DEE75368516813F4800FCF
:102CC00001F03F01536814BF0B4A094AB2FBF1F10E
:102CD000064A5268C2F30142C3F38813013201FB72
:102CE00003F35200B3FBF2F30360C4E70038024081
:102CF0000024F400F810002000127A0070B5446B34
:102D00008668A38923F400531B041B0CA3818279DA
:102D10000546407912F0040F14BF4FF4805C4FF069
:102D2000000C110310F0010F4FEA02220CBF002328
:102D3000042302F48062800748BF43F0080342EA9C
:102D40000C021343228A92B201F4005122F4405241
:102D50000A432282A28922F4B05222F00C02120409
:102D6000120C1A43A281A38A23F440731B041B0C88
:102D700084B0A3826846FFF773FF244B9C4205D0C2
:102D800003F580639C4201D0029A00E0039AA38974
:102D90001F491B0402EB82024CBF7300B30002EB1D
:102DA0008202B2FBF3F3A1FB0302A089520964265D
:102DB000000406FB12334FEA02121FD41B01323308
:102DC000A1FB0313C3F3431313439BB22381AB79DA
:102DD0006A6B13F0080F938A0AD09BB243F0080382
:102DE000938293899BB243F40053938104B070BDE6
:102DF00023F008031B041B0C9382F2E7DB00323341
:102E0000A1FB0313C3F342131343DEE70010014099
:102E10001F85EB512DE9F843394C9DF820509DF862
:102E20002490A0420F4690461E4649D0354B98420A
:102E30004ED0354B984253D0344B98422BD0344B24
:102E4000984255D0334B984221D14B462A463146C1
:102E50000520FDF78BFF04460023C4E90B78C4E985
:102E60000733C4E909336571A66084F806902046EB
:102E7000FFF744FFEA07616B1AD4AB0713D48B89C1
:102E80009BB243F400538B812046BDE8F8830024B5
:102E90002046BDE8F8834B462A4631460320FDF71D
:102EA00065FF0446D8E7CB6843F08003CB60E6E7D4
:102EB0004FF6DF730B80CB6843F02003CB60DCE779
:102EC0004B462A4631460020FDF750FF0446C3E733
:102ED0004B462A4631460120FDF748FF0446BBE732
:102EE0004B462A4631460220FDF740FF0446B3E731
:102EF0004B462A4631460420FDF738FF0446ABE72F
:102F0000001001400044004000480040004C0040D8
:102F100000500040001401408160EFE64171EDE691
:102F20002DE9F043DFF8108208EBC00985B00546B3
:102F3000C70099F8500007F0ADFA044699F851001F
:102F400007F0A8FA064699F8520068F06DFB6B1C72
:102F5000DBB2002C00F0AC8040F60C122372E28051
:102F6000002E00F0C280337240F60C232046F3801E
:102F700004223A2107F082FC042230463A2107F06D
:102F80007DFC08EB0703614ADC6C944200F09880FA
:102F90005F4B9C4200F09E805E4B9C4200F0AB80F9
:102FA000474497F85320022A5CD0032A7ED05A4B1C
:102FB0005A4E012A18BF1E46A7886846FFF750FEE2
:102FC00027F03F07029B564AB3FBF6F63F04A2FBED
:102FD00003233F0C47EA9347A780228822F001028F
:102FE0001204120C2280B2B2C6F30B069B0C002E08
:102FF00059D04FF4967101FB03F34A49A1FB031327
:103000009B0901339BB242F400422384A2832388AC
:10301000454A9BB243F001032380238823F4816354
:1030200023F002031B041B0C4FF4804143F4806324
:1030300023802181238823F080031B041B0C238021
:1030400023889BB202EB451243F001032380012148
:10305000002382F8A05482F8A11482F8A23405B0AB
:10306000BDE8F083A6886846FFF7FAFD26F03F0624
:10307000029A2B4B3604A3FB0213360C46EA934606
:10308000A680218821F001010904090C21809B0CF4
:103090002649013392092384A1FB02329209042AB2
:1030A00038BF0422B2E742F00102A2E7204E83E7D4
:1030B000002E3FF466AF337240F60C23F3805BE7DB
:1030C0001C4B1A6A42F400121A621A6A22F40012A5
:1030D0001A6265E703F5F0331A6A42F480021A6255
:1030E0001A6A22F480021A625AE7042220463A2120
:1030F00007F0C4FB45E703F5EE331A6A42F4000219
:103100001A621A6A22F400021A6249E70054004067
:1031100000580040005C0040804F1200009F2400D7
:1031200083DE1B43D34D621030330020632D3E05F8
:10313000C027090000380240F81000202DE9F047B0
:10314000954D90F900108046807805EBC106013856
:10315000CC0090B0F16C14282ED8DFE810F05401A8
:103160002701150057006100A200AA00CC01BE0192
:103170007D00870046020E02E101C500D500300047
:103180003800AB019D015C01888A0C8B81B28348B9
:1031900041EA044130EA010100F02781D8E9021038
:1031A000521A42F2107163EB00038A4273F100037A
:1031B00002D3152388F8023010B0BDE8F08798F8E4
:1031C00013000882C8E90223122088F80200888AC6
:1031D0000C8B80B240EA0440714C34EA000000F0ED
:1031E000B68000200E900F9001200F910E900E9946
:1031F000002900F01F820F9914310F910F9909686F
:103200004905CBD5142388F80230D5E798F811008A
:1032100000F0FE000882C8E90223052088F80200B9
:10322000888A0C8B80B240EA04405E4C34EA00008D
:1032300000F0A480002000900190012001910090F6
:103240000099002900F0028201991431019101993D
:1032500009684F05D6D4A1E798F8110040F00100A5
:103260000882C8E902230B2088F80200888A0C8BA8
:1032700080B240EA04404C4C34EA00006FD0002099
:10328000049005900120059104900499002900F014
:10329000D781059914310591059909684D05B1D477
:1032A0007CE798F813000882C8E90223072088F811
:1032B0000200888A0C8B80B240EA0440384C34EA21
:1032C00000005FD000200290039001200391029043
:1032D0000299002900F0C6810399143103910399E2
:1032E00009684E058ED459E7088820F480600004F0
:1032F000000C088098F8110000F0FE000882C8E970
:103300000223102088F80200888A0C8B80B240EAE1
:103310000440244C34EA000012D000200C900D90A0
:1033200001200D910C900C99002900F095810D99C8
:1033300014310D910D99096848053FF563AF2DE7EC
:1033400098F81330FF2B06D198F810301BB11323D7
:1033500088F8023030E7112388F802302CE7D8F8DB
:103360001400012800F09481022800F04A820E2007
:10337000098B88F80200C8E902231DE7062388F8B4
:10338000023019E7D8F81400002800F071810823F2
:1033900088F8023010E700BFF81000200100030099
:1033A000840007008200070002000300088820F460
:1033B00000600004000C0880088880B240F480603F
:1033C0000880088880B240F480700880032088F864
:1033D0000200888A0C8B81B2AB4841EA0441C8E9FB
:1033E000022330EA01037FF4E7AE98F81230002B95
:1033F00040F0D38198F81330FF2B00F0468204236D
:1034000088F80230D8E6098889053FF5C7AE002361
:1034100088F80230D0E62C4494F8500007F03AF8CF
:10342000064694F8510007F035F8984AB2F800358E
:1034300001339BB28246A2F8003516B13368B288D8
:103440001A83BAF1000F04D0DAF80030BAF8042079
:103450001A831121304605F001F91121504605F07B
:10346000FDF84FF0090965272EB13368B288196954
:103470000A4240F02881013F00F0228109F020FF3C
:1034800004460D4609F01CFF001B61EB05010528F1
:1034900071F10003F6D3E7E7088880B240F40070CA
:1034A00008804FF6FF3088820121C8E9022388F89E
:1034B000021081E6D8F81400002800F07281D8F8D4
:1034C000184014F8016B0E8201381225C8E9050472
:1034D000C8E9022388F802506EE6888A0C8B81B214
:1034E000694841EA044130EA01017FF457AE0A23FA
:1034F00088F8023060E6088880B240F48070088066
:10350000092088F80200888A0C8B81B25E4841EA63
:103510000441C8E9022330EA01037FF44DAEE6E737
:10352000002401250A940B940B910A950A9800280F
:1035300000F04A810B9814300B900B9800684607F6
:103540007FF52CAED8F81400032800F07281022811
:1035500000F24681088820F480600004000C088096
:10356000088880B240F400700880098A88F81C40FE
:10357000C8E9022388F802501EE6002001240890C2
:103580000990099108940898002800F0178109987B
:10359000143009900998006847077FF5FFADEFF3F5
:1035A0001185102080F31288088880B240F40070E2
:1035B0000880D8F818000E8A471CC8F81870EDB2B9
:1035C000067085F311880D8AD8F818106FF0010085
:1035D0004E1CC8F818600D70C8E90223C8F8140022
:1035E00088F81C4088F80240E6E500200690079025
:1035F000012007910690069C002C00F0EB80079CB0
:1036000014340794079C246864067FF5C7AD0C8AC0
:10361000D8F818104D1CC8F818500C70D8F81410B1
:1036200088F81C000139C8E90223C8F8141088F88A
:103630000200C1E50F9918310F910F990968ADE5A6
:1036400005991831059105990968A7E5019918317F
:10365000019101990968A1E50D9918310D910D9914
:1036600009689BE50399183103910399096895E569
:10367000088880B240F4007008800121C8E9022364
:1036800088F8021098E500BF0100030030330020E5
:10369000088820F480600004000C0880EFF3118497
:1036A000102080F31288088B088880B240F40070E4
:1036B000E4B2088084F311880C2188F802105AE6DD
:1036C00016B13368B2885A8309F0FAFD04460D46F4
:1036D00009F0F6FD031B61EB0501052B71F10003F9
:1036E000F6D316B13368B2881A8309F0E9FD0446AF
:1036F0000D4609F0E5FD031B61EB0501052B71F19A
:103700000003F6D3B9F101097FF4ADAE16B1336809
:10371000B2885A8309F0D4FD04460D4609F0D0FD65
:10372000031B61EB0501052B71F10003F6D3BAF120
:10373000000F04D0DAF80030BAF804205A8309F0F8
:10374000BFFD04460D4609F0BBFD031B61EB0501FF
:10375000052B71F10003F6D316B13368B2881A83D2
:1037600009F0AEFD04460D4609F0AAFD031B61EB0E
:103770000502052B72F10003F6D3BAF1000F04D055
:10378000DAF80030BAF804201A8398F90000441CD3
:103790003FF43DAEFFF7C4FB39E60F2388F8023053
:1037A0000AE5088880B240F4007008800121C8E969
:1037B000022388F81C1088F80210FDE409991831DA
:1037C000099109990968E9E40B9918310B910B9952
:1037D0000968E3E407991831079107990968DDE45E
:1037E000D8F81800098A441CC8F818400170D8F8A5
:1037F0001410C8F808200139C8F81410C8F80C30A3
:10380000DAE4088880B240F400600880EFF31184A5
:10381000102080F31288088B088820F48060000450
:10382000000CE4B2088084F311880D2188F802109E
:10383000A1E5088820F480600004000C0880EFF304
:103840001184102080F31288D8F818000D8A461CC5
:10385000C8F818600570088880B240F40070E4B2BF
:10386000088084F31188D8F81800098A441CC8F825
:1038700018400170D8F814100C200239C8E902234E
:10388000C8F8141088F8020096E498F81030002B5D
:103890003FF4B5AD2BE600BF38B5184D9DF814E0E8
:1038A00005EB40144FEA401C94F8A10400B938BD60
:1038B00084F8B324C4F8B43401220023490005F588
:1038C000946584F8B22484F8BC34049A84F8B0E493
:1038D000022384F8B114C4F8B82484F8A2346544EF
:1038E00009F0EEFC02460B462846FFF727FC94F849
:1038F000A234002BF4D194F8BC0438BD303300203E
:1039000010B504682379012B84B011D0022B0CD19F
:10391000A368DB074FF0F0024CBFFF217F21204658
:1039200004B0BDE8104004F03BBF002004B010BD5F
:10393000A268617C94F9100002F0010201920DF17D
:103940000F020092F024FF228DF80F40FFF7A4FF32
:1039500004B010BD70B505682B79012B84B0044606
:103960000E4616D0022B11D1AB68E122DB074CBF0B
:1039700011466121284604F013FF38B12068324611
:10398000FF2104B0BDE8704005F050BF002004B036
:1039900070BDAA68697C95F9100002F001020DF172
:1039A0000F0501920095E1228DF80F20FFF774FFBB
:1039B000E3E700BF70B505682B79012B84B004469E
:1039C0000E4617D0022B12D1AB68DB074FF0C302B3
:1039D0004CBFE1216121284604F0E2FE38B12068A5
:1039E0003246FF2104B0BDE8704005F01FBF002043
:1039F00004B070BDAA6895F91000697C02F001025C
:103A000001920DF10F020092C3228DF80F20E122E6
:103A1000FFF742FFE2E700BF10B504682379CA430D
:103A200041EA0211012B84B0CAB20FD0022B0AD195
:103A3000A368DB074CBFD2215221204604B0BDE869
:103A4000104004F0ADBE002004B010BD8DF80F2072
:103A5000A268617C94F9100002F001020DF10F04DC
:103A6000CDE90042D222FFF717FF04B010BD00BF1E
:103A700070B505682B79012B84B004460E461AD028
:103A8000022B15D1AB68DB074FF0F0024CBFE121F0
:103A90006121284604F084FE50B12246FF2152F8ED
:103AA000040B05F0C3FE18B12379337004B070BD68
:103AB000002004B070BDAA6895F91000697C02F07E
:103AC000010201920DF10F020092F0228DF80F20F9
:103AD000E122FFF7E1FEDFE710B504682379012B4F
:103AE00084B011D0022B0CD1A368DB074FF0B402D5
:103AF0004CBFFF217F21204604B0BDE8104004F0F8
:103B00004FBE002004B010BDA268617C94F9100083
:103B100002F0010201920DF10F020092B424FF2283
:103B20008DF80F40FFF7B8FE04B010BD10B5046863
:103B30002379012B84B010D0022B0BD1A368DB07B3
:103B40000A4620464CBFA521252104B0BDE81040FF
:103B500004F026BE002004B010BDA26894F9100045
:103B60008DF80F1002F00102617C0DF10F04CDE918
:103B70000042A522FFF790FE04B010BD10B5046806
:103B80002379012B84B011D0022B0CD1A368DB0761
:103B90004FF096024CBFFF217F21204604B0BDE8C4
:103BA000104004F0FDBD002004B010BDA268617C8F
:103BB00094F9100002F0010201920DF10F0200923F
:103BC0009624FF228DF80F40FFF766FE04B010BD6B
:103BD00010B504682379012B84B010D0022B0BD1CF
:103BE000A368DB070A4620464CBF8721072104B0A3
:103BF000BDE8104004F0D4BD002004B010BDA268A0
:103C000094F910008DF80F1002F00102617C0DF1A3
:103C10000F04CDE900428722FFF73EFE04B010BD3D
:103C200010B504682379C901012B84B0CAB20BD046
:103C3000022B06D17821204604B0BDE8104004F0E4
:103C4000AFBD002004B010BD8DF80F20A268617CCC
:103C500094F9100002F001020DF10F04CDE90042C9
:103C60007822FFF719FE04B010BD00BF10B504683C
:103C70002379012B84B011D0022B0CD1A368DB0770
:103C80004FF055024CBFA5212521204604B0BDE8C8
:103C9000104004F085BD002004B010BDA268617C16
:103CA00094F9100002F0010201920DF10F0200924E
:103CB0005524A5228DF80F40FFF7EEFD04B010BD8E
:103CC00038B5184D9DF814E005EB40144FEA401C40
:103CD00094F8A10400B938BD490084F8B324C4F8AD
:103CE000B43484F8B1140023049984F8B0E40222B7
:103CF00005F5946584F8B234C4F8B81484F8BC347B
:103D000084F8A224654409F0DBFA02460B462846F3
:103D1000FFF714FA94F8A234002BF4D194F8BC0401
:103D200038BD00BF30330020F0B5044683B00D46E7
:103D30001746061D20680379012B18D0022B13D1DA
:103D40008368DB0732464FF0FF015CBF3246FF213C
:103D500005F016FD30B115B12379DB07EAD40FB1B8
:103D600023793B7003B0F0BD002003B0F0BD826842
:103D7000417C90F9100002F00102CDE90062FF22BF
:103D8000FFF79EFFE6E700BF30B5044683B0051D90
:103D900020680379012B14D0022B0FD18368DB0735
:103DA0002A464FF0FF015CBF2A46FF2105F0E8FCE0
:103DB00010B12379DB07EBD403B030BD002003B092
:103DC00030BD8268417C90F9100002F00102CDE91B
:103DD0000052FF22FFF774FFEAE700BF30B502464A
:103DE000044652F8040B0379012B83B00ED0022B4A
:103DF00009D1FF2105F0C4FC18B12079C04300F0BF
:103E0000010003B030BD002003B030BD8568417CA7
:103E100090F91000009205F001050195FF22FFF7CF
:103E20004FFFE9E730B5B42283B00446FF210068B4
:103E300004F00AFD10B9002003B030BD20680379FA
:103E4000012B04F1040514D0022BF4D18368DB07A5
:103E50002A464FF0FF015CBF2A46FF2105F090FC87
:103E60000028E8D02379DB07E6D520680379012B09
:103E7000EAD18268417C90F9100002F00102CDE99C
:103E80000052FF22FFF71CFFEAE700BF30B50A46E9
:103E900083B00446A521006804F0D6FC10B90020C8
:103EA00003B030BD20680379012B04F1040514D060
:103EB000022BF4D18368DB072A464FF0FF015CBF79
:103EC0002A46FF2105F05CFC0028E8D02379DB07B7
:103ED000E6D520680379012BEAD18268417C90F90C
:103EE000100002F00102CDE90052FF22FFF7E8FEC8
:103EF000EAE700BF70B582B0CDE900230446FFF7C2
:103F000091FF10B9002002B070BD20685522A52194
:103F100004F09AFC0028F5D0251D20682A46FF21D0
:103F200005F084FC0028EDD02379DB07F5D40DF1F2
:103F3000FF350DF1070615F8011F2046FFF7A6FF14
:103F40000028DFD0B542F6D1DDE700BF002A37D028
:103F5000F0B5013A83B004464E1E51FA82F7051DB2
:103F600016F8012F2068A52104F06EFC90B90020FE
:103F700003B0F0BD8268417C90F9100002F00102AC
:103F8000CDE90052FF22FFF79BFE0028EFD02379F6
:103F9000DB0710D520680379012BEBD0022BE6D18B
:103FA0008368DB072A464FF0FF015CBF2A46FF21EA
:103FB00005F0E6FBE9E7B742D2D1012003B0F0BD3E
:103FC0000120704770B5962282B004460E46006804
:103FD000FF2104F039FC10B9002002B070BD251D8E
:103FE00020680379012B1FD0022BF5D18368DB07F2
:103FF0002A464FF0FF015CBF2A46FF2105F0C0FBB7
:104000000028E9D02379DB07EAD4E12220681146B1
:1040100004F01AFC0028DFD020683246FF2102B0ED
:10402000BDE8704005F002BC8268417C90F9100048
:1040300002F00102CDE90052FF22FFF741FEDFE767
:10404000002A46D0F0B5013A4F1C83B004460E4614
:1040500057FA82F7051D20689622FF2104F0F4FB31
:1040600090B9002003B0F0BD8268417C90F9100047
:1040700002F00102CDE90052FF22FFF721FE0028E5
:10408000EFD02379DB0710D520680379012BEBD023
:10409000022BE6D18368DB072A464FF0FF015CBFA5
:1040A0002A46FF2105F06CFBE9E7E1222068114672
:1040B00004F0CAFB0028D4D020683246FF2105F066
:1040C000B5FB0028CDD00136BE42C4D1012003B0DB
:1040D000F0BD0120704700BF70B505460B46044691
:1040E000164655F8040B82B087211A4604F0ACFB43
:1040F00020680379012B18D0022B13D18368DB07CA
:104100002A464FF0FF015CBF2A46FF2105F038FB2D
:1041100030B12379DA07EBD416B1C3F3401333700F
:1041200002B070BD002002B070BD8268417C90F981
:10413000100002F00102CDE90052FF22FFF7C0FD9E
:10414000E6E700BF70B5782182B0044616460068E5
:10415000002204F079FB10B9002002B070BD251DCB
:1041600020680379012B14D0022BF5D18368DB077B
:104170002A464FF0FF015CBF2A46FF2105F000FBF5
:104180000028E9D02379DA07EAD45B09337002B05A
:1041900070BD8268417C90F9100002F00102CDE907
:1041A0000052FF22FFF78CFDEAE700BF30B5CC22BA
:1041B00083B00446A521006804F046FB10B9002036
:1041C00003B030BD20680379012B04F1040514D03D
:1041D000022BF4D18368DB072A464FF0FF015CBF56
:1041E0002A46FF2105F0CCFA0028E8D02379DB0726
:1041F000E6D520680379012BEAD18268417C90F9E9
:10420000100002F00102CDE90052FF22FFF758FD35
:10421000EAE700BF30B5B42283B00446FF2100684E
:1042200004F012FB10B9002003B030BD251D20683A
:104230000379012B22D0022BF5D18368DB072A46B4
:104240004FF0FF015CBF2A46FF2105F099FA0028D4
:10425000E9D02379DA07EAD4CC212046FFF716FE0D
:104260000028E0D002E02379DB07DDD520682A466C
:10427000FF2105F0DBFA0028F5D1D4E78268417C04
:1042800090F9100002F00102CDE90052FF22FFF781
:1042900017FDDCE72DE9F04F89B00446CDE9062390
:1042A000002004F1040B0490029103905D46204627
:1042B000049FFFF7B7FD069BFE0003EBC70B20B979
:1042C0000AE0237913F0010A0CD020682A46FF2166
:1042D00005F0ACFA0028F4D1079B049A1A7009B0D3
:1042E000BDE8F08F9B07F7D5F0212046FFF7CEFD04
:1042F0000028F1D0069B083E334401270593D046A1
:104300003E46029B002B4AD0082E48D806F1FF39C2
:1043100043FA09F909F0010920684FEAC912782126
:1043200004F092FA0028D7D020680379012B47D0F7
:10433000022B43D18368DB072A464FF0FF015CBFA5
:104340002A46FF2105F01CFA0028C5D0237913F076
:104350000102E9D103F0600160294FEAD31C51D07A
:10436000029919B1082E01D8E145B5D1BCF1000F71
:104370003AD01BF808303B430BF808307F00013679
:1043800017F0FF07F6B2BCD108F101085FFA88F810
:10439000B8F1080F36D0029B0127002BB4D1049B43
:1043A000D3B1039BB34217D9059B13F808301F42C2
:1043B00014BF4FF001094FF00009ADE700208BE773
:1043C0008268417C90F9100002F00102CDE90052B0
:1043D000FF22FFF775FCB7E7039BA3EB0609B9FAC9
:1043E00089F94FEA591997E71BF8081021EA0701E4
:1043F0000BF80810990941EA531313F0010F08BF95
:10440000B246BBE7402E06D8079B049A1B7893421E
:104410003FF64DAF60E79BF807C00BF1FF370BF19C
:10442000060B17F8011F082382EA010616F0010F98
:104430004FEA520218BF82F08C0203F1FF3318BF1B
:10444000D2B213F0FF034FEA5101EDD1BB45E8D1E1
:104450009445D9D1049B0133DBB20493BAF1000F28
:104460003FF43AAFCDF80CA0CEE700BF10B500681E
:104470000379012B84B00C4618D0022B13D183682A
:1044800013F0010F14BF2221A221032303AA04F079
:104490002BFC30B1BDF90D3003EB83031B12E63367
:1044A000238004B010BD002004B010BD8368417C9F
:1044B00090F9100003F00103019303AB0093222253
:1044C0000323FFF7FDFB0028E4D1EAE7F0B587B04E
:1044D0000023834A00930193136843F480331360ED
:1044E00003E0009BB3F5A04F09D0136803F4003339
:1044F0000193009B01330093019B002BF1D0784B7B
:104500001B6813F4003318BF01230193019B012B97
:1045100001D000BFFDE7724B72491A6C724842F03D
:1045200080521A640A6842F440420A609A689A60AB
:104530009A6842F400429A609A6842F4A0529A60E3
:1045400058601A6842F080721A601A689201FCD5AD
:10455000664A40F205711160996821F00301996083
:10456000996841F00201A2F580629960936803F0B6
:104570000C03082BFAD1936803F00C03042B00F012
:104580008D80082B00F08F80594D5A4BC5F87C3E2A
:10459000534B59499868D5F87C2E584CC0F30310FA
:1045A0000144574891F86410CA405649C5F87C2E1A
:1045B000E160554A596FA260596B544A21F080015D
:1045C0005963596F41F080715967196B0A431A6337
:1045D0005A6B5A639A6B9A631A6C4D490A431A6470
:1045E000596C4C4A0A435A6402A948F2FF730026E8
:1045F00002934FF6FF770396FEF794FA00F580607A
:104600000297FEF78FFA00F580600297FEF78AFAAC
:1046100000F58060FEF786FA00F58060FEF782FA0A
:1046200000F58060FEF77EFA00F58060FEF77AFA0A
:1046300000F58060FEF776FA00F58060FEF772FA0A
:104640000846FEF70DFBD4F8FC30029A3249334895
:1046500043F08073C4F8FC30314BC3F8B01F5E6088
:10466000196841F001011960D5F87C3E4FF47A7168
:10467000B3FBF1F3013BB3F1807F2A49B2FBF1F2C6
:10468000C0F8042508D24FF0E022F021536107233F
:1046900084F823109661136107B0F0BD144D224BCE
:1046A000C5F87C3E74E753685168114D13F4800FD0
:1046B00001F03F01536814BF1B4A0E4AB2FBF1F1EF
:1046C000074A5268C2F30142C3F38813013201FB67
:1046D00003F35200B3FBF2F3C5F87C3E58E700BF8A
:1046E000003802400070004008544007003C02407F
:1046F000000000200024F400F810002000ED00E08D
:10470000000002400003FA0500000008FF91670066
:10471000FFC9FE103357070055CEACC5303300201B
:10472000001000E040420F0000127A0082B0064BF9
:10473000002201920193019B03EB80000190019BF9
:10474000196002B0704700BF5028004010B51C200F
:1047500005F0A0FE1121044603F080FF4CB1236850
:10476000A2885A83C82008F0D9FD2368A2881A833A
:1047700010BDBDE81040C82008F0D0BD704700BF94
:10478000704700BF704700BF10B5124C94F8123547
:1047900023B9114B4FF480225A6110BD4FF0E02233
:1047A000D2F8103D23F00603C2F8103DFDF786FD58
:1047B00094F81235002BECD0D4F818359B68DB0741
:1047C000E7D5D4F81426136823F0030161F3070337
:1047D0001360DEE730330020003C01402DE9F04F4C
:1047E000B34CD4F814355A69D2078BB002D50BB04C
:1047F000BDE8F08F5A699B6912EA0309F7D0C9F343
:10480000074319F4002F009340F0E180009B590703
:1048100043D419F0020F5FFA89F603D0D4F81435A7
:1048200002225A61B9F1000FC0F2EE8119F4006F53
:10483000C9F3072540F04A81330708D59D4B9E48B0
:10484000D3F880309847D4F8143508225A61F70617
:1048500000F1C481EE0600F16F81A90600F1E88045
:10486000009BDA0609D5934B9348D3F890309847CC
:10487000D4F814354FF480125A61009B9B06B6D5CC
:104880008C4B8D48D3F894309847D4F814354FF4B6
:1048900000125A610BB0BDE8F08FD4F81825936967
:1048A000D26913401FFA83FABAF1000FB1D0DFF8D2
:1048B0001882CDF80C90A8F1180500271AF0010F06
:1048C00078D0FEB2D4F8182504EB86031069D3F82B
:1048D0002015536B8968F340DB01DBB203430B40C7
:1048E00013F00109D9B240F0AB810A0740F1C7814A
:1048F000D8F8002008239360994619F0800F59D00A
:10490000D5E94CC0D5F82431D8F800E0ACEB000173
:104910008B42DEF8182028BF0B4692B20333B2EB6D
:10492000930F47D9D4F8182594F80B95323604EB39
:104930008603CDE90178674698469446874237D981
:10494000D5F82431391A994228BF194601F1030BD1
:10495000D5F828314FEA9B0BB9F1000F10D18AB27C
:1049600003329210D8F810650AD04846013053F847
:10497000047B37608242F9D1D5E94C70D5F82831F3
:1049800008440B44B842C5F82831C5F83401DEF8B4
:1049900018300AD195F81C11012202FA01F1DCF855
:1049A000342022EA0102CCF834209BB29B45C5D3C7
:1049B000DDE901785FEA5A0A07F1010708F1040806
:1049C00005F128057FF47AAFDDF80C9021E7D4F8E3
:1049D00018359D69DB691D402D0C3FF417AF04F5B8
:1049E000A168DFF8D0B004F25C560027C24608E0A8
:1049F0006D0807F1010706F1040608F128083FF4E5
:104A000005AFEB07F4D5F9B204EB8103D4F8182510
:104A1000D3F85C359B6852691340D807DAB200F1CD
:104A20003E81930740F16681336802229A60DFE796
:104A3000D4F81835D4F820159A680868C2F34102F2
:104A4000022A06BF032262F30A006FF30A0008601D
:104A50005A6842F480725A6006A8FEF701F9D4F849
:104A60001425D4F81815D368079D6FF38D23D360F0
:104A700088681249C0F34100014491F8D01003291D
:104A800000F05E810E490F480126294484F80A652A
:104A900081424FF04006A4F80C6500F2AA810E2175
:104AA00061F38D234FF40051D3605161D8E600BF0C
:104AB00030330020F8100020383800206C620708DE
:104AC000401E1BFF3F420F005038002000238DF88E
:104AD000133094F81A368DF81330B54BB548D3F827
:104AE00088309847D4F81835D4F81425986894F885
:104AF00012354FF400615161002B3FF49DAEC207A7
:104B00007FF59AAE94F81D36012B7FF495AE9DF893
:104B10001330032B7FF490AED4F81436A6491A68EC
:104B200042F001021A601A6842F003021A600B692F
:104B300043F006030B617FE6D4F81865D4F814152A
:104B40007368002723F0010373600597059B43F00A
:104B500020030593059B67F38A130593059B0B615F
:104B60000B690593BC46954B03E00A690592013B2E
:104B700002D0059A9006F8D494F8092552B1904BCA
:104B800003EB820EFF2253F8040F8260D86B73454B
:104B90008260F8D10B2363F3070763F3070C4FF030
:104BA000FF33B3614FF00113F3617761C6F810C0B2
:104BB000336884486FF30A13336094F80B25D4F8F4
:104BC0005C35012A186100F0B4804FF480534B61CA
:104BD000774B7848D3F8843098473EE6D4F81435BC
:104BE0009A6922F010029A611A6AC2F343400228BD
:104BF00002F00F0100F0AF80062800F086809A696D
:104C000042F010029A6125E694F812353BB1D4F8CF
:104C10001426136823F0030161F307031360D4F82B
:104C20001825634B6348D3F88C10536823F00103B5
:104C300053608847D4F814354FF000425A61F5E5C7
:104C4000516BD8F800005A4B4FF0010C0CFA07FCDE
:104C500021EA0C01516301229B6F82603146554865
:104C6000984794F80B35012B00F0B08019F0020F33
:104C70003FF443AED8F8003002229A609AE6CB06A1
:104C800004D5D8F8003010229A6093E6480658BF41
:104C90008946EBD5D8F8003040229A608AE694F82D
:104CA0000B25336801208242986007D11A69D8F831
:104CB0007C33C2F312029B1AC8F88C33DBF87430D1
:104CC0005046984794F80B35012B7FF491AE002F96
:104CD0007FF48EAE94F81936052B7FF489AED4F8A4
:104CE0005C35384A1A61384A5A611A684FF0802296
:104CF0001A607DE610077FF57BAEDBF87C3050460E
:104D00009847336808229A6072E601EB810104EB50
:104D1000C101D4F8D865D1F89408C2F30A1202444C
:104D20003068C4F8D40A3068C4F8D80AC1F89428A6
:104D300065E7254A5A611A684FF080221A6044E7F5
:104D4000002184F80A154FF40071A4F80C1509210C
:104D500061F38D23A6E647F6F07010423FF44FAFA3
:104D6000C2F30A1201EB810004EBC00002F1030C54
:104D70005FEAAC0CD0F88868D4F8D8E54FEA81082F
:104D800018BF002006D00130DEF8007046F8047B22
:104D90008445F8D1414404EBC101D1F8880810449E
:104DA000C1F88808D1F894080244C1F8942826E78D
:104DB000F81000203838002000ED00E0400D03001E
:104DC0004C38002018000860043E0020002F7FF4BB
:104DD0004DAF94F81936042B7FF448AFD4F85C3506
:104DE0002B4A1A612B4A5A611A684FF080221A60C6
:104DF0003CE72948A5F57401A1F51051814203D87B
:104E00000D2161F38D234DE6244925482944814233
:104E100003D20C2161F38D2344E62248A5F18C7165
:104E2000A1F54341814203D80B2161F38D2339E67B
:104E30001D491E482944814203D20A2161F38D2372
:104E400030E61B491B482944814203D2092161F302
:104E50008D2327E61848A5F1B771A1F55851814275
:104E600003D2082161F38D231CE614491448294418
:104E7000814203D2072161F38D2313E611491248C1
:104E80002944814234BF0621052161F38D2309E6BF
:104E900018000860043E0020DFC810002013FBFE4D
:104EA00020D61300FF69180000D3CEFE40771B0008
:104EB000C05BB3FEC091210040AC2700C01D6AFE5C
:104EC00040E13300803C36FEE09C410070B51A4D55
:104ED0001A4BC5F8FC3A1A4B85F8081B002683F8D4
:104EE000276905F6FC23C0E954330D230446C0F8B6
:104EF000583140F20113C0F85C6100F5A271A0F8CE
:104F0000443168F0CBFEE378C4F8B4631F22C4F8E0
:104F1000B023012205F22C459342C4F8A853A4F80B
:104F20009C2308BFC4F8AC5304F567712046BDE864
:104F3000704068F0B3BE00BF303300205553425379
:104F400038220020F0B50B7813F0600683B00C46D1
:104F5000054633D0202E2DD14A78FE2A6BD0FF2A69
:104F600063D14A88002A40F08B80CA88002A40F02A
:104F70008780190600F184806148624B80F82729F8
:104F8000C5F8B423EA78012183F84C14A5F89C13E2
:104F900003F22C431F21012AC5F8B013C5F8A8332A
:104FA00005F5677108BFC5F8AC33284668F076FE92
:104FB000002600E00026304603B0F0BD4B780A2BF7
:104FC0006AD00B2B63D0012BF5D18B88D9B21B068D
:104FD00076D40196019BC06843F010030193019BB6
:104FE000036103690193484B03E002690192013BAD
:104FF00002D0019AD206F8D42846424F68F03EFD0E
:10500000022321794022284668F06AFD97F84C3443
:10501000022B6DD094F90420002ACCDA012BCAD0DF
:1050200001212846FFF752FFC5E766F0A9F80226DE
:10503000304603B0F0BD4E8816BBCC88012C1FD182
:1050400018061DD52F4FD7F864349B699847C0B216
:1050500087F80C0BA0B1022307F60C3785F8113145
:105060004FF48073C5E94E44C5E94A77C5E94C461B
:10507000A5F81C3105F58E71284668F0A1FD9AE768
:10508000284666F07DF80226304603B0F0BD1D4B81
:105090004A8883F80D2B8EE7022280F811214FF405
:1050A0008072A0F81C21194A0123C0E94E33C0E9DF
:1050B0004A22C0E94C3600F58E7168F081FD7AE72E
:1050C0000096009BC06843F020030093009B61F3AF
:1050D0008A130093009B0361036900930A4B03E06A
:1050E00002690092013B87D0009A9706F8D483E7C3
:1050F0008121284666F07CF8002387F84C345AE773
:105100003822002030330020400D03003D3E0020B7
:1051100010B50D4B93F82739022B07D0033B012B19
:1051200002D80021FFF7D2FE002010BD074B93F8F4
:105130003914044668F064FE0028F5DA012120469F
:10514000FFF7C4FEF0E700BF382200203033002014
:10515000F8B5404E96F82759074655B1012D06D1AE
:105160003D4B93F8391468F04BFE002832DB0020E9
:10517000F8BD394CB0F8B433D4F83024C4F8002B5F
:105180001F2BD4F83424C4F8042B08D1334BD4F8A3
:105190002C249A4203D194F8391401291FD994F888
:1051A0000E3B04EBC3020133DBB2042B4FF00501CD
:1051B00008BF002382F8101B4FF4005184F80E3B07
:1051C00038460223C2F8141B84F84C34FCF706F866
:1051D0000020F8BD29463846FFF778FEC7E794F867
:1051E0003A34013B0F2BDAD868F00AFE002827DB9F
:1051F00096F82739013B022BB9D9B4F8303B1BB3E1
:10520000042286F82729164AC7F85C51C7E95422B8
:10521000D4F8342484F8085B934228BF1346D4F8AA
:10522000042BC7F8583140F20111A7F84411D31AE2
:1052300007F5A2713846C4F8043B68F02FFD96E7E5
:105240003846FBF7CBFF92E719463846FFF73EFE9C
:105250008DE700BF382200203033002055534243F1
:10526000846F002010B54FEA511E024400EB8E0CF3
:10527000624529D901F01F014FF0FF3404FA01F310
:1052800050F82E100B4093FAA3F3B3FA83F3DBB27A
:10529000202B16D10CF104018A4202D817E08A4271
:1052A00012D98C460431DCF8003093FAA3F3B3FA38
:1052B00083F3DBB2202BF2D0ACEB000003EBC00099
:1052C00010BD03EB4E1010BD4FF0FF3010BD204657
:1052D00010BD00BF30B503694268494D83B00BB9BA
:1052E000002A65D0D0ED067AC46A013377EE807A61
:1052F0000361631C012BC0ED067AC36247D0D0ED79
:10530000075A90ED097AD5F8E01307EE903A30EE9F
:10531000656AF8EEE76A8A1AC6EE267A81688A42DA
:1053200077EEA57A30EE670AC0ED087AA6EE007A2D
:10533000C0ED077A80ED0A7A80ED097A01D803B0D2
:1053400030BD012B4EDD07EE904AF8EEE77A87EE8E
:10535000270AB5EEC00AF1EE10FA46DBB5EE400AB8
:10536000F1EE10FA44D4F1EEC07AF4EE677AF1EE81
:1053700010FA3AD690ED057AB4EEE77AF1EE10FA2B
:105380001AD5037B33B30323037003B030BDD5F8C4
:10539000E0338168DFED1B7A80ED080A9A1A8A42B1
:1053A00080ED070AC0ED097AC9D9B0EE670ADAE7DD
:1053B000D5F8E023426095E7D0ED047AD0ED066A97
:1053C000F8EE677A022386EEA77A037080ED067AFC
:1053D00003B030BDD5F8E013416000220361826163
:1053E000C362ACE79FED070ABDE7DFED067AC1E7D0
:1053F00001906BF0EDF80198F0EE407AB5E700BF50
:10540000303300200000000070B52DED028B044603
:1054100082B000F1480503460026B1EC017AD3EDD5
:10542000067ADA6A77EE877A0132012AC3ED067AC4
:10543000DA626ED093ED075A93ED096A07EE902A6F
:1054400077EE455AF8EEE77AC5EEA76A76EE857AEA
:10545000F0EE466A37EE677AC3ED087AE5EE876AC2
:10546000C3ED077AC3ED0A6AC3ED096A1833AB428C
:10547000D3D103693A4E426801330361D6F8E03371
:105480009B1A8268934240D99FED368AE36A012BCA
:105490004DDD013B07EE903A94ED0A7AF8EEE77A9B
:1054A00087EE270AB5EEC00AF1EE10FA4EDBB5EE34
:1054B000400AF1EE10FA4CD4F1EEC07AF4EE677ABD
:1054C000F1EE10FA42D690ED057AB4EEE77AF1EEFD
:1054D00010FA24D41834AC42D8D1D0ED047AD0EDEF
:1054E000066A90ED0C7AD0ED125AF8EE677A022334
:1054F00086EEA76A0370C7EE276A85EEA77A80ED6D
:10550000066AC0ED0C6A80ED127A02B0BDEC028B27
:1055100070BD83ED087A83ED077A5E62A6E7037BB0
:1055200043B10323037002B0BDEC028B70BDB0EE3B
:10553000480AC1E70022D6F8E013416003618261A6
:10554000C362026343648264C365DEE7F0EE487AB7
:10555000B9E701906BF03CF80198F0EE407AADE7C6
:105560003033002000000000F0EEC07AB0EEE07AA8
:10557000B4EEE77AF1EE10FAD4BFB0EE676AB0EE9F
:10558000476AB5EE406AF1EE10FA48D0B4EEE77A19
:10559000F1EE10FA54BFF0EE675AF0EE475AC5EE3E
:1055A000866ADFED202ADFED203ADFED204A9FED0D
:1055B000205A9FED203A9FED204A9FED206AE6EEAB
:1055C000A23AA6EE834AE6EEA34AF7EE005AA6EE0A
:1055D000A45AE6EE845AA6EE856AB1EE466AC6EE95
:1055E000256AB4EEE77AF1EE10FA48BFDFED147ADF
:1055F000F5EEC00A48BF77EEE66AF1EE10FA48BF52
:10560000DFED107AB5EEC00A48BF77EEE66AF1EE3C
:1056100010FA48BFF1EE666AB0EE660A7047DFED39
:105620000A6ADEE739094E3DE3B59EBE88FA16BE2A
:1056300045FE7FBF99FB243F69A2163EA7DFA8B4B1
:10564000DB0FC93FDB0F4940A7DFA83491ED007A9B
:10565000D0ED047AD0ED055A90ED064AD0ED074A18
:1056600090ED085A90ED096AD0ED0A6AE7EE077AE4
:10567000F7EE003AC0ED047A91ED007AD1ED017AAF
:10568000E7EE275A90ED0B7AC0ED055AD1ED025A9C
:1056900091ED003AD0ED0C7AA3EE254A80ED064A52
:1056A000D1ED005A74EEA54AC0ED074AD1ED014A8A
:1056B000D1ED005AA4EEA55A80ED085A91ED015A99
:1056C000A5EE056A80ED096AD1ED015A91ED026AF5
:1056D000E5EE866AC0ED0A6AD1ED016A37EE267AF8
:1056E00080ED0B7AD1ED026A91ED007AE6EE877AD1
:1056F000C0ED0C7A91ED026AD1ED016AD0ED0D7A20
:1057000090ED0E7A90ED0F4AD0ED104A90ED115ABF
:10571000D0ED135AE6EE267A75EEA35AC0ED0D7A57
:10572000D1ED026AD0ED127A90ED006AA6EEA67A6B
:10573000D0ED016A80ED0E7A91ED027A34EE074ADF
:1057400090ED027A80ED0F4A91ED004A74EE844AA2
:10575000C0ED104AD1ED014A35EE245A80ED115AC0
:1057600091ED025AC0ED135A77EE857AC0ED127AA8
:10577000D1ED017AD1ED005A91ED025A67EEA77A88
:10578000E5EEA57AE5EE057AA5EEA76A80ED006A5A
:1057900091ED016AE6EE276AC0ED016AD1ED026A79
:1057A000A6EEA77A80ED027A90ED037A77EE277A5B
:1057B000C0ED037A704700BF2DE9F04F89B0CDE905
:1057C000011200F11009834600F13008CE46074669
:1057D0004E46054684460024CDF80C906246284685
:1057E00084B1D2ED007A01463B468946F3EC016A6A
:1057F00099ED007AE6EEC77A634501F11001C2ED3A
:10580000007AF2D10432724500F10400E8D1032C91
:1058100004F1010A30D062463046ABEB05099CB179
:10582000D2ED047A009409EB000329460C46F3EC10
:10583000016A94ED007AE6EEC77A834201F1100125
:10584000C2ED047AF2D1009CD2ED046A16ED047A1E
:10585000C6EE877A1032424500F11000C2ED007AA0
:10586000DDD10CF1140C08F10408043514360EF1E6
:10587000100E10375446B1E7DDE902290025002358
:105880000135059306930793042D52F8043B0493C6
:1058900005A80BF1140418D0F2EC017A04A9C0EDAC
:1058A000007A4B46B1EC017AF3EC016AE6EEC77A76
:1058B000A342C0ED007AF5D10135042D09F110099C
:1058C00000F1040004F11404E6D1019A08AE76ED6B
:1058D000017A022510320BF14004022D2046A2F17C
:1058E000040142ED017A20D02346F3EC016AB2ECC8
:1058F000017AE6EEC77A9842C1ED007AF5D154ED0F
:10590000016A87EEA67A6B1C81ED007A14D076EDE1
:10591000017A013D0A46022DA4F11404A0F1100001
:10592000A2F1040142ED017ADED154ED016A87EE65
:10593000A67A02ED017AEAE709B0BDE8F08F00BF70
:1059400010B584B00C46024669461030FFF734FFAC
:10595000DDED007A9DED017ADDED026AB6EE006ABA
:1059600067EE867A27EE067A66EE866AF4EE677A46
:10597000F1EE10FAC4ED007A84ED017AC4ED026A0A
:105980000DD6B4EE477AF1EE10FA13D6F4EE666A4D
:10599000F1EE10FA78BF012016D604B010BD9FEDCD
:1059A000106AF0EEE77AF4EE467AF1EE10FAE8DDEE
:1059B0000020F2E7DFED0A7AB0EEC77AB4EE677A3C
:1059C000F1EE10FAE2DDF3E7DFED057AF0EEE66ADC
:1059D000F4EE676AF1EE10FAD4BF01200020DCE794
:1059E000FFFF7F7FDFED257AB4EEE70AF1EE10FAD4
:1059F00008DD9FED237A30EE470AB4EEE70AF1EEB8
:105A000010FAF8DCDFED1F7AB4EEE70AF1EE10FAD7
:105A100008D59FED1B7A30EE070AB4EEE70AF1EEE7
:105A200010FAF8D4DFED187AB4EEE70AF1EE10FAC6
:105A300018DD30EE670A37EEC00A60EE007A9FED9F
:105A4000137A9FED136ADFED136AA7EE876A9FED65
:105A5000127AE7EE866A60EE275AA7EEA67AA5EEDE
:105A6000870A70479FED0D7AB4EEC70AF1EE10FA7F
:105A700044BF30EE270A37EE400ADEE7DB0F49402D
:105A8000DB0FC940DB0F49C0DB0FC93F9A7C2E36C4
:105A9000FAAF4FB93587083CA4AA2ABEDB0FC9BFAD
:105AA00010B53E4CB4FBF2F4A1420DD300234FF0ED
:105AB0007E52026043608360C360036100238361A0
:105AC00043610362C36110BD07EE902AB8EE677AA6
:105AD000DFED337A27EE277AB7EE006AC6EE076A63
