:020000040800F2
:1000000000000110512107086D2D0008C968020881
:10001000F1210708F1210708F1210708000000007D
:10002000000000000000000000000000C9480008B7
:10003000CD48000800000000D148000801FE00087B
:10004000F1210708F1210708F1210708F12107082C
:10005000F1210708F1210708E9C90008EDC90008E6
:10006000F1210708F1C90008F5C90008D5340008D6
:10007000E9340008FD340008113500082535000872
:10008000393500084D350008F1210708F12107082E
:10009000F1210708F1210708F1210708F9C9000833
:1000A00081330008A9330008D13300086D330008FC
:1000B000F93300080D34000821340008F121070845
:1000C000F1210708F1210708F1210708F1210708AC
:1000D000F1210708D52E0008F1210708E12E0008BC
:1000E000FDC90008F1210708D54800085D34000863
:1000F00085340008AD340008493400086135000833
:10010000F1210708F121070835340008F12107081B
:10011000F1210708F1210708F1210708F12107085B
:1001200075350008893500089D350008B13500088F
:10013000C5350008F1210708F1210708F12107085A
:10014000F1210708F1210708F121070829490008D2
:10015000D9350008ED35000801360008ED2E0008FD
:10016000F1210708F1210708F1210708F12107080B
:10017000F1210708F1210708F1210708F1210708FB
:08018000F1210708F121070835
:10019000D0E907239A422FBFD01AC0688018C01A2E
:1001A000704700BFD0E9092300699A4238BF12188E
:1001B000D31A0138C01A7047D0E90902101AB0FAF0
:1001C00080F04009704700BF0246036A4069D16869
:1001D000C05C01338B4228BF00231362704700BF0D
:1001E000436A8269D154436A0169426B01338B428D
:1001F00028BF00234362D36843F08003D360704775
:10020000436B188810F0100002D01A889B880120D8
:10021000704700BF436B99891A88890610B5044658
:100220000AD592B2900607D5E26A002A29D09888AA
:10023000216B80B29047636B99891A88090692B244
:100240000FD510060DD5D4E909128A4214D0A16940
:100250002069895C99800132B2FBF0F100FB112228
:10026000A262998A1A88C90592B204D5D20744BFFE
:100270004FF6F7721A8010BDDA6822F08002DA6059
:10028000EFE79B88E2696169DBB28B54E269E16860
:10029000636B0132B2FBF1F001FB1022E261CBE7AC
:1002A000704700BF036942681F2B10B40AD9546815
:1002B000A3F1200C202101FA0CF1214207D15DF8B5
:1002C000044B70471468202199402142F7D081697E
:1002D0000024C8680C7480684C68016821F0010132
:1002E0000160206894F805C00C4C818934F81C40EA
:1002F00089B221EA04011F2B818107D9A3F12001D2
:1003000020238B405DF8044BD3607047202101FA15
:1003100003F35DF8044B9360704700BF94880708AF
:1003200082B00922274B8DF80720DA68D00319D450
:10033000DA68D10640D4DA68D20541D4DA6812F01E
:10034000E00F3BD1DB6813F0020F14BF0823092331
:100350008DF807309DF80730012B0AD09DF8070073
:1003600002B0704701238DF807309DF80730012B4C
:10037000F4D1144A12E0D368DB0519D4D36813F022
:10038000E00F17D1D36813F0020F14BF082309231D
:100390008DF807309DF80730012BDFD1D168C803F5
:1003A0004FF00103F4D4D368D906E4D50623EFE770
:1003B0000223EDE70723EBE70623D4E70723D2E781
:1003C0000223D0E7003C0240704700BF704700BFE7
:1003D00001207047034BD3E90003C01AC0F30A00A1
:1003E000704700BF801A0020054AD2E900138B42F3
:1003F000FDD0D1180133C3F30A03087A5360704764
:10040000801A0020064BD3F8080800B97047D3F8CB
:100410000808A0F10500B0FA80F04009704700BF5D
:10042000801A0020012380F849307047044BD3E93B
:100430000003C01AC0F30A00C0F50060704700BF97
:10044000801A002010B5D0F8E83504461B6998479B
:10045000032384F81231002010BD00BF08B5042228
:1004600090F81211D0F8E83580F8131180F81221B5
:10047000DB689847002008BD08B5D0F8E435DB6993
:1004800003B19847002008BD08B5D0F8E4351B6AD1
:100490009847002008BD00BF08B5D0F8E4355B6A76
:1004A0009847002008BD00BF037830B403B304466A
:1004B000C0F1010C04EB0C0314F8015FDBB2002D5A
:1004C000F8D101335B00DCB2138003230C704B7056
:1004D00004785CB1022300255A1CD2B2CC548D544E
:1004E00010F8014F0233DBB2002CF5D130BC70475D
:1004F00002242346E8E700BF10B5074C2068FF2818
:1005000008D00649D1F80C2801F5016100F080F807
:10051000FF232360002010BD00000020801A00206F
:10052000432301480B807047040000201223014838
:100530000B80704748000020042301480B8070475F
:100540005C00002008B5044B04480A461946FFF732
:10055000ABFF084608BD00BF98220020FC33080806
:1005600008B5044B04480A461946FFF79DFF0846A4
:1005700008BD00BF982200200834080808B5044BC5
:1005800004480A461946FFF78FFF084608BD00BF1A
:10059000982200201034080808B5044B04480A4685
:1005A0001946FFF781FF084608BD00BF98220020CA
:1005B0001C34080808B5044B04480A461946FFF7DE
:1005C00073FF084608BD00BF9822002028340808A1
:1005D000704700BF704700BF704700BF704700BF43
:1005E000704700BF704700BF044B00200522C3F8CE
:1005F0000828C3F81809C3F81C097047801A00209E
:10060000024B0020C3F80808704700BF801A002082
:10061000212838B50C4605D022282DD0202813D00B
:10062000002038BD0029FBD0072AF9D1194BD3F897
:10063000200993F8241993F8252993F82639206086
:1006400021716271A371EBE70029E9D0072AE7D194
:10065000104DD5F81C3913B109680020984720685F
:1006600021796279A379C5F8200985F8241985F8DC
:10067000252985F82639D3E70029D1D0022ACFD100
:10068000044BD3F81839002BCAD0098800209847AA
:10069000C6E700BF801A002010B4124CD4E9003223
:1006A0009A1AC2F30A020A44B2F5006F13D8B1B124
:1006B00001444A1E013810F801CFE118824203F1CB
:1006C000010381F808C0C3F30A03F4D123600020BA
:1006D0005DF8044B704702205DF8044B70470846F4
:1006E000F6E700BF801A00201D49D1F87C391A793D
:1006F000022A00D0704710B41A4C93F9102002EB74
:10070000820204EB8202126E1089800708D51289DA
:10071000100605D49A6892070BD45DF8044B704715
:1007200000BFD1F87C391A79022AE6D05DF8044B73
:100730007047D1F880190C480C4A4FF4FA7404FB46
:1007400001F1A2FB0121446889094268121B914210
:10075000FBD25B69002BE0D01A689B881383DCE72F
:10076000801A002000000020001000E0D34D62102D
:10077000034B93F84C09003818BF0120704700BFA5
:10078000801A00200E4BD3F8782942B11068918866
:100790000269114203D0002283F84C29704793F874
:1007A00040290132D2B2072A83F84029F3D8D3F87E
:1007B0008419C3F83C19012283F84C29704700BF03
:1007C000801A0020034B93F84C09032894BF0020A3
:1007D00001207047801A002000487047D023002075
:1007E00030B4194B00209C7B14B11D688D4206D09B
:1007F0000130082803F11003F5D130BC70479AB1DD
:10080000124B03EB40218A4219D0114B93F8B421CB
:100810008AB1104B01225A7000F5817003EB001071
:100820000123837130BC70470A4B00F5817003EBE4
:1008300000108271E1E7012283F8B421E9E7022C7C
:10084000E3D1183BE8E700BF1C5700201C470020FD
:10085000045700200447002030B41D4C002384F8C6
:10086000A03004F1180004E00133082B00F110005F
:100870001ED005688D42F7D190F80EC0BCF1030F71
:10088000F2D1BAB1134901EB4320824209D094F866
:10089000B42112B9012284F8B4210F4901224A700F
:1008A00000E0183903F5817301EB031301229A71FB
:1008B00030BC70470849D4F89C2003F5817301EBE4
:1008C0000313013204219971C4F89C20F0E700BFA2
:1008D000045700201C47002004470020A8B183686B
:1008E0001BB10E4B07229A7070470C4A1178D360E7
:1008F00003294FF004000CBF80214FF48071C2E93E
:1009000001111361137590707047044A02F580510C
:100910000123537081F8B431704700BF04470020B1
:1009200010B5812104466FF065FB204601216FF070
:1009300061FB204682216FF05DFBFFF761FE002026
:1009400010BD00BFC169026910B4002340F2011458
:10095000A0F844410B60D169846D21F002014FF091
:10096000010CD161A0F89CC32360D169044821F433
:10097000003180F888395DF8044BD1611846704722
:10098000801A0020202301480B807047B00000200F
:10099000122301480B807047D00000200423014837
:1009A0000B807047E40000200A4608B5054920B9CD
:1009B0000548FFF779FD034808BD0448FFF774FDBB
:1009C000004808BD0C2400203834080850340808BA
:1009D00008B5044B04480A461946FFF765FD08466A
:1009E00008BD00BF0C240020683408082048D0F857
:1009F000E837D0F8EC2730B59B184FF01A040C807C
:100A000001D11C4830BD1B4AD0F8EA174FF0000E48
:100A100010467546B3F1204F4FEA137C0CF13004B9
:100A20000EF1020E2ABF0CF1370C847080F802C060
:100A3000BEF1100FC5704FEA031300F10200E9D1B7
:100A400000200446B1F1204F4FEA117303F1300C3E
:100A500000F102002ABF373382F812C093740828CD
:100A6000D4744FEA011102F10202EBD1014830BD0A
:100A700000F0FF1FE800002008B5044B04480A46B8
:100A80001946FFF711FD084608BD00BF0C240020E1
:100A90007C34080808B5044B04480A461946FFF799
:100AA00003FD084608BD00BF0C2400208834080858
:100AB000034BD3F8942BB3F8983B13830020704773
:100AC000801A00204FF40070034B1060D3F8E03C14
:100AD0000B600020704700BF801A00200020704784
:100AE0000120704701207047002070472DE9F04138
:100AF0001E4E96F8103D002BFBD199B3014400F136
:100B0000FF384F1ED6F8143DD6F8182D0133C3F325
:100B10000A039A4216D10FF0BFF904460D460FF0B2
:100B2000BBF9031B61EB0501B3F57A7F71F100039B
:100B3000F5D3D6F8143DD6F8182D0133C3F30A03C4
:100B40009342E8D0D6F8142DD6F8143D18F8011FBA
:100B500032440133C3F30A03B84582F81C1DC6F8BA
:100B6000143DCFD10020BDE8F08100BF801A0020E5
:100B700010B50A4CD4F8083803B910BDD4F80838B9
:100B8000052BFAD1002A0846D4F884391146F4DD41
:100B9000FFF7ACFFD4F8843910BD00BF801A0020E5
:100BA00090F84820531C0244DBB280F8483082F8A9
:100BB000341090F849200AB1132B03D9002280F891
:100BC000482003B9704710B5084CD4F8082802B97A
:100BD00010BDD4F80828052AFAD119463430D4F8C3
:100BE0008439FFF783FFD4F8843910BD801A0020C0
:100BF00090F848100023A0F8483001B9704710B5AC
:100C0000084CD4F808381BB1D4F80838052B00D0AC
:100C100010BD3430D4F88439FFF768FFD4F8843934
:100C200010BD00BF801A00202DE9F0475D4E1F4621
:100C300006EB80039C68002C00F0AD8004F13E03BD
:100C4000A36104F59F73E3614FF48073C4E9043337
:100C50002836236866600546E16094F83D00A3638A
:100C600090460BF051FF814694F8440294F83CA062
:100C7000261D00284FD194F8450268BBD4F84032B5
:100C800083BB390734D418F0020F60D118F0010F7C
:100C900044D194F9472294F84712D4F84832002AF4
:100CA00010DB41481B018418DBB284F80033520981
:100CB000012301F01F0103FA01F140F82210304630
:100CC000BDE8F087394A01F00F010A441B01DBB28D
:100CD00013763046BDE8F0876CF00CFED4F8403255
:100CE000002BCED0324A116B0B4339071363CAD5A0
:100CF0000135EDB2B9F1000FCBD040F20673FA0620
:100D000089F80850A9F8063036D4BB0694F8462274
:100D100045D4322133E06CF0EDFDACE750460BF0EA
:100D2000F3FE0135EDB20028B3D040F20662057241
:100D3000C28094F8462202210CF0BCF894F94722B4
:100D400094F84712D4F84832002AAADABAE76B1CA2
:100D5000DBB2B9F1000F99D089F8083040F20653A0
:100D6000A9F8063094F84622484602210CF0A2F871
:100D700018F0010F8DD0D1E794F8462202214846A1
:100D80000CF098F894F9472294F84712D4F84832B6
:100D9000002A86DA96E726463046BDE8F08712211B
:100DA000EDE700BF9488070800E100E0FCEC00E0FC
:100DB000003802402DE9F047038A8489A4B21C4020
:100DC00082B045D0814688464FF0004501F14C077E
:100DD00001F13406B4FA84F325FA03F2D24391B256
:100DE000A9F8101014401B3BB8F1000F5DD0042B84
:100DF0002CD8DFE803F050463B300300D8F80C3025
:100E0000D9F82CA033B19B6823B11FFA8AF108F1FD
:100E100004009847D8F8243033B19B6823B11FFAF7
:100E20008AF108F11C009847D8F83C302BB19B6838
:100E30001BB11FFA8AF130469847D8F854302BB1CD
:100E40009B681BB11FFA8AF138469847002CC1D124
:100E500002B0BDE8F087D8F80C30D9F834105B68E0
:100E600008F104009847002CB4D1F1E7D8F82430F9
:100E7000D9F838105B6808F11C009847002CA9D1FC
:100E8000E6E7D8F83C30D9F83C105B683046984724
:100E9000002C9FD1DCE7D8F85430D9F840105B68BB
:100EA00038469847002C95D1D2E7042B07D8DFE8C5
:100EB00003F00319140F0A00D9F840300193019B85
:100EC000002C87D1C4E7D9F82C300193019BF7E7B8
:100ED000D9F834300193019BF2E7D9F83830019307
:100EE000019BEDE7D9F83C300193019BE8E700BF97
:100EF00070B5254C94F8102D012A034603D0022A20
:100F000009D0002070BD214ED6F824548DB984F844
:100F1000105D002070BD002540F20112C0E954555B
:100F2000C0E95655A0F8442100F5A2716FF072F99E
:100F3000EDE7402D22D823D0D4F8181D144AC3F869
:100F400058510A44C3E954220022C3F85C2140F2FC
:100F5000011203F5A271A3F8442118466FF05AF963
:100F6000D4F8183DD6F824242B44C3F30A03521BAB
:100F7000C4F8183DC6F82424002070BD4025DBE7E6
:100F8000022284F8102DD7E7801A0020782B002049
:100F90009C27002001EB810138B500EBC1010E4D0B
:100FA000B1F88C1304462846FFF776FBE378C4F8C3
:100FB000A85340210022C4E9EC12012293422046AA
:100FC000A4F89C2304F5677108BFC4F8AC536FF014
:100FD00021F9002038BD00BFA02F002070B52B4C98
:100FE000D4F868340F2B04D05A1CC4F868240020AD
:100FF00070BD274D95F8103D0022C4F86824002BE1
:10100000F5D1D5F8182DD5F8143D9A42EFD0D5F882
:10101000182DD5F8143D9A422CD8D5F8146DD5F872
:10102000183DF61A402EC4F8246428D9012385F807
:10103000103D4026D5F8182D164BC0F858611344C2
:10104000C0E954330023C0F85C3140F20113A0F82A
:10105000443100F5A2716FF0DDF8D5F8183DD4F8F1
:1010600024243344C3F30A03921BC5F8183DC4F883
:101070002424BCE7D5F8186DC6F50066D2E70CBF8E
:101080000223012385F8103DD4E700BF782B002010
:10109000801A00209C27002038B5224DD5F87434E2
:1010A00095F88CC4044623B195F878345CEA0303C0
:1010B00031D00123E06984F8463140F20112A4F8EE
:1010C000442102681849002AA8BFC2F380739B0319
:1010D00001EA124143F020030B4363F31F42BCF1CA
:1010E000020F026000D038BDE278104BC4F8A8337C
:1010F0001F200021C4E9EC01012A4FF00101A4F8EE
:101100009C1308BFC4F8AC3304F567712046BDE8F2
:1011100038406FF07FB801216CF00CF995F88CC461
:10112000C7E700BF782B0020DFBFFFFFE42F0020C0
:1011300070B590F8CF2590F8D13590F8CE5590F84D
:10114000D0C590F8CC1590F8CD6505EB02250CEBD9
:10115000032C90F8D32590F8D23503EB022301221B
:1011600084B080F8112101F01F029BB2ADB21FFACA
:101170008CFC012A04468DF80810ADF80A50ADF831
:101180000CC0ADF80E30C0F840318DF809600AD0BF
:10119000022A57D0002A3CD001F080016CF0CAF836
:1011A000002004B070BD90F81231032B2BD15FFAF0
:1011B0008CFCBCF1010F26D8D0F8E43502A99B685D
:1011C0009847BDF80E30002BEAD1C4E94A33C4E990
:1011D0004C3304214FF4807284F81111A4F81C21BF
:1011E00004F58E7120466EF0A7FF636DC44A1A6144
:1011F000E278012AD4D104F2CC545C614FF0802211
:1012000019681A60CCE720466CF05CF8002004B046
:1012100070BD092EF7D801A252F826F0C7120008B7
:10122000D71300080712000811140008071200085D
:101230003F140008EB1200080712000855130008BD
:101240008513000801F0600120295FFA8CF334D087
:10125000012E00F06181032E00F09581002E9FD1B8
:1012600090F81221022A00F01B81032ACBD11CF036
:10127000800F40F0A48103EB830300EBC30393F8DA
:101280007633002B00F0A6819E4B0122C3F89C24EC
:101290009D4A0223C4E94E334FF48070002184F844
:1012A0001131A4F81C01C4E94C31C4E94A2204F507
:1012B0008E7120466EF040FF72E7D0F8E43502A947
:1012C0009B6898476CE790F81231023B012B9AD843
:1012D0008C4BD0F818210021C3F8941412B10222CB
:1012E000C3F89424894A0223D4E72E0A022EADF8CB
:1012F000063000F0CD81032E00F09181012E82D1C5
:10130000D0F8EC3580781B680DF106019847BDF8E0
:101310000630002B3FF444AFBDF80E20002A3FF406
:101320003FAF934228BF13464FF480720221A4F8C6
:101330001C210022C4E94A0084F81111C4E94E338B
:10134000C4E94C3204F58E712046ADF806306EF0DB
:10135000F3FE25E7012B7FF456AF90F81221022A05
:1013600000F04981032A7FF44EAF4FF4807100F5FD
:1013700088720220A4F81C11C4E94E3384F81101CC
:10138000002190E7EDB25F4E012D86F88D543FF6B7
:101390003AAF90F81231022B00F02181032B7FF439
:1013A00032AF002D00F07F8190F81011012910D08C
:1013B000D0F8E4355B68984796F88D14D4F8E43596
:1013C00084F810111B6820469847D4F8E8359B68CC
:1013D00098470023F9E690F81231023B012B3FF6C3
:1013E00012AF012D7FF4DCAED0F8E43500259B6808
:1013F000C0F8185102A9984704224FF48073C4E939
:101400004A55C4E94C5584F81121A4F81C31E7E68B
:10141000012D00F0CC80022D7FF4C2AE5FFA8CF378
:10142000002B7FF4BDAE02694FEA1C23023B5268D9
:10143000032B00F25681DFE803F05B426B5F5CEA4E
:1014400003037FF4E0AE90F81221032A3FF4DBAEF1
:10145000016905F07F0680F8146108681A4665F393
:101460000A1202430A604FF480720421C4E94A332D
:10147000C4E94C3384F81111A4F81C2104F58E71D1
:1014800020466EF059FE636D1D4A1A61E278012A0A
:101490000DD0002E00F01281022384F812317FE675
:1014A0005A063FF47DAE19466BF044FF78E604F22D
:1014B000CC525A614FF0802219681A60E9E7032381
:1014C00063F3061201210F4D84F816110421002345
:1014D00084F811114FF48071A4F81C11C4E94A3347
:1014E000C4E94C3304F58E712046C5F898247AE699
:1014F000022363F30612E5E7052363F30612E1E72F
:1015000018000860782B0020143000200C300020D8
:10151000042363F30612D5E790F81221022ABFD004
:10152000032A7FF470AE002D7FF43AAE13F07F02F1
:101530003FF44FAF1CF0800F40F0C48003EB8301F9
:1015400000EBC10181F8742381F8765381F875535B
:10155000282101FB030300EB820293F87713506DFF
:1015600003688A1E012A6FF35553D4F8E4258CBF13
:10157000C3F30071012161F31C739268036002A937
:101580002046904725E790F81221022A88D0032AA6
:101590007FF439AE25B9590602D019466BF0CAFE60
:1015A000D4F8E43502A99B682046984711E7D0F8A3
:1015B000E43502A99B68C0F81851984709E703F081
:1015C0007F0303EB830300EBC30393F81E31002B6F
:1015D0007FF45AAE454B0022C3F89C2458E6002DF8
:1015E0003FF40AAF01210322D0F8E43580F810114E
:1015F00080F81221E6E63E4984F811214FF480700C
:101600000022C4E94A11A4F81C01C4E94E33C4E91C
:101610004C3204F58E7120466EF08EFDC0E5EDB2C1
:10162000052D3FF6F0ADDFE805F02B231B130B0370
:10163000D0F8EC3580789B690DF10601984766E695
:10164000D0F8EC3580785B690DF1060198475EE6CD
:10165000D0F8EC3580781B690DF10601984756E605
:10166000D0F8EC358078DB680DF1060198474EE63E
:10167000D0F8EC3580789B680DF10601984746E676
:10168000D0F8EC3580785B680DF1060198473EE6AE
:10169000D0F8E43580789B6A0DF1060198474670D2
:1016A000C4F8F00533E60222D0F8E43580F81221C0
:1016B00080F810515B68294698479DE6012384F81D
:1016C00012316DE5282303FB020181F81C2100EB98
:1016D000820281F81E5181F81D61906991F81F11F5
:1016E0003EE7012363F30612ECE600BF782B0020EF
:1016F0000830002010B5044629B990F81121032ABA
:101700000DD0002010BDD0F8E4359B69002BF8D037
:1017100090F81221032AF4D19847002010BDD0F888
:1017200090230B46D0F87C138A4213D9C078521A02
:101730000128C4F8902336D08A4228BF0A4692B2C4
:10174000C4E9E22304F55D71A4F8743320466EF019
:10175000F3FCD6E7D0F8E4351B691BB190F81221F1
:10176000032A1ED000234FF480720421C4E94A33B7
:10177000C4E94C3384F81111A4F81C2104F58E71CE
:1017800020466EF0D9FC636D104A1A61E278012A96
:10179000B7D104F2CC545C614FF0802219681A6012
:1017A000AFE79847DEE78A42D4F88003A4F87433A1
:1017B00028BF0A46084492B2C4E9E22304F55D71E9
:1017C000C4F88003C4F88403C0E700BF18000860B1
:1017D00038B5044649B990F81131022B11D094F86C
:1017E0001631012B40D0002038BDD0F8E4355B69BC
:1017F000002BF8D090F81221032AF4D1984700204A
:1018000038BDD0F83831D0F82421934236D9C17888
:10181000012908BFD0F82811A3EB020318BFD0F8A4
:101820002821C0F8383108BF52189BB24FF480719C
:101830000025C0E94C35A0F81C11C0E94A2200F58A
:101840008E716EF079FCE378C4F88053012BC4E903
:10185000E255A4F8745308BFC4F8845304F55D71CD
:1018600020466EF069FCBAE72A4B2269D3F8981437
:101870005160002384F81631002038BDD0F83C3187
:10188000B3FBF2F502FB1535ADB99A4213D8D0F887
:10189000402193420FD24FF48073A0F81C31C0E96D
:1018A0004A55C0E94C5500F58E716EF045FCE37861
:1018B000C4F84051C8E7D4F8E435DB681BB194F8AC
:1018C0001221032A23D0E2780023012A4FF00501D8
:1018D00008BFC4F88433C4E9E23384F81111C4F8B2
:1018E0008033A4F8743304F55D7120466EF024FC57
:1018F000636D094A1A61E278012A7FF470AF04F23D
:10190000CC525A614FF0802219681A6067E720466E
:101910009847D8E7782B002018000860F8B50B78B6
:1019200013F060060D46044620D0202E25D1CE8827
:101930004EB31B0649D5384F687832463946FEF714
:1019400067FEEB880222002684F811214FF4807292
:10195000C4E94E33C4E94A77C4E94C36A4F81C21E3
:1019600004F58E7120466EF0E7FB0AE04B780A2BF7
:1019700017D00B2B0ED0062B03D120466BF0A2FC08
:1019800002263046F8BD022248781144FEF740FE98
:101990003046F8BD8B78002B3AD1204BC3F8A064B9
:1019A000EFE7022280F811214FF48072A0F81C2189
:1019B0001B4A0123C0E94E33C0E94A22C0E94C3634
:1019C00000F58E716EF0B8FBDBE7164B164A4978CE
:1019D000116003F501620321C0E9E46680F811118A
:1019E000C0F88863C0F88023C078C3F80C68012869
:1019F0004FF00003C4F88C33A4F8743304F55D7120
:101A000008BFC4F8842320466EF096FB0026B8E792
:101A10006BF058FCB5E700BF90220020782B002027
:101A200018300020801A002000000020002310B58C
:101A30001946044640226EF00FFB80212046002309
:101A400040226EF009FBD4F8E835A078012284F832
:101A500012215B689847002010BD00BF10B502231B
:101A60000446402281216EF0F7FA204602234022EC
:101A700001216EF0F1FA20460323082282216EF044
:101A8000EBFA0E4B0222A3F84C20FEF7ADFDE278F4
:101A90000B4BC4F8A83340200021C4E9EC01012A13
:101AA0004FF00101A4F89C13204604F5677108BFAC
:101AB000C4F8AC336EF0AEFB002010BD0000002077
:101AC000A02F002070B5812182B00446314E6EF007
:101AD00091FA012120466EF08DFA00250223402262
:101AE0008121204686F888596EF0B6FA012102233A
:101AF000402220466EF0B0FA274B86F88859D3F87A
:101B0000A42483F88C541268284690470095009BC3
:101B1000E16843F010030093009B0B610A691F4BBF
:101B2000009203E00A690092013B02D0009AD006BD
:101B3000F8D400230193019B43F020030193019A01
:101B4000164B012060F38A120192019A0A610A6918
:101B5000019203E00A690192013B02D0019A9206C8
:101B6000F8D4E2780E4BC4F8A83300211F20C4E952
:101B7000EC01012A4FF00101A4F89C1304F56771F0
:101B800005D020466EF046FB002002B070BDC4F8C0
:101B9000AC33F6E7801A0020782B0020400D0300BC
:101BA000E42F00202DE9F047294FDFF8AC90294CB5
:101BB000DFF8A8A082B000F10108002606E09DF839
:101BC0000700FF282FD1013646452CD0D7F87C5985
:101BD00095F91030AA6803EB830309EB830392079E
:101BE000186E23D5012300220DF107016EF0D8FEF7
:101BF000AB689B07E3D4D7F8802961684FF4FA7388
:101C000003FB02F2AAFB0232920963685B1A9A4252
:101C1000FBD26B69002BD2D09DF807001A689B8815
:101C20001383FF28CFD002B0BDE8F0876B6913B1F2
:101C30001A689B885383D7F880296168D200AAFB71
:101C40000232920963685B1A9A42FBD2CAE700BF6C
:101C5000801A0020001000E000000020D34D621028
:101C600070B5044608200D46FFF79CFFFF2822D0E0
:101C7000FE2801D0022070BD254E2146D6F87C09F1
:101C80002B4600226EF0DCFED6F87C49214A94F9FE
:101C90001030A16803EB830302EB83038A07186EFD
:101CA0000BD50022022311466EF07AFEA3689B0733
:101CB00016D5002070BD012070BD636913B11A688C
:101CC0009B885383D6F880291349144B4D68D20062
:101CD000A3FB023292094B685B1B9A42FBD2E0E7FE
:101CE000D6F880290C490D4B4FF4FA7000FB02F234
:101CF000A3FB0232486892094B681B1A9A42FBD236
:101D000060690028B7D0036882881A83002070BDFC
:101D1000801A002000000020001000E0D34D621067
:101D200070B52E4C2E4AD4F87C5995F9103003EB3F
:101D3000830302EB8303AA6882B000204FF6FF51B1
:101D40009207C4F84809ADF80410186E33D5022381
:101D500001AA00216EF024FEAB689B0714D5012078
:101D6000FFF720FFFF2809D0D4F88439C4F83C39A4
:101D70000922002084F84C2902B070BD04230220FF
:101D800084F84C3902B070BDD4F880391549164E2C
:101D900048684FF4FA7203FB02F2A6FB0232920982
:101DA0004B681B1A9A42FBD26B69002BD7D01A687A
:101DB0009B881383D3E76B6913B11A689B8853839D
:101DC000D4F880290749084B4E68D200A3FB0232A1
:101DD00092094B689B1B9A42FBD2B8E7801A0020FD
:101DE00000000020001000E0D34D621070B582B0FA
:101DF00004460B0E080C0A0A44F040058DF8013029
:101E000095238DF800508DF802008DF803208DF891
:101E100004108DF805306EF05BFE08B9002C44D13B
:101E2000234D244AD5F87C4994F91030A16803EB7E
:101E3000830302EB83038A07186E0CD506236A46D8
:101E400000216EF0ADFDA3689B0717D50820FFF7B2
:101E5000A9FE02B070BD636913B11A689B885383F1
:101E6000D5F880291449154B4E68D200A3FB0232E5
:101E700092094B689B1B9A42FBD2DFE7D5F8802979
:101E80000D490E4B4FF4FA7000FB02F2A3FB023235
:101E9000486892094B681B1A9A42FBD26369002B6F
:101EA000D4D01A689B881383D0E7FF2002B070BD9E
:101EB000801A002000000020001000E0D34D6210C6
:101EC0002DE9F0413A4C82B00546884617461E4639
:101ED00094F84C0904280DD0082807D1D4F84439C7
:101EE000AB425FD0FFF71CFF0228F1D0012002B007
:101EF000BDE8F081D4F87C391A79022A36D094F8FA
:101F000042398BBB69021820FFF770FF002843D1CC
:101F100094F84C39082B4FF0FF038DF804300CBFB8
:101F2000FC23FE23D4F87C098DF8053001AA022396
:101F300000216EF085FDD4F87C0942468023002103
:101F40006EF07EFD012206230020C4F82889C4F823
:101F50002C59C4F83479C4F8386984F8302984F8E5
:101F60004C3902B0BDE8F0812946CCE79A68920767
:101F7000C5D55B6913B11A689B885383D4F880393F
:101F80000C49DA000C4B4868A3FB023292094B68FB
:101F90001B1A9A42FBD2B2E7FEF7A6FBFEF7F2FB52
:101FA0000320A4E7FF238DF80430FC23BAE700BF29
:101FB000801A0020001000E0D34D621070B51F4C55
:101FC00094F84C39042B06460D4609D0082B25D130
:101FD000D4F8443983422FD0FFF7A2FE02281DD146
:101FE000D4F87C0908F02CFE00213720FFF7FEFE14
:101FF00029461720FFF7FAFEC0B994F842397BB999
:1020000071021920FFF7F2FE80B9082384F84C39D9
:10201000C4F84859C4F84469022070BD012070BD5D
:1020200031461920FFF7E2FE0028EED0FEF75CFBF8
:10203000FEF7A8FB032070BD022070BD801A0020AF
:102040002DE9F041284C94F84CC9BCF1040F074627
:10205000884616461D4609D0BCF1080F02D0002064
:10206000BDE8F081FFF75CFE0228F8D1D4F87C3996
:102070001A79022A22D094F84239B3B97902112090
:10208000FFF7B4FEB8B9D4F88439C4F8288905221A
:1020900084F84C29C4F82C79C4F83469C4F8385948
:1020A000C4F83C390120BDE8F08139461120FFF722
:1020B0009DFE0028E7D0FEF717FBD0E79A6892074D
:1020C000D9D55B6913B11A689B885383D4F88039DA
:1020D0000649DA00064B4868A3FB023292094B68B6
:1020E0001B1A9A42FBD2C6E7801A0020001000E0BB
:1020F000D34D62102DE9F043844CD4F87C0987B0AD
:1021000000283AD094F84C09814E824D824F431EEC
:10211000082B1CD8DFE813F09800C30042011B0015
:1021200009005D0045001B003400D4F828094FF475
:102130000071FFF795FD012800F09581022800F05D
:102140009A81002800F0C78194F84C09431EDBB245
:10215000022B0AD8D4F88439D4F83C299B1AC82B0E
:1021600006D9FEF70FFB94F84C09042800F099817A
:10217000A0F10800B0FA80F0400907B0BDE8F08394
:102180006EF0A6FC002840F05B82D4F83C39D4F80D
:102190008429FA339342D7D2FEF7F4FA94F84C0923
:1021A000B5E76EF095FC0028EFD0D4F8483900224E
:1021B000012B84F8402940F24B82D4F844290820AE
:1021C000013B0132C4F84839C4F8442984F84C0969
:1021D000CEE7D4F8283994F83029D4F87C0903EBF9
:1021E000C212002180236EF02BFC94F830390133A9
:1021F000DBB2042B84F83039A6D1D4F87C09022351
:10220000324600216EF01CFC0123D4F87C09002228
:1022100002A96EF015FC9DF8083003F01F03052B92
:1022200000F0F681FEF7AEFAD4F83489B8F1000F69
:1022300000F034810120D4F83839D4F82C19002268
:10224000C04794F84C0962E7D4F87C0908F0F8FC20
:1022500000210846FFF7CAFD8046FEF745FAB8F1AF
:10226000010F4AD1D4F87C094FF0000984F8419954
:1022700008F0E6FC40F2AB110820FFF7B7FD052897
:1022800000F01181012800F05881FEF72DFA94F832
:102290004139002B00F0B981022384F84C39D4F87D
:1022A0007C0908F0CDFC94F84139022B0CBF4FF0AB
:1022B00080484FF0000800213720FFF797FD414686
:1022C0002920FFF793FD8046FEF70EFAB8F1000FC4
:1022D00013D194F84139022B00F0128184F842891D
:1022E000D4F87C391A79022A00F0E0800021092014
:1022F000FFF77CFD90B1FEF7F7F9D4F87C090221D5
:1023000008F024FB94F84C09431E20E7801A0020B3
:10231000EC880708001000E0D34D6210D34810216C
:10232000FFF79EFC0028E6D194F87739DB07E2D569
:1023300094F86819891100F016810129DBD194F80D
:102340006F29DFF82CE39200D2B216214FF0020C75
:10235000CCF108038B4228BF0B46C3F1080C42FAAC
:102360000CF29840C91A40EA02004FF0000C1EF827
:10237000012FEDD1431C9B02C4F85039FEF7B4F98C
:10238000D4F87C0908F05CFC00210A20FFF72EFD40
:10239000002840F0E180032384F84C39102102A882
:1023A000FFF75EFC0028A8D19DF8083084F8563964
:1023B000BDF809309DF816209DF810105BBAA4F8FE
:1023C00054399DF80B3084F857399DF80C3084F857
:1023D00058399DF80D3084F859399DF80E3084F83D
:1023E0005A399DF80F3084F85B399DF815301B0180
:1023F000DBB243EA121302F00F0203F5FA6384F82A
:102400006429DDF81120A4F862390B0912BA84F8A6
:10241000603901F00F0384F86139C4F85C29FEF7D4
:1024200063F994F842397BB9D4F87C0908F008FCC8
:102430004FF400711020FFF7D9FC8046FEF754F9E5
:10244000B8F1000F7FF4A8AED4F87C09022108F09F
:102450007DFA002204230120C4F8482984F84C396D
:1024600007B0BDE8F083D4F83C39D4F8842964334C
:102470009342BFF469AEFEF737F9FEF783F9D4F85B
:102480003489B8F1000F09D000221046D4F8383949
:10249000D4F82C19C04794F84C0938E694F84C0944
:1024A00035E6012069E684F84189EEE69A689207EC
:1024B0007FF51CAF5B6913B11A689B885383D4F80E
:1024C00080396968DA00A7FB023292096B685B1AEF
:1024D0009A42FBD20AE70190FEF706F9D4F8345984
:1024E000019884F84009042384F84C39002DD8D091
:1024F000D4F83839D4F82829D4F82C19A84723E679
:10250000D4F87C0908F09CFB41463A20FFF76EFCAA
:10251000424681460423D4F87C0902A96EF090FA61
:10252000FEF7E2F8B9F1000F7FF436AE029B1BBA5A
:10253000C3F3807384F84239D2E60423D4F87C09CB
:102540004A4602A96EF07CFA9DF80B30AB2B04BF13
:10255000022384F8413998E6FEF7C6F8FEF712F92F
:1025600094F84C09D3E594F86D3994F87109DFF8C3
:10257000048103F00F0380014FF0010C0CFA03FCFF
:102580005FFA80F903234FF0060ECEF108029A425B
:1025900028BF1A46C2F1080049FA00F091409B1A80
:1025A00018F8019F41EA00014FF0000EEDD194F8B8
:1025B0006E89DFF8C4904FEA881802315FFA88F814
:1025C0000C20062200E00022C2F10802824228BF4D
:1025D0000246C2F1080E48FA0EFE9340801A19F81E
:1025E000018F4EEA0303EED1013303FA01F14FEA02
:1025F000EC72A1FB0C3C01FB02C15B0A43EAC15334
:10260000C4F85039FEF770F8BAE684F84C3974E62D
:10261000D4F83459D4F88439C4F83C39072084F804
:102620004C09002D3FF4A4ADD4F83839D4F828294A
:10263000D4F82C190120A84794F84C09431E86E5CC
:102640000190FEF751F80423019884F84C3994E581
:1026500005D0042384F84C39FEF746F874E5FFF7FB
:102660005FFB02287FF470ADF6E700BFE82300208F
:10267000EF230020F1230020EE23002070B50D236E
:102680000022342102200AF053FC2F4DC5F87C09AA
:10269000002855D0002108F059F90DF0FDFB044643
:1026A0000E460DF0F9FB031B61EB0602B3F57A7FD2
:1026B00072F10003F5D3D5F87C29536913B1196879
:1026C0009B880B8392F91030204E214C03EB83033F
:1026D00006EB83030022186E11460A236EF060F9A0
:1026E000D5F87C090379022B0CD190F9103003EB5B
:1026F000830306EB83031B6E1A8992070DD51B8992
:102700001B060AD4D5F88419C5F83C190122002308
:1027100085F84C2985F8403970BD013CE5D102218E
:1027200008F014F9D5F87C090AF0A8FB95F84039AF
:10273000C5F87C49013385F84C4985F8403970BDAE
:1027400085F84C0970BD00BF801A002000000020F1
:10275000A18601002DE9F047089F88461546002113
:10276000202204461E4675F075F84FB13B68E381A0
:102770001B0C23827B687A89E3821B0C6282238391
:1027800040466EF0D7FCEB0619D4431EB8B108EBF7
:10279000000701E0013B12D317F801CDBCF12E0F69
:1027A000F8D1C01A421E032AA8BF0322082B03F146
:1027B000010AA8BF08239146C2441A4606E0082829
:1027C0000246C246A8BF08224FF000094FF020334E
:1027D00041462360636004F10807204672F09AFEC8
:1027E000174B23815146BB704A46384672F092FE21
:1027F000611EE31D11F801CFACF1610EBEF1190F9E
:102800009CBFACF1200C81F800C08B42F2D138465D
:1028100004F10B0110F8013BA3F16102192A9CBFDE
:10282000203B00F8013C8842F4D118232373330C79
:10283000A382E572099B6683E361BDE8F08700BF70
:10284000202020002DE9F04FDFF89494D9F8940B64
:10285000B9F8984B448387B0002B00F0DE8001F577
:10286000FE781344DFF87CB40393164601F1200789
:10287000C24621E0002E64D0D9F8EC3CB34200F00F
:10288000D180D9F8E83CB34200F00481D9F8F03C9B
:10289000D9F8F41CB3424BD8B14200F29E81711AB0
:1028A00020466AF0DDFB039B01369E4207F5007768
:1028B0000AF5007A00F0AD80D9F8F85CB542A7F1CE
:1028C0002004D7D8751BD9F8088D05F00702EB084E
:1028D0000492D8F830200233934203D3D8F838203A
:1028E00093420BD94146184605936AF089FB059B34
:1028F0008046002800F09181C9F8080D98F804205E
:10290000002A40F03981D8F82850002D00F07E814F
:10291000D8F830209B1A049A02EBC303D8F80C2095
:10292000204602EB43224FF400714346A847BAE722
:10293000B142B4D920464FF40072002174F08AFFEE
:10294000B1E74FF400723146204674F083FF8023D4
:1029500087F89E310C2387F8A231D9F8E83CD74A92
:10296000D9F8E01CC4F8C6319342C4F8CA1100F388
:102970003981D34AD34C82FB03021A44D817C0EBE7
:10298000621284FB0254D04D85FB03C5C0EB253099
:10299000C2EB821587F8A1015B1B801020F03F007D
:1029A00001330343144487F8A031D317C3EBE41475
:1029B0002244C24B87F89F214A1E9A4200F31E818F
:1029C000BF4BC04883FB02311144D317C3EB6111E5
:1029D00080FB0140BC4C84FB0254C3EB2433C1EBAD
:1029E000811487F8A531121B9B1023F03F0301329D
:1029F0001343084487F8A431CB17C3EBE01001441C
:102A000087F8A311552387F8DE31AA2387F8DF3131
:102A100049E7D9F8940BB9F8984B0483002007B024
:102A2000BDE8F08F4FF0FF3384F8EC3184F8ED31DE
:102A300084F8EE3184F8EF31D9F8003DC4F8E8317C
:102A40005223237063706123A37084F8E73141231C
:102A50000025E37084F8E631722384F8E43184F8C9
:102A6000E5314FF4F0722946A7F11C0074F0F2FE34
:102A70005523C7F8D051C7F8D451C7F8D85184F8B6
:102A8000FE316FF0550384F8FC5184F8FD5184F851
:102A9000FF3108E700214FF40072204674F0DAFE9F
:102AA0008A4A03CA47F81D0CEB2007F8200C58206F
:102AB00007F81F0C902047F8191C07F81E0C00237C
:102AC00002220821F820E372227307F8131CA27374
:102AD000E37307F8102C07F80B0CD9F8E80C84F80E
:102AE0002C20D9F8E02C6376121A2262D9F8F00C67
:102AF000D9F8F42CE376121A3F2020764FF0FF30FD
:102B0000A0763E20207701206377A377E37784F8CF
:102B10002D3084F82E3084F82F30626284F8300033
:102B200084F8313087F82610802187F82010292179
:102B300087F82210942187F823100E2187F824109B
:102B40000D21634A87F82510552187F8DE11AA2147
:102B500087F8DF1103CA5F4BC7F82700C7F82B10AF
:102B600003CB1388A7F82F309378C7F83200C7F843
:102B7000361087F8313096E64FF400720021204677
:102B800074F068FE049B002B4ED1D8F84030002B27
:102B900000F0AA80049AD8F830304F49CDE90022DD
:102BA00020461122FFF7D6FDD8F840301A6C002AD3
:102BB00000F0AD80049A1B6BCDE900224749112239
:102BC0003846FFF7C7FDD8F8448007F120044FF4DA
:102BD000E075B8F1000F3FD165E6F11A20466AF0C2
:102BE0003FFA60E6FF2387F89F3187F8A13187F825
:102BF000A031324B4A1E9A427FF7E2AEFF2387F89C
:102C0000A33187F8A53187F8A431FBE62946204691
:102C10004FF4007274F01EFE45E6A7F1240343F85A
:102C200004BF9A45FBD13EE6D8F84030049AD8F864
:102C30004480002B0CBF01230223C3EB0215434643
:102C4000002B3FF430AE013D9B6CF9D198464FF418
:102C50000075002B3FF427AE254420342346203551
:102C60004446049698460EE05CF81C1B236BCDF896
:102C700000C000260196FFF76DFDA46C08F1200846
:102C8000CCB1454517D02379A44604F11C0E11227E
:102C9000A8F12000002BE7D162792669236B216817
:102CA00042F02102CDE900E6FFF754FDA46C08F1E3
:102CB0002008002CE5D1049EF5E500BFFF03FB00D2
:102CC0008320088281808080975545419834080888
:102CD000A4340808B03408084C3B0808443D0808F0
:102CE000801A0020DEADBEEF049BD9F8E41CCDE9CC
:102CF000003320460822FFF72DFDD8F84480B8F1B4
:102D0000000F3FF4D0AD3C464FF4F075A4E7049BB0
:102D1000CDE9003352E700BF1049114BD1F88820AC
:102D200042F4700210B4C1F888201A680D4C0020DB
:102D300042F001021A6098601A6822F0847222F44C
:102D400080321A605C601A68074C22F480221A6094
:102D5000D8608C605DF8044B704700BF00ED00E068
:102D6000003802401030002400000008704700BF07
:102D70002DE9F84346697EB9D0F80080C8F30D0903
:102D800004460F46B9F1000F26D03F68FDF7C8FA98
:102D9000092804D06FF001063046BDE8F8834A4D9B
:102DA0002B6923F440732B612B6943F400732B616F
:102DB0002B6943F001032B61C8F80070FDF7B0FAEE
:102DC0002B69092823F001032B61E3D12368043325
:102DD00023603046BDE8F8833C4B98452AD303F581
:102DE0008043984524D303F58043984554D3384B0A
:102DF000984554D903F58033984553D903F50033EA
:102E0000984552D903F50033984551D903F500335D
:102E100098453ED903F5003398454CD903F58023F6
:102E200098454BD9B8F1016F4BD305200DF090F8C0
:102E30004FF00809FDF774FA092804D04FF0FF3667
:102E40003046BDE8F883204D2B6923F440732B6195
:102E50002B6943F400732B612B6923F0F8032B617A
:102E60002B6943EA090343F002032B612B6943F406
:102E700080332B61FDF754FA2B6923F002032B6199
:102E80002B69092823F0F8032B61D7D1D4F80080EF
:102E90007BE74FF03809CDE74FF01009CAE74FF054
:102EA0001809C7E74FF02009C4E74FF02809C1E728
:102EB0004FF03009BEE74FF04009BBE74FF048093B
:102EC000B8E74FF05809B5E7003C02400040000861
:102ED000FFFF00080148FDF79DB900BF0801002071
:102EE0000148FDF797B900BF540300200148FDF7E2
:102EF00091B900BFA0050020024B586FC0F30070CD
:102F0000704700BF00380240F0B5254B02682549E4
:102F100083B00646002401E051F834309A4209D0CB
:102F200001340E2CF8D100211F4A052006F0AEF81E
:102F3000002113E01D4F07EB8407D7F8A85485B193
:102F4000717901EB410305EBC30300221820C3E9AB
:102F5000032200FB01559E601A75291D084603B027
:102F6000F0BD0721642006F071F90146C7F8A804F6
:102F700070B12946642274F06DFC0A4BD7F8A8544E
:102F800003EBC404C5E90045ED616D63ED64D7E76B
:102F90000190074A052006F079F80199DEE700BFA5
:102FA00000000140F0880708BC340808782B002096
:102FB000E4340808704700BFB0B14B6810B4A3B147
:102FC0008B6813B343681A6881605879918902232A
:102FD00083400B439BB2938193899BB243F00103DF
:102FE00093815DF8044B7047704743681A685C79B9
:102FF00093894FF0020C0CFA04FC9BB28C6823EA14
:103000000C039381A4B18160E6E744682268938948
:1030100023F001031B041B0C93818160607991896B
:103020005DF8044B022383400B439BB293817047AE
:10303000938923F001031B041B0C93818160D0E76B
:1030400038B5D0E9004307EE902A1B68354A20685E
:103050000139934204688DB216D002F58062934222
:1030600012D002F5705293420ED002F58062934264
:103070000AD002F58062934206D02B4BD3F8E83792
:103080005B0807EE103A04E0274B03F5FD6393ED70
:10309000007ADFED266AB8EE477AF8EE677A87EEB7
:1030A000270A30EE260A6FF01FFC1E4A23880138DB
:1030B000944280B29BB212D002F5806294420ED04C
:1030C000B4F1804F0BD0A2F58032944207D002F5C4
:1030D0008062944203D002F58062944202D123F0D0
:1030E00070039BB2124A944212D002F5806294425D
:1030F0000ED023F4407302F56C429BB294422380BD
:10310000E56220850AD1002323860123A38238BDEE
:103110002380E56220850123A38238BD054B9C42B4
:10312000F1D0F8E700000140000000200AD7233C5E
:10313000001000400004014070B54068837903F03E
:10314000020213F0040300F0C9804FF0000E134692
:1031500004247246754690F805C0BCF1030F30D8C0
:10316000DFE80CF08E5F30020368188C20F480508A
:103170000004000C1884188C9C8820F40050000473
:103180002A43000C40EA0232988B6C4D20F4E64052
:103190000004000CAB42A4B240F4C04000F0B08088
:1031A00005F58065AB4200F0AB809C809883196484
:1031B0001A849A8B22F400621204120C42F4006208
:1031C0009A8370BD2A4305685C4E288C20F4807079
:1031D0000004000C2884288CB5F804C020F400708A
:1031E0000004000C40EA0222A88B20F073000004C7
:1031F000000CB5421FFA8CFC40F0600073D006F55D
:103200008066B5426FD0A5F804C0A883E9632A841C
:10321000AB8B23F008031B041B0C43F00803AB83A8
:1032200070BD2A430568454E288C20F0100000042C
:10323000000C2884288CB5F804C020F0200000047D
:10324000000C40EA0212288B20F4E6400004000C37
:10325000B5421FFA8CFC40F4C04061D006F5806690
:10326000B5425DD0A5F804C02883A9632A842B8BBE
:1032700023F400631B041B0C43F400632B8370BD19
:1032800000682E4E2A43058C25F001052D042D0CD7
:103290000584058CB0F804C025F002052D042D0C22
:1032A0002A43058B25F073052D042D0CB0421FFA1F
:1032B0008CFC45F0600528D006F58066B04224D02D
:1032C000A0F804C0058341630284038B23F0080344
:1032D0001B041B0C43F00803038370BD4FF4807E76
:1032E0001C46012537E722F4006242EA032222F459
:1032F00080622CF4405C42EA04224CEA0E1C82E715
:1033000024F4804444EA8E144FE74FF6F3761640D7
:103310002CF4407C46EA03024EEA0C0C2243CFE731
:1033200022F0800242EA031222F040022CF4406CA8
:1033300042EA04124CEA8E0C94E700BF0000014000
:1033400042685379032B0FD8DFE803F00B0805021E
:1033500010684030704710683C3070471068383053
:10336000704710683430704700207047024B0348A4
:10337000D3F8A814FDF71EBD782B002000000140F3
:1033800010B5064C0648D4F8A814FDF713FDD4F880
:10339000C8140448BDE81040FDF70CBD782B002090
:1033A000000001400040014010B5064C0648D4F82A
:1033B000A814FDF7FFFCD4F8CC140448BDE8104075
:1033C000FDF7F8BC782B00200000014000440140CC
:1033D00010B5064C0648D4F8A814FDF7EBFCD4F859
:1033E000D0140448BDE81040FDF7E4BC782B002061
:1033F0000000014000480140034B4FF08040D3F8EB
:10340000AC14FDF7D7BC00BF782B0020024B03485B
:10341000D3F8B014FDF7CEBC782B00200004004098
:10342000024B0348D3F8B414FDF7C4BC782B00203A
:1034300000080040024B0348D3F8B814FDF7BABCAB
:10344000782B0020000C0040024B0348D3F8C41432
:10345000FDF7B0BC782B00200004014010B5064CED
:103460000648D4F8C414FDF7A5FCD4F8D4140448D5
:10347000BDE81040FDF79EBC782B00200004014001
:103480000018004010B5064C0648D4F8C414FDF7E7
:1034900091FCD4F8D8140448BDE81040FDF78ABC6C
:1034A000782B002000040140001C004010B5064CA1
:1034B0000648D4F8C414FDF77DFCD4F8DC140448A5
:1034C000BDE81040FDF776BC782B002000040140D9
:1034D000002000400348D0F8F83713B100F2EC7038
:1034E00018477047000000200348D0F8183813B17F
:1034F00000F60C0018477047000000200348D0F881
:10350000383813B100F62C0018477047000000202F
:103510000348D0F8583813B100F64C0018477047EC
:10352000000000200348D0F8783813B100F66C0092
:1035300018477047000000200348D0F8983813B1AE
:1035400000F68C0018477047000000200348D0F8B0
:10355000B83813B100F6AC001847704700000020DF
:103560000348D0F8D83813B100F6CC00184770479C
:10357000000000200348D0F8F83813B100F6EC0042
:1035800018477047000000200348D0F8183913B1DD
:1035900000F60C1018477047000000200348D0F8D0
:1035A000383913B100F62C1018477047000000207E
:1035B0000348D0F8583913B100F64C10184770473B
:1035C000000000200348D0F8783913B100F66C10E1
:1035D00018477047000000200348D0F8983913B10D
:1035E00000F68C1018477047000000200348D0F800
:1035F000B83913B100F6AC1018477047000000202E
:103600000348D0F8D83913B100F6CC1018477047EA
:103610000000002002683649002310B422F00102A5
:10362000212488420260036043608360C3600361B9
:10363000446138D02F4B98422ED02F4B98423CD02B
:103640002E4B984240D02E4B984232D02D4B984270
:1036500041D02D4B984246D02C4B984217D02C4B42
:1036600098423CD02B4B984216D02B4B984224D0FA
:103670002A4B984228D02A4B98421AD0294B98427C
:1036800029D0294B98422ED0284B984208D14FF090
:103690003D5243F8AC2C03E04FF4746243F8202C05
:1036A0005DF8044B7047224B5DF8044B3D229A6055
:1036B0007047204A43F8642CF2E74FF474125DF827
:1036C000044B43F8382C70474FF074625DF8044B9C
:1036D00043F8502C7047184A43F87C2CE0E73D2211
:1036E00043F8082CDCE7154A43F8942CD8E700BFD0
:1036F0001060024028600240406002405860024072
:103700007060024088600240A0600240B8600240E1
:103710001064024028640240406402405864024041
:103720007064024088640240A0640240B8640240B1
:10373000006002403D000020400F002000003D20BE
:1037400000222DE9F04713460D684FF0010E0326C5
:1037500004E00133102B02F1020239D00EFA03FC0F
:103760003CEA0504F5D1076806FA02F427EA0407E3
:1037700007600F79D0F800A007FA02F9013F49EA83
:103780000A09012FA046C0F800906FEA040411D87E
:1037900087683C4084604C79876894403C438460EF
:1037A000446824EA0C0444608C7947689C40A4B2C5
:1037B0003C434460C46824EA0804C460CC79C76808
:1037C000944001333C43102BC46002F10202C5D186
:1037D000BDE8F0872DE9F0412348244F244E254CC5
:1037E00082B03822002174F035F8002557F82510F2
:1037F0003246002301E054F8332091422ED00133A9
:103800000E2BF8D1002005356AF074F81E2DEDD18D
:10381000DFF85880184F08F178054FF0007698F8D7
:10382000040009F071F908F11408044688B103682E
:1038300003F13F4303F57E0307EB932393F8CC009A
:103840006AF058F8A3880196206800936946FFF74C
:1038500077FFA845E3D102B0BDE8F081064A02EB4C
:10386000C30393F86000CEE720300020EC0900206D
:1038700000000140F088070894880708224A9368EE
:1038800003F00C03042B10B421D0082B22D01F4BC3
:1038900003601D4C1E4AA168C1F30311114491F845
:1038A000641ACB404360A168C1F38221114491F8AE
:1038B000641A23FA01F18160A1685DF8044BC1F339
:1038C00042310A4492F8642AD340C3607047114BD6
:1038D0000360DEE75368516813F4800F01F03F0185
:1038E000536814BF0B4A094AB2FBF1F1064A526809
:1038F000C2F30142C3F38813013201FB03F3520008
:10390000B3FBF2F30360C4E7003802400024F40084
:103910000000002000127A0070B5446B8668A3890D
:1039200023F400531B041B0CA381827905464079C4
:1039300012F0040F14BF4FF4805C4FF0000C110321
:1039400010F0010F4FEA02220CBF0023042302F4FF
:103950008062800748BF43F0080342EA0C02134329
:10396000228A92B201F4005122F440520A43228288
:10397000A28922F4B05222F00C021204120C1A4353
:10398000A281A38A23F440731B041B0C84B0A3827E
:103990006846FFF773FF2F4B9C4205D003F5806309
:1039A0009C4201D0029A00E0039AA3892A491B0491
:1039B00002EB82024CBF7300B30002EB8202B2FB47
:1039C000F3F3A1FB0302A08952096426000406FB5D
:1039D00012334FEA021228D41B013233A1FB031326
:1039E000C3F3431313439BB223816A796B6BA879AA
:1039F000960702F00101194A48BF41F002019342C3
:103A00001BD001079A8A0AD592B242F008029A8224
:103A10009A8992B242F400529A8104B070BD22F0A9
:103A200008021204120C9A82F2E7DB003233A1FB87
:103A30000313C3F342131343D5E7CD07E1D5084A77
:103A4000D2F8001CB2F8042CC4074CBF0A834A8386
:103A5000D7E700BF001001401F85EB510014014063
:103A6000801A00202DE9F8431D462A4B9DF820803E
:103A70009DF8249098420F4616463BD0264B98421C
:103A800040D0264B984224D14B4642462946052039
:103A9000FDF7CAF804460023C4E90B76C4E90733EE
:103AA000C4E9093384F80580A56084F806902046AF
:103AB000FFF732FF18F0010F626B13D118F0020FFD
:103AC0000BD193899BB243F4005393812046BDE808
:103AD000F88300242046BDE8F883D36843F08003D0
:103AE000D360EEE74FF6DF731380D36843F0200313
:103AF000D360E3E74B46424629460020FDF794F8A1
:103B00000446C8E74B46424629460220FDF78CF89A
:103B10000446C0E700100140004800400014014086
:103B20008160F9E64171F7E62DE9F043DFF8148290
:103B300008EBC00985B00546C70099F8780A08F077
:103B4000E3FF044699F8790A08F0DEFF064699F883
:103B50007A0A69F0CFFE6B1CDBB2002C00F0AD805E
:103B600040F60C122372E280002E00F0C380337204
:103B700040F60C232046F38004223A2109F09AF9FA
:103B8000042230463A2109F095F908EB0703624A0E
:103B9000D3F8744A944200F09880604B9C4200F045
:103BA0009E805F4B9C4200F0AB80474497F87B2A95
:103BB000022A5CD0032A7ED05A4B5B4E012A18BFE2
:103BC0001E46A7886846FFF759FE27F03F07029B6D
:103BD000564AB3FBF6F63F04A2FB03233F0C47EA29
:103BE0009347A780228822F001021204120C22803F
:103BF000B2B2C6F30B069B0C002E59D04FF496714F
:103C000001FB03F34A49A1FB03139B0901339BB258
:103C100042F400422384A2832388464A9BB243F0A5
:103C200001032380238823F4816323F002031B0410
:103C30001B0C4FF4804143F480632380218123884F
:103C400023F080031B041B0C238023889BB202EB10
:103C5000451243F0010323800121002382F8E05440
:103C600082F8E11482F8E23405B0BDE8F083A6885A
:103C70006846FFF703FE26F03F06029A2B4B3604F8
:103C8000A3FB0213360C46EA9346A680218821F056
:103C900001010904090C21809B0C27490133920979
:103CA0002384A1FB02329209042A38BF0422B2E71E
:103CB00042F00102A2E7214E83E7002E3FF465AFF8
:103CC000337240F60C23F3805AE71D4B1A6A42F414
:103CD00000121A621A6A22F400121A6265E703F5EA
:103CE000F0331A6A42F480021A621A6A22F48002DD
:103CF0001A625AE7042220463A2109F0DBF844E729
:103D000003F5EE331A6A42F400021A621A6A22F4C8
:103D100000021A6249E700BF00540040005800400A
:103D2000005C0040804F1200009F240083DE1B4394
:103D3000D34D6210782B0020632D3E05C02709006B
:103D400000380240000000202DE9F047954D90F921
:103D500000108046807805EBC1060138CC0090B099
:103D6000D6F8741A14282ED8DFE810F05301260173
:103D7000150057006100A200AA00CB01BD017D0023
:103D8000870045020D02E001C500D5003000380073
:103D9000AA019C015B01888A0C8B81B2824841EAAE
:103DA000044130EA010100F02681D8E90210521ADC
:103DB00042F2107163EB00038A4273F1000302D3F5
:103DC000152388F8023010B0BDE8F08798F813008A
:103DD0000882C8E90223122088F80200888A0C8B26
:103DE00080B240EA0440714C34EA000000F0B68032
:103DF00000200E900F9001200F910E900E99002937
:103E000000F01E820F9914310F910F99096849052E
:103E1000CBD5142388F80230D5E798F8110000F0CC
:103E2000FE000882C8E90223052088F80200888A7B
:103E30000C8B80B240EA04405D4C34EA000000F094
:103E4000A480002000900190012001910090009931
:103E5000002900F00182019914310191019909684A
:103E60004F05D6D4A1E798F8110040F00100088270
:103E7000C8E902230B2088F80200888A0C8B80B2E4
:103E800040EA04404B4C34EA00006FD0002004901C
:103E900005900120059104900499002900F0D68135
:103EA000059914310591059909684D05B1D47CE750
:103EB00098F813000882C8E90223072088F8020056
:103EC000888A0C8B80B240EA0440384C34EA000007
:103ED0005FD000200290039001200391029002998C
:103EE000002900F0C58103991431039103990968F1
:103EF0004E058ED459E7088820F480600004000C39
:103F0000088098F8110000F0FE000882C8E902233A
:103F1000102088F80200888A0C8B80B240EA0440A6
:103F2000234C34EA000012D000200C900D900120A8
:103F30000D910C900C99002900F094810D99143189
:103F40000D910D99096848053FF563AF2DE798F885
:103F50001330FF2B06D198F810301BB1132388F8CB
:103F6000023030E7112388F802302CE7D8F814002B
:103F7000012800F09381022800F049820E20098B6D
:103F800088F80200C8E902231DE7062388F80230FA
:103F900019E7D8F81400002800F07081082388F889
:103FA000023010E700000020010003008400070039
:103FB0008200070002000300088820F4006000046B
:103FC000000C0880088880B240F48060088008886F
:103FD00080B240F480700880032088F80200888A4C
:103FE0000C8B81B2AB4841EA0441C8E9022330EAB4
:103FF00001037FF4E8AE98F81230002B40F0D38133
:1040000098F81330FF2B00F04682042388F8023022
:10401000D9E6098889053FF5C8AE002388F8023043
:10402000D1E62C4494F8780A08F06EFD064694F820
:10403000790A08F069FD984AB2F8403501339BB21D
:104040008246A2F8403516B13368B2881A83BAF1B5
:10405000000F04D0DAF80030BAF804201A831121D6
:10406000304606F049FC1121504606F045FC4FF061
:10407000090965272EB13368B28819690A4240F0F0
:104080002881013F00F022810BF006FF04460D4617
:104090000BF002FF001B61EB0501052871F1000325
:1040A000F6D3E7E7088880B240F4007008804FF646
:1040B000FF3088820121C8E9022388F8021082E6D5
:1040C000D8F81400002800F07281D8F8184014F8CD
:1040D000016B0E8201381225C8E90504C8E90223E4
:1040E00088F802506FE6888A0C8B81B2694841EAF1
:1040F000044130EA01017FF458AE0A2388F8023007
:1041000061E6088880B240F480700880092088F851
:104110000200888A0C8B81B25E4841EA0441C8E9FA
:10412000022330EA01037FF44EAEE6E700240125C6
:104130000A940B940B910A950A98002800F04A8182
:104140000B9814300B900B98006846077FF52DAE46
:10415000D8F81400032800F07281022800F246818A
:10416000088820F480600004000C0880088880B271
:1041700040F400700880098A88F81C40C8E90223CE
:1041800088F802501FE60020012408900990099148
:1041900008940898002800F01781099814300990B5
:1041A0000998006847077FF500AEEFF311851020EE
:1041B00080F31288088880B240F400700880D8F834
:1041C00018000E8A471CC8F81870EDB2067085F307
:1041D00011880D8AD8F818106FF001004E1CC8F82D
:1041E00018600D70C8E90223C8F8140088F81C4054
:1041F00088F80240E7E5002006900790012007912B
:104200000690069C002C00F0EB80079C1434079469
:10421000079C246864067FF5C8AD0C8AD8F818108E
:104220004D1CC8F818500C70D8F8141088F81C00F1
:104230000139C8E90223C8F8141088F80200C2E561
:104240000F9918310F910F990968AEE5059918314A
:10425000059105990968A8E501991831019101991D
:104260000968A2E50D9918310D910D9909689CE531
:104270000399183103910399096896E5088880B27B
:1042800040F4007008800121C8E9022388F8021078
:1042900099E500BF01000300782B0020088820F476
:1042A00080600004000C0880EFF31184102080F37C
:1042B0001288088B088880B240F40070E4B208804D
:1042C00084F311880C2188F802105BE616B133687C
:1042D000B2885A830BF0E0FD04460D460BF0DCFD7E
:1042E000031B61EB0501052B71F10003F6D316B139
:1042F0003368B2881A830BF0CFFD04460D460BF0ED
:10430000CBFD031B61EB0501052B71F10003F6D317
:10431000B9F101097FF4ADAE16B13368B2885A83A2
:104320000BF0BAFD04460D460BF0B6FD031B61EB26
:104330000501052B71F10003F6D3BAF1000F04D08B
:10434000DAF80030BAF804205A830BF0A5FD0446D1
:104350000D460BF0A1FD031B61EB0501052B71F16F
:104360000003F6D316B13368B2881A830BF094FDBC
:1043700004460D460BF090FD031B61EB0502052B77
:1043800072F10003F6D3BAF1000F04D0DAF800306E
:10439000BAF804201A8398F90000441C3FF43DAE9B
:1043A000FFF7C2FB39E60F2388F802300BE50888D7
:1043B00080B240F4007008800121C8E9022388F827
:1043C0001C1088F80210FEE4099918310991099926
:1043D0000968EAE40B9918310B910B990968E4E438
:1043E00007991831079107990968DEE4D8F8180091
:1043F000098A441CC8F818400170D8F81410C8F88D
:1044000008200139C8F81410C8F80C30DBE408881B
:1044100080B240F400600880EFF31184102080F334
:104420001288088B088820F480600004000CE4B235
:10443000088084F311880D2188F80210A2E508880D
:1044400020F480600004000C0880EFF31184102039
:1044500080F31288D8F818000D8A461CC8F8186036
:104460000570088880B240F40070E4B2088084F3DC
:104470001188D8F81800098A441CC8F8184001703F
:10448000D8F814100C200239C8E90223C8F8141017
:1044900088F8020097E498F81030002B3FF4B5AD8F
:1044A0002BE600BF38B5184D9DF814E005EB40141D
:1044B0004FEA401C94F8E10400B938BD490084F883
:1044C000F324C4F8F43484F8F1140023049984F834
:1044D000F0E4022205F59C6584F8F234C4F8F8147F
:1044E00084F8FC3484F8E22465440BF0D5FC0246E1
:1044F0000B462846FFF728FC94F8E234002BF4D151
:1045000094F8FC0438BD00BF782B002038B5184D56
:104510009DF814E005EB40144FEA401C94F8E104C8
:1045200000B938BD84F8F324C4F8F4340122002320
:10453000490005F59C6584F8F22484F8FC34049A5B
:1045400084F8F0E4022384F8F114C4F8F82484F821
:10455000E23465440BF0A0FC02460B462846FFF708
:10456000F3FB94F8E234002BF4D194F8FC0438BD4A
:10457000782B0020F0B587B00023824A0093019386
:10458000136843F48033136003E0009BB3F5A04F3E
:1045900009D0136803F400330193009B01330093A7
:1045A000019B002BF1D0774B1B6813F4003318BF2D
:1045B00001230193019B012B01D000BFFDE7714B4B
:1045C00071491A6C714842F080521A640A6842F4C8
:1045D00040420A609A689A609A6842F400429A607F
:1045E0009A6842F4A0529A6058601A6842F0807249
:1045F0001A601A689201FCD5654A40F20571116093
:10460000996821F003019960996841F00201A2F5CF
:1046100080629960936803F00C03082BFAD19368C9
:1046200003F00C03042B00F08C80082B00F08E802C
:10463000584D594BC5F8E837524BD5F8E8179A68EA
:10464000564C5748C2F303122A44002692F88C2A8B
:10465000D140544AC5F8E817E260534A596FA26046
:10466000596B524A21F080015963596F41F08071B2
:104670005967196B0A431A635A6B5A639A6B9A63A8
:104680001A6C4B490A431A64596C4A4A0A435A64E1
:1046900002A948F2FF7302934FF6FF770396FFF7E4
:1046A0004FF800F580600297FFF74AF800F5806048
:1046B0000297FFF745F800F58060FFF741F800F535
:1046C0008060FFF73DF800F58060FFF739F800F5EE
:1046D0008060FFF735F800F58060FFF731F800F5EE
:1046E0008060FFF72DF80846FFF7C8F8D4F8FC30D3
:1046F000029A3149314843F08073C4F8FC30304BA2
:10470000C3F8B01F5E60196841F001011960D5F867
:10471000E8374FF47A71B3FBF1F3013BB3F1807FDB
:104720002849B2FBF1F2C0F8802908D24FF0E0220C
:10473000F0215361072384F823109661136107B0B9
:10474000F0BD144D204BC5F8E83775E75368516844
:10475000104D13F4800F01F03F01536814BF1A4A43
:104760000D4AB2FBF1F1074A5268C2F30142C3F3AA
:104770008813013201FB03F35200B3FBF2F3C5F8D7
:10478000E83759E7003802400070004008544007FD
:10479000003C0240000000200024F40000ED00E096
:1047A000000002400003FA0500000008FF916700C6
:1047B000FFC9FE103357070055CEACC5801A002044
:1047C000001000E040420F0000127A0082B0064B59
:1047D000002201920193019B03EB80000190019B59
:1047E000196002B0704700BF50280040F8B52C2077
:1047F00008F08AF9064620B140F209120123C2806E
:1048000003722021304606F077F82D2008F07CF95D
:10481000074620B140F209120223C2800372202110
:10482000384606F069F80BF037FB04460D460BF0EE
:1048300033FB031B61EB05020A2B72F10003F6D375
:1048400066B13368B2881B691A4207D0114B93F8DE
:10485000422552B9022283F84225F8BD0FB13B68C8
:104860001B690C4B032283F84225392008F04CF9D0
:104870000221044648B14FF40573C380017206F06B
:104880003BF82368A2885A83F8BDBDE8F84006F0DB
:1048900033B800BF782B002010B51C2008F034F985
:1048A0001121044606F028F84CB12368A2885A83E7
:1048B000C8200BF01FFB2368A2881A8310BDBDE837
:1048C0001040C8200BF016BB704700BF704700BFF8
:1048D000704700BF10B5124C94F84E3523B9114BF8
:1048E0004FF480225A6110BD4FF0E022D2F8103D03
:1048F00023F00603C2F8103DFEF70EFA94F84E3589
:10490000002BECD0D4F854359B68DB07E7D5D4F8FE
:104910005026136823F0030161F307031360DEE7F9
:10492000782B0020003C01402DE9F04FB34CD4F827
:1049300050355A69D2078BB002D50BB0BDE8F08F65
:104940005A699B6912EA0309F7D0C9F3074319F4BE
:10495000002F009340F0E180009B590743D419F0E9
:10496000020F5FFA89F603D0D4F8503502225A615B
:10497000B9F1000FC0F2EE8119F4006FC9F30725F9
:1049800040F04A81330708D59D4B9E48D3F8A83A9A
:104990009847D4F8503508225A61F70600F1C481CF
:1049A000EE0600F16F81A90600F1E880009BDA06AF
:1049B00009D5934B9348D3F8B83A9847D4F8503573
:1049C0004FF480125A61009B9B06B6D58C4B8D48E4
:1049D000D3F8BC3A9847D4F850354FF400125A61D6
:1049E0000BB0BDE8F08FD4F854259369D269134019
:1049F0001FFA83FABAF1000FB1D0DFF81882CDF8B0
:104A00000C90A8F1180500271AF0010F78D0FEB21B
:104A1000D4F8542504EB86031069D3F85C15536B66
:104A20008968F340DB01DBB203430B4013F001095B
:104A3000D9B240F0AB810A0740F1C881D8F8002014
:104A400008239360994619F0800F59D0D5E94CC0DE
:104A5000D5F82431D8F800E0ACEB00018B42DEF849
:104A6000182028BF0B4692B20333B2EB930F47D9FD
:104A7000D4F8542594F84795323604EB8603CDE9F3
:104A80000178674698469446874237D9D5F824314D
:104A9000391A994228BF194601F1030BD5F828317C
:104AA0004FEA9B0BB9F1000F10D18AB2033292107A
:104AB000D8F84C650AD04846013053F8047B37607B
:104AC0008242F9D1D5E94C70D5F8283108440B441D
:104AD000B842C5F82831C5F83401DEF818300AD1DB
:104AE00095F81C11012202FA01F1DCF8342022EAC7
:104AF0000102CCF834209BB29B45C5D3DDE9017897
:104B00005FEA5A0A07F1010708F1040805F12805D0
:104B10007FF47AAFDDF80C9021E7D4F854359D6925
:104B2000DB691D402D0C3FF417AF04F24458DFF849
:104B3000D0B004F5B3660027C24608E06D0807F15F
:104B4000010706F1040608F128083FF405AFEB075A
:104B5000F4D5F9B204EB8103D4F85425D3F8983591
:104B60009B6852691340D807DAB200F13F8193077E
:104B700040F16781336802229A60DFE7D4F8543548
:104B8000D4F85C159A680868C2F34102022A06BF8D
:104B9000032262F30A006FF30A0008605A6842F4C5
:104BA00080725A6006A8FEF769FED4F85025D4F842
:104BB0005415D368079D6FF38D23D360886812491D
:104BC000C0F34100014491F8D410032900F05F8143
:104BD0000E490F480126294484F8466581424FF06A
:104BE0004006A4F8486500F2AC810E2161F38D23E4
:104BF0004FF40051D3605161D8E600BF782B0020FC
:104C000000000020BC30002094880708401E1BFFD5
:104C10003F420F00D430002000238DF8133094F869
:104C200056368DF81330B64BB648D3F8B03A98479D
:104C3000D4F85435D4F85025986894F84E354FF48C
:104C400000615161002B3FF49DAEC2077FF59AAE23
:104C500094F85936012B7FF495AE9DF81330032B51
:104C60007FF490AED4F85036A7491A6842F001029A
:104C70001A601A6842F003021A600B6943F00603D7
:104C80000B617FE6D4F85465D4F85015736800279B
:104C900023F0010373600597059B43F02003059300
:104CA000059B67F38A130593059B0B610B690593BD
:104CB000BC46964B03E00A690592013B02D0059A77
:104CC0009006F8D494F8452552B1914B03EB820E2F
:104CD000FF2253F8040F8260D86B73458260F8D1CD
:104CE0000B2363F3070763F3070C4FF0FF33B36144
:104CF0004FF00113F3617761C6F810C0336885483F
:104D00006FF30A13336094F84725D4F89835012AD5
:104D1000186100F0B5804FF480534B61784B7948AF
:104D2000D3F8AC3A98473EE6D4F850359A6922F069
:104D300010029A611A6AC2F34340022802F00F017E
:104D400000F0B080062800F087809A6942F01002D7
:104D50009A6125E694F84E353BB1D4F85026136895
:104D600023F0030161F307031360D4F85425644B67
:104D70006448D3F8B41A536823F00103536088479A
:104D8000D4F850354FF000425A61F5E5516BD8F830
:104D900000005B4B4FF0010C0CFA07FC21EA0C0100
:104DA00051630122D3F8A03A8260314655489847B2
:104DB00094F84735012B00F0B18019F0020F3FF451
:104DC00042AED8F8003002229A6099E6CB0604D5AC
:104DD000D8F8003010229A6092E6480658BF8946FB
:104DE000EBD5D8F8003040229A6089E694F8472540
:104DF000336801208242986007D11A69D8F87C3361
:104E0000C2F312029B1AC8F88C33DBF89C3A504666
:104E1000984794F84735012B7FF490AE002F7FF42C
:104E20008DAE94F85536052B7FF488AED4F89835BE
:104E3000384A1A61384A5A611A684FF080221A605B
:104E40007CE610077FF57AAEDBF8A43A5046984727
:104E5000336808229A6071E601EB810104EBC1011D
:104E6000D4F81466D1F8D008C2F30A1202443068AC
:104E7000C4F8100B3068C4F8140BC1F8D02864E7EC
:104E8000254A5A611A684FF080221A6043E70021D0
:104E900084F846154FF40071A4F84815092161F310
:104EA0008D23A5E647F6F07010423FF44EAFC2F3F3
:104EB0000A1201EB810004EBC00002F1030C5FEA6F
:104EC000AC0CD0F8C468D4F814E64FEA810818BFD7
:104ED000002006D00130DEF8007046F8047B8445DF
:104EE000F8D1414404EBC101D1F8C4081044C1F821
:104EF000C408D1F8D0080244C1F8D02825E700BF83
:104F000000000020BC30002000ED00E0400D030058
:104F1000D03000201800086088360020002F7FF471
:104F20004CAF94F85536042B7FF447AFD4F898353E
:104F30002B4A1A612B4A5A611A684FF080221A6074
:104F40003BE72948A5F57401A1F51051814203D82A
:104F50000D2161F38D234BE62449254829448142E4
:104F600003D20C2161F38D2342E62248A5F18C7116
:104F7000A1F54341814203D80B2161F38D2337E62C
:104F80001D491E482944814203D20A2161F38D2321
:104F90002EE61B491B482944814203D2092161F3B3
:104FA0008D2325E61848A5F1B771A1F55851814226
:104FB00003D2082161F38D231AE6144914482944C9
:104FC000814203D2072161F38D2311E61149124872
:104FD0002944814234BF0621052161F38D2307E670
:104FE0001800086088360020DFC810002013FBFE80
:104FF00020D61300FF69180000D3CEFE40771B00B7
:10500000C05BB3FEC091210040AC2700C01D6AFE0A
:1050100040E13300803C36FEE09C41000378022BE7
:1050200012D00E4943680269D1F8180210B4184032
:10503000D1F81042D1F80C12931E400A04FB030071
:1050400008445DF8044B7047044B4268D3E9800183
:1050500000EB410000EB5220704700BF04570020D6
:105060002DE9F84F12F0020E01D000283CD08A4DF5
:10507000D5F80872002F43D14FF0FF3C874CE14632
:10508000E046E24600262768B84200F0D98094F84E
:105090000EB0BBF1000F4ED0BBF1010F16D1804F07
:1050A00006F5817B07EB0B1B9BF807B01BF0010F8C
:1050B0000CD11BF07E0F09D15FEADB1740F0B48002
:1050C000D4F808B0D34501D2DA46B1460136082EED
:1050D00004F11004D7D1BCF1FF3F38D1B8F1FF3F44
:1050E00030D06F4CC44633E06B4D95F8B431A5F524
:1050F0008054E3B10123637002263046BDE8F88F87
:10510000D5E9834606FB0744A042B5D395F8B431F0
:1051100013B9012385F8B431614B012200265A707E
:105120003046BDE8F88F95F8B431002BE2D1012369
:1051300085F8B431DEE7B4460136082E04F11004D8
:10514000A1D1C8E7B9F1FF3F18BFCC4674D0544C89
:10515000D5F8986004EB0C1841F21809013648F8AC
:10516000090041F21C090CF5817748F809604FEA03
:105170000718C5F8986044F8086004EB07164FF06C
:105180000008C6F8048004EB0716B679042ECAD8C6
:10519000DFE806F0031952192F0012F0010868D158
:1051A00004EB0710D61090F80790032B66F3C7198D
:1051B00080F807905BD94FF6FF70834228BF034603
:1051C00004EB07108380BEF1000F12D0D5F89830A1
:1051D000D5F89C0001330130C5F89830C5F89C0023
:1051E00004EB0C1041F21C05435104EB071304209F
:1051F0009871500705D504EB0710C37943F00103FC
:10520000C371D30608D504EB0714E379C3F3450251
:10521000013262F34603E371224B012603EB4C2378
:105220000B603046BDE8F88FB0460136082E04F119
:1052300010047FF428AF4EE700263046BDE8F88F13
:10524000174C06F5817704EB071C4FEA07189CF80A
:1052500006C0BCF1000F01D1B44679E7B446D5F8D9
:105260009860013644F80860C5F898608BE74346BB
:10527000A6E70D4BD3F8383B002BDDD009495D681C
:105280000A4A01EB4C210023A8470028D4D004EBA4
:1052900007140223A37130E7045700201C57002095
:1052A000044700201C470020782B0020E10700085D
:1052B00070B5104E3378022B0F4B0BBF020AC0F3B0
:1052C000D412C4B200F07F04D3F8000282B01044BC
:1052D0000D460023032201A9FFF7C2FE012807D1D2
:1052E0003378022B019B0CBF23F8145043F8245051
:1052F00002B070BD04470020045700202DE9F04F94
:10530000DFF82C8198F80060032E85B00C46154616
:1053100043D001288CBF00220122022E0B6801928B
:1053200069D14FEA1329DFB24FF4807A013801289E
:1053300020D84FF0010B9D4217D93C4ED6F878216A
:105340001AB1D6F89411994258D0D6F80002002329
:105350004844092203A9FFF783FE01282CD0022824
:1053600017D020B123689D42E8D82560032005B0FE
:10537000BDE8F08FF7B12D4B93F8B42112B901229B
:1053800083F8B4210123022088F8013005B0BDE87C
:10539000F08F022005B0BDE8F08F01288CBF0023FC
:1053A000012301930B684FF0800AC3F3D41903F073
:1053B0007F07BBE7D346BEE798F800200399DDF8E6
:1053C00004C0022A14D0032AE3D151F8273023F075
:1053D0007043B3FA83F35B0963455F44236821D0CC
:1053E0005B4457452360ECD309F101090027BAE774
:1053F00031F81730EDE74FF4807AD6E7D6F810127F
:10540000013A02EB41224902B2FBF1F21344B3FB31
:10541000FBF20BFB12320AB15B449B1A9D422360E4
:105420008CD8A2E7AB42A2D39FE700BF045700206D
:10543000044700202DE9F04FDFF86CB19BF800C065
:10544000BCF1020F894683B009688246174640F0D6
:105450008C800BF58053CEB2D3F80052A6EB010836
:1054600005EB112590444FF480739844B94208F13C
:10547000FF38B8FBF3F84CD2A844BCF1030F07EB9C
:1054800006040CBF80224FF48072641A9442A8EB89
:10549000050328BF144666B994422CBF0A220B228A
:1054A00001A92846FFF7DCFD012809D003B0BDE8BB
:1054B000F08F0B2201A92846FFF7D2FD0128F5D174
:1054C0009BF800C0D9F80010BCF1020F01F10103F4
:1054D00023D0B44210D9019906F18042013A01EB80
:1054E0008202043901EB840142F8043F914203F146
:1054F0000103F9D1D9F80010A61B3144BAF1010F0C
:10550000C9F8001021D08F4205F101054FF00006C7
:10551000B3D8012003B0BDE8F08FB442ECD90198B4
:1055200006F10042013A00EB4202023800EB44006F
:1055300022F8023F904203F10103F9D1A61B314446
:10554000BAF1010FC9F80010DDD1B942DBD1BCF1CD
:10555000020F1DD004F18044019B013C4FF0FF324B
:1055600043F82420D9F80010CDE70BF5805301F063
:105570007F06D3F80032BCF1030FC1F3D415A6EBBC
:1055800001081D44904414BF4FF4807380236CE7DE
:1055900004F10044019B013C4FF6FF72504623F892
:1055A000142003B0BDE8F08F0447002030B5044656
:1055B000C06983B010B9012003B030BD0D4600238F
:1055C000032201A9FFF74CFD0128F5D1B4F92030E1
:1055D000002B0ADA144B93F8B4210AB983F8B4010A
:1055E000124B01225A700220E6E7019A012D4FEA80
:1055F000431102EB431303D0022D11D1E52555547D
:10560000A268DA612278032A04D100221A775A7735
:105610009A77DA77626A5A83120C9A8203B030BDA5
:10562000E268DA61EEE700BF04570020044700207B
:105630002DE9F04190F83C30002982B0044614BFB7
:1056400002210021042B7BD8DFE803F0030C3D4846
:105650006900FFF7ABFF012870D1626B002A75D19A
:1056600084F83C00404EDFF808814FF6F77706F5E6
:10567000805516E0BA424FD867F0FAFD01284FF086
:1056800000011DD1206BFFF713FE012818D1019AEC
:10569000D5F814122263531E8B4228BF0B46C5F85F
:1056A00014323278236B032A01A918469AB2E1D149
:1056B000434531D867F0DCFD01284FF00001E1D00F
:1056C00002B0BDE8F081426B04F130010020FFF729
:1056D000B1FE012832D1032384F83C302348E16A2B
:1056E000D0F89431D0F81022C0F894115B1A02FB64
:1056F00003F3D0F8782102EB4322C0F87821D0F8E8
:105700007C2102EB4323C0F87C31002100F5B87006
:10571000FFF74CFF012811D1042384F83C3094F8A2
:105720002830042B04BF002384F82830A36B8BB1EE
:1057300020469847012002B0BDE8F0810228BFD181
:1057400094F82830042B09D00220B9E7022384F80A
:105750003C30B9E7012002B0BDE8F081002384F8B5
:1057600028300220ACE700BF044700200457002087
:10577000F7FFFF0F38B590F834300446052B43D8B7
:10578000DFE803F01E033C0F185E006B4FF0FF31A3
:10579000FFF78EFD012837D1E06AB8BB032384F8F8
:1057A000343000212046FFF701FF01282CD10423CB
:1057B00084F8343094F82830082B2BD0012038BDE1
:1057C000204DD5F8082200F1300102320120FFF708
:1057D00095FD012823D00238C0B2012814D8052332
:1057E00084F8343094F82830082B04BF002384F860
:1057F0002830012385F8B531022038BDC06A216BFD
:10580000FFF756FD0128C9D0002038BD022384F8D7
:105810003430F4E7002384F82830012038BDE368F1
:10582000D5F81012D4E90B2003EB4123C5F814027C
:10583000C4E9033002B96062012384F83430A5E77B
:10584000004DCFE70457002010B590F838300446DB
:10585000032B4DD8DFE803F0022F38432B4AC068F2
:10586000117802F580530329D3F81012D3F894214C
:105870000CBF4FF0800C4FF4807C01FB0CF100EB6F
:105880004120C4E90302D3F87801A0EB4120C3F81A
:105890007801D3F87C01A0EB4121E06AC3F87C11C8
:1058A00002EB0C01C3F89411C4E90C2148BB6262FD
:1058B000012384F8383016480021FFF777FE0128CD
:1058C00011D1022384F83830626B04F130010120D9
:1058D000FFF7B0FD012806D1032384F838300021FA
:1058E0002046FFF763FE431EDBB2012B01D910BD3A
:1058F000022094F82830062B04BF002384F82830B7
:1059000010BDA2EB0C022263D2E700BF04470020C7
:10591000745800202DE9F0434368C3F308020A4499
:10592000B2F5007F83B004460D4605D22B44636078
:10593000012003B0BDE8F08390F91A20501C0AD072
:10594000444902F5817201EB0212D1796FF3000133
:10595000D171FF22A27694F91B20511C16D03D482C
:1059600002F5817100EB011200EB0111D279C879C7
:10597000C2F34502012A86BF02F1FF3202F03F0264
:105980000022FF2662F34600C871E67694F800C054
:10599000BCF1020FCAD0DFF8C480D8F81022B5EBF2
:1059A000422F4FEA422915DCD8F818721F407A427C
:1059B000AA420FDCEA194A4510D220690028B7D064
:1059C000244A1278032A40D080B24FF6F7729042F0
:1059D000ACD9ADE7002003B0BDE8F083227E20699A
:1059E00012F0080626D0D8F89421411C8A4213D31D
:1059F00000D100214B44A5EB0905DB1BBCF1020FD4
:105A000060613D44216163600846D7D1D8F8202207
:105A1000B3EB422F8AD38BE798F8B42122B9012344
:105A200088F8B431636820690A4A0126567094F8F0
:105A300000C0DFE701A967F01BFC0128CAD101996A
:105A4000636894F800C02069D4E7034A90427FF667
:105A50006DAF6DE704470020F7FFFF0F04570020EC
:105A60002DE9F04790F8384082B00546032C00F24B
:105A7000AD80DFE804F00219730BFFF77BFE01280D
:105A800010D002280AD1032385F838302B6C00206F
:105A900085F82800002B71D098470224204602B0D8
:105AA000BDE8F08785F838002B78022B62D0484A91
:105AB0006B68D2F8182203EA0208C8F34F28284678
:105AC000FFF7ACFA424F0646A8EB0008A7F580594D
:105AD00001A9022200233046FFF7C2FA08EB0604B0
