:020000040800F2
:100000000000022051890508619700089541020807
:10001000018A0508018A0508018A05080000000018
:1000200000000000000000000000000011B2000805
:1000300013B200080000000015B20008612001089A
:10004000018A0508018A0508018A0508018A050850
:10005000018A0508018A050845FE000849FE0008D6
:10006000018A05084DFE000851FE0008319E000877
:10007000459E0008599E00086D9E0008819E00085C
:10008000959E0008A99E0008018A0508000000004E
:1000900000000000000000000000000055FE000805
:1000A000699D0008919D0008B99D0008539D0008B6
:1000B000E19D0008F59D0008099E0008018A0508D9
:1000C000018A0508018A0508018A0508018A0508D0
:1000D000018A0508A5980008B198000800000000F2
:1000E00059FE0008018A050817B200080000000048
:1000F000000000000000000000000000BD9E00089D
:1001000000000000018A05081D9E0008018A0508FC
:1001100000000000000000000000000000000000DF
:10012000D19E0008E59E0008F99E00080D9F00087A
:10013000219F0008000000000000000000000000F7
:1001400000000000000000000000000069B200088C
:10015000359F0008499F00085D9F0008018A050837
:10016000018A0508018A050800000000000000005F
:10017000000000000000000000000000000000007F
:1001800000000000018A05080000000000000000D7
:08019000018A0508018A050837
:08019800E484050001000000F1
:1001A000302D01200201000001001400502D01201B
:1001B0000202000001001400702D0120020A00005C
:1001C00001001400902D0120010B000000007700B9
:1001D000B02D0120010C000000007600D02D012080
:1001E0000110000000007600F02D0120010D01003B
:1001F00000007700102E01200112000000007600A0
:10020000302E01200114000000001E00502E01209D
:10021000011A000000000D00702E012001150000E1
:1002200000000C00902E01200116000000000C00C0
:10023000B02E0120011B000000000E00D02E012076
:10024000011C000000001E00F02E0120011700001C
:1002500000000C00102F01200118000000000E000B
:10026000302F01200119000000000C00502F012048
:10027000011E000000000C00702F0120011F000073
:1002800000000C00902F0120012801000000180040
:10029000B02F01200120000000004800D02F0120D5
:1002A0000121000000004900F02F01200122000080
:1002B00000004A00103001200123000000004B0024
:1002C000303001200124000000004C00503001209B
:1002D0000125000000004D007030012001260000C3
:1002E00000004E00903001200127000000004F0068
:1002F000B0300120012B000000002900D030012087
:10030000012C010000002900F0300120012D010026
:100310000000700010310120012E01000000520089
:1003200030310120012F0100000028005031012050
:100330000130010000002800703101200229050071
:1003400000012C00903101200133000000003C002E
:0C035000B0310120013600000000200048
:10800000D0E907239A422FBFD01AC0688018C01A3F
:108010007047D0E9092300699A4238BF1218D31A71
:108020000138C01A7047D0E90902131A5842584162
:108030007047036A41690246C85CD16801338B42CC
:1080400028BF002313627047436A8269D154436A90
:1080500002690133934228BF0023426B4362D36815
:1080600043F08003D3607047436B188810F0100012
:108070001EBF1A889B8801207047436B99891A8814
:10808000890610B592B2044607D5900605D5E26A76
:1080900022B39888216B80B29047636B99891A88C4
:1080A000090692B20FD510060DD5D4E909128A42FD
:1080B00022D0A169895C998021690132B2FBF1F07B
:1080C00001FB1022A262998A1A88C90592B204D5CE
:1080D000D20744BF4FF6F7721A8010BD9B88E26941
:1080E0006169DBB28B54E369E2680133B3FBF2F1FF
:1080F00002FB1133E361D0E7DA6822F08002DA6034
:10810000E1E77047036941681F2B30B54FF020024B
:1081100085BFA3F120054C680C68AA4098BF9A401F
:1081200022421ED0826900201074D06884682068C2
:1081300020F001002060546820686579094C82892C
:1081400034F8154092B21F2B22EA0402828188BFC4
:10815000203B4FF020028BBF9A4002FA03F3CA6023
:108160008B6030BD24F005080E4BDA68D20310D4C2
:10817000DA68D1060FD4DA68D2050ED4DA6812F0C4
:10818000E00F0CD1DB6813F0020F14BF08200920A8
:108190007047012070470620704702207047072073
:1081A000704700BF003C024007B509238DF8073037
:1081B000FFF7DAFF8DF807009DF80730012BF7D0A5
:1081C0009DF8070003B05DF804FB838A028B9BB225
:1081D00043EA024331EA03030CBF01200020704749
:1081E00082B0002301930093012300900193019B2F
:1081F00063B1009A21F07F4314320092009A126812
:108200001A4214BF0120002002B07047009A1832B1
:10821000F3E77047704701207047034BD3E9000331
:10822000C01AC0F30A00704718170020054AD2E9A7
:1082300000138B42FDD0D1180133C3F30A03087A2F
:108240005360704718170020044BD3F8080820B17A
:10825000D3F80808431F58425841704718170020A8
:10826000012380F849307047044BD3E90003C01A5A
:10827000C0F30A00C0F50060704700BF1817002067
:1082800010B5D0F8E83504461B699847032384F8F5
:108290001231002010BD08B590F8123180F813316A
:1082A000042380F81231D0F8E835DB6898470020C5
:1082B00008BD08B5D0F8E435DB6903B19847002064
:1082C00008BD08B5D0F8E4351B6A9847002008BD02
:1082D00008B5D0F8E4355B6A9847002008BD10B5B2
:1082E000074C2068FF2808D00649D1F80C2801F572
:1082F000016100F035F8FF232360002010BD00BFAE
:108300000000002018170020432301480B8070470D
:1083100004000020122301480B8070474700002012
:10832000042301480B8070475900002070477047B4
:108330007047704770477047044B00200522C3F810
:108340000828C3F81808C3F81C087047181700203D
:10835000024B0020C3F80808704700BF1817002020
:10836000212838B50C461BD022282BD0202815D127
:10837000A1B1072A12D11A4DD5F81C3813B10968DA
:10838000002098472368C5F82038237985F82438D9
:10839000637985F82538A37985F82638002038BD1B
:1083A0000029FBD0072AF9D10D4BD3F820280A6009
:1083B00093F824280A7193F825284A7193F82638EF
:1083C0008B71EBE70029E9D0022AE7D1044BD3F8FF
:1083D0001838002BE2D0098800209847DEE700BF5C
:1083E0001817002030B50E4CD4E900329A1AC2F3A7
:1083F0000A020A44B2F5006F10D8014400228142FB
:1084000003D102B12360002030BDE21810F8015BF7
:1084100015720133C3F30A030122F0E70220F3E7E8
:108420001817002070477047D0ED007AD0ED036A2E
:1084300030EE677AE6EE877AB0EE670AC0ED007A32
:108440007047D0ED017AF5EE407AF1EE10FA09D1DD
:10845000DFED0F7A60EEA70AB7EE007AC7EE207A5A
:10846000C0ED017AD0ED017A80ED021A71EE277A23
:10847000C1EE276AD0ED007AC0ED036A30EE677A6C
:10848000E6EE877AB0EE670AC0ED007A704700BF6B
:10849000DB0FC940D0ED017AD0ED036A30EE670AF8
:1084A000E6EE807A90ED000AC0ED017AB0EE677AD0
:1084B000D0ED027A37EE677AE6EE877AC0ED027A7F
:1084C00077EEC07AA6EEA70A80ED000A704790ED1D
:1084D000056AD0ED017AD0ED006AD0ED025A90ED38
:1084E000045A66EE277AB0EE407AE6EE807AD0ED56
:1084F000066A80ED057AE5EEA67AD0ED076AD0ED42
:10850000035A80ED066AE5EEE67AD0ED085AC0ED32
:10851000086AE5EE657AB0EE670AC0ED077A704743
:10852000D0ED006AD0ED057AE6EE807AB0EE407AC2
:10853000B0EE670AD0ED037AD0ED016A67EEC07A3B
:10854000E6EE877AD0ED066A76EEA77AD0ED026A7B
:10855000C0ED057AD0ED047A67EEC07AE6EE877A50
:10856000C0ED067A704703685A1C026019707047A4
:1085700003690133012B036106D1002380ED010A59
:1085800080ED000A8360704790ED006A07EE903A34
:1085900070EE466AF8EEE77A86EEA77A77EE067A0C
:1085A00090ED027AC0ED017A30EE670AC0ED007AF4
:1085B000A6EE807A80ED037A80ED027A7047036838
:1085C0005A1C026019707047007970470079C0F337
:1085D0004010704700794009704790F83C200346EE
:1085E00002F0FF0012B1002283F83C2070474FF4E4
:1085F0000063838170474FF40063838170474FF4B9
:10860000006383817047064A002352F8041B8142AD
:1086100004D00133042BF8D10020704701207047AB
:10862000401F002010B5064A0423002152F8044BD5
:10863000844208BF42F8041C013BF7D110BD00BFC3
:10864000401F00203548F0B5B0F84638B0F838582B
:10865000B0F95048B0F93E68B0F94AC8B0F9587856
:10866000ED1AB0F844386B43B0F94E5804EBE334DC
:10867000ED0295FBF4F505EBE335A5F57A6E0EFBFF
:108680000EF42313B0F94048C0F854580EFB06F618
:108690000EFB04FEB0F948485C4303FB0CFCF612E9
:1086A000241406EBEC2C04EB6E34B0F93C68B0F803
:1086B000423802340CEB860CA410D0F85C6804F548
:1086C00000440CFA07FC63430CF1020C4CF25030EE
:1086D000DC0BA6EBAC0640FA07F3734355BF5B0017
:1086E000B3FBF4F3B3FBF4F35B0071B1181240F683
:1086F000DE34404360430A4C00145C4300EB2440EA
:1087000000F6CF6003EB20130B6022B10A235D4318
:1087100008352D1115600120F0BD00BF181700208D
:1087200043E3FFFF01207047012070472DE9F84324
:10873000604F1546D7F86048B7F86428B7F86A98CC
:10874000C2EB24135200C2EBE402B7F9664862435D
:1087500003FB03F4B7F9683824135C43A41304EB58
:10876000E224B7F96E38C7F87C480E46A4F5FA3112
:1087700081FB01CE4FEAE37803FB0EF20CFB0822EB
:10878000A3FB0C389044B7F96C2882FB01021B0A4A
:10879000120343EA086342EA105200031B1842EB3B
:1087A000282202F50042A3FB093809FB02884FEAA0
:1087B000E8734FEA680253EA68084FF000006DD092
:1087C000B7F974984FEAE97809FB0EFE0CFB08EE46
:1087D000A9FB0C9CE644B7F972C88CFB01814FEAF7
:1087E000414C4FEA484111EB0909D7F880184CEA8F
:1087F000D83C4EEB0C0CC1F5801E0EF00048B7F9CA
:10880000701848EA5E0810EB09004FEACE7EBEEB16
:1088100000000CEBC10168EB010C40F63548A0FBF1
:10882000080108FB0C114FF0ADFEB7F97A384FEA9A
:10883000613E4FEA503C4CEAC14C03FB0EF24FEA5A
:10884000E3790CFB0929A3FB0C324A4403FB0EFE1F
:108850000CFB02EEA3FB0C3CB7F97828E6445B0E58
:1088600043EACE1313EB000C804602FB01F34FEA00
:10887000E27941EB6E6EA2FB082809FB003141440E
:10888000D00C40EA41301CEB0000B7F976384EEBD3
:10889000E141000A40EA016000EB03100EB1000A5A
:1088A000306025B104EB8404803424122C60012054
:1088B000BDE8F8831817002031B10A4BD3ED067AD2
:1088C000FDEEE77AC1ED007A52B1064B9FED067AD4
:1088D000D3ED077A67EE877AFDEEE77AC2ED007A8C
:1088E000012070479C1F00200000C8422DE9F74F6F
:1088F000CDE90012554AB2F8B238D2F8A418B2F84D
:10890000AE68B2F8B4781B02C91AB2F8B0386EEB90
:108910000E0EA3FB010403FB0E44B2F8AC38C009F1
:1089200040EA44601B04C018A6FB013506FB0E5547
:10893000B2F8AA684FEA132343EA05634FEAC63642
:108940004FEAE41444F100049B19A7FB012607FB3E
:108950000E664FEAD25242EA46224FEA252545F1F9
:108960000005F61512F5FA6C46F1000BBCF5FA6F2E
:108970007BF100074CDAA2FB02784FF0050A02FBFC
:1089800006F908EB4909A7FB0A780AFB09884FEAB0
:10899000570949EAC879BF08B0EB090047EA887768
:1089A00064EB6804DB1B2A4F65EBA805BC454FF060
:1089B000FF377BEB070720DA40F6AC57D21946F1B8
:1089C00000065643A2FB027202EB46064FEAC608B7
:1089D000FA00BA1A48EA577866EB0808101844EB10
:1089E00008044FF00B08A7FB087208FB06267F0857
:1089F00047EAC677DB1B65EB660501FB0EFEA1FBB4
:108A0000011202EB4E0EC90F41EA4E01BCEB010C04
:108A1000009A9AB10D4AD2F8B818A1FB032301FBC2
:108A20000535520D42EAC522121A4FEA6555009BE0
:108A300065EB0404D20B42EA44421A60019B0BB17D
:108A4000C3F800C0012003B0BDE8F08F1817002064
:108A500024FAFFFF01207047B0F90000084B4143A2
:108A6000994208DBB1F5000F07DA0029B8BFFF31E2
:108A7000081200B270470348FBE747F6FF70F8E7BB
:108A800001FF7FFF0080FFFF01207047054901F6CD
:108A9000BC0300221A605A609A600023C1F8C838EB
:108AA0000120704718170020114BD3F8CC28D3F8B9
:108AB000C818521AFA2A18D803F6BC03D3ED007A64
:108AC000FDEEE77A17EE902AD3ED017AC286FDEE2D
:108AD000E77A17EE902AD3ED027A0287FDEEE77A65
:108AE00017EE903A4387012070470020704700BF7F
:108AF000181700202DE9F041476906468846002FE7
:108B000059D10368C3F30D0515B3D8F80080356853
:108B1000FFF74AFB092840F08780454C236923F47E
:108B200040732361236943F400732361236943F095
:108B300001032361C5F80080FFF736FB236909288C
:108B400023F0010323616FD133680433336032E0D3
:108B5000384A934229D302F58042934224D302F546
:108B6000804293422AD3344A934229D902F5803273
:108B7000934227D902F50032934225D902F50032FB
:108B8000934223D902F50032934221D902F50032F3
:108B900093421FD902F5802293421DD9B3F1016F90
:108BA0001CD3052009F040FB0825FFF7FDFA092832
:108BB00016D04FF0FF373846BDE8F0811025F4E7B6
:108BC0001825F2E72025F0E72825EEE73025ECE729
:108BD0003825EAE74025E8E74825E6E75825E4E7B1
:108BE000134C236923F440732361236943F4007316
:108BF0002361236923F0F803236123691D4345F0B2
:108C000002052561236943F480332361FFF7CCFA21
:108C1000236923F0020323612369092823F0F80361
:108C200023613FF472AFC4E76FF00107C3E700BFF1
:108C3000003C024000400008FFFF000803682DE9E7
:108C4000F04104464068134483421AD80D468E18FA
:108C500004F10C074FF00008B54202D16069BDE88D
:108C6000F08123695A1C2261234415F8011B1973F2
:108C7000042AF1D139462046FFF73CFFC4E90480BD
:108C8000EAE74FF0FF30EAE710B5074C94F8D10857
:108C900040B109F041FAD4F8D838C01AC0F5FA50FA
:108CA00020EAE07010BD00BF1817002038B5144648
:108CB0000D4600294BD0394B9FED396AD3F8E02897
:108CC00007EE902AF8EEE77AB3F9F828C7EE866A3D
:108CD00003F6FC0307EE902A33F9082C07EE102A5E
:108CE000F8EEE77A53F8102CB8EEC77AA6EEA77A1A
:108CF00007EE902A53F8142CF8EEE77AE6EE877A1E
:108D000007EE102A33F9062CB8EEC70AA6EEA70A1A
:108D100007EE902A33F90A2C07EE102AF8EEE77ACC
:108D200033F90C2CB8EEC77AA6EEA77A07EE902A94
:108D3000F8EEE77AE6EE877A93ED007AB8EEC77A36
:108D4000C7EE066AA6EEA70A50F096F928601CB393
:108D5000124BDFED136AB3F9E42807EE102AD3F8BB
:108D6000FC28B3F9E63807EE902AF8EEE77AB8EE79
:108D7000C77A87EEA60A07EE903AF8EEE77AF6EEA3
:108D8000006A60EE277A9FED070AE7EE267A27EE63
:108D9000800A50F071F92060012038BD18170020BA
:108DA0000000F04A0000C8422DE9F347038A868993
:108DB000B6B205460C461E404FF0004901F14C0783
:108DC00001F1340816B902B0BDE8F087B6FA86F3AF
:108DD00029FA03F2D24391B2298216401B3B002CA0
:108DE00040D0042BEED8DFE803F039342E280300FE
:108DF000E368D5F82CA02BB19B681BB11FFA8AF150
:108E0000201D9847636A33B19B6823B11FFA8AF12A
:108E100004F11C009847E36B2BB19B681BB11FFA50
:108E20008AF140469847636D002BCBD09B68002B9E
:108E3000C8D01FFA8AF1384603E0E368696B5B68C3
:108E4000201D9847BEE7636AA96B5B6804F11C00AC
:108E5000F7E7E36BE96B5B684046F2E7636D296C0B
:108E60005B68E8E7042B06D8DFE803F00D0B090781
:108E70000300EB6A0193019BA4E76B6BFAE7AB6B12
:108E8000F8E7EB6BF6E72B6CF4E790F84820531CFF
:108E90000244DBB280F8483082F8341090F8492060
:108EA0000AB1132B01D94EF000BB7047002280F8A5
:108EB00049204EF0FABA70B5124D95F80039002BE2
:108EC000FBD104464618B44204D1002070BD0120F5
:108ED00009F061F9D5F80439D5F808290133C3F34D
:108EE0000A039342F3D0D5F8043914F8012B2B442C
:108EF00083F80C29D5F804390133C3F30A03C5F804
:108F00000439E0E71817002038B50C461146FFF782
:108F10009BF948B1054D002AD5F8CC3804DD204630
:108F2000FFF7C9FFD5F8CC3838BD00BF18170020AF
:108F3000F0B590F8CF5590F8CE1590F8D12590F86F
:108F4000D03590F8CC7590F8CDC501EB05218DB2E8
:108F500003EB022390F8D31590F8D22585B002EBED
:108F6000012207F01F06012192B29BB28E420446F5
:108F70008DF808708DF809C0ADF80A50ADF80C30C6
:108F8000ADF80E20C0F8402180F8111100F00781E3
:108F9000022E00F01881002E40F09581BCF1090FDF
:108FA0005ED8DFE81CF0B400EF005D00C4005D0097
:108FB00057000A005D00A70076002E0A022EADF8C9
:108FC00006200BD0032E25D0012E49D1D0F8EC3548
:108FD0001B68A0780DF10601984709E0D0F8E43548
:108FE00080789B6A0DF1060198474670C4F8F00539
:108FF000BDF80620002A47D0BDF80E30002B43D024
:109000009A4228BF1A46ADF80620014620464EF087
:1090100051F939E0E9B2052922D8DFE801F0030768
:109020000B0F1317D0F8EC355B68D2E7D0F8EC35AE
:109030009B68CEE7D0F8EC35DB68CAE7D0F8EC35B2
:109040001B69C6E7D0F8EC355B69C2E7D0F8EC35B0
:109050009B69BEE71A4303D190F81231032B03D169
:1090600020464EF07BF80FE0016905F07F0680F89E
:1090700014610B6865F30A121A430A604EF02EF968
:109080002EB1022384F81231002005B0F0BD012377
:10909000F8E7E9B28D4D01292975E1D890F8123130
:1090A000022B0FD0032BDBD1C1B9022380F8123180
:1090B000D0F8E43580F810115B68984720464EF0F0
:1090C0000DF9E1E70029F9D00121032380F81011FF
:1090D00080F8123120464EF003F8EFE790F81011B7
:1090E0000129EBD0D0F8E4355B689847297D84F8F6
:1090F0001011EFE7012AB3D190F81231022B04D0FE
:10910000032BADD100F5887180E771497EE790F8B7
:109110001231023B012BA3D86C4B0022DA61D0F84C
:1091200018210AB10222DA616A4902226EE7012D92
:1091300008D1C0F81851D4F8E43502A99B6820463C
:109140009847BBE7022D9FD1DAB2002A9CD1026971
:109150001B0A023B5268032B03D8DFE803F00B0D18
:109160000F11012363F30612584B1A62012384F88E
:109170001631A3E70223F5E70323F3E70423F1E71E
:109180000523EFE790F81231023B012B3FF668AF61
:10919000012D7FF479AF0023C0F81831CBE790F8A8
:1091A0001221032A7FF45CAFDBB2012B3FF658AFEC
:1091B000D0F8E43502A99B689847BDF80E30002B23
:1091C0007FF462AF7AE707F06007202FD9B205D1AC
:1091D000D0F8E43502A99B68984755E7BCF1010F28
:1091E00030D0BCF1030F1DD0BCF1000F7FF44CAFA9
:1091F00090F81221022A59D0032A7FF431AF13F0DC
:10920000800F4FF02802314B58D001F07F0102FB54
:10921000010191F81E21002A4ED001225A622E49E6
:109220000222F3E690F81231022B3FD0032B7FF499
:1092300017AF002D7FF47FAF4A063FF47CAF4DF0AF
:109240005BFF78E790F81221022A2FD0032A7FF4DF
:1092500007AF002D7FF418AF11F07F003FF42EAF61
:109260005BB2002B4FF02802B5BF02FB004102FBAE
:10927000014101F58E7101F55D710022DB0F08706F
:109280008A704B7004EB8000C9786BB182691368F7
:1092900002396FF3555301298CBFC3F300710121CB
:1092A00061F31C73136046E7426DF0E74B063FF431
:1092B000EBAE4DF021FFE7E60022AFE702FB010134
:1092C00091F87623A7E707F08001F2E71028002045
:1092D000282800202C2800203428002010B504461F
:1092E00071BB90F81131032B1BD1D0F89023D0F82B
:1092F0007C339A4217D9C178012908BFD0F880136E
:10930000A2EB030204BFC918C0F88013934228BF20
:109310001346C0F890239BB2D0F8802300214EF072
:109320008DF8002010BDD0F8E4351B6923B190F80A
:109330001221032A00D1984720464DF0CFFFF0E7D5
:10934000D0F8E4359B69002BEBD090F81221032A6A
:10935000E7D19847E5E770B50A7812F06004064651
:109360000D462AD0202C2FD1CC884B78FCB1120688
:109370000CD51E4922461846FEF7F2FFEA881B4923
:1093800030464DF097FF0024204670BD184A136008
:10939000184A0323C2F80C4880F81131C0E9E444AC
:1093A000234602F5016200214EF048F8EBE7022265
:1093B00011441846FEF7D4FFE6E74B780A2B08D095
:1093C0000B2B0BD0062BDFD130464DF0C7FE02240D
:1093D000DAE7094901224DF06DFFD5E78B7813B923
:1093E000064B9C62D0E74DF0B9FECDE7281F002068
:1093F0000000002018170020382800201028002026
:1094000010B5282303FB0101074AB1F88C13044669
:109410001046FEF7E7FF2046034A402301214EF0A5
:109420000DF8002010BD00BF3C280020002310B51F
:109430001946044640224DF09FFE402280212046DE
:1094400000234DF099FE012384F81231D4F8E83559
:10945000A0785B689847002010BD38B540220446CC
:10946000022381214DF088FE204602234022012163
:109470004DF082FE20460323082282214DF07CFE1F
:10948000084B0222002583F84B2083F84C50FEF74E
:1094900053FF01212046044A40234DF0CFFF2846C8
:1094A00038BD00BF000000203C28002038B5012254
:1094B000044640F20113A0F84431012511464DF055
:1094C000DBFF29462046A4F89C5300224DF0D4FF30
:1094D0004FF48173A4F86C3120462A4602214DF0E6
:1094E000CBFFFEF735FF002038BD70B5214D95F854
:1094F0000029012A03462CD11F4EF46E14B985F8B9
:10950000004922E0402C22D80ABF0222A4B285F8EA
:109510000029D5F80819194A0A44C3E9542240F22F
:1095200001110022A3F84411C3E9564203F5A271C8
:1095300018464DF0EAFED5F808392344C3F30A0370
:10954000C5F80839F36E1B1BF366002070BD40247C
:10955000DFE7022AF9D1002440F20112C0E95444A5
:10956000C0E95644A0F8442100F5A2714DF0CDFEAB
:10957000C5E700BF18170020102800202420002075
:1095800070B5284E336F0F2B03F1010202D0326702
:10959000002070BD244D0023336795F80039002B5F
:1095A000F6D1D5F80829D5F804399A42F0D0D5F883
:1095B0000829D5F804399A4295BFD5F80449D5F859
:1095C0000849D5F80839C4F5006498BFE41A402C5E
:1095D000F4661FD9012385F800394024D5F80829FD
:1095E000124B1344C0E9543340F201120023C0E986
:1095F0005643A0F8442100F5A2714DF086FED5F83F
:1096000008392344C3F30A03C5F80839F36E1B1B5A
:10961000F366BDE70EBF02230123A4B285F800392B
:10962000DCE700BF102800201817002024200020AD
:1096300008B502484AF014FF014808BDF18C06083D
:109640008428002008B502484AF00AFF014808BDF6
:10965000008D06088428002008B502484AF000FF63
:10966000014808BD058D06088428002008B5024879
:109670004AF0F6FE014808BD0F8D06088428002038
:1096800008B502484AF0ECFE014808BD1A8D0608EC
:1096900084280020024BD3F8740108F0EDBB00BF12
:1096A0001028002008B500684DF0E9FB024BC3F814
:1096B000A408012008BD00BF1817002008B50068E5
:1096C0004DF0DDFB024BC3F8B808012008BD00BF18
:1096D0001817002010B50D4B0D4CD3F8CC38D4F82A
:1096E00078011B1AFA2B06D904201EF065FA002017
:1096F00084F87C0110BD11B1D4F880310B6012B137
:10970000D4F8843113600120F4E700BF181700205B
:10971000102800200E49D1F8883043F47003C1F8B6
:1097200088300C4B1A68002042F001021A609860E1
:109730001A6822F0847222F480321A60064A5A6053
:109740001A6822F480221A60D860044B8B6070473C
:1097500000ED00E000380240103000240000000856
:1097600070470028ACBF00F16040074B4FEA011181
:10977000ACBF00F5614000F00F00C9B2B4BF19548E
:1097800080F80013704700BF14ED00E02DE9F047AA
:109790009846414B914603EB800205469468002CA5
:1097A00078D02833636004F13E03A36104F59F730E
:1097B000E3614FF48073C4E90433236894F83D00F7
:1097C000E160A36306F0C3FC064694F8440294F8F3
:1097D0003CA0271D08B14AF0D9FF94F8450208B112
:1097E0004AF0D4FFD4F840321BB12C4A116B0B4322
:1097F000136318F0080F2CD00135EDB21EB140F202
:109800000673F380357218F0100F94F846221AD0C0
:109810000221304606F070FBD4F8481294F9470252
:10982000FFF79FFF94F9473294F84722002B07DB9C
:1098300002F01F0101228A405B09194941F82320E7
:109840003846BDE8F08718F0200F14BF12213221EE
:10985000DFE719F0020F0CD06B1CDBB21EB140F237
:109860000652F280337294F846220221304606F006
:1098700043FB19F0010FCFD0504606F068FC0135CC
:10988000EDB218B140F20663C380057294F8462227
:109890000221BFE72746D3E724F00508003802403D
:1098A00000E100E00148FEF7E8BB00BF64000020D3
:1098B0000148FEF7E2BB00BFB0020020024B586F28
:1098C000C0F30070704700BF00380240704770B5A9
:1098D000002828D04C684CB9426815685679AB8985
:1098E00002229BB2B24023EA0203AB818A683AB9F2
:1098F00043681D68AB8923F001031B041B0CAB817B
:10990000816044B14468216864798D890223A34051
:109910002B439BB28B8132B143681A6893899BB207
:1099200043F00103938170BD0B4B30B51A46002400
:109930001D79854208D1DD68294203D0142000FB3F
:10994000042030BD0029F9D00134082C03F11403A0
:10995000EED10020F5E700BFF804002038B5036819
:109960001B681C68254B03F5B36393ED007A07EE83
:10997000902AB8EE477AF8EE677A013987EE270A1F
:109980008DB2DFED1F7A30EE270A4FF075FB1D4ACE
:1099900023880138944280B29BB212D002F58062D3
:1099A00094420ED0B4F1804F0BD0A2F58032944295
:1099B00007D002F58062944203D002F5806294429F
:1099C00002D123F070039BB20F4A944206D002F5F5
:1099D000806294421CBF23F440739BB22380094BE6
:1099E000E5629C42208503D003F580639C4201D14F
:1099F000002323860123A38238BD00BF000000207E
:109A00000AD7233C00000140001000402DE9F0433C
:109A10004568A87910F0040300F002020BD0002082
:109A200017468046042406466B79032B49D8DFE8A5
:109A300003F0094A89C990464FF480701F461C46BE
:109A40000126F1E72D682B8C23F001031B041B0C6E
:109A50002B84B5F820C0B5F804902B8B23F073034A
:109A60001B041B0C43F0600E2CF0020C6E4B4FEAF3
:109A70000C4C4FEA1C4C48EA06069D421FFA89F935
:109A80004CEA060C03D003F580639D420AD14FF6E1
:109A9000F3730CEA03033B4329F4407943EA040CD3
:109AA00040EA0909A5F80490A5F818E06963A5F84B
:109AB00020C02B8B23F008031B041B0C43F008036E
:109AC0002B83BDE8F0832D682B8C23F010031B043F
:109AD0001B0C2B842A8CB5F804E0B5F818C0524B47
:109AE0002CF4E64C22F020024FEA0C4C12044FEA10
:109AF0001C4C120C48EA06069D421FFA8EFE4CF4DE
:109B0000C04C42EA061203D003F580639D420BD19C
:109B100022F0800242EA071222F040022EF4406E48
:109B200042EA04124EEA800EA5F804E0A5F818C037
:109B3000A9632A842B8B23F400631B041B0C43F4BE
:109B40000063BDE72D682B8C23F480731B041B0C72
:109B50002B842A8CB5F804E0B5F81CC022F40073FD
:109B60002CF0730C304A4FEA0C4C1B044FEA1C4C8F
:109B70001B0C48EA060695421FFA8EFE4CF0600C5C
:109B800043EA062303D002F5806295420BD123F409
:109B9000006343EA072323F480632EF4405E43EA24
:109BA00004234EEA001EA5F804E0A5F81CC0E963F2
:109BB0002B84AB8B23F008031B041B0C43F008031E
:109BC000AB837EE72C68238C23F480531B041B0C8F
:109BD0002384258CA288A38B25F400552D0448EA04
:109BE00006062D0C23F4E64345EA06350E4E1B040B
:109BF0001B0CB44292B243F4C04303D006F5806616
:109C0000B44203D122F4804242EA8012A280A383AC
:109C100021642584A38B23F400631B041B0C43F4F1
:109C20000063A3834DE700BF0000014043685A79F9
:109C3000032A0FD8DFE802F00205080B1868343059
:109C4000704718683830704718683C30704718689B
:109C5000403070470020704710B543681A68587943
:109C6000084B0344012093F85840138CA0409BB24A
:109C700023EA00031384138CA140194389B2118491
:109C800010BD00BF24F00508F0B5EFF311841023D8
:109C900083F31288C5684668AA68136823F0010335
:109CA000136032687779104E938936F817609BB24B
:109CB00023EA060393812A696D681F2A4FF0200367
:109CC00085BF203A93409340EB6098BFAB60E3B20E
:109CD00083F31188C3689B6859601A6842F00102D7
:109CE0001A6001230374F0BD24F005080268137D97
:109CF000012B04BF0223137592F82C100CBF4FF4F4
:109D000000730023012904BF022182F82C1092F86D
:109D1000441008BF43F48063012904BF022182F884
:109D2000441092F85C1008BF43F4006301290DD180
:109D3000022182F85C1043F48053426811680022CB
:109D40004A628A8992B213438B8101E0002BF4D1DD
:109D50007047034B0348D3F88811FFF725B800BFBD
:109D6000102800200000014010B5064C0648D4F829
:109D70008811FFF719F8D4F8A8110448BDE810407D
:109D8000FFF712B8102800200000014000400140F9
:109D900010B5064C0648D4F88811FFF705F8D4F83A
:109DA000AC110448BDE81040FEF7FEBF10280020AB
:109DB000000001400044014010B5064C0648D4F8AC
:109DC0008811FEF7F1FFD4F8B0110448BDE8104047
:109DD000FEF7EABF102800200000014000480140C3
:109DE000034B4FF08040D3F88C11FEF7DDBF00BF6E
:109DF00010280020024B0348D3F89011FEF7D4BF7F
:109E00001028002000040040024B0348D3F89411AE
:109E1000FEF7CABF1028002000080040024B03488C
:109E2000D3F89811FEF7C0BF10280020000C0040A6
:109E30000348D0F8A83513B100F29C50184770477A
:109E4000000000200348D0F8C83513B100F2BC5020
:109E500018477047000000200348D0F8E83513B1D8
:109E600000F2DC5018477047000000200348D0F88B
:109E7000083613B100F2FC5018477047000000206C
:109E80000348D0F8283613B100F21C601847704719
:109E9000000000200348D0F8483613B100F23C60BF
:109EA00018477047000000200348D0F8683613B107
:109EB00000F25C6018477047000000200348D0F8AB
:109EC000883613B100F27C6018477047000000200C
:109ED0000348D0F8A83613B100F29C6018477047C9
:109EE000000000200348D0F8C83613B100F2BC606F
:109EF00018477047000000200348D0F8E83613B137
:109F000000F2DC6018477047000000200348D0F8DA
:109F1000083713B100F2FC601847704700000020BA
:109F20000348D0F8283713B100F21C701847704767
:109F3000000000200348D0F8483713B100F23C700D
:109F400018477047000000200348D0F8683713B165
:109F500000F25C7018477047000000200348D0F8FA
:109F6000883713B100F27C7018477047000000205A
:109F7000036823F0010303600023036043608360F0
:109F8000C3600361212343612A4B984203D13D22E0
:109F900043F8082C7047284B984204D14FF4746260
:109FA00043F8202C7047254B984204D14FF474128B
:109FB00043F8382C7047224B984204D14FF074621A
:109FC00043F8502C70471F4B984203D11E4A43F868
:109FD000642C70471D4B984203D11D4A43F87C2CDA
:109FE00070471C4B984203D11B4A43F8942C70478E
:109FF0001A4B984204D14FF03D5243F8AC2C17E075
:10A00000174B9842C3D0174B9842C7D0164B984273
:10A01000CCD0164B9842D1D0154B9842D6D0154B88
:10A020009842DAD0144B9842DED0144B9842E2D0DA
:10A03000704700BF1060024028600240406002404C
:10A0400058600240706002403D000020886002407D
:10A05000400F0020A060024000003D20B860024098
:10A060001064024028640240406402405864024088
:10A070007064024088640240A0640240B8640240F8
:10A080002DE9F0410022012603250B6806FA02FCA7
:10A090003CEA030331D10368540005FA04FE23EAC5
:10A0A0000E0303600B79D0F800806FEA0E0703FA05
:10A0B00004FE013B4EEA080E012BC0F800E011D867
:10A0C00083681F4087604B798768A3403B43836068
:10A0D000436823EA0C0343608B79476893409BB243
:10A0E0003B434360C36805FA04F723EA0703C360F0
:10A0F000CB79C768A3403B43C3600132102AC4D167
:10A10000BDE8F081204A936803F00C03042B10B5DE
:10A1100020D0082B20D01D4B1B4C0360A3681C4A89
:10A12000C3F30313134493F89C170368CB404360B5
:10A13000A168C1F38221114491F89C1723FA01F11F
:10A140008160A168C1F342310A4492F89C27D34050
:10A15000C36010BD0F4BDFE75368516813F4800FE5
:10A1600001F03F01536814BF0A4A084AB2FBF1F1FB
:10A17000054A5268C2F30142C3F3881301324B43CC
:10A180005200B3FBF2F3C7E7003802400024F400AA
:10A190000000002040787D01F0B5446B8668A389FB
:10A1A00023F400531B041B0CA3818279278A0546E4
:10A1B000BFB2100312F0040F4FEA022100F4005066
:10A1C0006A7927F4405740EA0700208214BF4FF411
:10A1D000805C4FF0000C12F0010F0CBF0023042331
:10A1E0009207A28922F4B05201F4806122F00C029D
:10A1F00048BF43F0080341EA0C0112040B43120C60
:10A200001A43A281A38A23F440731B041B0C85B05C
:10A21000A3826846FFF776FF214B9C4203D003F5EB
:10A2200080639C423AD1039BA2891921170401FB48
:10A2300003F34FF064014CBF7600B600B3FBF6F3B6
:10A24000B3FBF1F001FB10330201A08900044BBF06
:10A25000DB001B01323332334BBFB3FBF1F3B3FBF3
:10A26000F1F303F0070303F00F0313439BB22381C1
:10A270006A6BAB7913F0080F938A0BBF23F00803C6
:10A280009BB21B0443F0080308BF1B0C9382938905
:10A290009BB243F40053938105B0F0BD029BC3E72A
:10A2A000001001402DE9F8431E46204B9DF8205038
:10A2B0009DF824709842894690462CD13B462A4608
:10A2C00031460020FFF762FA04460020C4E9070087
:10A2D000C4E90900C4E90B986571A660A77120461E
:10A2E000FFF75AFFEA0707D5636B4FF6DF721A8054
:10A2F000DA6842F02002DA60626BAB0742BFD368D3
:10A3000043F08003D36093899BB243F4005393815D
:10A310002046BDE8F883064B984204D13B462A46C6
:10A3200031460120CEE70024F2E700BF00100140D3
:10A330000044004081602FE741712DE72DE9F04393
:10A34000654F07EBC00985B005464FEAC00899F88C
:10A35000B00705F0FCFE064699F8B10705F0F7FED8
:10A36000044699F8B2074AF011FA6B1CDBB21EB131
:10A3700040F60C12F28033721CB140F60C22E280DF
:10A38000237204223A21304605F0B6FD204604220D
:10A390003A2105F0B1FD07EB0803D3F8AC474F4B6A
:10A3A0009C4263D103F5F2331A6A42F400121A6236
:10A3B0001A6A22F400121A62474497F8B337022B44
:10A3C0006ED0032B6ED0464E464A012B08BF164670
:10A3D000A78827F03F0768463F04FFF793FE3F0C2E
:10A3E000029A414BB2FBF3F398B20743A78021884E
:10A3F00021F001010904090C21803C498E4253D10E
:10A400003B4BB2FBF3F2013092B2042A80B238BF68
:10A4100004222084A28323889BB243F0010323807B
:10A42000238823F4816323F002031B041B0C43F4F1
:10A43000806323804FF480432381238823F08003AB
:10A440001B041B0C238023889BB243F00103238051
:10A45000284B03EB4513012283F8C121002283F826
:10A46000C05183F8C22105B0BDE8F083224B9C4265
:10A4700009D103F5F0331A6A42F480021A621A6AAB
:10A4800022F4800297E71D4B9C4295D103F5EE33F1
:10A490001A6A42F400021A621A6A22F400028AE777
:10A4A000124E95E7124E93E706EB4606B2FBF6F224
:10A4B00091B2C2F30B020AB941F0010141F400422A
:10A4C0004FF496714B434FF47A71B3FBF1F30133C0
:10A4D0009BB223849EE700BF000000200054004090
:10A4E000801A060000350C0040420F00A0860100D3
:10A4F000400D03001028002000580040005C004080
:10A500002DE9F047B74D460105EB401907F004FE71
:10A5100099F9C021B44B8846D10003EBC20207462B
:10A52000D2F8AC4799F8C221013A142A00F283808C
:10A53000DFE812F0790089009F00B700C200CC006C
:10A54000D500EA00F5000A01150164017D01A301AF
:10A5500006021702290232024302670215005F1841
:10A560004FF0090A97F8B00705F0F1FD044697F897
:10A57000B10705F0ECFDB5F8203201339BB2074678
:10A580002046A5F8203205F07AFC384605F077FC25
:10A590001121204605F086FC1121384605F082FC89
:10A5A0004FF0650803E00520002107F0E3FD204699
:10A5B00005F054FC10B9B8F10108F4D1204605F0BB
:10A5C00063FC0021052007F0D5FD204605F057FC6F
:10A5D0000520002107F0CEFDBAF1010AE0D12046A6
:10A5E00005F052FC0021052007F0C4FD384605F0B7
:10A5F0004BFC0021052007F0BDFD204605F03FFC87
:10A600000520002107F0B6FD384605F038FCAB19EF
:10A6100093F9C001431C01D0FFF790FEAB19002253
:10A6200083F8C22107E0238813F4007340F02381EC
:10A63000AA1982F8C231AB1993F8C231002B7FF40A
:10A6400065AFBDE8F087238823F400631B041B0C6F
:10A65000238023889BB243F48063238023889BB2AA
:10A6600043F480732380AB19C3E97278032283F823
:10A67000C2215E492046FDF7A8FDAB19002855D040
:10A6800093F8D2215AB993F8D321FF2A04D193F831
:10A69000D0210AB10A22C3E7AB190422C0E70F2276
:10A6A000BEE7AB1993F8D12102F0FE022282C3E982
:10A6B0007278052283F8C2214D492046FDF785FDB9
:10A6C000002800F07081AB190622A9E7AB1993F8B6
:10A6D000D3212282C3E97278072283F8C221454937
:10A6E0002046FDF772FD002800F05D81AB19D3F81C
:10A6F000D4213AB9228892B242F400722280C3E98E
:10A7000072780EE108228BE723889BB243F48073B2
:10A710002380AB19C3E97278092283F8C221334937
:10A720002046FDF752FDAB190028B3D1D3E97201E1
:10A7300042F21072381A68EB0101904271F1000286
:10A74000FFF479AF15226BE7AB1993F8D12142F0F2
:10A7500001022282C3E972780B2283F8C2212649C2
:10A760002046FDF732FD002800F01D81AA19D2F81D
:10A77000D431012B1AD1238823F480631B041B0CD2
:10A780002380EFF31181102383F31288238B238816
:10A790009BB243F400732380CBB283F311880C2364
:10A7A00082F8C231AB19C3E9727844E7022B15D1A4
:10A7B00023889BB243F400632380EFF311811023BD
:10A7C00083F31288238B238823F480631B041B0CE0
:10A7D0002380CBB283F311880D23E1E7238B0E2373
:10A7E000DEE700BF10280020000000200100030069
:10A7F000820007008400070002000300864920460B
:10A80000FDF7EEFCAB19002890D0D3F8D821511CED
:10A81000C3F8D811218A1170D3F8D421013AC3F8B2
:10A82000D4210122C3E9727883F8DC21F8E67B4960
:10A830002046FDF7D5FCF0B1EFF31182102383F32E
:10A84000128823889BB243F400732380AB19D2B2E1
:10A85000D3F8D811481CC3F8D801208A087082F3B5
:10A860001188D3F8D821511CC3F8D811218A11704E
:10A870006FF00102D3E7AB1958E768492046FDF7AE
:10A88000AFFCAB1900283FF451AFD3F8D421032A11
:10A8900003F5E47130D1228822F480621204120C94
:10A8A0002280EFF31180102282F31288D3F8D8218E
:10A8B00002F1010CC3F8D8C1B4F810C082F800C08E
:10A8C000228892B242F400722280C2B282F31188CE
:10A8D000D3F8D821501CC3F8D801208A1070D3F8BF
:10A8E000D421023AC3F8D4210C2283F8C221C3F840
:10A8F000C871C1F804809EE6022A14D8228822F486
:10A9000080621204120C2280228892B242F40072F9
:10A910002280228AC3F8C871002283F8DC21C1F8A2
:10A92000048001227CE6D3F8D821501CC3F8D8015A
:10A93000208A1070D3F8D421013AC3F8D421D6E785
:10A94000238823F480631B041B0C2380AB1993F82A
:10A95000D12102F0FE022282C3E97278102283F82C
:10A96000C2212F492046FDF730FCE0B1AB1993F826
:10A97000D321FF2A04D193F8D0210AB113224FE644
:10A98000AB1911224CE6AB1993F8D3212282C3E90B
:10A990007278122283F8C22122492046FDF715FC65
:10A9A00008B1AB19EAE720492046FDF719FCAB19BD
:10A9B00000283FF4BBAE142232E6AB1903F5E47075
:10A9C000D3F8D42182B1D3F8D811013A11F801CBD0
:10A9D000A4F810C0C3F8D421C3F8C871C3F8D811C3
:10A9E000C0F8048012221BE6228892B242F4007260
:10A9F00022800122C3F8C87183F8DC21C0F80480EA
:10AA00000EE623889BB243F4007323804FF6FF3396
:10AA1000A382AB1973E600BF4000001004000010D1
:10AA200082000700840007000004001038B5114CB4
:10AA300004EB401494F8C151D5B1C4F8D431049B4F
:10AA4000C4F8D831002384F8DC310223490084F8AB
:10AA5000D32184F8C23101229DF8143084F8D11139
:10AA600084F8D22184F8D031FFF74AFD94F8DC5104
:10AA7000284638BD1028002038B5114C04EB40148E
:10AA800094F8C151CDB1C4F8D431049BC4F8D83185
:10AA90000223490084F8D32184F8C23100229DF8B2
:10AAA000143084F8D11184F8D22184F8DC2184F8A0
:10AAB000D031FFF725FD94F8DC51284638BD00BFA2
:10AAC00010280020F0B587B0002300930193744B49
:10AAD0001A6842F480321A601A6802F40032019255
:10AAE000009A01320092019A1AB9009AB2F5A04F69
:10AAF000F2D11B6813F4003318BF01230193019BAB
:10AB0000012B40F0B180664B66491A6C42F08052CE
:10AB10001A640A6842F440420A609A689A609A6825
:10AB20009A609A6842F480529A605F4A5A601A6842
:10AB300042F080721A601A689201FCD55B4A40F2BA
:10AB4000027111609A6822F003029A609A6842F0DA
:10AB500002029A60524A936803F00C03082BFAD160
:10AB60009368534C03F00C03042B7FD0082B7FD049
:10AB7000504BC4F898354A4B4F4D9A684F48C2F332
:10AB800003122244002692F8C417D4F89825CA402C
:10AB9000C4F898254A4AEA605A6F4A4AAA605A6B32
:10ABA00022F080025A635A6F42F080725A67196B22
:10ABB000454A0A431A635A6B5A631A6C42F0875229
:10ABC00042F4F61242F41F6242F00F021A64596C0A
:10ABD0003E4A0A435A6402A948F2FF73CDE902369D
:10ABE0004FF6FF77FFF74CFA00F580600297FFF70A
:10ABF00047FA00F580600297FFF742FA00F580609F
:10AC0000FFF73EFA00F58060FFF73AFA0846FFF7D3
:10AC100079FA029B2E4AB3FBF2F32E4AC2F8243291
:10AC2000D5F8FC302C4A43F08073C5F8FC302B4B30
:10AC3000C3F8B02F5E601A6842F001021A60D4F8BF
:10AC400098354FF47A72B3FBF2F3013BB3F1807F96
:10AC500008D24FF0E0225361F02385F82330072318
:10AC60009661136107B0F0BD00BFFDE71C4B80E7A4
:10AC70005368516813F4800F01F03F01536814BF0B
:10AC8000174A0C4AB2FBF1F1054A5268C2F301427D
:10AC9000C3F3881301324B435200B3FBF2F368E76E
:10ACA000003802400070004019304004003C02406F
:10ACB000000000200024F40000ED00E0000002404D
:10ACC0000003FA05000000081F90670033570700D3
:10ACD00040420F001028002055CEACC5001000E007
:10ACE00040787D0182B000230193054B0193019BC5
:10ACF00003EB80000190019B196002B0704700BF18
:10AD000050280040F7B51C2005F021FA1121044617
:10AD100005F0C8F8204605F0B7F8C82007F03BFA60
:10AD2000204605F0ACF81B2005F011FA20B140F2E6
:10AD30000F13C3800023037224B140F20F23E3807A
:10AD400000232372CA4B502283F843230822C3F8FE
:10AD50008820BFF34F8FBFF36F8FC64CC64D236B58
:10AD600043F0010323634FF4C05040F20233CDE9B6
:10AD70000003C2486946FFF783F9436A23F470432E
:10AD80004362436A43F420434362436A23F47023DB
:10AD90004362436A43F4202343623F2005F0D7F91E
:10ADA000002105F07FF8636C43F480436364636BB8
:10ADB00043F080036363B24BB24C01205861B24B45
:10ADC000C4F80C3803F12C024833C4F81438AF4BE4
:10ADD000C4F81028C4E98A53022384F830324FF0B3
:10ADE000A043C4F8343203F50063C4F8383203F5E5
:10ADF0008073C4F8403203F50073C4F87C32A3F5C5
:10AE0000F073C4F8443203F50073C4F88032A3F53C
:10AE1000F073C4F8483203F50073C4F88432A3F524
:10AE2000F073C4F84C3203F50073C4F88832A3F50C
:10AE3000EC63C4F83C324033C4F8F432C033C4F895
:10AE4000B8322033C4F8BC322033C4F8C0322033C7
:10AE5000C4F8C4322033C4F8C8322033C4F8CC322A
:10AE60002033C4F8D0322033C4F8D43203F522633F
:10AE700084F83302C4F8F83203F58053C4F8FC3286
:10AE800003F58053C4F8003303F58053C4F804334A
:10AE90004FF05023C4F8083303F58053C4F80C3343
:10AEA00003F58053C4F8103303F58053C4F814330A
:10AEB000A3F5E4430022C4F8343304F50A7384F89C
:10AEC0003A0384F83C2319461546402681F81C2194
:10AED000A1F822210132042AC1E9496581F81D0146
:10AEE00081F81F51C1F8305101F12801EED1002243
:10AEF0001146402083F87423A3F87A230132042AF0
:10AF0000C3E9DF0183F8751383F87713C3F8881357
:10AF100003F12803EED14FF0A04300259A6822F0F8
:10AF200001029A60DA6842F04002DA6049F07EFC81
:10AF300094F8313294F82B225B1B18BF01231B01BC
:10AF400043F0210363F31745D4F83432012A9D639B
:10AF500007D19A6822F03E0141F02A0161F307020D
:10AF60009A60DA68C2F3076121F0600141F04001A4
:10AF700061F31F62DA60D4F8342300201060D4F843
:10AF80003822116860F3CC21116094F83312012942
:10AF900012D1116841F00301116080225A6202F55A
:10AFA00080029A6202F14012C3F804214FF4A072A9
:10AFB000C3F80821C3F80C21102049F019FC002324
:10AFC0000093009B43F010030093D4F83432009AAE
:10AFD0001A612F4A19690091013A02D00099C906F5
:10AFE000F8D4D4F8381294F829522A4E00224FF09F
:10AFF000FF300A6117464A614FF0FF0C8861CA6151
:10B00000AA4251D30022244E17464FF0FF0C95421E
:10B010005CD80A6942F480720A6194F82B22012AF2
:10B0200004BF1E480863002199614FF0FF306FF0A4
:10B03000804159615860596119499961B2FA82F2A7
:10B040001849520941EA021299690A439A619A68B9
:10B0500042F001029A60D4F810381B689847044BFC
:10B06000502283F8432308229A6003B0F0BD00BF4A
:10B0700000E100E000380240080401000000024046
:10B08000003C014010280020D4070020400040016F
:10B09000410D0300502A00208C2A0020030181006A
:10B0A0000008008008383C0056F8040BD0F800E097
:10B0B000BEF1000FACBF4FF0000E4FF0904EC0F845
:10B0C00000E001320761C0F808C099E756F8040BA8
:10B0D000D0F800E0BEF1000FACBF4FF0000E4FF013
:10B0E000904EC0F800E001320761C0F808C08EE75A
:10B0F000436D064A1A61C278012A06D100F2CC508B
:10B1000058611A684FF080221A6070471800086072
:10B1100038B5044600296ED190F81131022B2AD19E
:10B12000D0F83821D0F824118A4231D9C378012BC4
:10B1300004BFD0F828315B18A2EB010208BFC0F8A9
:10B1400028314FF48071D0F82831C0F8382100251B
:10B1500092B2A0F81C11C0F82C31C0F83451C0F8DC
:10B16000302100F58E714CF053F82B462A462946C3
:10B1700020464CF063F994F81631012B06D1234A8E
:10B180002369126A5A60002384F81631002038BD02
:10B19000D0F83C31B3FBF1F501FB1535A5B9994267
:10B1A00012D8D0F8402193420ED24FF48073C0E9F8
:10B1B0004A55C0E94C55A0F81C3100F58E714CF091
:10B1C00027F8C4F84051D0E7D4F8E435DB682BB158
:10B1D00094F81221032A01D120469847052384F8C8
:10B1E0001131002320461A4619464CF027F9204613
:10B1F000FFF77EFFBFE7D0F8E4355B69002BC5D0D1
:10B2000090F81221032AC1D19847BFE710280020E7
:10B2100070477047704710B5114C94F83232CBB17B
:10B220004FF0E022D2F8103D23F00603C2F8103DA3
:10B23000FEF770FA94F8323263B1D4F838329B6872
:10B24000DB0707D5D4F83423136823F0030161F337
:10B2500007031360034B4FF480225A6110BD00BFF7
:10B2600010280020003C01402DE9F04F964CD4F806
:10B2700034325A69D0078DB000F1A2825A699B69B5
:10B280001340019300F09C82C3F307430293019B98
:10B29000190311D5D4F83832DFF838929E69DB698A
:10B2A00004F50A7B1E40360C04F51F774FF00008AA
:10B2B000DA46002E40F01481029B5A070FD5D4F8CD
:10B2C0003832824E9F69DB691F40BFB2A6F1180574
:10B2D0004FF00009A6F51078002F40F04681019B41
:10B2E0009DF80470980741BF774BD3F8343202229F
:10B2F0005A61019B002B1BDA734D95F832323BB13A
:10B30000D5F83423136823F0030161F307031360B6
:10B31000D5F838226E48536823F0010353606D4B13
:10B32000D3F850389847D5F834324FF000425A617C
:10B33000019B1905C3F3072631D5634D00238DF812
:10B340001F3095F83A338DF81F30624B05F50A70BF
:10B35000D3F84C389847D5F83422D5F838324FF422
:10B3600000619B68516195F83222C2B1DA0716D5A7
:10B3700095F83D33012B12D19DF81F30032B0ED1D0
:10B38000D5F834331A6842F001021A601A6842F0A4
:10B3900003021A60504A136943F0060313613B0726
:10B3A0000AD5494D4B4B05F50A70D3F844389847F8
:10B3B000D5F8343208225A61FD0615D5424BD3F830
:10B3C0003402826922F010028261026AC2F34341B0
:10B3D000022902F00F0500F08481062900F0A881FF
:10B3E000836943F010038361F00635D5364DD5F8F7
:10B3F00038225368002723F001035360384649F090
:10B40000F7F9B84695F829023B4605F51075FF2176
:10B410008342C0F09B81D4F838322D484FF0FF3280
:10B420009A614FF00112DA610B2262F3070762F3AF
:10B4300007085F61C3F810801A686FF30A121A6078
:10B44000FFF756FED4F8343221484FF480525A6147
:10B45000204BD3F848389847B10640F193811A4CF5
:10B46000D4F83832D4F8400299680268C1F3410137
:10B47000022906BF032161F30A026FF30A02026088
:10B480005A6842F480725A6008A8FEF73BFED4F86E
:10B490003412D4F83802CB68099A6FF38D23CB604D
:10B4A00085680E48C5F34105284490F85C000328E0
:10B4B00040F05381002284F82A224FF40072A4F84D
:10B4C0002C22092258E100BF10280020502A002019
:10B4D000382A00200000002000ED00E024F00508DC
:10B4E000F2073BD55FFA88F104EB8103D3F87C3295
:10B4F0009D68D4F838325B691D40EB0720D594F87D
:10B500002B023B680125A8429D6007D11869DBF832
:10B510007C33C0F312001B1ACBF88C33D9F83838BF
:10B520005046984794F82B32012B09D1B8F1000FFF
:10B5300006D194F83933052B02D15046FFF7D8FDD8
:10B54000A80742BF3B6802259D60290706D5D9F8A8
:10B550004038504698473B6808229A6008F1010835
:10B56000760804370BF1280BA3E6FB0779D5D8F84A
:10B5700038325FFA89FA1969586B08EB8A0220FAA7
:10B580000AFBD2F840224FEACB1B92685FFA8BFB92
:10B590004BEA010B0BEA020B1BF0010F1ED05A6B9A
:10B5A000A8484FF0010B0BFA09F122EA01025A6395
:10B5B0003368C3F808B0A44B5146D3F83C389847D9
:10B5C00098F82B325B4509D1B9F1000F06D198F8F4
:10B5D0003933042B02D19B48FFF78AFD1BF0080F7B
:10B5E0001EBF33684FF0080BC3F808B01BF0100FF4
:10B5F0001EBF33684FF0100BC3F808B01BF0400FAC
:10B600001EBF33684FF0400BC3F808B01BF0020FA9
:10B610001EBF33684FF0020BC3F808B01BF0800F59
:10B620001FD0D5E94C329B1AD5F82421D6F800E07A
:10B6300098F82BB2DEF81800934228BF1346033364
:10B64000D8F8382203929B080AF1320A049308EBD7
:10B650008A0A049B80B2984203D9D5E94C039842E8
:10B6600005D809F101097F080436283534E6C01AE7
:10B67000D5F82431984228BF1846C31C9B08049370
:10B68000BBF1000F1BD0D5F82811D5F834210144A7
:10B69000C5F82811D5F8301102448A42DEF81800A6
:10B6A000C5F83421D5D1039B95F81C115A6B0123A1
:10B6B00003FA01F1039B22EA01025A63C9E782B24D
:10B6C000DAF83012D5F828C10332931005930A46F0
:10B6D0005946059B8B42D6D05CF82130136001316E
:10B6E000F7E747F6F07111423FF47AAE282101FBEB
:10B6F0000531C2F30A12D71CD3F8F8E2D1F8A8C575
:10B70000BF1000218F420DD1282101FB0533D3F852
:10B71000A8151144C3F8A815D3F8B4150A44C3F802
:10B72000B4255DE6DEF800804CF821800131E9E7C0
:10B73000D3F8F8120F68C3F8F4770968C3F8F8175C
:10B74000282101FB0533C2F30A12E5E755F8042B63
:10B750009160AA6B013391605AE6012084F82A02B5
:10B760004020A4F82C02A0F56400384CA0F56240FB
:10B770001044A04227D80E2262F38D23CB604FF4F1
:10B7800000534B61029BDA060BD5314C2E4B04F56E
:10B790000A70D3F854389847D4F834324FF48012F2
:10B7A0005A61029B9B060BD5294C274B04F50A7066
:10B7B000D3F858389847D4F834324FF400125A610D
:10B7C0000DB0BDE8F08F234CA2F57400A0F5105029
:10B7D000A04201D80D22CFE71F48204C1044A042C0
:10B7E00001D20C22C8E71E4CA2F18C70A0F5434098
:10B7F000A04201D80B22BFE71A481B4C1044A042BC
:10B8000001D20A22B8E71948194C1044A042FFF4AB
:10B8100058AE184CA2F1B770A0F55850A04201D212
:10B820000822A9E71448154C1044A04201D207226F
:10B83000A2E713481044134A904234BF062205225F
:10B840009AE700BF382A0020000000203F420F0086
:10B8500010280020DFC810002013FBFE20D61300A4
:10B86000FF69180000D3CEFE40771B00C05BB3FE1B
:10B87000C091210040AC2700C01D6AFE40E13300AA
:10B88000803C36FEE09C4100F0B59C0827010E4646
:10B89000154600EB0414A04206F1100605F1100550
:10B8A00008D103F0030339443A4404EB83039C4278
:10B8B00023D1F0BD84469CED006A16ED045AD0ED0C
:10B8C000016A56ED037A90ED027A56ED025A26EEA1
:10B8D000056A66EEA76AD0ED037A05ED046A16EDF7
:10B8E000016A45ED036A27EE257A67EE867A103005
:10B8F00005ED027A45ED017ACDE7F4EC017AB1EC81
:10B90000017A67EE877AE2EC017AD0E74A090123EF
:10B9100001F01F0103FA01F150F82230194214BF5F
:10B920000120002070474A09012301F01F0103FA9A
:10B9300001F150F822300B4340F8223070474A0999
:10B94000012301F01F0103FA01F150F8223023EA2C
:10B95000010340F82230704730B54D09024400EB36
:10B960008504A2424FF0FF3323D901F01F018B4021
:10B9700050F825100B4093FAA3F3B3FA83F3DBB22C
:10B98000202B02D003EB451030BD211D91420C4607
:10B9900002D34FF0FF30F7E72368043193FAA3F3A3
:10B9A000B3FA83F3DBB2202BF0D0201A03EBC000F4
:10B9B000EAE71846E8E780EA0120082341F221027D
:10B9C00010F4004F4FEA400018BF5040013B80B2D6
:10B9D000F6D1704738B50C468D18AC4200D138BD51
:10B9E00014F8011BFFF7E7FFF7E74840082310F0C2
:10B9F000800F4FEA400018BF80F0D500013BC0B275
:10BA0000F5D1704710B50A440C46944200D110BDE0
:10BA100014F8011BFFF7E9FFF7E738B50A46056898
:10BA200004460020AA4203D36B1C2360287038BD53
:10BA300012F8011BFFF7D9FFF4E7DFED0A7AC0ED3A
:10BA4000020A20EE270AB7EE007AC7EE007A00233A
:10BA50000360C0ED017A70EEA77A80EEA77A80EDE0
:10BA6000037A7047DB0FC94090ED017AD0ED007A80
:10BA7000C0ED020A30EE877AC0EE876A30EE677A50
:10BA8000E6EE877AB0EE670AC0ED007A70470123D0
:10BA900003700023C36483640365036443644365E4
:10BAA000836283657047DFED157A80ED010AF4EE5D
:10BAB000E70AF1EE10FAC0ED020A80ED031AC0EDBC
:10BAC000051A18DDB4EEE70AF1EE10FA10DD81EE8A
:10BAD000007AC0EE207AF0EE006A77EE877A86EE82
:10BAE000A77A80ED047A80ED0F2AC0ED0E2ACEE70A
:10BAF00000230361F7E700238360FAE7BD3786354B
:10BB0000FDEEC07A17EE903A2033402B43D8DFED9C
:10BB1000237A9FED237AB4EEE70AF1EE10FA28DCDF
:10BB2000DFED207A9FED1E7AB4EEE70AF1EE10FA0F
:10BB300022D4DFED1D7AB4EEE70AF1EE10FA1EDD35
:10BB400030EE670A37EEC00A60EE007ADFED176A62
:10BB50009FED177AA7EEA67ADFED166AE7EE876A01
:10BB60009FED157AA7EEA67A20EE276AA6EE070AC1
:10BB7000704730EE470ACEE730EE070AD4E79FED74
:10BB80000F7AB4EEC70AF1EE10FA44BF30EE270A7E
:10BB900037EE400AD8E79FED0A0A7047DB0F4940AD
:10BBA000DB0FC940DB0F49C0DB0FC93F9A7C2E3643
:10BBB000FAAF4FB93587083CA4AA2ABEDB0FC9BF2C
:10BBC00000000000DFED027A30EE270A98E700BFA0
:10BBD000DB0FC93F38B51D46304BB3FBF2F399423A
:10BBE000B0EE405AF7EE005A4FF000044FD207EE85
:10BBF000901A9FED2B7ADFED2B6AF8EE677A67EEED
:10BC0000877A07EE102AB8EE477A27EE267AC5EE35
:10BC1000876A87EEA64AB0EE440AFFF771FFF0EE9E
:10BC2000404AB0EE440AFFF7CDFF35EE055A012D2C
:10BC300084EE854AF0EE407A1CBF35EEE76AF6EEF8
:10BC4000006AB8EE000A34EE257A12BF66EE266A64
:10BC500027EE806AF0EE656A86EE875AC6EE076ABE
:10BC600067EE807A75EEC45AC0ED016AC7EE876A46
:10BC7000C5EE877A80ED005A80ED025AC0ED036A66
:10BC8000C0ED047A846144610462C46138BDC0EDD2
:10BC9000005A44608460C4600461F3E720A1070097
:10BCA000DB0FC940BD3786359FED010A002391E7C0
:10BCB000F304353F2DE9F041FCEEC07A13460A4605
:10BCC00017EE901AD0F814808769C669056AB0EE3D
:10BCD000600A89B2FFF77EFFC0F814808761C661F1
:10BCE0000562BDE8F081F0EEE06AB0EEC07AF4EEF5
:10BCF000C76AF1EE10FAD4BFB0EE476AB0EE666ADA
:10BD0000B5EE406AF1EE10FAF0EE405A46D0F4EE8D
:10BD1000C76AF1EE10FA54BFB0EE475AB0EE665A59
:10BD2000C5EE067A9FED1F6A9FED1F5ADFED1F4A91
:10BD3000A7EE865A9FED1E6AA5EE276A9FED1D5A53
:10BD4000A6EE275A9FED1C6AA5EE276A9FED1B5AA7
:10BD5000E7EE854AB7EE005AA4EEA75AF1EE467A0E
:10BD600087EE850AF4EEC76AF1EE10FA48BFDFED00
:10BD7000147AF5EEC00A48BF37EEC00AF1EE10FAA9
:10BD800048BFDFED107AF5EEC05A48BF37EEC00A63
:10BD9000F1EE10FA48BFB1EE400A7047DFED0A7AC3
:10BDA000C0E700BF39094E3DE3B59EBE69A2163E0D
:10BDB00088FA16BE45FE7FBFA7DFA8B499FB243FD3
:10BDC000DB0FC93FDB0F49400000000044F2506325
:10BDD000984203DDA0F50C40A0387047034B984211
:10BDE000BCBF00F50C40A030704700BFB0B9FFFFEA
:10BDF00048F69F43984203DDA0F50C40A0387047F9
:10BE00000028BCBF00F50C40A030704791ED005AEF
:10BE100008B5B0EE450AFFF7D5FEF0EE405AB0EE99
:10BE2000450AFFF76DFE91ED015AF0EE404AB0EE83
:10BE3000450AFFF7C7FEF0EE403AB0EE450AFFF7BD
:10BE40005FFE91ED023AB0EE405AB0EE430AFFF7C2
:10BE5000B9FEB0EE404AB0EE430AFFF751FE25EEC0
:10BE6000806A63EEC07A24EE847AC0ED017AF0EE47
:10BE7000467AE5EE077A25EE843A64EE806AC0EDF4
:10BE8000037AF0EE437AE5EE667AA5EE067AE5EE01
:10BE9000436A23EE844A64EEE34A65EEA35A80EDDA
:10BEA000004A80ED025AC0ED047AC0ED054AC0EDAB
:10BEB000066A80ED077AC0ED085A08BD034600F116
:10BEC000400100221A615A619A61DA611033994285
:10BED000F8D11022002152F085B891ED007AD0ED12
:10BEE000047AE7EE077AC0ED047AD1ED006A91EDAD
:10BEF000017AD0ED057AE6EE877AC0ED057AD1EDCC
:10BF0000006A91ED027AD0ED067AE6EE877AC0ED0E
:10BF1000067A91ED007AD0ED077A77EE877AC0ED58
:10BF2000077AD1ED016A91ED007AD0ED087AE6EE5C
:10BF3000877AC0ED087A91ED017AD0ED097AE7EEC3
:10BF4000077AC0ED097AD1ED016A91ED027AD0ED60
:10BF50000A7AE6EE877AC0ED0A7A91ED017AD0EDA1
:10BF60000B7A77EE877AC0ED0B7A91ED007AD1EDFE
:10BF7000026AD0ED0C7AE6EE877AC0ED0C7AD1ED4C
:10BF8000026A91ED017AD0ED0D7AE6EE877AC0ED86
:10BF90000D7A91ED027AD0ED0E7AE7EE077AC0EDD8
:10BFA0000E7A91ED027AD0ED0F7A77EE877AC0EDB6
:10BFB0000F7A91ED007AD0ED107A77EE877AC0EDA6
:10BFC000107A91ED017AD0ED117A77EE877AC0ED93
:10BFD000117A91ED027AD0ED127A77EE877AB7EE88
:10BFE000007AC0ED127AD0ED137A77EE877AC0ED41
:10BFF000137AD1ED017AD1ED006A91ED027A67EE04
:10C00000A77AE6EEA67AE7EE077A90ED007AA6EE3A
:10C01000A77A80ED007AD1ED016A90ED017AA6EE63
:10C02000A77A80ED017AD1ED026A90ED027AA6EE50
:10C03000A77A80ED027A90ED037A77EE277AC0ED49
:10C04000037A70472DE9F043034685B000F11007ED
:10C05000054600261C46AC4612E0F8EC016A1EEDCF
:10C06000047AD4ED007AE6EEC77AC4ED007A9845FA
:10C070000EF1100EF1D10434BC420CF1040C03D0CB
:10C08000A7F11008E646F2E701361C46B646BEF1B7
:10C09000040F1FD000EB0E1CA84604F1100909E0A4
:10C0A000FCEC016A18ED047AD4ED047AE6EEC77A66
:10C0B000C4ED047ACC4508F11008F1D1D4ED046A3E
:10C0C00093ED007AC6EE877A0EF1010EC4ED047A84
:10C0D0006446DCE7042E03F1140305F1040507F1BF
:10C0E0001007B7D1002300930193029303936C468A
:10C0F0000023142752F8045B44F8045B07FB030C8D
:10C1000000EB03156E4665451FD10133042BF1D1B9
:10C1100004AD103100F1400255F8044D0E4600EB1D
:10C12000031741F8044D1446A742D1ED007A17D108
:10C1300052ED016A87EEA67A013BA2F1140281ED6D
:10C14000007AE9D105B0BDE8F083B6EC017A54ED90
:10C15000017AF5EC016AE6EEC77A44ED017AD2E79E
:10C16000F4EC016AB6EC017AE6EEC77AC1ED007A2A
:10C17000DAE79FED0C7A00F10C03F0EC017AF4EEB3
:10C18000677AF1EE10FA06D7F0EEE77AF4EE477A26
:10C19000F1EE10FA03DC9842EFD101207047002045
:10C1A000704700BFFFFF7F7F1FB50C460246694600
:10C1B0001030FFF747FFDDED007AB6EE007A67EE4C
:10C1C000877A2046C4ED007ADDED017A67EE877A42
:10C1D000C4ED017ADDED027A67EE877AC4ED027A6A
:10C1E000FFF7C7FF04B010BD60EEA00A20EE400AC2
:10C1F00070EEA00AC0EE200A9FED010A4DF066B86D
:10C2000054F82D40B5EEC00AF1EE10FA08B506DB81
:10C210004DF0BAF8B4EE400AF1EE10FA01D79FEDF6
:10C22000010A08BD00000000F8B52DED028B0446A0
:10C2300025461C3004F1640250ED017AB1EC010A8C
:10C2400077EE807A40ED017AFCF792F9183090424F
:10C25000F2D123692D4E626801332361D6F8CC38C0
:10C260009B1AA26893422DD99FED298A04F13007C9
:10C27000EB6A012BC1BF03F1FF3307EE903A95ED56
:10C280000A7AF8EEE77AD4BFB0EE480A87EE270ABA
:10C29000FFF7B8FFBD42D4ED057A16D0F4EEC07AB0
:10C2A000F1EE10FA05F11805E2D5237B53BBD6F861
:10C2B000CC28626000222361A261E362226363648E
:10C2C000A264E365BDEC028BF8BDF4EEC07AF1EE3A
:10C2D00010FAEAD4D4ED047AD4ED066AF8EE677A5F
:10C2E000022386EEA77AD4ED0C6A84ED067A86EEF8
:10C2F000A77AD4ED126A84ED0C7A86EEA77A84EDE3
:10C30000127A00E003232370DCE700BF1817002037
:10C310000000000038B50378012B04463CD10369C6
:10C32000254D23B9426812B9D5F8CC284260D4ED26
:10C33000067A77EE807A01332361C4ED067A04F140
:10C340001C00FCF715F96268D5F8CC389B1AA26876
:10C35000934221D9E36A012BC3BF03F1FF3307EEF8
:10C36000903A94ED0A7A9FED150AC4BFF8EEE77A89
:10C3700087EE270AFFF746FFD4ED057AF4EEC07A80
:10C38000F1EE10FA0CD5237B3BB9D5F8CC286260CE
:10C3900000222361A261E36238BD03232370FBE71F
:10C3A000D4ED047AD4ED066AF8EE677A022386EEBD
:10C3B000A77A84ED067AF1E7181700200000000044
:10C3C00008B52DED028BF0EEC08AB0EE408AB7EED4
:10C3D000000A30EE680AFFF715FF9FED0E7ADFEDD9
:10C3E0000E7AE8EE877A9FED0D7AA7EEA87ADFED58
:10C3F0000C7AE7EE287AB5EEC08ABDEC028BF1EE3E
:10C4000010FA20EE270A44BFDFED067A37EEC00AA5
:10C4100008BD00BF306E99BC2716983D843459BEC4
:10C42000A40DC93FDB0F494060EEA00AE0EE000A10
:10C43000B0EE600AE6E660EEA00AE0EE000AE1EE89
:10C44000010AB0EE600ADDE62DE9F74F90469DF84F
:10C450003020002A14BF4FF030094FF020090D9A08
:10C460001C1E05460F46BABF64420123002312F882
:10C47000011B01B12CB9A24663B100240D9EA41B7F
:10C4800012E0013CF3E7BD4204D24946284601933D
:10C49000C047019BBAF1010AF5D2EFE7BD4203D2D2
:10C4A00028460193C047019B06EB040B16F8011BBD
:10C4B0000029F3D133B15446002C07DCBAF1000F48
:10C4C000A8BFD344584603B0BDE8F08FBD4202D2A6
:10C4D00049462846C047013CEEE70FB437B50C4D3E
:10C4E00006ABD5F8B81953F8042BD5F8B409019365
:10C4F0004BF05DF80446D5F8740105F02EFD0028D8
:10C50000F9D0204603B0BDE8304004B0704700BF0A
:10C51000102800200EB403B503AB084953F8042BD0
:10C52000CDE9003001A84BF042F8019B00221A70BF
:10C5300002B05DF804EB03B0704700BFBF85000890
:10C540000CB430B52C4CD4F8BC39A5B01BB9D4F818
:10C55000C039002B3AD094F8C439994206D9012346
:10C5600003FA00F0D4F8C83918422FD0234BD3F87F
:10C57000CC184FF47A7304A8B1FBF3F203FB121347
:10C580001F49FFF7C7FF04AB0344289A1D490393D3
:10C59000054629AB03A802934BF009F8039B591CED
:10C5A00003910A211970039B0246591CD4F8BC0957
:10C5B00003910021197090B103681B6A03B1984779
:10C5C000D4F8BC5904AC14F8011B21B925B0BDE85E
:10C5D000304002B07047284605F04EFCF3E7D4F82F
:10C5E000C039002BF2D002212A4400910A44FD20D8
:10C5F00004A927F0D3FBE9E7102800201817002032
:10C60000288D06086785000810B54FF4004086B0F5
:10C6100025F086FD044690B34FF4004125F0E2FE7C
:10C6200002281AD1226848F201039A4227D14FF416
:10C63000004047F04DFB10B31F4BD3F8CC2982428A
:10C640001FD0D3F8A82A904230D0D3F8842B904240
:10C650002FD00022C3F8C02911E00023022294F950
:10C660000400CDE901234FF4612200924FF4004110
:10C670001A4625F007FF104BC3F8BC0928B906B0CD
:10C6800010BD03F6CC12C3F8C0290C4B04930C4B1D
:10C6900003930C4B02930C4B01930C4B00930C4AED
:10C6A0000C4B02210020FFF74BFFE8E703F6A8221E
:10C6B000E9E703F68432E6E710280020348D060807
:10C6C0003D8D0608468D0608528D0608588D0608D1
:10C6D0003F9B0608008D0608184A38B5D2F8604C12
:10C6E000033004EB9003B3F5007F19D802F66445DC
:10C6F000C2F8603C124A02EB810120F00300D1F83D
:10C700006C23C3F500731044C1F86C030D4A9B0001
:10C710000421002005EB8404FFF712FF204638BDFA
:10C720000021094A0846FFF70BFF084AD2F8983063
:10C7300043F00073C2F898300024EFE7102800207F
:10C74000083900206B8D06088F8D0608E83101201E
:10C750002DE9F84F0268DFF8A4800646002358F858
:10C7600033108A420BD1DDB20D2D0CD9204A0021A5
:10C770000520FFF7E5FE00242046BDE8F88F0133D1
:10C780000E2BECD1F2E71B4F07EB850A4FEA850928
:10C79000DAF888B1BBF1000F1AD107216420FFF746
:10C7A0009BFF0446CAF8880128B90146124A0520B1
:10C7B000FFF7C6FEE0E76422594651F013FCDAF8B1
:10C7C000883108EBC505C3E90053DB615B63DB64BB
:10C7D0004F447179D7F88841182000FB01430022AB
:10C7E0001C46C3E903229E601A750434C4E700BFE7
:10C7F0009D8D060810280020C28D060894F00508BB
:10C8000003685A1C026019700368090A5A1C026006
:10C810001970704703685A1C0260197003685A1C2B
:10C8200002600A0A1A7003685A1C02600A0C1A7025
:10C830000368090E5A1C02601970704703685A1C7D
:10C8400002600A0A1A7003685A1C02601970704765
:10C8500038B504460068154651F0C4FB23682B44E4
:10C86000236038BD38B50446006815464FF01AFA03
:10C8700023682B44236038BD03685A1C0260187873
:10C88000704703685A1C02601A4612F8021B0260C5
:10C89000587841EA0020704710B502681146531CD1
:10C8A000036011F8024B0160D31C51780360937848
:10C8B0001B0443EA0123111D0160D078234343EA9E
:10C8C000006010BDD1E900329A4206D05A1C0A60BD
:10C8D00008B11B7803700120704700207047D1E930
:10C8E00000239B1A012B10B50446084604DDFFF710
:10C8F000C8FF2080012010BD0020FCE730B50A44AD
:10C900000446914201D1002011E014F8013BA3F14B
:10C910004100192811F8010BA0F1410598BF2033FF
:10C92000192D98BF20301B1A02D10028E9D130BD43
:10C930001846FCE76FF00042E0E710B50288C378C4
:10C94000A2F5FA62910840F2B554013B04FB0133B1
:10C9500081780C24013902F0030204FB02120D4914
:10C96000847901EB42021821B2F8E02013440279E5
:10C9700001FB0322437900893C2101FB0233064A73
:10C98000224401FB03224FF47A730021C2FB03010E
:10C9900010BD00BF24F0050880436D382DE9F0413B
:10C9A00090461F4605464FF47A72002340463946AA
:10C9B0004BF0E8FD284B3C21034493FBF1F201FBD3
:10C9C0001233AB7192FBF1F301FB13226A7140F257
:10C9D000B551182293FBF2F402FB143394FBF1F2ED
:10C9E00001FB1244B4F5896F2B714FEA82032EDAF2
:10C9F00040F2DA2294422CDCB4F5B77FB4BF0021B8
:10CA00000121164A182000FB01220B2632F81600DD
:10CA1000A04201DD013EF9D103F5FA630B442B80FE
:10CA2000731CAB700C2303FB01660D4B03EB460636
:10CA30000134B6F8E030E41AEC704FF47A72002357
:10CA4000404639464BF09EFD2A81BDE8F081032126
:10CA5000D7E70221D5E700BF80BC92C704F10508E3
:10CA600024F00508F0B5274D06460F460FCD8DB0D2
:10CA70006C460FC40FCD0FC495E80F0084E80F007B
:10CA800016F003033AD1642196FBF1F201FB126226
:10CA900042B94FF4C87296FBF2F302FB1363003BFA
:10CAA00018BF0123721EC3F11D03002A019340F237
:10CAB0006D13104606FB03F3B8BFB01C03EBA000D8
:10CAC0006FF0630392FBF3F318444FF4C87392FBC7
:10CAD000F3F210440630694600240725013F51F85F
:10CAE000042BA74202EB000393FBF5F0C0EBC00060
:10CAF000A3EB000004D1101A0DB0F0BD0123D1E763
:10CB00000134ECE764F10508084BD3E9FE1251EA61
:10CB1000020309D0064BD3F8CC385B1842F100026F
:10CB2000C0E900320120704700207047083900201A
:10CB30001817002037B505466846FFF7E5FF04469D
:10CB400038B1DDE900232846FFF728FF204603B06F
:10CB500030BD40F2011328806B80A880A871288125
:10CB6000F4E71FB50190FFF7E5FF0199044648B1CE
:10CB7000064B0DF10E02B3F80034ADF80E30084646
:10CB800046F08AFB204604B010BD00BF08390020E3
:10CB9000F0B50124B0FBF4F58D4203D200261CB998
:10CBA0001C70F0BD4C43F5E7B0FBF4F5B4FBF1F7B6
:10CBB00004FB15002EB9002D03DC8C420CD33C463F
:10CBC000EDE7092D08DD002A14BF372457242C4433
:10CBD00003F8014B0136F2E73024F8E7A0F1300307
:10CBE000DAB2092A01D818467047A0F16103052B73
:10CBF00001D857387047A0F14103052B94BF37384F
:10CC00004FF0FF30704770B5044694420846154611
:10CC1000B4FBF2F602D33046FFF7F5FF05FB1644EE
:10CC2000024B1B5D00F8013B70BD00BFDC8D0608A8
:10CC3000B5EEC00ADFED2D7AF1EE10FACCBF30EE82
:10CC4000270A30EE670ADFED2A7A20EE270A30B590
:10CC5000FDEEC07A87B017EE904A054684EAE4708C
:10CC6000002303A9A0EBE470CDE90033029347F061
:10CC7000AFFD002CACBF20232D2303A88DF800307E
:10CC80004AF058FE012822D130238DF801308DF86A
:10CC900002308DF8033003A9684652F0F3F8684675
:10CCA0004AF048FE0338C4B22246694628464EF090
:10CCB000F9FF00232B550F49284652F0E3F80DEBFE
:10CCC0000401284652F0DEF8284607B030BD02289D
:10CCD00005D130238DF801308DF80230DBE70328D1
:10CCE00004BF30238DF80130D5E700BF6F12033A3F
:10CCF00000007A4424C6060830B50278202A03468C
:10CD000000F10100F9D0092AF7D02D2A4BD10346B2
:10CD1000BFEE000A9FED3C7A1A46F2EE046A134613
:10CD200012F8010BA0F13001CCB2092C41D92E2808
:10CD30000BD1F2EE046A1146B0EE666A0B4611F8AA
:10CD4000012B303AD0B209283CD91A7802F0DF0220
:10CD5000452A53D15A782D2A3FD102330120013B75
:10CD600000220A2513F8011F3039CCB2092C3AD918
:10CD7000B2F59A7F1346DFED256A28BF4FF49A7308
:10CD80001A46F7EE007A072A30D8DA086FF0070162
:10CD900001FB0233F2EE046A63BB88B3C7EE276A75
:10CDA00020EE260A30BD2B2A08BF0346B7EE000A44
:10CDB000B0E707EE901AF8EEE77AE7EE267AB0EEE3
:10CDC000677AACE707EE902AF8EEE77AC7EEA65A44
:10CDD00066EE866A37EE257AB0E72B2A14BF013358
:10CDE00002330020BBE705FB0212BBE767EEA67A21
:10CDF000083AC8E767EEA67A013BCDE7F7EE007A7E
:10CE000067EE276ACCE700BF0000000020BCBE4CE4
:10CE100070B5034610F8012B202AFAD0092AF8D061
:10CE20002D2A0ABF034601254FF0FF35591E002465
:10CE30000A2611F8010FFFF7D1FE092802D905FBD8
:10CE400004F070BD06FB0404F3E710B5002380284E
:10CE500004D893420AD2C854581C10BD934205D03E
:10CE600060F07F04CC54C0090133F0E74FF0FF308D
:10CE7000F3E770B51249134C134E01220020FEF760
:10CE8000A9FD228862B1A31DB34217D2A518B542ED
:10CE900014D2052A12D92146FEF79CFD2C46F0E754
:10CEA00021460222FEF796FD63880849084AC31A04
:10CEB000641A5842A2F80444584170BD0020FCE7AF
:10CEC000004000080140000800800008FC3F000806
:10CED000083900202DE9F04F794BDFF8F4818FB04D
:10CEE000A3EB0802CDE901234FF003091022002132
:10CEF0000AA851F077F8019B0993029B0893714BA4
:10CF0000CDF81C801A69002ABFBF6F4A5A6002F12F
:10CF100088325A600124F322DA604FF0000A7E233F
:10CF2000224604A907A88DF83440CDF830A08DF82A
:10CF30001030FBF783FE504513DA0023B9F10109E5
:10CF400000F0B780002BD1D098F800307E2B40F055
:10CF5000B380FFF78EFF002800F0AE800FB0BDE871
:10CF6000F08F224604A95046FEF734FD574CDFF8F7
:10CF700064B1ADF812005C453CD30024022205A93F
:10CF800007A8ADF81440FBF759FEA042D5DBBDF869
:10CF90001200022205A9FEF71DFD0222ADF81200C3
:10CFA0000DF1120107A8FBF749FEA042C5DB0B9863
:10CFB00088B1079B089A03449342BED80AABC0F1DC
:10CFC00004022146184451F00DF80AA907A8FBF7FE
:10CFD00091FDCDE90B400C9B002BAEDB9DF834207E
:10CFE00022B138490A6942F000420A61B3FA83F378
:10CFF0005B09A3E762888DF819A0C2F30B06B31D85
:10D00000ADF814302388C3F30B011B0B8DF81830D7
:10D010001304ADF8161020D4062205A907A8FBF7C3
:10D020000DFE002889DBBDF81200062205A9FEF7D7
:10D03000D1FC6168ADF81200324607A8FBF7FEFD8F
:10D040000028FFF67AAFBDF8120061683246FEF79D
:10D05000C1FCADF8120014348DE700273D460135C0
:10D06000EDB2062205A907A88DF81950FBF7E6FDD9
:10D070000028FFF662AFBDF81200062205A9FEF7F0
:10D08000A9FC6168ADF812003944324607A8039143
:10D09000FBF7D4FD0028FFF650AFBDF8120003994E
:10D0A0003246FEF797FC032DADF812003744D6D177
:10D0B000D1E7002B7FF448AF052005F0B5F800BF9D
:10D0C00000800008003C024023016745C4F60608C2
:10D0D0000040000800FC0608034AD2F8083423EA9E
:10D0E0000000C2F8080470470839002003460649CA
:10D0F0000648884201D3002070470288C2F30B0221
:10D100009342F9D01430F4E700FC0608C4F6060890
:10D1100013B542880B460446C2F30B0200211846A1
:10D12000019250F05FFF216903460A48814209D30A
:10D130000948019A814205D2184602B0BDE8104064
:10D140004EF0B0BD21B1184602B0BDE8104008470E
:10D1500002B010BD00FC0608C100070810B4B0F909
:10D1600002404288002C0B4641685DF8044BBEBF6C
:10D17000C2F30B02DBB203FB0211C9E730B5094B66
:10D18000094CA34200D330BDB3F902205988002ACC
:10D1900006DA5A68DD68C1F30B0100FB01222A6040
:10D1A0001433EEE7C4F6060800FC060830B5024664
:10D1B0000144002012F8015B082480EA050313F003
:10D1C000010F4FEA50001CBF80F08C03D8B2631EE1
:10D1D00013F0FF044FEA5505EFD18A42EAD130BD82
:10D1E000154B03EB800070B5D0F8280808B3134D39
:10D1F0000C2202FB005292F90D34591C1AD092F8FD
:10D200001504B0B1E9188C2491F8606492F81414F4
:10D210000020142263435C1805EB4404013AB4F87F
:10D220006444314410FA84F0F5D11423B0FBF3F0D8
:10D2300080B270BD0020FCE71817002008390020DC
:10D240002DE9F04F542204460021BC4893B050F021
:10D25000C9FEBB49621E033412F8013F581E05285F
:10D2600088BF0023A24241F8043BF5D10120FBF71F
:10D27000CAF940B1B34B202283F8182493F86024F4
:10D28000013283F860240220FBF7BDF940B1AD4BB9
:10D29000212283F8242493F86024013283F8602447
:10D2A0000320FBF7B0F940B1A64B102283F83024DD
:10D2B00093F86024013283F860240420FBF7A3F97B
:10D2C00040B1A04B112283F83C2493F86024013232
:10D2D00083F860240520FBF7A5F906209A4E974CA9
:10D2E000DFF87482FBF79EF94FF01A094FF0000A3D
:10D2F00006F5B877207B48B394F90D5002F027FF6C
:10D3000028B105238371002380F80790037213214D
:10D3100002F0C8FD227B002317F83310914240F041
:10D32000DD8006EBC303D3F874312361182303FBBC
:10D330000585D5F8CC3F23755A1C0723A375012317
:10D34000C5F8CC2F637585F8C83F9A4409F10109E7
:10D350005FFA89F9B9F1200F04F10C04CAD1BAF1CE
:10D36000000F00F0B880794CDFF8F0914FF0000822
:10D37000237C002B00F0A5806079704D47F006FA01
:10D38000207947F003FAA068FCF7F2FD0023CDE90D
:10D390000E33CDE91033069308932368CDF814902B
:10D3A0004C330493E3680393636914225343079354
:10D3B0004FF480624FF40063CDE909234FF400512C
:10D3C0004FF48073CDE90B134FF4003303A90D9391
:10D3D00047F0ECF8A268136843F0010313605C4A5D
:10D3E000536823F4733323F4477323F0030343F4A4
:10D3F00040335360226863695168012B21F040710A
:10D40000D4BF0020012021F4807141EA0021516045
:10D4100090685049014041F002019160D16A013B9E
:10D4200021F47001DBB241EA0353D3624FFA88F171
:10D4300001239C4601914FF01F0E697D51B395F970
:10D440000D100198814225D1297CAE7D5F1C0929F0
:10D45000FFB249D9A1F10A00D2F80CA000EB4000BC
:10D460004FF0070B0BFA00FB2AEA0B0A06FA00F052
:10D4700040EA0A00D060062B44D8013B506B03EB16
:10D4800083030EFA03F620EA060001FA03F30343CE
:10D4900053633B460CF1010CBCF1070F05F10C0581
:10D4A000CBD1936843F400739360936843F4807323
:10D4B0009360936843F001039360936843F0804363
:10D4C000936008F10108B8F1030F04F1180409F59D
:10D4D0008C797FF44DAF13B0BDE8F08F0133102B82
:10D4E0007FF41AAF002320E7106901EB410A4FF0E7
:10D4F000070B0BFA0AFB20EA0B0006FA0AF6304388
:10D500001061B8E70C2B0CD8073B106B03EB8303BF
:10D510000EFA03F620EA060001FA03F3034313634D
:10D52000B7E70D3BD06A03EB83030EFA03F620EA5C
:10D53000060001FA03F30343D362AAE7143D002077
:10D54000401F00200839002024F00508B80F0020F3
:10D5500000230140FDF7FFC0000000206C3D0020CB
:10D5600010B5427A044632B10146406851F80A3B90
:10D5700098470023637210BD10B4447A621C0444BF
:10D58000D2B24272A172037A934202D85DF8044B80
:10D59000E6E75DF8044B704710B503681A79022A74
:10D5A000044602D1987A49F05BFC00232360237182
:10D5B00010BD2DE9F0479846B54DB64B9D4221D29E
:10D5C0006C798C4240F078812C79844202D000281A
:10D5D00040F07281EC79944240F06E812C68DCB1AD
:10D5E0001C220021201D50F0FDFC25602B792371A9
:10D5F00095F806A0C4F808A02A7AE260012B03D0AF
:10D60000022B0CD0002407E0E87A02F0A0FD6B7A30
:10D610002374AB7AA06163742046BDE8F087E87A92
:10D6200002F095FD95F90960A0612674A87A02F0D0
:10D630008EFD6061002800F02681974D142707FBBE
:10D64000065757F8F83C002B00F01D8117F8E63C10
:10D65000002B40F0D28017F8F00C47F097F817F83D
:10D66000F03C03F01F025B090121023B01FA02F2C8
:10D67000032B08D8DFE803F07872026C87490B6946
:10D6800023EA02020A61142303FB0653771C13F8F2
:10D69000F30C02F05CFDFFB2814618B140F60A338C
:10D6A000C3800772142303FB065313F8F10C02F036
:10D6B0004EFD18B140F60A53C3800772142303FBD2
:10D6C000065313F8F20C02F042FD18B140F60A437B
:10D6D000C3800772142707FB06571AF0040A17F8CD
:10D6E000EF2C47D04A21484602F006FC17F8F10C0F
:10D6F00002F02DFD17F8EF2C2A2102F0FDFB17F8A0
:10D70000F20C02F024FD17F8EF2C142707FB065744
:10D710000A2102F0F1FB17F8F40C30B102F017FD0A
:10D7200017F8EF2C092102F0E7FB142303FB065343
:10D7300053F8F82C5A4B9A4228D103F58433596A8E
:10D7400041F480515962596A21F4805159622AE0AA
:10D7500052494B6923EA02024A6194E74F490B6A36
:10D7600023EA02020A628EE74C494B6A23EA02026C
:10D770004A6288E70A21484602F0BEFB17F8F10C1E
