:020000040800F2
:100000000000011051A60608E9260008051E020896
:10001000F1A60608F1A60608F1A6060800000000F1
:10002000000000000000000000000000A1340008F3
:10003000A534000800000000A9340008E9BA00084F
:10004000F1A60608F1A60608F1A60608F1A606081C
:10005000F1A60608F1A6060861710008657100089E
:10006000F1A60608697100086D7100080D2C0008E2
:10007000212C0008352C0008492C00085D2C0008B4
:10008000712C0008852C0008F1A60608F1A60608C8
:10009000F1A60608F1A60608F1A606087171000887
:1000A000B92A0008E12A0008092B0008A52A00083F
:1000B000312B0008452B0008592B0008F1A6060833
:1000C000F1A60608F1A60608F1A60608F1A606089C
:1000D000F1A60608ED260008F1A60608F926000894
:1000E00075710008F1A60608AD340008952B0008CC
:1000F000BD2B0008E52B0008812B0008992C000877
:10010000F1A60608F1A606086D2B0008F1A6060860
:100110000527000811270008F1A60608F1A6060821
:10012000AD2C0008C12C0008D52C0008E92C0008D3
:10013000FD2C0008F1A60608F1A60608F1A606089F
:10014000F1A60608F1A60608F1A606080135000882
:10015000112D0008252D0008392D00081D27000845
:10016000F1A60608F1A60608F1A60608F1A60608FB
:10017000F1A60608F1A60608F1A60608F1A60608EB
:08018000F1A60608F1A606082D
:10019000D0E907239A422FBFD01AC0688018C01A2E
:1001A000704700BFD0E9092300699A4238BF12188E
:1001B000D31A0138C01A7047D0E90902101AB0FAF0
:1001C00080F04009704700BF0246036A4069D16869
:1001D000C05C01338B4228BF00231362704700BF0D
:1001E000436A8269D154436A0169426B01338B428D
:1001F00028BF00234362D36843F08003D360704775
:10020000436B188810F0100002D01A889B880120D8
:10021000704700BF436B99891A88890610B5044658
:100220000AD592B2900607D5E26A002A29D09888AA
:10023000216B80B29047636B99891A88090692B244
:100240000FD510060DD5D4E909128A4214D0A16940
:100250002069895C99800132B2FBF0F100FB112228
:10026000A262998A1A88C90592B204D5D20744BFFE
:100270004FF6F7721A8010BDDA6822F08002DA6059
:10028000EFE79B88E2696169DBB28B54E269E16860
:10029000636B0132B2FBF1F001FB1022E261CBE7AC
:1002A000036942681F2B10B40AD95468A3F1200CCB
:1002B000202101FA0CF1214207D15DF8044B70476F
:1002C0001468202199402142F7D081690024C86830
:1002D0000C7480684C68016821F00101016020689D
:1002E00094F805C00C4C818934F81C4089B221EA8D
:1002F00004011F2B818107D9A3F1200120238B400A
:100300005DF8044BD3607047202101FA03F35DF8D8
:10031000044B9360704700BFA40B070882B009220A
:10032000274B8DF80720DA68D00319D4DA68D10694
:1003300040D4DA68D20541D4DA6812F0E00F3BD13C
:10034000DB6813F0020F14BF082309238DF8073070
:100350009DF80730012B0AD09DF8070002B07047C6
:1003600001238DF807309DF80730012BF4D1144A92
:1003700012E0D368DB0519D4D36813F0E00F17D16E
:10038000D36813F0020F14BF082309238DF8073038
:100390009DF80730012BDFD1D168C8034FF001036E
:1003A000F4D4D368D906E4D50623EFE70223EDE7BA
:1003B0000723EBE70623D4E70723D2E70223D0E79E
:1003C000003C0240704700BF704700BF01207047EB
:1003D000034BD3E90003C01AC0F30A00704700BF03
:1003E000D81B0020054AD2E900138B42FDD0D1185A
:1003F0000133C3F30A03087A53607047D81B002007
:10040000064BD3F8080800B97047D3F80808A0F1E4
:100410000500B0FA80F04009704700BFD81B0020EB
:10042000012380F849307047044BD3E90003C01A18
:10043000C0F30A00C0F50060704700BFD81B002061
:1004400010B5D0F8E83504461B699847032384F8B3
:100450001231002010BD00BF08B5042290F812111F
:10046000D0F8E83580F8131180F81221DB6898473E
:10047000002008BD08B5D0F8E435DB6903B1984722
:10048000002008BD08B5D0F8E4351B6A9847002065
:1004900008BD00BF08B5D0F8E4355B6A9847002076
:1004A00008BD00BF037830B403B30446C0F1010CAB
:1004B00004EB0C0314F8015FDBB2002DF8D101331B
:1004C0005B00DCB2138003230C704B7004785CB1CA
:1004D000022300255A1CD2B2CC548D5410F8014F7F
:1004E0000233DBB2002CF5D130BC70470224234626
:1004F000E8E700BF10B5074C2068FF2808D0064980
:10050000D1F80C2801F5016100F080F8FF23236089
:10051000002010BD00000020D81B0020432301480C
:100520000B80704704000020122301480B807047A5
:1005300048000020042301480B8070475C00002025
:1005400008B5044B04480A461946FFF7ABFF0846B6
:1005500008BD00BFF023002088B2070808B5044B8F
:1005600004480A461946FFF79DFF084608BD00BF2C
:10057000F023002094B2070808B5044B04480A464B
:100580001946FFF78FFF084608BD00BFF023002083
:100590009CB2070808B5044B04480A461946FFF701
:1005A00081FF084608BD00BFF0230020A8B207085D
:1005B00008B5044B04480A461946FFF773FF08467E
:1005C00008BD00BFF0230020B4B20708704700BF89
:1005D000704700BF704700BF704700BF704700BF43
:1005E000704700BF044B00200522C3F80828C3F859
:1005F0001809C3F81C097047D81B0020024B0020C3
:10060000C3F80808704700BFD81B0020212838B560
:100610000C4605D022282DD0202813D0002038BD2C
:100620000029FBD0072AF9D1194BD3F8200993F8F8
:10063000241993F8252993F82639206021716271D5
:10064000A371EBE70029E9D0072AE7D1104DD5F8CF
:100650001C3913B109680020984720682179627914
:10066000A379C5F8200985F8241985F8252985F886
:100670002639D3E70029D1D0022ACFD1044BD3F8B1
:100680001839002BCAD0098800209847C6E700BF58
:10069000D81B002010B4124CD4E900329A1AC2F3CD
:1006A0000A020A44B2F5006F13D8B1B101444A1EE0
:1006B000013810F801CFE118824203F1010381F8FB
:1006C00008C0C3F30A03F4D1236000205DF8044B93
:1006D000704702205DF8044B70470846F6E700BFFC
:1006E000D81B002010B58121044667F0C5FF2046C5
:1006F000012167F0C1FF2046822167F0BDFFFFF7AF
:100700007DFF002010BD00BFC169026910B4002345
:1007100040F20114A0F844410B60D169846D21F0CE
:1007200002014FF0010CD161A0F89CC32360D16994
:10073000044821F4003180F827395DF8044BD16179
:1007400018467047D81B0020202301480B807047B3
:1007500060000020122301480B80704780000020B9
:10076000042301480B807047940000200A4608B516
:10077000054920B90548FFF795FE034808BD044820
:10078000FFF790FE004808BD00250020C4B207080E
:10079000DCB2070808B5044B04480A461946FFF7BF
:1007A00081FE084608BD00BF00250020F4B20708FE
:1007B0002048D0F8E837D0F8EC2730B59B184FF038
:1007C0001A040C8001D11C4830BD1B4AD0F8EA172E
:1007D0004FF0000E10467546B3F1204F4FEA137CE0
:1007E0000CF130040EF1020E2ABF0CF1370C8470AC
:1007F00080F802C0BEF1100FC5704FEA031300F17C
:100800000200E9D100200446B1F1204F4FEA1173F4
:1008100003F1300C00F102002ABF373382F812C016
:1008200093740828D4744FEA011102F10202EBD14B
:10083000014830BD00F0FF1F9800002008B5044BB0
:1008400004480A461946FFF72DFE084608BD00BFBA
:100850000025002008B3070808B5044B04480A46E1
:100860001946FFF71FFE084608BD00BF00250020FF
:1008700014B30708034BD3F8242BB3F8283B138396
:1008800000207047D81B00204FF40070034B10600D
:10089000D3F8803C0B600020704700BFD81B0020BD
:1008A00000207047012070470120704700207047EA
:1008B00010B51C6994420DD396468A188C46944212
:1008C000996938BFA4EB0E0C71446246BDE8104034
:1008D0006CF0A8BF10BD00BF704700BF704700BFDD
:1008E000D0ED007AD0ED036A30EE677AE6EE877AD3
:1008F000B0EE670AC0ED007A704700BFD0ED017A14
:10090000F5EE407AF1EE10FA09D1DFED0E7A60EEE5
:10091000A70AB7EE007AC7EE207AC0ED017A31EE71
:10092000277AD0ED007A80ED021AC1EE076A30EE28
:10093000677AC0ED036AE6EE877AB0EE670AC0ED2B
:10094000007A7047DB0FC94090ED017AD0ED036A61
:10095000D0ED027A30EE470AA6EE807A90ED000ADA
:1009600080ED017A37EE676AE6EE867A37EEC07A76
:10097000C0ED027AA6EE870A80ED000A704700BF3C
:10098000D0ED056AD0ED017A90ED007A90ED066A1F
:10099000D0ED025A90ED035A80ED050A66EEA77A73
:1009A000C0ED066AE7EE007A90ED077AE5EE867A0A
:1009B00090ED086AD0ED045A80ED087AE5EE477AAA
:1009C000E5EEC67AB0EE670AC0ED077A704700BF61
:1009D000D0ED057A90ED006A90ED037AD0ED025AE1
:1009E000E6EE007AF0EE406AB0EE670A90ED016A3A
:1009F000D0ED047A27EE407A67EEC07AA6EE267A2A
:100A0000E5EEA67A90ED066AC0ED067A36EE077A34
:100A100080ED057A704700BF03685A1C02601970A8
:100A2000704700BF03685A1C02601970704700BF0E
:100A3000024BD3F8B00C03681B681847D81B002082
:100A4000007970470079C0F3401070470079400981
:100A5000704700BF90F83C20034602F0FF0012B13F
:100A6000002283F83C2070474FF400638381704775
:100A7000074B10B403F11001002453F8042B8242F9
:100A800008BF43F8044C8B42F7D15DF8044B704724
:100A90008C28002000487047B40000202DE9F8435E
:100AA00046697EB9D0F80080C8F30D0904460F46A8
:100AB000B9F1000F26D03F68FFF730FC092804D0B9
:100AC0006FF001063046BDE8F8834A4D2B6923F4E8
:100AD00040732B612B6943F400732B612B6943F046
:100AE00001032B61C8F80070FFF718FC2B69092877
:100AF00023F001032B61E3D12368043323603046E4
:100B0000BDE8F8833C4B98452AD303F580439845CC
:100B100024D303F58043984554D3384B984554D992
:100B200003F58033984553D903F50033984552D9DE
:100B300003F50033984551D903F5003398453ED964
:100B400003F5003398454CD903F5802398454BD9DC
:100B5000B8F1016F4BD305200BF0D6F84FF0080920
:100B6000FFF7DCFB092804D04FF0FF363046BDE824
:100B7000F883204D2B6923F440732B612B6943F4D8
:100B800000732B612B6923F0F8032B612B6943EA77
:100B9000090343F002032B612B6943F480332B617B
:100BA000FFF7BCFB2B6923F002032B612B6909289B
:100BB00023F0F8032B61D7D1D4F800807BE74FF006
:100BC0003809CDE74FF01009CAE74FF01809C7E719
:100BD0004FF02009C4E74FF02809C1E74FF0300972
:100BE000BEE74FF04009BBE74FF04809B8E74FF0C8
:100BF0005809B5E7003C024000400008FFFF00082C
:100C00002DE9F0410446D0E90030134483421DD859
:100C10008E188E4217D00D4604F10C08002701E013
:100C2000AE4210D023695A1C2261234415F8010BEF
:100C30001873042AF4D141462046FFF72FFFAE4235
:100C4000C4E90470EED16069BDE8F0814FF0FF3077
:100C5000FAE700BF2DE9F047038A8489A4B21C405B
:100C600082B045D0814688464FF0004501F14C07DF
:100C700001F13406B4FA84F325FA03F2D24391B2B7
:100C8000A9F8101014401B3BB8F1000F5DD0042BE5
:100C90002CD8DFE803F050463B300300D8F80C3086
:100CA000D9F82CA033B19B6823B11FFA8AF108F15F
:100CB00004009847D8F8243033B19B6823B11FFA59
:100CC0008AF108F11C009847D8F83C302BB19B689A
:100CD0001BB11FFA8AF130469847D8F854302BB12F
:100CE0009B681BB11FFA8AF138469847002CC1D186
:100CF00002B0BDE8F087D8F80C30D9F834105B6842
:100D000008F104009847002CB4D1F1E7D8F824305A
:100D1000D9F838105B6808F11C009847002CA9D15D
:100D2000E6E7D8F83C30D9F83C105B683046984785
:100D3000002C9FD1DCE7D8F85430D9F840105B681C
:100D400038469847002C95D1D2E7042B07D8DFE826
:100D500003F00319140F0A00D9F840300193019BE6
:100D6000002C87D1C4E7D9F82C300193019BF7E719
:100D7000D9F834300193019BF2E7D9F83830019368
:100D8000019BEDE7D9F83C300193019BE8E700BFF8
:100D90002DE9F0410C4E356873691D4011D0DFF824
:100DA0002C800127B5FA85F4C4F11F0408EB8403F5
:100DB00007FA04F4D3F8C40C03689847A543746198
:100DC000F0D1BDE8F08100BF003C0140D81B0020FD
:100DD00038B5254C94F8042D012A034603D0022A85
:100DE00008D0002038BDD4F8085D8DB984F8045DC2
:100DF000002038BD002540F20112C0E95455C0E979
:100E00005655A0F8442100F5A27167F045FDEDE7C5
:100E1000402D22D823D0D4F80C1D144AC3F85851C1
:100E20000A4440F20111A3F844110021C3E95422FD
:100E3000C3F85C11184603F5A27167F02DFDD4F8D4
:100E40000C3DD4F8082D2B44C3F30A03521BC4F8FD
:100E50000C3DC4F8082D002038BD4025DBE70222F8
:100E600084F8042DD7E700BFD81B0020E828002015
:100E700001EB810138B500EBC1010E4DB1F88C13C7
:100E800004462846FFF706FCE378C4F8A85340213F
:100E90000022C4E9EC12012293422046A4F89C23CC
:100EA00004F5677108BFC4F8AC5367F0F5FC002087
:100EB00038BD00BFE830002038B52B4BD3F858249C
:100EC0000F2A04D0511CC3F85814002038BD274CF9
:100ED00094F8042D0021C3F85814002AF5D1D4F851
:100EE0000C1DD3F85C249142EFD0D4F80C1DD3F83C
:100EF0005C2491422CD8D3F85C54D4F80C3DED1A04
:100F0000402DC4F8085D28D9012384F8043D40250C
:100F1000D4F80C2D164BC0F85851134440F201126E
:100F2000A0F844210022C0E95433C0F85C2100F548
:100F3000A27167F0B1FCD4F80C3DD4F8082D2B4415
:100F4000C3F30A03521BC4F80C3DC4F8082DBCE7D8
:100F5000D4F80C5DC5F50065D2E70CBF0223012370
:100F600084F8043DD4E700BFD02C0020D81B00201B
:100F7000E828002038B5224DD5F8683495F880C4AB
:100F8000044623B195F86C345CEA030331D00123A5
:100F9000E06984F8463140F20112A4F84421026865
:100FA0001849002AA8BFC2F380739B0301EA1241CB
:100FB00043F020030B4363F31F42BCF1020F0260B6
:100FC00000D038BDE278104BC4F8A8331F200021B0
:100FD000C4E9EC01012A4FF00101A4F89C1308BFF9
:100FE000C4F8AC3304F567712046BDE8384067F0BB
:100FF00053BC012165F0F8FA95F880C4C7E700BF3B
:10100000D02C0020DFBFFFFF3031002070B590F8FA
:10101000CF2590F8D13590F8CE5590F8D0C590F8FE
:10102000CC1590F8CD6505EB02250CEB032C90F860
:10103000D32590F8D23503EB0223012284B080F847
:10104000112101F01F029BB2ADB21FFA8CFC012AE4
:1010500004468DF80810ADF80A50ADF80CC0ADF894
:101060000E30C0F840318DF809600AD0022A57D0FE
:10107000002A3CD001F0800165F0B6FA002004B0EF
:1010800070BD90F81231032B2BD15FFA8CFCBCF1B0
:10109000010F26D8D0F8E43502A99B689847BDF81F
:1010A0000E30002BEAD1C4E94A33C4E94C330421A1
:1010B0004FF4807284F81111A4F81C2104F58E718C
:1010C000204667F07BFB636DC44A1A61E278012A0F
:1010D000D4D104F2CC545C614FF0802219681A60BC
:1010E000CCE7204665F048FA002004B070BD092E18
:1010F000F7D801A252F826F0A3110008B312000895
:10110000E3100008ED120008E31000081B130008AC
:10111000C7110008E310000831120008611200082E
:1011200001F0600120295FFA8CF334D0012E00F029
:101130006181032E00F09581002E9FD190F812213D
:10114000022A00F01B81032ACBD11CF0800F40F053
:10115000A48103EB830300EBC30393F87633002BE6
:1011600000F0A6819E4B0122C3F890249D4A0223E1
:10117000C4E94E334FF48070002184F81131A4F893
:101180001C01C4E94C31C4E94A2204F58E712046A1
:1011900067F014FB72E7D0F8E43502A99B68984722
:1011A0006CE790F81231023B012B9AD88C4BD0F8A7
:1011B00018210021C3F8881412B10222C3F8882430
:1011C000894A0223D4E72E0A022EADF8063000F039
:1011D000CD81032E00F09181012E82D1D0F8EC3523
:1011E00080781B680DF106019847BDF80630002B8A
:1011F0003FF444AFBDF80E20002A3FF43FAF9342C6
:1012000028BF13464FF480720221A4F81C2100224B
:10121000C4E94A0084F81111C4E94E33C4E94C32E0
:1012200004F58E712046ADF8063067F0C7FA25E761
:10123000012B7FF456AF90F81221022A00F0498169
:10124000032A7FF44EAF4FF4807100F588720220BC
:10125000A4F81C11C4E94E3384F81101002190E771
:10126000EDB25F4E012D86F881543FF63AAF90F80B
:101270001231022B00F02181032B7FF432AF002DBD
:1012800000F07F8190F81011012910D0D0F8E435DA
:101290005B68984796F88114D4F8E43584F8101107
:1012A0001B6820469847D4F8E8359B689847002388
:1012B000F9E690F81231023B012B3FF612AF012DF7
:1012C0007FF4DCAED0F8E43500259B68C0F81851F7
:1012D00002A9984704224FF48073C4E94A55C4E92F
:1012E0004C5584F81121A4F81C31E7E6012D00F0DB
:1012F000CC80022D7FF4C2AE5FFA8CF3002B7FF41A
:10130000BDAE02694FEA1C23023B5268032B00F278
:101310005681DFE803F05B426B5F5CEA03037FF416
:10132000E0AE90F81221032A3FF4DBAE016905F02C
:101330007F0680F8146108681A4665F30A120243B2
:101340000A604FF480720421C4E94A33C4E94C3383
:1013500084F81111A4F81C2104F58E71204667F061
:101360002DFA636D1D4A1A61E278012A0DD0002E14
:1013700000F01281022384F812317FE65A063FF40E
:101380007DAE194665F030F978E604F2CC525A6128
:101390004FF0802219681A60E9E7032363F306120D
:1013A00001210F4D84F816110421002384F8111136
:1013B0004FF48071A4F81C11C4E94A33C4E94C33DA
:1013C00004F58E712046C5F88C247AE6022363F377
:1013D0000612E5E7052363F30612E1E7180008604B
:1013E000D02C00206031002058310020042363F30A
:1013F0000612D5E790F81221022ABFD0032A7FF403
:1014000070AE002D7FF43AAE13F07F023FF44FAF81
:101410001CF0800F40F0C48003EB830100EBC1019E
:1014200081F8742381F8765381F87553282101FBE4
:10143000030300EB820293F87713506D03688A1E52
:10144000012A6FF35553D4F8E4258CBFC3F3007120
:10145000012161F31C739268036002A92046904742
:1014600025E790F81221022A88D0032A7FF439AEAA
:1014700025B9590602D0194665F0B6F8D4F8E43516
:1014800002A99B682046984711E7D0F8E43502A9E5
:101490009B68C0F81851984709E703F07F0303EBF6
:1014A000830300EBC30393F81E31002B7FF45AAE85
:1014B000454B0022C3F8902458E6002D3FF40AAFB4
:1014C00001210322D0F8E43580F8101180F81221B0
:1014D000E6E63E4984F811214FF480700022C4E909
:1014E0004A11A4F81C01C4E94E33C4E94C3204F596
:1014F0008E71204667F062F9C0E5EDB2052D3FF62A
:10150000F0ADDFE805F02B231B130B03D0F8EC350F
:1015100080789B690DF10601984766E6D0F8EC35B6
:1015200080785B690DF1060198475EE6D0F8EC35EE
:1015300080781B690DF10601984756E6D0F8EC3526
:101540008078DB680DF1060198474EE6D0F8EC355F
:1015500080789B680DF10601984746E6D0F8EC3597
:1015600080785B680DF1060198473EE6D0F8E435D7
:1015700080789B6A0DF1060198474670C4F8F00523
:1015800033E60222D0F8E43580F8122180F81051B9
:101590005B68294698479DE6012384F812316DE582
:1015A000282303FB020181F81C2100EB820281F851
:1015B0001E5181F81D61906991F81F113EE70123CA
:1015C00063F30612ECE600BFD02C0020543100205B
:1015D00010B5044629B990F81121032A0DD0002036
:1015E00010BDD0F8E4359B69002BF8D090F812219B
:1015F000032AF4D19847002010BDD0F890230B4661
:10160000D0F87C138A4213D9C078521A0128C4F842
:10161000902336D08A4228BF0A4692B2C4E9E22318
:1016200004F55D71A4F87433204667F0C7F8D6E777
:10163000D0F8E4351B691BB190F81221032A1ED0A3
:1016400000234FF480720421C4E94A33C4E94C33C7
:1016500084F81111A4F81C2104F58E71204667F05E
:10166000ADF8636D104A1A61E278012AB7D104F22D
:10167000CC545C614FF0802219681A60AFE798473C
:10168000DEE78A42D4F88003A4F8743328BF0A4600
:10169000084492B2C4E9E22304F55D71C4F8800302
:1016A000C4F88403C0E700BF1800086038B50446DA
:1016B00049B990F81131022B11D094F81631012B51
:1016C00040D0002038BDD0F8E4355B69002BF8D05D
:1016D00090F81221032AF4D19847002038BDD0F8A1
:1016E0003831D0F82421934236D9C178012908BF76
:1016F000D0F82811A3EB020318BFD0F82821C0F8B6
:10170000383108BF52189BB24FF480710025C0E9F0
:101710004C35A0F81C11C0E94A2200F58E7167F023
:101720004DF8E378C4F88053012BC4E9E255A4F8DE
:10173000745308BFC4F8845304F55D71204667F004
:101740003DF8BAE72A4B2269D3F88C145160002384
:1017500084F81631002038BDD0F83C31B3FBF2F5E7
:1017600002FB1535ADB99A4213D8D0F84021934207
:101770000FD24FF48073A0F81C31C0E94A55C0E97C
:101780004C5500F58E7167F019F8E378C4F84051B4
:10179000C8E7D4F8E435DB681BB194F81221032ABA
:1017A00023D0E2780023012A4FF0050108BFC4F8D6
:1017B0008433C4E9E23384F81111C4F88033A4F807
:1017C000743304F55D71204666F0F8FF636D094AD5
:1017D0001A61E278012A7FF470AF04F2CC525A61A8
:1017E0004FF0802219681A6067E720469847D8E7CB
:1017F000D02C002018000860F8B50B7813F06006B4
:101800000D46044620D0202E25D1CE884EB31B068F
:1018100049D5384F687832463946FEF7F7FEEB88EF
:101820000222002684F811214FF48072C4E94E335D
:10183000C4E94A77C4E94C36A4F81C2104F58E713A
:10184000204666F0BBFF0AE04B780A2B17D00B2B23
:101850000ED0062B03D1204664F08EFE02263046C1
:10186000F8BD022248781144FEF7D0FE3046F8BD9C
:101870008B78002B3AD1204BC3F89464EFE7022217
:1018800080F811214FF48072A0F81C211B4A01231B
:10189000C0E94E33C0E94A22C0E94C3600F58E71EA
:1018A00066F08CFFDBE7164B164A4978116003F5AA
:1018B00001620321C0E9E46680F81111C0F8886371
:1018C000C0F88023C078C3F80C6801284FF00003EB
:1018D000C4F88C33A4F8743304F55D7108BFC4F800
:1018E0008423204666F06AFF0026B8E764F044FED1
:1018F000B5E700BFE8230020D02C00206431002091
:10190000D81B002000000020002310B51946044613
:10191000402266F0E3FE802120460023402266F04C
:10192000DDFED4F8E835A078012284F812215B6846
:101930009847002010BD00BF10B502230446402286
:10194000812166F0CBFE204602234022012166F071
:10195000C5FE204603230822822166F0BFFE0E4BFF
:101960000222A3F84C20FEF73DFEE2780B4BC4F8B0
:10197000A83340200021C4E9EC01012A4FF0010105
:10198000A4F89C13204604F5677108BFC4F8AC3373
:1019900066F082FF002010BD00000020E83000202B
:1019A00070B5812182B00446314E66F065FE01219A
:1019B000204666F061FE0025022340228121204658
:1019C00086F8275966F08AFE01210223402220462C
:1019D00066F084FE274B86F82759D3F8982483F8BD
:1019E00080541268284690470095009BE16843F0B8
:1019F00010030093009B0B610A691F4B009203E0E8
:101A00000A690092013B02D0009AD006F8D4002364
:101A10000193019B43F020030193019A164B01208F
:101A200060F38A120192019A0A610A69019203E045
:101A30000A690192013B02D0019A9206F8D4E27839
:101A40000E4BC4F8A83300211F20C4E9EC01012A81
:101A50004FF00101A4F89C1304F5677105D02046EE
:101A600066F01AFF002002B070BDC4F8AC33F6E790
:101A7000D81B0020D02C0020400D03003031002066
:101A80002DE9F8431F4F97F8043D002BFBD1A9B374
:101A900001441D4E00F1FF3901F1FF38D6F85C34E6
:101AA000D7F80C2D0133C3F30A039A4216D10AF07A
:101AB00067F804460D460AF063F8031B61EB050165
:101AC000B3F57A7F71F10003F5D3D6F85C34D7F81B
:101AD0000C2D0133C3F30A039342E8D0D6F85C24FB
:101AE000D6F85C3419F8011F3A440133C3F30A03F2
:101AF000C14582F8101DC6F85C34CFD10020BDE886
:101B0000F88300BFD81B0020D02C002090F848207C
:101B1000531C0244DBB280F8483082F8341090F84D
:101B200049200AB1132B03D9002280F8482003B9B9
:101B300070470A4AD2F808180029F9D0D2F80828C4
:101B4000052AF5D110B5064C19463430D4F89C342A
:101B5000FFF796FFD4F89C3410BD00BFD81B0020BF
:101B6000D02C00200A4B10B5D3F8084804B910BD9A
:101B7000D3F80838052BFAD1064C002A0846D4F8C9
:101B80009C341146F3DDFFF77BFFD4F89C3410BD85
:101B9000D81B0020D02C002090F848100023A0F87B
:101BA000483001B97047094BD3F80828002AF9D00A
:101BB000D3F80838052BF5D110B5054C3430D4F8DE
:101BC0009C34FFF75DFFD4F89C3410BDD81B002077
:101BD000D02C00202DE9F047089F884615460021AB
:101BE000202204461E466DF0BDFF4FB13B68E381E5
:101BF0001B0C23827B687A89E3821B0C628223831D
:101C0000404667F017FDEB0619D4431EB8B108EB48
:101C1000000701E0013B12D317F801CDBCF12E0FF4
:101C2000F8D1C01A421E032AA8BF0322082B03F1D1
:101C3000010AA8BF08239146C2441A4606E00828B4
:101C40000246C246A8BF08224FF000094FF02033D9
:101C500041462360636004F1080720466BF0E2FD13
:101C6000174B23815146BB704A4638466BF0DAFD6C
:101C7000611EE31D11F801CFACF1610EBEF1190F29
:101C80009CBFACF1200C81F800C08B42F2D13846E9
:101C900004F10B0110F8013BA3F16102192A9CBF6A
:101CA000203B00F8013C8842F4D118232373330C05
:101CB000A382E572099B6683E361BDE8F08700BFFC
:101CC000202020002DE9F04FDFF89494D9F8240B60
:101CD000B9F8284B448387B0002B00F0DE8001F573
:101CE000FE781344DFF87CB40393164601F1200715
:101CF000C24621E0002E64D0D9F88C3CB34200F0FB
:101D0000D180D9F8883CB34200F00481D9F8903CE6
:101D1000D9F8941CB3424BD8B14200F29E81711A9B
:101D2000204664F06FFB039B01369E4207F5007767
:101D30000AF5007A00F0AD80D9F8985CB542A7F1B9
:101D40002004D7D8751BD9F8A88C05F00702EB083A
:101D50000492D8F830200233934203D3D8F83820C5
:101D600093420BD941461846059364F01BFB059B33
:101D70008046002800F09181C9F8A80C98F804204A
:101D8000002A40F03981D8F82850002D00F07E81DB
:101D9000D8F830209B1A049A02EBC303D8F80C2021
:101DA000204602EB43224FF400714346A847BAE7AE
:101DB000B142B4D920464FF4007200216DF0D2FE3A
:101DC000B1E74FF40072314620466DF0CBFE802320
:101DD00087F89E310C2387F8A231D9F8883CD74A7E
:101DE000D9F8801CC4F8C6319342C4F8CA1100F374
:101DF0003981D34AD34C82FB03021A44D817C0EB73
:101E0000621284FB0254D04D85FB03C5C0EB253024
:101E1000C2EB821587F8A1015B1B801020F03F0008
:101E200001330343144487F8A031D317C3EBE41400
:101E30002244C24B87F89F214A1E9A4200F31E811A
:101E4000BF4BC04883FB02311144D317C3EB611170
:101E500080FB0140BC4C84FB0254C3EB2433C1EB38
:101E6000811487F8A531121B9B1023F03F03013228
:101E70001343084487F8A431CB17C3EBE0100144A7
:101E800087F8A311552387F8DE31AA2387F8DF31BD
:101E900049E7D9F8240BB9F8284B0483002007B090
:101EA000BDE8F08F4FF0FF3384F8EC3184F8ED316A
:101EB00084F8EE3184F8EF31D9F8A03CC4F8E83169
:101EC0005223237063706123A37084F8E7314123A8
:101ED0000025E37084F8E631722384F8E43184F855
:101EE000E5314FF4F0722946A7F11C006DF03AFE7F
:101EF0005523C7F8D051C7F8D451C7F8D85184F842
:101F0000FE316FF0550384F8FC5184F8FD5184F8DC
:101F1000FF3108E700214FF4007220466DF022FEE9
:101F20008A4A03CA47F81D0CEB2007F8200C5820FA
:101F300007F81F0C902047F8191C07F81E0C002307
:101F400002220821F820E372227307F8131CA273FF
:101F5000E37307F8102C07F80B0CD9F8880C84F8F9
:101F60002C20D9F8802C6376121A2262D9F8900CB2
:101F7000D9F8942CE376121A3F2020764FF0FF30E8
:101F8000A0763E20207701206377A377E37784F85B
:101F90002D3084F82E3084F82F30626284F83000BF
:101FA00084F8313087F82610802187F82010292105
:101FB00087F82210942187F823100E2187F8241027
:101FC0000D21634A87F82510552187F8DE11AA21D3
:101FD00087F8DF1103CA5F4BC7F82700C7F82B103B
:101FE00003CB1388A7F82F309378C7F83200C7F8CF
:101FF000361087F8313096E64FF400720021204603
:102000006DF0B0FD049B002B4ED1D8F84030002B72
:1020100000F0AA80049AD8F830304F49CDE9002268
:1020200020461122FFF7D6FDD8F840301A6C002A5E
:1020300000F0AD80049A1B6BCDE9002247491122C4
:102040003846FFF7C7FDD8F8448007F120044FF465
:10205000E075B8F1000F3FD165E6F11A204664F053
:10206000D1F960E6FF2387F89F3187F8A13187F81F
:10207000A031324B4A1E9A427FF7E2AEFF2387F827
:10208000A33187F8A53187F8A431FBE6294620461D
:102090004FF400726DF066FD45E6A7F1240343F8A6
:1020A00004BF9A45FBD13EE6D8F84030049AD8F8F0
:1020B0004480002B0CBF01230223C3EB02154346CF
:1020C000002B3FF430AE013D9B6CF9D198464FF4A4
:1020D0000075002B3FF427AE2544203423462035DD
:1020E0004446049698460EE05CF81C1B236BCDF822
:1020F00000C000260196FFF76DFDA46C08F12008D2
:10210000CCB1454517D02379A44604F11C0E112209
:10211000A8F12000002BE7D162792669236B2168A2
:1021200042F02102CDE900E6FFF754FDA46C08F16E
:102130002008002CE5D1049EF5E500BFFF03FB005D
:1021400083200882818080809755454124B3070809
:1021500030B307083CB3070838C7070844C7070867
:10216000D81B0020DEADBEEF049BD9F8841CCDE95E
:10217000003320460822FFF72DFDD8F84480B8F13F
:10218000000F3FF4D0AD3C464FF4F075A4E7049B3C
:10219000CDE9003352E700BF8C4613460146624644
:1021A000184644F0FDB900BF70B52B4C94F8A0342C
:1021B00082B023B9012084F8A03402B070BDD4F8F5
:1021C000A454264A95F91030A96803EB830302EB67
:1021D00083030522ADF800208A07D3F8C40011D587
:1021E00002236A4601A966F003FFAB689B071CD572
:1021F0009DF8053003F0010383F0010084F8A0345A
:1022000002B070BD6B6913B11A689B885383D4F810
:10221000A8241349134B4E68D200A3FB0232920943
:102220004B689B1B9A42FBD2DAE7D4F8A8340C49DE
:102230000C4E48684FF4FA7203FB02F2A6FB02321E
:1022400092094B681B1A9A42FBD26B69002BCFD0C4
:102250001A689B881383CBE7D02C00200000002055
:10226000001000E0D34D621070B5244D244AD5F81B
:10227000A44494F9103003EB830302EB8303A268B8
:1022800082B092078DF80700D3F8C4000AD5012365
:102290000DF10702002166F0ABFEA3689B0714D581
:1022A00002B070BD636913B11A689B885383D5F877
:1022B000A8241449144B4E68D200A3FB02329209A1
:1022C0004B689B1B9A42FBD2E1E7D5F8A8240D4945
:1022D0000D4B4FF4FA7000FB02F2A3FB0232486888
:1022E00092094B681B1A9A42FBD26369002BD7D024
:1022F0001A689B88138302B070BD00BFD02C0020E9
:1023000000000020001000E0D34D62102DE9F043E2
:10231000344C83B0002861D1D4F8AC6494F8A03474
:10232000314F324DDFF8C88033B900230120C4F8A3
:10233000AC3403B0BDE8F083D4F8A49499F910301C
:10234000D9F8082003EB830307EB830305219207E9
:10235000D3F8C400ADF8001018D502236A4601A9CD
:1023600066F046FED9F808309B0721D59DF8053068
:1023700003F0010384F8A034002BD6D0D4F89C24B9
:102380009642D1D8002003B0BDE8F083D9F81430CC
:1023900013B11A689B885383D4F8A8246968D200C3
:1023A000A8FB023292096B685B1A9A42FBD2D4E70F
:1023B000D4F8A82469684FF4FA7303FB02F2A8FB6F
:1023C000023292096B685B1A9A42FBD2D9F8143038
:1023D000002BCBD01A689B881383C7E7D4F89C6482
:1023E00006449BE7D02C002000000020001000E0F5
:1023F000D34D621010B50020FFF788FF00B910BD63
:10240000084C0620FFF730FF0123C72084F8A034D2
:10241000FFF72AFFD4F89C3403F5A4430833C4F82B
:10242000AC3410BDD02C0020F0B5044683B00020A1
:10243000FFF76CFF08B903B0F0BD374D0620FFF77A
:1024400013FFD82295F8B03400920121002285F8BC
:10245000A0148DF804204BB3230A210E220CD5F8CA
:10246000A4648DF803308DF801108DF802208DF8EA
:102470000440052396F91020284902EB820201EB63
:102480008202B168D2F8C4008A071BD56A460021CF
:1024900066F0AEFDB3689B0727D5D5F89C3403F5ED
:1024A0009C530833C5F8AC3403B0F0BD230A220CAA
:1024B0008DF80230D5F8A4648DF801208DF8034022
:1024C0000423D7E7726912B1116892884A83D5F85C
:1024D000A814134C134A6768C900A2FB012189099B
:1024E0006268D21B9142FBD2D0E7D5F8A8340C49E0
:1024F0000C4C48684FF4FA7203FB02F2A4FB023260
:1025000092094B681B1A9A42FBD27369002BC4D004
:102510001A689B881383C0E7D02C0020000000209D
:10252000001000E0D34D6210F0B5044689B00020E1
:102530000E461546FFF7EAFE10B9204609B0F0BD79
:102540001D4F0620FFF790FE012387F8A03497F86F
:10255000B024CDF80CD00223009300238DF8043072
:102560000293E2B1CDE9066505930522230E8DF8AD
:10257000013004920DF10203220C1A70D7F8A40462
:102580009C70220A5A700379022B10D0D7F89C3421
:102590002C4406332046C7F8AC3409B0F0BDCDE971
:1025A0000526042207950DF101030492E4E702A930
:1025B00066F06EFDEAE700BFD02C002070B505463E
:1025C00088B000200E461446FFF7A0FEE8B10322B3
:1025D0000092174ACDF80CD092F8B01400238DF871
:1025E0000430029399B9CDE90561042107940DF1F6
:1025F00001030491D2F8A4049D702A0C1A702A0ACF
:102600005A700379022B0DD0204608B070BD290EF8
:102610008DF801100521CDE9063405960DF1020370
:102620000491E7E702A966F033FD2046EDE700BF1D
:10263000D02C002038B50409013C032C19D80F4DCB
:1026400005EB440200F00F03118941FA03F212F086
:10265000010210D001209840013808402C4467F056
:1026600079FE237C064A184400EB400002EB800010
:1026700038BD002038BD104638BD00BFA40B070888
:102680000026002028B10368828809B11A837047A8
:102690005A8370471049114BD1F8882042F47002D8
:1026A00010B4C1F888201A680D4C002042F00102D5
:1026B0001A6098601A6822F0847222F480321A60DC
:1026C0005C601A68074C22F480221A60D8608C6023
:1026D0005DF8044B704700BF00ED00E00038024099
:1026E0001030002400000008704700BF0148FDF7CB
:1026F00091BD00BF180100200148FDF78BBD00BF50
:10270000640300200148FDF785BD00BFB00500202F
:102710000148FDF77FBD00BFFC0700200148FDF721
:1027200079BD00BF480A0020024B586FC0F300700B
:10273000704700BF00380240704700BF704700BFBD
:1027400030B40C4C0022234604E00132052A03F188
:1027500014030CD093F804C08445F6D1DD682942F7
:1027600001D10029F1D1142000FB024000E000203B
:1027700030BC7047900C002038B5D0E9004307EE1C
:10278000902A1B68354A20680139934204688DB24B
:1027900016D002F58062934212D002F57052934235
:1027A0000ED002F5806293420AD002F58062934215
:1027B00006D02B4BD3F8F43C5B0807EE103A04E04C
:1027C000274B03F6F44393ED007ADFED266AB8EE6B
:1027D000477AF8EE677A87EE270A30EE260A68F025
:1027E0000BFA1E4A23880138944280B29BB212D061
:1027F00002F5806294420ED0B4F1804F0BD0A2F566
:102800008032944207D002F58062944203D002F5F0
:102810008062944202D123F070039BB2124A944228
:1028200012D002F5806294420ED023F4407302F578
:102830006C429BB294422380E56220850AD100233A
:1028400023860123A38238BD2380E56220850123EE
:10285000A38238BD054B9C42F1D0F8E7000001404F
:10286000000000200AD7233C001000400004014073
:1028700070B54068837903F0020213F0040300F09E
:10288000C9804FF0000E134604247246754690F836
:1028900005C0BCF1030F30D8DFE80CF08E5F3002CA
:1028A0000368188C20F480500004000C1884188CE5
:1028B0009C8820F4005000042A43000C40EA0232B5
:1028C000988B6C4D20F4E6400004000CAB42A4B29F
:1028D00040F4C04000F0B08005F58065AB4200F0E8
:1028E000AB809C80988319641A849A8B22F40062CE
:1028F0001204120C42F400629A8370BD2A430568E8
:102900005C4E288C20F480700004000C2884288CF5
:10291000B5F804C020F400700004000C40EA022264
:10292000A88B20F073000004000CB5421FFA8CFC49
:1029300040F0600073D006F58066B5426FD0A5F810
:1029400004C0A883E9632A84AB8B23F008031B042B
:102950001B0C43F00803AB8370BD2A430568454E4A
:10296000288C20F010000004000C2884288CB5F876
:1029700004C020F020000004000C40EA0212288B62
:1029800020F4E6400004000CB5421FFA8CFC40F431
:10299000C04061D006F58066B5425DD0A5F804C0A0
:1029A0002883A9632A842B8B23F400631B041B0C4C
:1029B00043F400632B8370BD00682E4E2A43058CC0
:1029C00025F001052D042D0C0584058CB0F804C0FC
:1029D00025F002052D042D0C2A43058B25F07305E7
:1029E0002D042D0CB0421FFA8CFC45F0600528D058
:1029F00006F58066B04224D0A0F804C00583416388
:102A00000284038B23F008031B041B0C43F0080310
:102A1000038370BD4FF4807E1C46012537E722F406
:102A2000006242EA032222F480622CF4405C42EA13
:102A300004224CEA0E1C82E724F4804444EA8E14FB
:102A40004FE74FF6F37616402CF4407C46EA03023B
:102A50004EEA0C0C2243CFE722F0800242EA031236
:102A600022F040022CF4406C42EA04124CEA8E0C34
:102A700094E700BF0000014042685379032B0FD850
:102A8000DFE803F00B08050210684030704710685B
:102A90003C307047106838307047106834307047E9
:102AA00000207047024B0348D3F8B414FEF7D2B8A5
:102AB000D02C00200000014010B5064C0648D4F888
:102AC000B414FEF7C7F8D4F8D4140448BDE8104095
:102AD000FEF7C0B8D02C00200000014000400140AB
:102AE00010B5064C0648D4F8B414FEF7B3F8D4F881
:102AF000D8140448BDE81040FEF7ACB8D02C002034
:102B0000000001400044014010B5064C0648D4F8CE
:102B1000B414FEF79FF8D4F8DC140448BDE8104064
:102B2000FEF798B8D02C002000000140004801407A
:102B3000034B4FF08040D3F8B814FEF78BB800BFBA
:102B4000D02C0020024B0348D3F8BC14FEF782B807
:102B5000D02C002000040040024B0348D3F8C014DE
:102B6000FEF778B8D02C002000080040024B034844
:102B7000D3F8C414FEF76EB8D02C0020000C00402F
:102B8000024B0348D3F8D014FEF764B8D02C0020D1
:102B90000004014010B5064C0648D4F8D014FEF7E6
:102BA00059F8D4F8E0140448BDE81040FEF752B8D4
:102BB000D02C0020000401400018004010B5064C45
:102BC0000648D4F8D014FEF745F8D4F8E4140448C5
:102BD000BDE81040FEF73EB8D02C002000040140B4
:102BE000001C004010B5064C0648D4F8D014FEF77F
:102BF00031F8D4F8E8140448BDE81040FEF72AB8CC
:102C0000D02C002000040140002000400348D0F8F0
:102C1000043D13B100F6F84018477047000000204B
:102C20000348D0F8243D13B100F6185018477047F8
:102C3000000000200348D0F8443D13B100F638509E
:102C400018477047000000200348D0F8643D13B1D6
:102C500000F6585018477047000000200348D0F88D
:102C6000843D13B100F678501847704700000020EB
:102C70000348D0F8A43D13B100F6985018477047A8
:102C8000000000200348D0F8C43D13B100F6B8504E
:102C900018477047000000200348D0F8E43D13B106
:102CA00000F6D85018477047000000200348D0F8BD
:102CB000043E13B100F6F85018477047000000209A
:102CC0000348D0F8243E13B100F618601847704747
:102CD000000000200348D0F8443E13B100F63860ED
:102CE00018477047000000200348D0F8643E13B135
:102CF00000F6586018477047000000200348D0F8DD
:102D0000843E13B100F67860184770470000002039
:102D10000348D0F8A43E13B100F6986018477047F6
:102D2000000000200348D0F8C43E13B100F6B8609C
:102D300018477047000000200348D0F8E43E13B164
:102D400000F6D86018477047000000200268364936
:102D5000002310B422F001022124884202600360A3
:102D600043608360C3600361446138D02F4B984255
:102D70002ED02F4B98423CD02E4B984240D02E4B19
:102D8000984232D02D4B984241D02D4B984246D09C
:102D90002C4B984217D02C4B98423CD02B4B98424E
:102DA00016D02B4B984224D02A4B984228D02A4B3D
:102DB00098421AD0294B984229D0294B98422ED0BC
:102DC000284B984208D14FF03D5243F8AC2C03E019
:102DD0004FF4746243F8202C5DF8044B7047224B8B
:102DE0005DF8044B3D229A607047204A43F8642CFA
:102DF000F2E74FF474125DF8044B43F8382C704737
:102E00004FF074625DF8044B43F8502C7047184A39
:102E100043F87C2CE0E73D2243F8082CDCE7154A18
:102E200043F8942CD8E700BF1060024028600240AD
:102E3000406002405860024070600240886002407A
:102E4000A0600240B8600240106402402864024062
:102E5000406402405864024070640240886402404A
:102E6000A0640240B8640240006002403D000020BF
:102E7000400F002000003D2000222DE9F0471346BE
:102E80000D684FF0010E032604E00133102B02F110
:102E9000020239D00EFA03FC3CEA0504F5D10768BA
:102EA00006FA02F427EA040707600F79D0F800A0B9
:102EB00007FA02F9013F49EA0A09012FA046C0F8C2
:102EC00000906FEA040411D887683C4084604C7914
:102ED000876894403C438460446824EA0C0444605E
:102EE0008C7947689C40A4B23C434460C46824EA9F
:102EF0000804C460CC79C768944001333C43102B6C
:102F0000C46002F10202C5D1BDE8F08728B30368AE
:102F1000124A30B503F13F4303F57E0302EB9323DE
:102F2000054683B00C46187D63F0A6FDA988009184
:102F300004F00303C4F381028DF8043028688DF88F
:102F40000520C4F30013694664098DF806308DF836
:102F50000740FFF791FF03B030BD7047A40B07088F
:102F60002DE9F0412348244F244E254C82B03822CD
:102F700000216CF0F7FD002557F82510324600239C
:102F800001E054F8332091422DD001330E2BF8D1BB
:102F90000020053563F070FD192DEDD1DFF8588064
:102FA000184F08F164054FF0007698F80400FFF719
:102FB00041FB08F11408044680B1036803F13F4364
:102FC00003F57E0307EB9323187D63F055FDA3887B
:102FD0000196206800936946FFF74EFFA845E4D1AB
:102FE00002B0BDE8F081074A02EBC30393F820006A
:102FF000CFE700BF84310020900C0020000001408A
:10300000C00B0708A40B0708224A936803F00C03BF
:10301000042B10B421D0082B22D01F4B03601D4C71
:103020001E4AA168C1F30311114491F8F81ECB4068
:103030004360A168C1F38221114491F8F81E23FA7C
:1030400001F18160A1685DF8044BC1F342310A448B
:1030500092F8F82ED340C3607047114B0360DEE74F
:103060005368516813F4800F01F03F01536814BF97
:103070000B4A094AB2FBF1F1064A5268C2F3014217
:10308000C3F38813013201FB03F35200B3FBF2F3E5
:103090000360C4E7003802400024F4000000002070
:1030A00000127A0070B5446B8668A38923F400533C
:1030B0001B041B0CA38182790546407912F0040F92
:1030C00014BF4FF4805C4FF0000C110310F0010F9F
:1030D0004FEA02220CBF0023042302F4806280071F
:1030E00048BF43F0080342EA0C021343228A92B21B
:1030F00001F4005122F440520A432282A28922F4B0
:10310000B05222F00C021204120C1A43A281A38ABC
:1031100023F440731B041B0C84B0A3826846FFF7A2
:1031200073FF2F4B9C4205D003F580639C4201D076
:10313000029A00E0039AA3892A491B0402EB820247
:103140004CBF7300B30002EB8202B2FBF3F3A1FBAE
:103150000302A08952096426000406FB12334FEAD9
:10316000021228D41B013233A1FB0313C3F3431310
:1031700013439BB223816A796B6BA879960702F09F
:103180000101194A48BF41F0020193421BD00107D7
:103190009A8A0AD592B242F008029A829A8992B229
:1031A00042F400529A8104B070BD22F00802120469
:1031B000120C9A82F2E7DB003233A1FB0313C3F354
:1031C00042131343D5E7CD07E1D5084AD2F85C1C7A
:1031D000B2F8602CC4074CBF0A834A83D7E700BF0C
:1031E000001001401F85EB5100480040D81B002013
:1031F000816057E7417155E7F0B587B00023824AF7
:1032000000930193136843F48033136003E0009B41
:10321000B3F5A04F09D0136803F400330193009B6A
:1032200001330093019B002BF1D0774B1B6813F403
:10323000003318BF01230193019B012B01D000BF74
:10324000FDE7714B71491A6C714842F080521A6463
:103250000A6842F440420A609A689A609A6842F4A6
:1032600000429A609A6842F4A0529A6058601A68C4
:1032700042F080721A601A689201FCD5654A40F2E9
:1032800005711160996821F003019960996841F016
:103290000201A2F580629960936803F00C03082B89
:1032A000FAD1936803F00C03042B00F08C80082BF8
:1032B00000F08E80584D594BC5F8F43C524BD5F870
:1032C000F41C9A68564C5748C2F303122A4400264D
:1032D00092F8082FD140544AC5F8F41CE260534AD2
:1032E000596FA260596B524A21F080015963596F9E
:1032F00041F080715967196B0A431A635A6B5A631C
:103300009A6B9A631A6C4B490A431A64596C4A4A7D
:103310000A435A6402A948F2FF7302934FF6FF77FB
:103320000396FFF7A9FD00F580600297FFF7A4FD63
:1033300000F580600297FFF79FFD00F58060FFF7C2
:103340009BFD00F58060FFF797FD00F58060FFF7BB
:1033500093FD00F58060FFF78FFD00F58060FFF7BB
:103360008BFD00F58060FFF787FD0846FFF74CFEF8
:10337000D4F8FC30029A3149314843F08073C4F8E4
:10338000FC30304BC3F8B01F5E60196841F001019A
:103390001960D5F8F43C4FF47A71B3FBF1F3013BBB
:1033A000B3F1807F2849B2FBF1F2C0F8A82408D21B
:1033B0004FF0E022F0215361072384F82310966137
:1033C000136107B0F0BD144D204BC5F8F43C75E710
:1033D00053685168104D13F4800F01F03F0153689A
:1033E00014BF1A4A0D4AB2FBF1F1074A5268C2F300
:1033F0000142C3F38813013201FB03F35200B3FB14
:10340000F2F3C5F8F43C59E7003802400070004080
:1034100008544007003C0240000000200024F40053
:1034200000ED00E0000002400003FA050000000883
:10343000FF916700FFC9FE103357070055CEACC59A
:10344000D02C0020001000E040420F0000127A0053
:1034500082B0064B002201920193019B03EB800096
:103460000190019B196002B0704700BF50280040D6
:1034700010B51C20FFF7DEF811210446FFF746FDCA
:103480004CB12368A2885A83C82008F0B9FB23688E
:10349000A2881A8310BDBDE81040C82008F0B0BB58
:1034A000704700BF704700BF704700BF10B5124C97
:1034B00094F8F63423B9114B4FF480225A6110BDB1
:1034C0004FF0E022D2F8103D23F00603C2F8103D81
:1034D000FFF7E0F894F8F634002BECD0D4F8FC3485
:1034E0009B68DB07E7D5D4F8F825136823F00301C0
:1034F00061F307031360DEE7D02C0020003C01409D
:103500002DE9F04FB34CD4F8F8345A69D2078BB098
:1035100002D50BB0BDE8F08F5A699B6912EA030926
:10352000F7D0C9F3074319F4002F009340F0E1806E
:10353000009B590743D419F0020F5FFA89F603D0B4
:10354000D4F8F83402225A61B9F1000FC0F2EE81CA
:1035500019F4006FC9F3072540F04A81330708D5F5
:103560009D4B9E48D3F8243F9847D4F8F83408225E
:103570005A61F70600F1C481EE0600F16F81A906D9
:1035800000F1E880009BDA0609D5934B9348D3F805
:10359000343F9847D4F8F8344FF480125A61009BB6
:1035A0009B06B6D58C4B8D48D3F8383F9847D4F856
:1035B000F8344FF400125A610BB0BDE8F08FD4F824
:1035C000FC249369D26913401FFA83FABAF1000F01
:1035D000B1D0DFF81882CDF80C90A8F118050027BB
:1035E0001AF0010F78D0FEB2D4F8FC2404EB860365
:1035F0001069D3F80415536B8968F340DB01DBB223
:1036000003430B4013F00109D9B240F0AB810A0724
:1036100040F1C881D8F8002008239360994619F03A
:10362000800F59D0D5E94CC0D5F82431D8F800E046
:10363000ACEB00018B42DEF8182028BF0B4692B29B
:103640000333B2EB930F47D9D4F8FC2494F8EF94EA
:10365000323604EB8603CDE90178674698469446F6
:10366000874237D9D5F82431391A994228BF1946EB
:1036700001F1030BD5F828314FEA9B0BB9F1000F8C
:1036800010D18AB203329210D8F8F4640AD04846B6
:10369000013053F8047B37608242F9D1D5E94C7090
:1036A000D5F8283108440B44B842C5F82831C5F88C
:1036B0003401DEF818300AD195F81C11012202FA03
:1036C00001F1DCF8342022EA0102CCF834209BB26C
:1036D0009B45C5D3DDE901785FEA5A0A07F1010786
:1036E00008F1040805F128057FF47AAFDDF80C90A5
:1036F00021E7D4F8FC349D69DB691D402D0C3FF4B3
:1037000017AF04F2EC48DFF8D0B004F5A866002744
:10371000C24608E06D0807F1010706F1040608F14A
:1037200028083FF405AFEB07F4D5F9B204EB8103A9
:10373000D4F8FC24D3F840359B6852691340D8076D
:10374000DAB200F13F81930740F1678133680222CA
:103750009A60DFE7D4F8FC34D4F804159A68086856
:10376000C2F34102022A06BF032262F30A006FF38A
:103770000A0008605A6842F480725A6006A8FFF78F
:1037800043FCD4F8F824D4F8FC14D368079D6FF3F5
:103790008D23D36088681249C0F34100014491F839
:1037A0008C10032900F05F810E490F48012629443F
:1037B00084F8EE6481424FF04006A4F8F06400F211
:1037C000AC810E2161F38D234FF40051D360516120
:1037D000D8E600BFD02C002000000020BC31002023
:1037E000A40B0708401E1BFF3F420F00D4310020EE
:1037F00000238DF8133094F8FE358DF81330B64B56
:10380000B648D3F82C3F9847D4F8FC34D4F8F824C1
:10381000986894F8F6344FF400615161002B3FF43E
:103820009DAEC2077FF59AAE94F80136012B7FF466
:1038300095AE9DF81330032B7FF490AED4F8F83595
:10384000A7491A6842F001021A601A6842F003029E
:103850001A600B6943F006030B617FE6D4F8FC6441
:10386000D4F8F8147368002723F0010373600597F8
:10387000059B43F020030593059B67F38A1305938B
:10388000059B0B610B690593BC46964B03E00A69E7
:103890000592013B02D0059A9006F8D494F8ED24E5
:1038A00052B1914B03EB820EFF2253F8040F82605A
:1038B000D86B73458260F8D10B2363F3070763F37A
:1038C000070C4FF0FF33B3614FF00113F3617761E1
:1038D000C6F810C0336885486FF30A13336094F854
:1038E000EF24D4F84035012A186100F0B5804FF478
:1038F00080534B61784B7948D3F8283F98473EE690
:10390000D4F8F8349A6922F010029A611A6AC2F364
:103910004340022802F00F0100F0B080062800F0BA
:1039200087809A6942F010029A6125E694F8F6348D
:103930003BB1D4F8F825136823F0030161F30703C2
:103940001360D4F8FC24644B6448D3F8301F5368E8
:1039500023F0010353608847D4F8F8344FF0004255
:103960005A61F5E5516BD8F800005B4B4FF0010C44
:103970000CFA07FC21EA0C0151630122D3F81C3F29
:10398000826031465548984794F8EF34012B00F097
:10399000B18019F0020F3FF442AED8F80030022295
:1039A0009A6099E6CB0604D5D8F8003010229A60C8
:1039B00092E6480658BF8946EBD5D8F80030402239
:1039C0009A6089E694F8EF24336801208242986077
:1039D00007D11A69D8F87C33C2F312029B1AC8F8CF
:1039E0008C33DBF8183F5046984794F8EF34012B9E
:1039F0007FF490AE002F7FF48DAE94F8FD35052B4B
:103A00007FF488AED4F84035384A1A61384A5A6192
:103A10001A684FF080221A607CE610077FF57AAEB4
:103A2000DBF8203F50469847336808229A6071E6D9
:103A300001EB810104EBC101D4F8BC65D1F8780831
:103A4000C2F30A1202443068C4F8B80A3068C4F8F5
:103A5000BC0AC1F8782864E7254A5A611A684FF011
:103A600080221A6043E7002184F8EE144FF40071BD
:103A7000A4F8F014092161F38D23A5E647F6F07050
:103A800010423FF44EAFC2F30A1201EB810004EB87
:103A9000C00002F1030C5FEAAC0CD0F86C68D4F8FB
:103AA000BCE54FEA810818BF002006D00130DEF8DF
:103AB000007046F8047B8445F8D1414404EBC10111
:103AC000D1F86C081044C1F86C08D1F878080244A9
:103AD000C1F8782825E700BF00000020BC31002095
:103AE00000ED00E0400D0300D03100201800086018
:103AF00088370020002F7FF44CAF94F8FD35042B5D
:103B00007FF447AFD4F840352B4A1A612B4A5A61EB
:103B10001A684FF080221A603BE72948A5F5740126
:103B2000A1F51051814203D80D2161F38D234BE69D
:103B3000244925482944814203D20C2161F38D2375
:103B400042E62248A5F18C71A1F54341814203D898
:103B50000B2161F38D2337E61D491E48294481421C
:103B600003D20A2161F38D232EE61B491B48294409
:103B7000814203D2092161F38D2325E61848A5F17E
:103B8000B771A1F55851814203D2082161F38D2309
:103B90001AE6144914482944814203D2072161F3EB
:103BA0008D2311E6114912482944814234BF062170
:103BB000052161F38D2307E618000860883700208F
:103BC000DFC810002013FBFE20D61300FF69180089
:103BD00000D3CEFE40771B00C05BB3FEC091210036
:103BE00040AC2700C01D6AFE40E13300803C36FE39
:103BF000E09C410070B51A4D1A4BC5F8E03A1A4BDB
:103C000085F8EC1A002683F8276905F52E63C0E9CC
:103C100054330D230446C0F8583140F20113C0F864
:103C20005C6100F5A271A0F8443164F035FEE378E0
:103C3000C4F8B4631F22C4F8B023012205F58C65D3
:103C40009342C4F8A853A4F89C2308BFC4F8AC530B
:103C500004F567712046BDE8704064F01DBE00BFEA
:103C6000D02C002055534253D81B0020F0B50B78C0
:103C700013F0600683B00C46054633D0202E2DD1BC
:103C80004A78FE2A6BD0FF2A63D14A88002A40F086
:103C90008B80CA88002A40F08780190600F1848052
:103CA0006148624B80F82729C5F8B423EA780121DE
:103CB00083F88014A5F89C1303F58C631F21012A57
:103CC000C5F8B013C5F8A83305F5677108BFC5F886
:103CD000AC33284664F0E0FD002600E000263046C4
:103CE00003B0F0BD4B780A2B6AD00B2B63D0012BAD
:103CF000F5D18B88D9B21B0676D40196019BC0689A
:103D000043F010030193019B036103690193484B46
:103D100003E002690192013B02D0019AD206F8D475
:103D20002846424F64F0A8FC02232179402228460D
:103D300064F0D4FC97F88034022B6DD094F9042001
:103D4000002ACCDA012BCAD001212846FFF752FF06
:103D5000C5E762F011FC0226304603B0F0BD4E8884
:103D600016BBCC88012C1FD118061DD52F4FD7F8B4
:103D700098349B699847C0B287F8F00AA0B1022333
:103D800007F52F6785F811314FF48073C5E94E446C
:103D9000C5E94A77C5E94C46A5F81C3105F58E7191
:103DA000284664F00BFD9AE7284662F0E5FB022600
:103DB000304603B0F0BD1D4B4A8883F8F12A8EE7E8
:103DC000022280F811214FF48072A0F81C21194AB8
:103DD0000123C0E94E33C0E94A22C0E94C3600F560
:103DE0008E7164F0EBFC7AE70096009BC06843F0AC
:103DF00020030093009B61F38A130093009B0361EF
:103E0000036900930A4B03E002690092013B87D0EB
:103E1000009A9706F8D483E78121284662F0E4FBF4
:103E2000002387F880345AE7D81B0020D02C0020CC
:103E3000400D0300C137002010B50D4B93F8273912
:103E4000022B07D0033B012B02D80021FFF7D2FE43
:103E5000002010BD074B93F86D14044664F0CEFDAE
:103E60000028F5DA01212046FFF7C4FEF0E700BF85
:103E7000D81B0020D02C0020F8B5404E96F82759CA
:103E8000074655B1012D06D13D4B93F86D1464F0F2
:103E9000B5FD002832DB0020F8BD394CB0F8B43352
:103EA000D4F86424C4F8E42A1F2BD4F86824C4F896
:103EB000E82A08D1334BD4F860249A4203D194F80D
:103EC0006D1401291FD994F8F23A04EBC3020133AF
:103ED000DBB2042B4FF0050108BF002382F8F41A6F
:103EE0004FF4005184F8F23A38460223C2F8F81A27
:103EF00084F88034FDF73EF80020F8BD29463846A6
:103F0000FFF778FEC7E794F86E34013B0F2BDAD841
:103F100064F074FD002827DB96F82739013B022B5B
:103F2000B9D9B4F8143B1BB3042286F82729164AE2
:103F3000C7F85C51C7E95422D4F8682484F8EC5AD5
:103F4000934228BF1346D4F8E82AC7F8583140F204
:103F50000111A7F84411D31A07F5A2713846C4F825
:103F6000E83A64F099FC96E73846FDF703F892E7E3
:103F700019463846FFF73EFE8DE700BFD81B0020EC
:103F8000D02C002055534243646C002010B54FEAFA
:103F9000511E024400EB8E0C624529D901F01F012D
:103FA0004FF0FF3404FA01F350F82E100B4093FA4F
:103FB000A3F3B3FA83F3DBB2202B16D10CF1040187
:103FC0008A4202D817E08A4212D98C460431DCF8C2
:103FD000003093FAA3F3B3FA83F3DBB2202BF2D0D1
:103FE000ACEB000003EBC00010BD03EB4E1010BDA6
:103FF0004FF0FF3010BD204610BD00BF30B5036943
:104000004268494D83B00BB9002A65D0D0ED067ADD
:10401000C46A013377EE807A0361631C012BC0ED23
:10402000067AC36247D0D0ED075A90ED097AD5F8E9
:104030009C1407EE903A30EE656AF8EEE76A8A1A49
:10404000C6EE267A81688A4277EEA57A30EE670A54
:10405000C0ED087AA6EE007AC0ED077A80ED0A7A04
:1040600080ED097A01D803B030BD012B4EDD07EE9B
:10407000904AF8EEE77A87EE270AB5EEC00AF1EE2D
:1040800010FA46DBB5EE400AF1EE10FA44D4F1EE38
:10409000C07AF4EE677AF1EE10FA3AD690ED057A2E
:1040A000B4EEE77AF1EE10FA1AD5037B33B30323AB
:1040B000037003B030BDD5F89C348168DFED1B7A06
:1040C00080ED080A9A1A8A4280ED070AC0ED097A43
:1040D000C9D9B0EE670ADAE7D5F89C24426095E7C3
:1040E000D0ED047AD0ED066AF8EE677A022386EE08
:1040F000A77A037080ED067A03B030BDD5F89C1422
:104100004160002203618261C362ACE79FED070A50
:10411000BDE7DFED067AC1E7019066F0F5FE019894
:10412000F0EE407AB5E700BFD02C00200000000080
:1041300070B52DED028B044682B000F148050346B0
:104140000026B1EC017AD3ED067ADA6A77EE877A47
:104150000132012AC3ED067ADA626ED093ED075A76
:1041600093ED096A07EE902A77EE455AF8EEE77A62
:10417000C5EEA76A76EE857AF0EE466A37EE677A84
:10418000C3ED087AE5EE876AC3ED077AC3ED0A6AE4
:10419000C3ED096A1833AB42D3D103693A4E426882
:1041A00001330361D6F89C349B1A8268934240D94C
:1041B0009FED368AE36A012B4DDD013B07EE903A15
:1041C00094ED0A7AF8EEE77A87EE270AB5EEC00A90
:1041D000F1EE10FA4EDBB5EE400AF1EE10FA4CD4D7
:1041E000F1EEC07AF4EE677AF1EE10FA42D690ED75
:1041F000057AB4EEE77AF1EE10FA24D41834AC4222
:10420000D8D1D0ED047AD0ED066A90ED0C7AD0EDDD
:10421000125AF8EE677A022386EEA76A0370C7EE99
:10422000276A85EEA77A80ED066AC0ED0C6A80EDFC
:10423000127A02B0BDEC028B70BD83ED087A83ED7B
:10424000077A5E62A6E7037B43B10323037002B0E3
:10425000BDEC028B70BDB0EE480AC1E70022D6F873
:104260009C14416003618261C3620263436482649F
:10427000C365DEE7F0EE487AB9E7019066F044FEE8
:104280000198F0EE407AADE7D02C0020000000004D
:10429000F0EEC07AB0EEE07AB4EEE77AF1EE10FA22
:1042A000D4BFB0EE676AB0EE476AB5EE406AF1EE91
:1042B00010FA48D0B4EEE77AF1EE10FA54BFF0EEFF
:1042C000675AF0EE475AC5EE866ADFED202ADFED29
:1042D000203ADFED204A9FED205A9FED203A9FEDD6
:1042E000204A9FED206AE6EEA23AA6EE834AE6EE69
:1042F000A34AF7EE005AA6EEA45AE6EE845AA6EEBA
:10430000856AB1EE466AC6EE256AB4EEE77AF1EE4A
:1043100010FA48BFDFED147AF5EEC00A48BF77EE19
:10432000E66AF1EE10FA48BFDFED107AB5EEC00A8A
:1043300048BF77EEE66AF1EE10FA48BFF1EE666A22
:10434000B0EE660A7047DFED0A6ADEE739094E3DD6
:10435000E3B59EBE88FA16BE45FE7FBF99FB243F9B
:1043600069A2163EA7DFA8B4DB0FC93FDB0F4940A7
:10437000A7DFA8342DE9F04F89B0CDE9011200F193
:104380001009834600F13008CE4607464E460546E2
:1043900084460024CDF80C906246284684B1D2EDC4
:1043A000007A01463B468946F3EC016A99ED007AB2
:1043B000E6EEC77A634501F11001C2ED007AF2D151
:1043C0000432724500F10400E8D1032C04F1010A23
:1043D00030D062463046ABEB05099CB1D2ED047A91
:1043E000009409EB000329460C46F3EC016A94EDB6
:1043F000007AE6EEC77A834201F11001C2ED047A39
:10440000F2D1009CD2ED046A16ED047AC6EE877AEA
:104410001032424500F11000C2ED007ADDD10CF1FE
:10442000140C08F10408043514360EF1100E103780
:104430005446B1E7DDE90229002500230135059343
:1044400006930793042D52F8043B049305A80BF13F
:10445000140418D0F2EC017A04A9C0ED007A4B469E
:10446000B1EC017AF3EC016AE6EEC77AA342C0ED43
:10447000007AF5D10135042D09F1100900F104008D
:1044800004F11404E6D1019A08AE76ED017A022512
:1044900010320BF14004022D2046A2F1040142ED3E
:1044A000017A20D02346F3EC016AB2EC017AE6EE01
:1044B000C77A9842C1ED007AF5D154ED016A87EED2
:1044C000A67A6B1C81ED007A14D076ED017A013D5D
:1044D0000A46022DA4F11404A0F11000A2F1040177
:1044E00042ED017ADED154ED016A87EEA67A02ED43
:1044F000017AEAE709B0BDE8F08F00BFDFED257A69
:10450000B4EEE70AF1EE10FA08DD9FED237A30EE03
:10451000470AB4EEE70AF1EE10FAF8DCDFED1F7A95
:10452000B4EEE70AF1EE10FA08D59FED1B7A30EEF3
:10453000070AB4EEE70AF1EE10FAF8D4DFED187AC4
:10454000B4EEE70AF1EE10FA18DD30EE670A37EE46
:10455000C00A60EE007A9FED137A9FED136ADFEDDB
:10456000136AA7EE876A9FED127AE7EE866A60EE1D
:10457000275AA7EEA67AA5EE870A70479FED0D7A17
:10458000B4EEC70AF1EE10FA44BF30EE270A37EE58
:10459000400ADEE7DB0F4940DB0FC940DB0F49C0B3
:1045A000DB0FC93F9A7C2E36FAAF4FB93587083CEE
:1045B000A4AA2ABEDB0FC9BFFDEEC07A17EE903A5F
:1045C0002033402B00D899E79FED010A704700BFC8
:1045D0000000000010B53E4CB4FBF2F4A1420DD334
:1045E00000234FF07E52026043608360C36003612A
:1045F0000023836143610362C36110BD07EE902A0B
:10460000B8EE677ADFED337A27EE277AB7EE006AE5
:10461000C6EE076A07EE901A9FED2F7AF8EE677ADA
:10462000B0EE405A67EE877AC7EEA64AFDEEE47A0E
:1046300017EE902A2032402A47D8B0EE640AFFF7DE
:104640005DFFB0EE404A9FED250A34EE800AFDEE94
:10465000C07A17EE902A2032402A31D8FFF74EFF59
:10466000F8EE006A60EE266A012B24D0F7EE007A9D
:1046700037EEC00AF6EE005A60EE255A35EE055ABE
:10468000B7EE007A84EE056A76EE077A37EE467A60
:1046900080EE275A85EEA76AC6EEA75AC7EE276AAC
:1046A00080ED006A80ED015A80ED026AC0ED035A88
:1046B000C0ED046A9CE7B0EE660AF7EE005ADDE74B
:1046C000DFED076A9FED070ACEE79FED064ABAE7DE
:1046D00020A10700BD378635DB0FC940DB0FC93F7E
:1046E0000000008000000000DFED077A30EE270AAE
:1046F000FDEEC07A17EE903A2033402B00D8FDE64D
:104700009FED020A704700BFDB0FC93F00000000A9
:1047100091ED005A9FED520A35EE000A08B5FDEE04
:10472000C07A17EE903A2033402B7DD8FFF7E6FE93
:10473000FDEEC57AB0EE403A17EE903A2033402BAA
:104740007BD8B0EE450AFFF7D9FEB0EE405AF1EE45
:10475000402A91ED014A9FED420A34EE000AFDEE37
:10476000C07A17EE903A2033402B74D8FFF7C6FE7C
:10477000F0EE404AB1EE402AFDEEC47A17EE903AD0
:104780002033402B64D8B0EE440AFFF7B7FEB0EEFA
:10479000404AD1ED021A9FED320A31EE800AFDEE59
:1047A000C07A17EE903A2033402B4ED8FFF7A6FE82
:1047B000F0EE403AFDEEE17A17EE903A2033402BCE
:1047C00040D8B0EE610AFFF799FE63EE836A20EEEF
:1047D000037A63EE857A20EE055AF0EE475AB0EE82
:1047E000666AE7EE845AA5EE446AE7EE047AA6EE1E
:1047F000C45A63EEA43A62EEA42A22EE000A64EEE2
:10480000834AC0ED003A80ED010A80ED024AC0ED16
:10481000035A80ED046AC0ED052A80ED065AC0ED0A
:10482000077AC0ED084A08BDFDEEC57A9FED0D3A46
:1048300017EE903A2033402B83D9DFED0B2A9FED02
:10484000095A86E79FED070ABFE7DFED063AB1E7B1
:104850009FED044A9DE79FED042ADFED024A8BE7B6
:10486000DB0FC93F00000000000000802DE9F04F81
:1048700083B005469DF830400D9E0192002C14BF78
:104880004FF030094FF020091C1E88464ADB16F80D
:10489000010B014600286CD0002C65D04FF0000AB7
:1048A000324601E0002C34D012F8013B2746013C8F
:1048B000002BF7D1BAF1000F3CD1023F002C65D09C
:1048C000BA4645450AF1FF3A4946284601D2019BBE
:1048D0009847BAF1FF3FF4D10D9A107823463C1B5C
:1048E00001469B4688B14FF0000A01339F1B4545A6
:1048F00006EB070B284601D2019B984716F8011BCF
:104900000029F4D1BAF1000F18D1584603B0BDE820
:10491000F08FBAF1000F31D0014683460028F4D061
:104920002346E2E716F8010B634258B31C464FF0EA
:10493000010AB5E7014683460028D6D1002C04F1D0
:10494000FF36E2DD3446454506F1FF364946284646
:1049500001D2019B9847731CF5D10BF1010BA344C5
:10496000584603B0BDE8F08F2346A2464FF0FF340F
:10497000BBE7671EA346002CA2D1C6E723464FF033
:10498000FF34ADE7E64383463446DCE723463C4646
:10499000A6E700BF0FB430B583B006AB0C4853F8A0
:1049A000042BD0F8101CD0F80C0C019364F000FC20
:1049B000084C0546D4F8B00C03685B69984700289A
:1049C000F8D0284603B0BDE8304004B0704700BFBF
:1049D000D02C0020D81B00200EB410B583B005AB3E
:1049E000044653F8042B0749009301A8019464F08E
:1049F000DFFB019B00221A7003B0BDE8104003B03A
:104A0000704700BF250A00080CB470B5334CD4F8C9
:104A1000143CA4B0002B4AD094F81C3C99423ED8D8
:104A2000D4F89C342E4AA2FB031292094FF47A71F7
:104A300001FB123304A82B49FFF7CEFF04AA29ABD0
:104A40000244CDE902322849289A064603A864F0B8
:104A5000AFFB039BD4F8145C5A1C03920A221A7011
:104A6000039B5A1C039200221A702DB32B681B6AF9
:104A70001BB128469847D4F8145C9DF8101049B132
:104A80000DF111042B6828461B68984714F8011B88
:104A90000029F7D124B0BDE8704002B07047D4F8C7
:104AA000202C012303FA00F01042B9D1F2E7D4F828
:104AB000183C002BB0D1EDE7D4F8183C002BE9D01E
:104AC00030440222009204A98218FD2034F05EFCDA
:104AD00024B0BDE8704002B0704700BFD02C002069
:104AE000D34D621048B30708190A000830B54FF4D7
:104AF000004087B032F040FB58B14FF4004104460B
:104B000032F064FB022806D1226848F201039A427F
:104B100024D007B030BD00234FF46121022294F964
:104B200004008DE80E001A464FF4004132F058FBA5
:104B30001C4BC3F8140C0028EBD01B4A1B4B1C4C1D
:104B40001C481D490091CDE90332CDE901041B4BFE
:104B50001B4A02210020FFF757FFDAE7114C00251E
:104B60004FF4004084F8B85E60F004FF0028D0D015
:104B7000D4F8243C83420AD0D4F8003D83420BD0C1
:104B8000D4F8DC3D98420AD0C4F8185CC1E704F6BA
:104B90002443C4F8183CD0E704F55063F9E704F661
:104BA000DC53F6E7D02C00206CB3070878B3070875
:104BB00084B3070890B3070898B3070894B20708AE
:104BC00054B3070838B5194CD4F8BC5E033005EB74
:104BD0009003B3F5007F19D820F003021448C4F8FD
:104BE000BC3E00EB8101C3F50073D1F8C80504F5A4
:104BF0006C641044C1F8C8050E4A04EB85049B00A0
:104C000004210020FFF700FF204638BD00210846A0
:104C1000094AFFF7F9FE094AD2F88C30002443F024
:104C20000073C2F88C30204638BD00BFD02C002065
:104C3000C83D0020A8B30708CCB307080000001047
:104C4000F0B5254B0268254983B00646002401E0F3
:104C500051F834309A4209D001340E2CF8D1002199
:104C60001F4A0520FFF7D0FE002113E01D4F07EB80
:104C70008407D7F8B45485B1717901EB410305EB92
:104C8000C30300221820C3E9032200FB01559E60E4
:104C90001A75291D084603B0F0BD07216420FFF7EF
:104CA00091FF0146C7F8B40470B1294664226AF046
:104CB00059FF0A4BD7F8B45403EBC404C5E90045C7
:104CC000ED616D63ED64D7E70190074A0520FFF7BA
:104CD0009BFE0199DEE700BF00000140C00B070802
:104CE000DCB30708D02C002004B4070838B50568E9
:104CF000EB690446E3B1987800B938BD9A88D2BA16
:104D000007EE902AF8EEE77A0120C4ED047ADA88FB
:104D1000D2BA07EE902AF8EEE77AC4ED057A1B893D
:104D2000DBBA07EE903AF8EEE77AC4ED067A38BDC2
:104D300009211420FFF746FF0346E861DBE700BFC7
:104D400038B50468E3690D467BB1987800B938BD81
:104D50005B89094ADBBA82FB0312DB17C3EB221320
:104D600003F26D132B80012038BD09211420FFF7B9
:104D700029FF0346E061E8E77978787803681A4606
:104D8000591C016012F8021B0260587841EA0020A9
:104D9000704700BF02681146531C036011F802CB34
:104DA0000160D31C5178036093781B0443EA01230C
:104DB000111D0160D07843EA0C0343EA006070479C
:104DC00012B370B50446864604E0981B17D114EB65
:104DD0000C0C15D01EF8013BA3F14100192811F865
:104DE000010BA0F1410598BF2033192DA2EB0E0C49
:104DF00000F12006E9D91B1A04D10028E7D170BDC3
:104E0000604670BD184670BD1046704710B40288E9
:104E1000C378184CA2F5FA6202F0030140F2B55CC7
:104E20009208013B0CFB0233827801EB4101013A0D
:104E300002EB810204EB42010279B1F89040417922
:104E4000234403EB430302EBC30384790A4A00893A
:104E5000C3EB031301EB8303C3EB0313224402EB05
:104E6000830200214FF47A73C2FB03015DF8044B07
:104E7000704700BFA40B070880436D382DE9F0414F
:104E800017461E4605464FF47A72002338463146CF
:104E900065F0F8F94449454A014482FB0143C817CB
:104EA0000B44C0EB631382FB03021A44D817404C37
:104EB000C0EB621284FB02044FEAE27C3D48CCEB7B
:104EC000A40C80FB0C404FEAEC74C4EBE010C3EB85
:104ED0000314A1EB8401A971C2EB0211A3EB8103BE
:104EE0006B710CEB4C03A2EBC30240F2B55303FB16
:104EF00010CCBCF5896F2A714FEA800045DA40F288
:104F0000DA239C4548DCBCF5B77FB4BF0022012200
:104F1000294B02EB420103EBC1034FEA4208B3F80D
:104F2000A63091B2254C08EB020E04EBCE041634E9
:104F30004FF00B0E01E034F8023D634520DDBEF179
:104F4000010EF8D11C4B424403EBC2024FF0010E9C
:104F5000B2F8903085F802E000F5FA600CF1010C2F
:104F60000844ACEB030C288085F803C04FF47A7238
:104F700000233846314665F085F92A81BDE8F08185
:104F80000EF1010E5FFA8EFEE4E7032140F2965324
:104F90000A464FF00608C5E7022140F229430A46B7
:104FA0004FF00408BEE700BF80BC92C7898888889C
:104FB000ABAAAA2A73B06D16A40B0708340C070815
:104FC00030B52E4D84468E460FCD8DB06C460FC445
:104FD0000FCD0FC495E80F001CF0030F84E80F00FD
:104FE0000DD1274B274A03FB0CF3B2EBB30F43D38E
:104FF000254AB2EB331F2CBF1D241C2400E01C24C7
:105000000CF1FF33002B40F26D12194602FB0CF23B
:10501000B8BF0CF1020102EBA1021C491C4D019426
:1050200081FB0301DB17A3EB61100244C3EBE11327
:105030001A44253285FB02301044D317C3EBA0007D
:10504000C0EBC000ADF10403101A0DF1040C03EB2A
:105050008E0E01E05CF8044F031985FB0320C21893
:10506000D817C0EBA200C0EBC000E645A3EB0000E0
:10507000F0D1201A0DB030BD1D24C1E7940C0708F3
:10508000295C8FC2285C8F020AD7A3001F85EB51D1
:105090009324499208B50E4BD3F85026D3F85436D2
:1050A00052EA030C09D1002340F2011242808380AE
:1050B000837103800381184608BD0649D1F89C140A
:1050C0008A1843F10003FFF7D9FE012008BD00BF95
:1050D000C83D0020D02C002088422DE9F0414FF03F
:1050E00001043DD301FB04F4B0FBF4FC8C45F9D280
:1050F0003CB3002616E0BCF1090F274698462C4623
:1051000023DD002A14BF4FF0370E4FF0570EF44442
:10511000B94288F800C003F1010306F1010610D876
:10512000B0FBF5FCB4FBF1F504FB1C00002EE2D152
:10513000BCF1000FDFDCA1420AD90CF1300C03F8FE
:1051400001CB00221A70BDE8F0814FF0300EDEE78F
:10515000B0FBF5FC2C4605FB1C00B5FBF1F5E7E7C1
:105160008446C6E790422DE9F0410B4604461546B9
:105170000AD2B0FBF5F6134A05FB16441846135D38
:1051800000F8013BBDE8F081B0FBF2F69642B6FBB9
:10519000F2F706D20B4A05FB1767D15D03F8011B36
:1051A000EAE7BA42B7FBF2F807D9064A05FB1878D6
:1051B00012F8081003F8011BEDE74046FFF7D2FF95
:1051C0000346F2E720B40708B5EEC00ADFED347AF3
:1051D000F1EE10FACCBF30EE270A30EE670ADFEDB1
:1051E000317A20EE270A70B5FDEEC07A86B017EE50
:1051F000904A054684EAE470002303A9A0EBE4701A
:10520000CDE90033029361F05BFC002CACBF20239E
:105210002D2303A88DF8003064F00CFA01286E46A7
:1052200028D0022832D003281CD003A930466BF0C6
:10523000E9FB304664F0FEF90338C4B22246314639
:10524000284668F0EFFA00232B55284664F0F2F95F
:105250002E232B540130311928446BF0EFFB2846E4
:1052600006B070BD302303A930468DF801306BF0D5
:10527000C9FBDEE7302303A930468DF801308DF8F5
:1052800002308DF803306BF0BDFBD2E7302303A969
:1052900030468DF801308DF802306BF0B3FBC8E773
:1052A0006F12033A00007A440278202A034600F184
:1052B0000100F9D0092AF7D02D2A29D02B2A03BFC3
:1052C0005A78B7EE000A0346B7EE000AA2F13001A1
:1052D000C8B20928DFED4C7A10D8F2EE046A07EE66
:1052E000101AB8EEC77A13F8012FA7EEA67AA2F12A
:1052F0003001C8B20928F0EE477AF0D92E2A49D0F9
:10530000197801F0DF01452907D020EE270A704700
:105310005A78BFEE000A0346D8E710B459782D2911
:1053200062D02B2954D0A1F13002092A03F10103E4
:1053300055D80024002202EB820201EB420213F84E
:10534000011FA1F130000928A2F13002F3D9B2F512
:105350009A7F134628BF4FF49A73072A50D9DFED7E
:105360002B6A1A46B7EE007A083A072A27EE267A01
:10537000FAD803F007032BB1F2EE046A013B27EEE3
:10538000267AFBD16CB3C7EE877A5DF8044B20EE2A
:10539000270A70475978A1F13002D0B2092803F1E9
:1053A0000103AED8F2EE046AF0EE665A07EE102A58
:1053B000B8EEC77A13F8011F87EE266AA1F1300212
:1053C000D0B2092866EEA56A77EE867AEED998E71C
:1053D0009978A1F13002092A03F10203A9D9B7EEA5
:1053E000007A67EE877AD0E79978A1F13002092A2E
:1053F00003F1020388BFB7EE007AC4D8012499E70D
:10540000B7EE007AB7E700BF0000000020BCBE4C3A
:1054100000B50378202B014600F10100F9D0092BDB
:10542000F7D02D2B03BF4B784FF0FF3E01464FF0D6
:10543000010E0022A3F1300C5FFA8CF3092B03D983
:105440000EFB02F05DF804FB02EB820211F8013F53
:105450000CEB4202EEE700BF2DE9F04F93B041F0B4
:1054600053F941F017F9AC4B0793B0F1000940F341
:105470002B814FF0000A9B46A84BA94CCDF804A005
:1054800002935646D04604E008F50068C14540F353
:10549000918020220AA9404641F082F8A1491222B7
:1054A0000AA86AF0F9FA05460028EDD1B04521D0E6
:1054B000019A9D4F9D49CDF80CB002EB420307EBDA
:1054C0008307013238460192FFF786FADBF81C2089
:1054D000039B43F84C7BCBE90822954ACBF80C6040
:1054E000CBF82820A8EB06060122CBE90466CBF80E
:1054F00008209B46029BD3F8C834CBF81C304646A4
:10550000122202F148030DEB030114F80A3011F8DE
:10551000201C994202F101020CD04FF0000A202A0F
:10552000EFD12036B1450AA9304639DB41F038F8D1
:105530000022E6E70AF1010ABAF1150FEFD190193E
:105540000AA9202241F02CF87A4909AA0AA869F090
:1055500079F928B30027CDE90477039706973E46EB
:10556000731E042B00F29E81DFE803F09A8DA29E49
:105570000300FFF74DFF0546069989B1DDE90423D5
:10558000039843EA42127B0143EAC023A1F2BC71B3
:1055900043EA650342EA412243EA0243CBF81C3066
:1055A000019B642B00F0B480464608F50068C145B5
:1055B0003FF76FAF019A642A00F0AA80B0457BD014
:1055C000594C5A495A4F0C2303FB0244531C1A46A8
:1055D0002046A8EB06050193FFF7FEF9DBF81C3027
:1055E000CBF80040CBE90365CBE908330123CBF8C6
:1055F0001450CBF82870CBF80830019B1D1D4E4C81
:105600000299D4F84C61C1F8C8644C2202FB05F53C
:105610006319002118466AF0A5FA4C2200216AF0AD
:10562000A1FADFF820A144F805A0019D8762C0E936
:105630000499C0E907664FF00108C0F80880466287
:1056400005354FEA4903B3F1805F42DB029B3B49DA
:105650003948D3F8C8544FF4987268F0E3F83649E3
:10566000079A0C460B465D62C3E907554C339A42D4
:10567000F9D1A66826B9237913B12368002B63D129
:1056800013B0BDE8F08FFFF7C3FE05902949002055
:1056900009AA69F0D7F8013600287FF461AF6BE7FB
:1056A000FFF7B6FE0490F1E7FFF7B2FE0746EDE71D
:1056B000FFF7AEFE0390E9E7019B1D1D002B40F0B4
:1056C000EF801D4C0425BCE7144A02920425A3F583
:1056D00098744C2202FB05F56319184600216AF004
:1056E00041FA4C2200216AF03DFA0299C9F10062A8
:1056F0000346520012486051D1F8C8145962C3E9F8
:10570000042202225A710122C3E907119A609DE71F
:105710006423074F019370E71C4E0020F81000200F
:105720006CB4070848B40708204400205CB407089C
:105730009921000884B40708EC4C0020C40C070829
:105740009CB407088CB40708C4E91166574A26645C
:10575000E663304637468E46D56C02F14C0355B3AE
:10576000D3F808C01F64451EAC45C3E91177DF6359
:1057700013D0451CAC4517D0844581D10546002D7A
:105780003FF47EAF106CC16B01F1010CC0F83CC05E
:105790001864936428461A46DEE700283FF470AF89
:1057A000854253F80C2CEAD1107900283FF468AFF9
:1057B00053641A64EEE7714602222F46A64613E0B0
:1057C000CB6B0A635B011DBF03F6FF7002F1FF3371
:1057D00003EB10331346C1E90477C1E90D3351F8E7
:1057E0004C0F5A1C0136C8B10B79002BE8D10B695C
:1057F0000A63002B47D14C691046531E4863002CA6
:105800004AD004F6FF7C03EB1C33281A8B63C518BF
:1058100051F84C0F5A1C01360028E5D124493E228C
:10582000C1F8882C3F22013BC1F88C2CC1F8A05C48
:105830004022204DC1F8902C7446C1F8AC6CC1F8E0
:105840009C3C980F9A00C1F8845C3BB340F2FF1572
:10585000521940F10000520A42EAC05202F14000DF
:10586000024402EBC303C1F8982C134AC1F8940C0C
:10587000C1F8A44CC1F8A84CD80D5C0242E9024022
:10588000C1F8803CFCE603F6FF7C4C69531E03EB39
:105890001C304863002CB4D11346B6E70122DDE783
:1058A000064FACE6FFF7B4FD0690EFE6EC4C0020A7
:1058B000D81B0020ACB40708582800209921000804
:1058C000F0B5384D2B78082141F221008B4002E0E1
:1058D000013993B209D013F4004F4FEA4302F7D0D5
:1058E00080EA430301399BB2F5D1B5F80120002AC3
:1058F00055D0DFF8C0C02C4EB4452DD2ACF1060C0B
:105900000CEB0204B44227D2052A41F2210022D92D
:10591000A44514D00CF1FF3C04F1FF3E1CF8011F1C
:10592000082283EA012313F4004F80EA43010ABFEF
:105930005B008BB29BB2013AF5D1E645EED12288ED
:1059400062B1A11DB14206D2A118B142A44602D251
:10595000052A0C46DCD800210846F0BDA71C2646C7
:1059600041F2210016F8011B082283EA012313F4F7
:10597000004F80EA43010ABF5B008BB29BB2013A41
:10598000F5D1B742EED16188084AC91AB1FA81F15E
:10599000231D49095B1BA2F8083B0846F0BD044FD4
:1059A000BC1EDCE700000E0800001008C83D002007
:1059B00003000E0807000E082DE9F04F9B4B9C4A90
:1059C0008FB09A1ACDE9013203230393984B0793C2
:1059D000029B0993019B08930023CDE90A33CDE98B
:1059E0000C33944A1369002BC0F2A181914B924968
:1059F000F322DA6000220C92019A01238A428DF888
:105A00003430C0F08C810B937E238DF8283008222F
:105A10004FF4FC4341F2210103E05B00013A9BB2E9
:105A200006D01804F9D581EA4303013A9BB2F8D1B4
:105A3000824AADF81230824B934280F08E8103F19E
:105A4000140801997A4B41F2210538F8120C38F804
:105A5000142CC0F30B06B41DADF81440C2F30B04B4
:105A6000120B8DF8182000270204ADF816408DF8AF
:105A700019705DD406338B4200F251810DF1140987
:105A80000DF11A0A4C4601E0A24513D00B9B14F805
:105A9000011B03F138026A440133042B02F8101C85
:105AA0000B93F1D10AA907A8FAF7F8FFA245CDE9AF
:105AB0000B70EBD10C9B002BC0F23181BDF8124072
:105AC00019F8013B84EA0324082327044CBF85EA24
:105AD00044046400013BA4B2F7D1CA45F0D158F8A0
