:020000040800F2
:1000000000000110F1AD060829250008212602088C
:1000100091AE060891AE060891AE060800000000F9
:10002000000000000000000000000000B13B0008DC
:10003000B53B000800000000B93B000839C50008C6
:1000400091AE060891AE060891AE060891AE06087C
:1000500091AE060891AE0608199800081D98000890
:1000600091AE060821980008259800086528000828
:10007000792800088D280008A1280008B528000864
:10008000C9280008DD28000891AE060891AE0608D0
:1000900091AE060891AE060891AE060829980008B0
:1000A000112700083927000861270008FD260008ED
:1000B000892700089D270008B127000891AE06088F
:1000C00091AE060891AE060891AE060891AE0608FC
:1000D00091AE06082D2500083925000845250008A1
:1000E0002D98000891AE0608BD3B0008ED270008DA
:1000F000152800083D280008D9270008F128000825
:1001000091AE060891AE0608C527000891AE060814
:10011000512500085D25000891AE060891AE06083D
:1001200005290008192900082D290008412900087F
:100130005529000891AE060891AE060891AE060852
:1001400091AE060891AE060891AE0608113C000873
:100150006529000875290008852900086925000817
:1001600091AE060891AE060891AE060891AE06085B
:1001700091AE060891AE060891AE060891AE06084B
:0801800091AE060891AE0608DD
:10019000D0E907239A422FBFD01AC0688018C01A2E
:1001A000704700BFD0E9092300699A4238BF12188E
:1001B000D31A0138C01A7047D0E90902101AB0FAF0
:1001C00080F04009704700BF0246036A4069D16869
:1001D000C05C01338B4228BF00231362704700BF0D
:1001E000436A8269D154436A0169426B01338B428D
:1001F00028BF00234362D36843F08003D360704775
:10020000436B188810F0100002D01A889B880120D8
:10021000704700BF436B99891A88890610B5044658
:100220000AD592B2900607D5E26A002A29D09888AA
:10023000216B80B29047636B99891A88090692B244
:100240000FD510060DD5D4E909128A4214D0A16940
:100250002069895C99800132B2FBF0F100FB112228
:10026000A262998A1A88C90592B204D5D20744BFFE
:100270004FF6F7721A8010BDDA6822F08002DA6059
:10028000EFE79B88E2696169DBB28B54E269E16860
:10029000636B0132B2FBF1F001FB1022E261CBE7AC
:1002A000036942681F2B10B40AD95468A3F1200CCB
:1002B000202101FA0CF1214207D15DF8044B70476F
:1002C0001468202199402142F7D081690024C86830
:1002D0000C7480684C68016821F00101016020689D
:1002E00094F805C00C4C818934F81C4089B221EA8D
:1002F00004011F2B818107D9A3F1200120238B400A
:100300005DF8044BD3607047202101FA03F35DF8D8
:10031000044B9360704700BFB416070882B00922EF
:10032000274B8DF80720DA68D00319D4DA68D10694
:1003300040D4DA68D20541D4DA6812F0E00F3BD13C
:10034000DB6813F0020F14BF082309238DF8073070
:100350009DF80730012B0AD09DF8070002B07047C6
:1003600001238DF807309DF80730012BF4D1144A92
:1003700012E0D368DB0519D4D36813F0E00F17D16E
:10038000D36813F0020F14BF082309238DF8073038
:100390009DF80730012BDFD1D168C8034FF001036E
:1003A000F4D4D368D906E4D50623EFE70223EDE7BA
:1003B0000723EBE70623D4E70723D2E70223D0E79E
:1003C000003C0240704700BF704700BF01207047EB
:1003D000034BD3E90003C01AC0F30A00704700BF03
:1003E00098200020054AD2E900138B42FDD0D11895
:1003F0000133C3F30A03087A536070479820002042
:10040000064BD3F8080800B97047D3F80808A0F1E4
:100410000500B0FA80F04009704700BF9820002026
:10042000012380F849307047044BD3E90003C01A18
:10043000C0F30A00C0F50060704700BF982000209C
:1004400010B5D0F8E83504461B699847032384F8B3
:100450001231002010BD00BF08B5042290F812111F
:10046000D0F8E83580F8131180F81221DB6898473E
:10047000002008BD08B5D0F8E435DB6903B1984722
:10048000002008BD08B5D0F8E4351B6A9847002065
:1004900008BD00BF08B5D0F8E4355B6A9847002076
:1004A00008BD00BF037830B403B30446C0F1010CAB
:1004B00004EB0C0314F8015FDBB2002DF8D101331B
:1004C0005B00DCB2138003230C704B7004785CB1CA
:1004D000022300255A1CD2B2CC548D5410F8014F7F
:1004E0000233DBB2002CF5D130BC70470224234626
:1004F000E8E700BF10B5074C2068FF2808D0064980
:10050000D1F80C2801F5016100F080F8FF23236089
:10051000002010BD00000020982000204323014847
:100520000B80704704000020122301480B807047A5
:1005300048000020042301480B8070475C00002025
:1005400008B5044B04480A461946FFF7ABFF0846B6
:1005500008BD00BFB028002014BF070808B5044B31
:1005600004480A461946FFF79DFF084608BD00BF2C
:10057000B028002020BF070808B5044B04480A46ED
:100580001946FFF78FFF084608BD00BFB0280020BE
:1005900028BF070808B5044B04480A461946FFF768
:1005A00081FF084608BD00BFB028002034BF0708FF
:1005B00008B5044B04480A461946FFF773FF08467E
:1005C00008BD00BFB028002040BF0708704700BF2B
:1005D000704700BF704700BF704700BF704700BF43
:1005E000704700BF044B00200522C3F80828C3F859
:1005F0001809C3F81C09704798200020024B0020FE
:10060000C3F80808704700BF98200020212838B59B
:100610000C4605D022282DD0202813D0002038BD2C
:100620000029FBD0072AF9D1194BD3F8200993F8F8
:10063000241993F8252993F82639206021716271D5
:10064000A371EBE70029E9D0072AE7D1104DD5F8CF
:100650001C3913B109680020984720682179627914
:10066000A379C5F8200985F8241985F8252985F886
:100670002639D3E70029D1D0022ACFD1044BD3F8B1
:100680001839002BCAD0098800209847C6E700BF58
:100690009820002010B4124CD4E900329A1AC2F308
:1006A0000A020A44B2F5006F13D8B1B101444A1EE0
:1006B000013810F801CFE118824203F1010381F8FB
:1006C00008C0C3F30A03F4D1236000205DF8044B93
:1006D000704702205DF8044B70470846F6E700BFFC
:1006E0009820002010B58121044668F07DFB20464B
:1006F000012168F079FB2046822168F075FBFFF745
:100700007DFF002010BD00BFC169026910B4002345
:1007100040F20114A0F844410B60D169846D21F0CE
:1007200002014FF0010CD161A0F89CC32360D16994
:10073000044821F4003180F827395DF8044BD16179
:100740001846704798200020202301480B807047EE
:1007500060000020122301480B80704780000020B9
:10076000042301480B807047940000200A4608B516
:10077000054920B90548FFF795FE034808BD044820
:10078000FFF790FE004808BDC029002050BF0708B1
:1007900068BF070808B5044B04480A461946FFF726
:1007A00081FE084608BD00BFC029002080BF0708A1
:1007B0002048D0F8E837D0F8EC2730B59B184FF038
:1007C0001A040C8001D11C4830BD1B4AD0F8EA172E
:1007D0004FF0000E10467546B3F1204F4FEA137CE0
:1007E0000CF130040EF1020E2ABF0CF1370C8470AC
:1007F00080F802C0BEF1100FC5704FEA031300F17C
:100800000200E9D100200446B1F1204F4FEA1173F4
:1008100003F1300C00F102002ABF373382F812C016
:1008200093740828D4744FEA011102F10202EBD14B
:10083000014830BD00F0FF1F9800002008B5044BB0
:1008400004480A461946FFF72DFE084608BD00BFBA
:10085000C029002094BF070808B5044B04480A4685
:100860001946FFF71FFE084608BD00BFC02900203B
:10087000A0BF0708002070474FF40070034B1060C2
:10088000D3F8303A0B600020704700BF982000205A
:1008900000207047012070470120704700207047FA
:1008A00010B51C6994420DD396468A188C46944222
:1008B000996938BFA4EB0E0C71446246BDE8104044
:1008C0006DF038BD10BD00BF704700BF704700BF5E
:1008D000D0ED007AD0ED036A30EE677AE6EE877AE3
:1008E000B0EE670AC0ED007A704700BFD0ED017A24
:1008F000F5EE407AF1EE10FA09D1DFED0E7A60EEF6
:10090000A70AB7EE007AC7EE207AC0ED017A31EE81
:10091000277AD0ED007A80ED021AC1EE076A30EE38
:10092000677AC0ED036AE6EE877AB0EE670AC0ED3B
:10093000007A7047DB0FC94090ED017AD0ED036A71
:10094000D0ED027A30EE470AA6EE807A90ED000AEA
:1009500080ED017A37EE676AE6EE867A37EEC07A86
:10096000C0ED027AA6EE870A80ED000A704700BF4C
:10097000D0ED056AD0ED017A90ED007A90ED066A2F
:10098000D0ED025A90ED035A80ED050A66EEA77A83
:10099000C0ED066AE7EE007A90ED077AE5EE867A1A
:1009A00090ED086AD0ED045A80ED087AE5EE477ABA
:1009B000E5EEC67AB0EE670AC0ED077A704700BF71
:1009C000D0ED057A90ED006A90ED037AD0ED025AF1
:1009D000E6EE007AF0EE406AB0EE670A90ED016A4A
:1009E000D0ED047A27EE407A67EEC07AA6EE267A3A
:1009F000E5EEA67A90ED066AC0ED067A36EE077A45
:100A000080ED057A704700BF03685A1C02601970B8
:100A1000704700BF03685A1C02601970704700BF1E
:100A2000024BD3F8600A03681B681847982000201F
:100A3000007970470079C0F3401070470079400991
:100A4000704700BF90F83C20034602F0FF0012B14F
:100A5000002283F83C2070474FF400638381704785
:100A6000074B10B403F11001002453F8042B824209
:100A700008BF43F8044C8B42F7D15DF8044B704734
:100A8000FC2A002001207047012070472DE9F84F13
:100A90006F4DD5F874CAB5F8780AB5F9829AB5F8E9
:100AA0007EEAC0EB2C1303FB03F4B5F97C3A241364
:100AB00003FB04F44000B5F97A3AC0EBEC0003FB09
:100AC00000F0A41304EBE024B5F9803AC5F8904A8D
:100AD0000F46A4F5FA31164683FB013281FB018CE7
:100AE00012034FEAE97B42EA13524FEA033A09FB49
:100AF0000CF308FB0B3BA9FB0839D9441B0A43EA5A
:100B0000096313EB0A0342EB292202F50042A3FB1F
:100B10000E390EFB029E4FEAEE734FEA6E0253EA65
:100B20006E0E4FF0000000F08680B5F9889A09FB40
:100B30000CFEB5F986CA8CFB011C4FEAE97A4FEA34
:100B40004C4C08FB0AEE4CEAD13CA9FB089849043E
:100B500011EB0901F04448EB0C0C4018D5F8941A3D
:100B6000C1F58019B5F9841A09F0004E4FEAC97829
:100B7000B8EB00080CEBC1014EEA590E6EEB010E0A
:100B800018EB080C4EEB0E011CEB080C4EEB0101B0
:100B90004FEA81194FEA8C1049EA9C691CEB000C62
:100BA00041EB0901890041EA9C714FEA8C0C1CEB76
:100BB000080C4EEB01014FEA8C00890010EB080095
:100BC00041EA9C714EEB010169F02CFFB5F98E2AC8
:100BD000B5F98CEAB5F98A5A4FEA6138430B43EA12
:100BE000C14302FB08FC4FEAE27903FB09C9A2FBFF
:100BF000032CCC4402FB08F803FB0C88A2FB032C5B
:100C0000C444520E42EACC12121841EB6C6C4FEA0B
:100C1000EE730EFB01F103FB0011AEFB003001444B
:100C2000DB0C43EA4133D0184CEBE141000A40EAC7
:100C3000016000EB05100FB1000A386026B104EB2B
:100C400084048034241234600120BDE8F88F00BF92
:100C50009820002001207047114B10B4D3F8980A57
:100C6000D3F89C4A001BFA280FD811B1D3F8A40A74
:100C7000086032B1D3F8A83A5DF8044B1360012044
:100C8000704701205DF8044B704706495DF8044B3E
:100C90000A68002022F0040283F8A00A0A60704764
:100CA00098200020000000102DE9F84346697EB925
:100CB000D0F80080C8F30D0904460F46B9F1000FC3
:100CC00026D03F68FFF72AFB092804D06FF0010601
:100CD0003046BDE8F8834A4D2B6923F440732B61FD
:100CE0002B6943F400732B612B6943F001032B61E3
:100CF000C8F80070FFF712FB2B69092823F00103E5
:100D00002B61E3D12368043323603046BDE8F883C8
:100D10003C4B98452AD303F58043984524D303F5EB
:100D20008043984554D3384B984554D903F58033C4
:100D3000984553D903F50033984552D903F500334C
:100D4000984551D903F5003398453ED903F5003352
:100D500098454CD903F5802398454BD9B8F1016FDC
:100D60004BD305200BF050FD4FF00809FFF7D6FAE2
:100D7000092804D04FF0FF363046BDE8F883204DF7
:100D80002B6923F440732B612B6943F400732B61AF
:100D90002B6923F0F8032B612B6943EA090343F025
:100DA00002032B612B6943F480332B61FFF7B6FA02
:100DB0002B6923F002032B612B69092823F0F80328
:100DC0002B61D7D1D4F800807BE74FF03809CDE70D
:100DD0004FF01009CAE74FF01809C7E74FF0200994
:100DE000C4E74FF02809C1E74FF03009BEE74FF0E4
:100DF0004009BBE74FF04809B8E74FF05809B5E79D
:100E0000003C024000400008FFFF00082DE9F041CF
:100E10000446D0E90030134483421DD88E188E4218
:100E200017D00D4604F10C08002701E0AE4210D0A7
:100E300023695A1C2261234415F8010B1873042AF4
:100E4000F4D141462046FFF72FFFAE42C4E90470BB
:100E5000EED16069BDE8F0814FF0FF30FAE700BFE6
:100E60002DE9F0411E4E96F8AC3A002BFBD199B318
:100E7000014400F1FF384F1ED6F8B03AD6F8B42A34
:100E80000133C3F30A039A4216D10BF0A1FB0446C7
:100E90000D460BF09DFB031B61EB0501B3F57A7F5B
:100EA00071F10003F5D3D6F8B03AD6F8B42A01337D
:100EB000C3F30A039342E8D0D6F8B02AD6F8B03A82
:100EC00018F8011F32440133C3F30A03B84582F80E
:100ED000B81AC6F8B03ACFD10020BDE8F08100BF03
:100EE0009820002010B50A4CD4F8083803B910BD7A
:100EF000D4F80838052BFAD1002A0846D4F8983AD5
:100F00001146F4DDFFF7ACFFD4F8983A10BD00BFEE
:100F10009820002090F84820531C0244DBB280F84F
:100F2000483082F8341090F849200AB1132B03D9C5
:100F3000002280F8482003B9704710B5084CD4F857
:100F4000082802B910BDD4F80828052AFAD1194694
:100F50003430D4F8983AFFF783FFD4F8983A10BDAC
:100F60009820002090F848100023A0F8483001B9DC
:100F7000704710B5084CD4F808381BB1D4F80838BD
:100F8000052B00D010BD3430D4F8983AFFF768FF35
:100F9000D4F8983A10BD00BF982000202DE9F04702
:100FA0005D4E1F4606EB80039C68002C00F0AD8070
:100FB00004F13E03A36104F59F73E3614FF4807372
:100FC000C4E904332836236866600546E16094F876
:100FD0003D00A363904608F0D7FC814694F8440294
:100FE00094F83CA0261D00284FD194F8450268BB18
:100FF000D4F8403283BB390734D418F0020F60D1E3
:1010000018F0010F44D194F9472294F84712D4F80C
:101010004832002A10DB41481B018418DBB284F8F7
:1010200000335209012301F01F0103FA01F140F8D6
:1010300022103046BDE8F087394A01F00F010A441A
:101040001B01DBB213763046BDE8F08765F0ACFEDD
:10105000D4F84032002BCED0324A116B0B43390703
:101060001363CAD50135EDB2B9F1000FCBD040F210
:101070000673FA0689F80850A9F8063036D4BB067C
:1010800094F8462245D4322133E065F08DFEACE77A
:10109000504608F079FC0135EDB20028B3D040F29B
:1010A00006620572C28094F84622022108F096FC7E
:1010B00094F9472294F84712D4F84832002AAADA61
:1010C000BAE76B1CDBB2B9F1000F99D089F8083090
:1010D00040F20653A9F8063094F846224846022109
:1010E00008F07CFC18F0010F8DD0D1E794F846226F
:1010F0000221484608F072FC94F9472294F84712FE
:10110000D4F84832002A86DA96E726463046BDE80B
:10111000F0871221EDE700BFB416070800E100E0F8
:10112000FCEC00E0003802402DE9F047038A848996
:10113000A4B21C4082B045D0814688464FF000459D
:1011400001F14C0701F13406B4FA84F325FA03F2F5
:10115000D24391B2A9F8101014401B3BB8F1000F14
:101160005DD0042B2CD8DFE803F050463B30030061
:10117000D8F80C30D9F82CA033B19B6823B11FFAF2
:101180008AF108F104009847D8F8243033B19B68FD
:1011900023B11FFA8AF108F11C009847D8F83C30B7
:1011A0002BB19B681BB11FFA8AF130469847D8F8DB
:1011B00054302BB19B681BB11FFA8AF1384698470F
:1011C000002CC1D102B0BDE8F087D8F80C30D9F8B6
:1011D00034105B6808F104009847002CB4D1F1E7A3
:1011E000D8F82430D9F838105B6808F11C0098470B
:1011F000002CA9D1E6E7D8F83C30D9F83C105B6860
:1012000030469847002C9FD1DCE7D8F85430D9F805
:1012100040105B6838469847002C95D1D2E7042BE4
:1012200007D8DFE803F00319140F0A00D9F840309B
:101230000193019B002C87D1C4E7D9F82C3001938E
:10124000019BF7E7D9F834300193019BF2E7D9F815
:1012500038300193019BEDE7D9F83C300193019BB5
:10126000E8E700BF70B5254C94F8AC2A012A034684
:1012700003D0022A09D0002070BD214ED6F8C051FB
:101280008DB984F8AC5A002070BD002540F20112DF
:10129000C0E95455C0E95655A0F8442100F5A271A3
:1012A00067F0B2FEEDE7402D22D823D0D4F8B41A6F
:1012B000144AC3F858510A44C3E954220022C3F81F
:1012C0005C2140F2011203F5A271A3F844211846F3
:1012D00067F09AFED4F8B43AD6F8C0212B44C3F391
:1012E0000A03521BC4F8B43AC6F8C021002070BDEE
:1012F0004025DBE7022284F8AC2AD7E798200020BB
:1013000090310020502B002001EB810138B500EB1B
:10131000C1010E4DB1F88C1304462846FFF7BAF907
:10132000E378C4F8A85340210022C4E9EC1201225A
:1013300093422046A4F89C2304F5677108BFC4F8C3
:10134000AC5367F061FE002038BD00BF543300206D
:1013500070B52B4CD4F804320F2B04D05A1CC4F8AF
:101360000422002070BD274D95F8AC3A0022C4F845
:101370000422002BF5D1D5F8B42AD5F8B03A9A4218
:10138000EFD0D5F8B42AD5F8B03A9A422CD8D5F88F
:10139000B06AD5F8B43AF61A402EC4F8C06128D91C
:1013A000012385F8AC3A4026D5F8B42A164BC0F88C
:1013B00058611344C0E954330023C0F85C3140F253
:1013C0000113A0F8443100F5A27167F01DFED5F8B5
:1013D000B43AD4F8C0213344C3F30A03921BC5F8CE
:1013E000B43AC4F8C021BCE7D5F8B46AC6F50066C3
:1013F000D2E70CBF0223012385F8AC3AD4E700BF43
:101400009031002098200020502B002038B5224D2C
:10141000D5F8103295F828C2044623B195F8143255
:101420005CEA030331D00123E06984F8463140F2DD
:101430000112A4F8442102681849002AA8BFC2F387
:1014400080739B0301EA124143F020030B4363F3D3
:101450001F42BCF1020F026000D038BDE278104B91
:10146000C4F8A8331F200021C4E9EC01012A4FF081
:101470000101A4F89C1308BFC4F8AC3304F56771EC
:101480002046BDE8384067F0BFBD012165F0ACF9EA
:1014900095F828C2C7E700BF90310020DFBFFFFFEB
:1014A0009833002070B590F8CF2590F8D13590F89A
:1014B000CE5590F8D0C590F8CC1590F8CD6505EBD9
:1014C00002250CEB032C90F8D32590F8D23503EBD2
:1014D0000223012284B080F8112101F01F029BB287
:1014E000ADB21FFA8CFC012A04468DF80810ADF845
:1014F0000A50ADF80CC0ADF80E30C0F840318DF890
:1015000009600AD0022A57D0002A3CD001F080019D
:1015100065F06AF9002004B070BD90F81231032B19
:101520002BD15FFA8CFCBCF1010F26D8D0F8E43542
:1015300002A99B689847BDF80E30002BEAD1C4E998
:101540004A33C4E94C3304214FF4807284F81111FA
:10155000A4F81C2104F58E71204667F0E7FC636D4A
:10156000C44A1A61E278012AD4D104F2CC545C61F5
:101570004FF0802219681A60CCE7204665F0FCF82D
:10158000002004B070BD092EF7D801A252F826F051
:101590003B1600084B1700087B150008851700084C
:1015A0007B150008B31700085F1600087B150008BC
:1015B000C9160008F916000801F0600120295FFA39
:1015C0008CF334D0012E00F06181032E00F0958160
:1015D000002E9FD190F81221022A00F01B81032ACD
:1015E000CBD11CF0800F40F0A48103EB830300EB10
:1015F000C30393F87633002B00F0A6819E4B0122A3
:10160000C3F838229D4A0223C4E94E334FF4807058
:10161000002184F81131A4F81C01C4E94C31C4E95B
:101620004A2204F58E71204667F080FC72E7D0F8FC
:10163000E43502A99B6898476CE790F81231023BA9
:10164000012B9AD88C4BD0F818210021C3F8301206
:1016500012B10222C3F83022894A0223D4E72E0AAB
:10166000022EADF8063000F0CD81032E00F09181FE
:10167000012E82D1D0F8EC3580781B680DF106017F
:101680009847BDF80630002B3FF444AFBDF80E205C
:10169000002A3FF43FAF934228BF13464FF48072B5
:1016A0000221A4F81C210022C4E94A0084F8111187
:1016B000C4E94E33C4E94C3204F58E712046ADF8CE
:1016C000063067F033FC25E7012B7FF456AF90F826
:1016D0001221022A00F04981032A7FF44EAF4FF411
:1016E000807100F588720220A4F81C11C4E94E3301
:1016F00084F81101002190E7EDB25F4E012D86F8CC
:1017000029523FF63AAF90F81231022B00F02181B6
:10171000032B7FF432AF002D00F07F8190F8101181
:10172000012910D0D0F8E4355B68984796F8291263
:10173000D4F8E43584F810111B6820469847D4F893
:10174000E8359B6898470023F9E690F81231023B90
:10175000012B3FF612AF012D7FF4DCAED0F8E4355B
:1017600000259B68C0F8185102A9984704224FF43D
:101770008073C4E94A55C4E94C5584F81121A4F892
:101780001C31E7E6012D00F0CC80022D7FF4C2AEC3
:101790005FFA8CF3002B7FF4BDAE02694FEA1C2385
:1017A000023B5268032B00F25681DFE803F05B42F4
:1017B0006B5F5CEA03037FF4E0AE90F81221032A2A
:1017C0003FF4DBAE016905F07F0680F8146108681C
:1017D0001A4665F30A1202430A604FF4807204212C
:1017E000C4E94A33C4E94C3384F81111A4F81C212C
:1017F00004F58E71204667F099FB636D1D4A1A61EE
:10180000E278012A0DD0002E00F01281022384F824
:1018100012317FE65A063FF47DAE194664F0E4FFCC
:1018200078E604F2CC525A614FF0802219681A60AF
:10183000E9E7032363F3061201210F4D84F8161123
:101840000421002384F811114FF48071A4F81C11B5
:10185000C4E94A33C4E94C3304F58E712046C5F817
:1018600034227AE6022363F30612E5E7052363F3E5
:101870000612E1E71800086090310020C83300200C
:10188000C0330020042363F30612D5E790F8122139
:10189000022ABFD0032A7FF470AE002D7FF43AAE47
:1018A00013F07F023FF44FAF1CF0800F40F0C48074
:1018B00003EB830100EBC10181F8742381F87653B7
:1018C00081F87553282101FB030300EB820293F892
:1018D0007713506D03688A1E012A6FF35553D4F8AD
:1018E000E4258CBFC3F30071012161F31C7392687E
:1018F000036002A92046904725E790F81221022AAA
:1019000088D0032A7FF439AE25B9590602D019468A
:1019100064F06AFFD4F8E43502A99B682046984732
:1019200011E7D0F8E43502A99B68C0F81851984730
:1019300009E703F07F0303EB830300EBC30393F892
:101940001E31002B7FF45AAE454B0022C3F83822DB
:1019500058E6002D3FF40AAF01210322D0F8E43508
:1019600080F8101180F81221E6E63E4984F8112132
:101970004FF480700022C4E94A11A4F81C01C4E9A4
:101980004E33C4E94C3204F58E71204667F0CEFA2E
:10199000C0E5EDB2052D3FF6F0ADDFE805F02B23F5
:1019A0001B130B03D0F8EC3580789B690DF1060111
:1019B000984766E6D0F8EC3580785B690DF1060152
:1019C00098475EE6D0F8EC3580781B690DF106018A
:1019D000984756E6D0F8EC358078DB680DF10601C3
:1019E00098474EE6D0F8EC3580789B680DF10601FB
:1019F000984746E6D0F8EC3580785B680DF1060133
:101A000098473EE6D0F8E43580789B6A0DF10601F0
:101A100098474670C4F8F00533E60222D0F8E43562
:101A200080F8122180F810515B68294698479DE69E
:101A3000012384F812316DE5282303FB020181F8AC
:101A40001C2100EB820281F81E5181F81D61906912
:101A500091F81F113EE7012363F30612ECE600BF85
:101A600090310020BC33002010B5044629B990F80D
:101A70001121032A0DD0002010BDD0F8E4359B6958
:101A8000002BF8D090F81221032AF4D198470020B7
:101A900010BDD0F890230B46D0F87C138A4213D99E
:101AA000C078521A0128C4F8902336D08A4228BF41
:101AB0000A4692B2C4E9E22304F55D71A4F87433D6
:101AC000204667F033FAD6E7D0F8E4351B691BB13E
:101AD00090F81221032A1ED000234FF480720421B3
:101AE000C4E94A33C4E94C3384F81111A4F81C2129
:101AF00004F58E71204667F019FA636D104A1A6179
:101B0000E278012AB7D104F2CC545C614FF0802214
:101B100019681A60AFE79847DEE78A42D4F8800375
:101B2000A4F8743328BF0A46084492B2C4E9E223F9
:101B300004F55D71C4F88003C4F88403C0E700BFF6
:101B40001800086038B5044649B990F81131022BE5
:101B500011D094F81631012B40D0002038BDD0F8B8
:101B6000E4355B69002BF8D090F81221032AF4D1F8
:101B70009847002038BDD0F83831D0F8242193425E
:101B800036D9C178012908BFD0F82811A3EB020388
:101B900018BFD0F82821C0F8383108BF52189BB2BE
:101BA0004FF480710025C0E94C35A0F81C11C0E944
:101BB0004A2200F58E7167F0B9F9E378C4F88053D2
:101BC000012BC4E9E255A4F8745308BFC4F8845348
:101BD00004F55D71204667F0A9F9BAE72A4B22693E
:101BE000D3F834125160002384F81631002038BD38
:101BF000D0F83C31B3FBF2F502FB1535ADB99A4292
:101C000013D8D0F8402193420FD24FF48073A0F83C
:101C10001C31C0E94A55C0E94C5500F58E7167F09A
:101C200085F9E378C4F84051C8E7D4F8E435DB68B7
:101C30001BB194F81221032A23D0E2780023012A51
:101C40004FF0050108BFC4F88433C4E9E23384F8D7
:101C50001111C4F88033A4F8743304F55D71204683
:101C600067F064F9636D094A1A61E278012A7FF42A
:101C700070AF04F2CC525A614FF0802219681A609A
:101C800067E720469847D8E79031002018000860A1
:101C9000F8B50B7813F060060D46044620D0202ED0
:101CA00025D1CE884EB31B0649D5384F68783246C9
:101CB0003946FEF7ABFCEB880222002684F811219E
:101CC0004FF48072C4E94E33C4E94A77C4E94C3614
:101CD000A4F81C2104F58E71204667F027F90AE06C
:101CE0004B780A2B17D00B2B0ED0062B03D1204696
:101CF00064F042FD02263046F8BD022248781144C5
:101D0000FEF784FC3046F8BD8B78002B3AD1204B8F
:101D1000C3F83C62EFE7022280F811214FF4807291
:101D2000A0F81C211B4A0123C0E94E33C0E94A2216
:101D3000C0E94C3600F58E7167F0F8F8DBE7164B1A
:101D4000164A4978116003F501620321C0E9E4668F
:101D500080F81111C0F88863C0F88023C078C3F8F8
:101D60000C6801284FF00003C4F88C33A4F87433D6
:101D700004F55D7108BFC4F88423204667F0D6F8E7
:101D80000026B8E764F0F8FCB5E700BFA8280020FB
:101D900090310020CC33002098200020000000204B
:101DA000002310B519460446402267F04FF8802101
:101DB00020460023402267F049F8D4F8E835A0789F
:101DC000012284F812215B689847002010BD00BFF3
:101DD00010B5022304464022812167F037F82046DF
:101DE00002234022012167F031F820460323082214
:101DF000822167F02BF80E4B0222A3F84C20FEF74D
:101E0000F1FBE2780B4BC4F8A83340200021C4E971
:101E1000EC01012A4FF00101A4F89C13204604F5BF
:101E2000677108BFC4F8AC3367F0EEF8002010BD4E
:101E3000000000205433002070B5812182B0044698
:101E4000314E66F0D1FF0121204666F0CDFF00251E
:101E5000022340228121204686F8275966F0F6FFAA
:101E6000012102234022204666F0F0FF274B86F82E
:101E70002759D3F8402283F8285212682846904701
:101E80000095009BE16843F010030093009B0B61F9
:101E90000A691F4B009203E00A690092013B02D0DD
:101EA000009AD006F8D400230193019B43F020034D
:101EB0000193019A164B012060F38A120192019A54
:101EC0000A610A69019203E00A690192013B02D0AA
:101ED000019A9206F8D4E2780E4BC4F8A833002198
:101EE0001F20C4E9EC01012A4FF00101A4F89C1362
:101EF00004F5677105D0204667F086F8002002B02F
:101F000070BDC4F8AC33F6E7982000209031002073
:101F1000400D0300983300202DE9F047089F8846C4
:101F200015460021202204461E466EF0A3FB4FB149
:101F30003B68E3811B0C23827B687A89E3821B0C5C
:101F400062822383404667F045FFEB0619D4431EA7
:101F5000B8B108EB000701E0013B12D317F801CD3F
:101F6000BCF12E0FF8D1C01A421E032AA8BF0322CB
:101F7000082B03F1010AA8BF08239146C2441A4660
:101F800006E008280246C246A8BF08224FF0000912
:101F90004FF0203341462360636004F10807204678
:101FA0006CF0C8F9174B23815146BB704A4638463E
:101FB0006CF0C0F9611EE31D11F801CFACF1610EA8
:101FC000BEF1190F9CBFACF1200C81F800C08B4210
:101FD000F2D1384604F10B0110F8013BA3F1610284
:101FE000192A9CBF203B00F8013C8842F4D11823F9
:101FF0002373330CA382E572099B6683E361BDE81A
:10200000F08700BF20202000002B00F054822DE933
:10201000F04F87B001F5FE781344DFF86C94DFF8D9
:102020006CB40393164601F12007C24621E0002E4E
:1020300064D0D9F83C3AB34200F0CC80D9F8383AB1
:10204000B34200F0FF80D9F8403AD9F8441AB342BD
:102050004BD8B14200F29981711A204664F03AFBE4
:10206000039B01369E4207F500770AF5007A00F0DF
:10207000AD80D9F8485AB542A7F12004D7D8751BCE
:10208000D9F8588A05F00702EB080492D8F83020F6
:102090000233934203D3D8F8382093420BD94146F8
:1020A0001846059364F0E6FA059B8046002800F088
:1020B0008881C9F8580A98F80420002A40F0348131
:1020C000D8F82850002D00F07581D8F830209B1AE0
:1020D000049A02EBC303D8F80C20204602EB4322FB
:1020E0004FF400714346A847BAE7B142B4D920463D
:1020F0004FF4007200216EF0BDFAB1E74FF40072A8
:10210000314620466EF0B6FA802387F89E310C23C4
:1021100087F8A231D9F8383AD24AD9F8301AC4F837
:10212000C6319342C4F8CA1100F33C81CE4ACF4C69
:1021300082FB03021A44D817C0EB621284FB0254DC
:10214000CB4D85FB03C5C0EB2530C2EB821587F86C
:10215000A1015B1B801020F03F00013303431444B6
:1021600087F8A031D317C3EBE414224487F89F21EA
:10217000BC4B4A1E9A4200F30D81BB4BBB4883FB0C
:1021800002311144D317C3EB611180FB0140B84CFD
:1021900084FB0254C3EB2433C1EB811487F8A531CF
:1021A000121B9B1023F03F0301321343084487F8AE
:1021B000A431CB17C3EBE010014487F8A3115523DA
:1021C00087F8DE31AA2387F8DF3149E7002007B01E
:1021D000BDE8F08F4FF0FF3384F8EC3184F8ED3137
:1021E00084F8EE3184F8EF31D9F8503AC4F8E83188
:1021F0005223237063706123A37084F8E731412375
:102200000025E37084F8E631722384F8E43184F821
:10221000E5314FF4F0722946A7F11C006EF02AFA5E
:102220005523C7F8D051C7F8D451C7F8D85184F80E
:10223000FE316FF0550384F8FC5184F8FD5184F8A9
:10224000FF310DE700214FF4007220466EF012FAC4
:10225000884A03CA47F81D0CEB2007F8200C5820C9
:1022600007F81F0C902047F8191C07F81E0C0023D4
:1022700002220821F820E372227307F8131CA273CC
:10228000E37307F8102C07F80B0CD9F8380A84F818
:102290002C20D9F8302A6376121A2262D9F8400A23
:1022A000D9F8442AE376121A3F2020764FF0FF3007
:1022B000A0763E20207701206377A377E37784F828
:1022C0002D3084F82E3084F82F30626284F830008C
:1022D00084F8313087F82610802187F820102921D2
:1022E00087F82210942187F823100E2187F82410F4
:1022F0000D21614A87F82510552187F8DE11AA21A2
:1023000087F8DF1103CA5D4BC7F82700C7F82B1009
:1023100003CB1388A7F82F309378C7F83200C7F89B
:10232000361087F831309BE64FF4007200212046CA
:102330006EF0A0F9049B002B4AD1D8F84030002B56
:1023400000F0A680049AD8F830304D49CDE900223B
:1023500020461122FFF7E0FDD8F840301A6C002A21
:1023600000F0AB80049A1B6BCDE900224549112295
:102370003846FFF7D1FDD8F8448007F120044FF428
:10238000E075B8F1000F3BD16AE6F11A204664F01F
:10239000A1F965E6FF2387F8A33187F8A53187F80F
:1023A000A4310CE7FF2387F89F3187F8A13187F824
:1023B000A031DDE6294620464FF400726EF05AF94E
:1023C0004EE6A7F1240343F804BF9A45FBD147E644
:1023D000D8F84030049AD8F84480002B0CBF012371
:1023E0000223C3EB02154346002B3FF439AE013DF7
:1023F0009B6CF9D198464FF40075002B3FF430AE3A
:1024000025442034234620354446049698460EE061
:102410005CF81C1B236BCDF800C000260196FFF76B
:102420007BFDA46C08F12008CCB1A84517D0237916
:10243000A44604F11C0E1122A8F12000002BE7D1C4
:1024400062792669236B216842F02102CDE900E61A
:10245000FFF762FDA46C08F12008002CE5D1049E72
:10246000FEE500BFFF03FB0083200882818080809F
:1024700097554541B0BF0708BCBF0708C8BF07084C
:10248000F8D60708A0C4070898200020DEADBEEFEC
:10249000049BD9F8341ACDE9003320460822FFF70F
:1024A0003BFDD8F84480B8F1000F3FF4D9AD3C466D
:1024B0004FF4F075A4E700207047049BCDE900338A
:1024C00054E700BF8C46134601466246184644F066
:1024D00063BC00BF1049114BD1F8882042F4700250
:1024E00010B4C1F888201A680D4C002042F0010297
:1024F0001A6098601A6822F0847222F480321A609E
:102500005C601A68074C22F480221A60D8608C60E4
:102510005DF8044B704700BF00ED00E0003802405A
:102520001030002400000008704700BF0148FDF78C
:1025300071BE00BFB80000200148FDF76BBE00BFB0
:10254000040300200148FDF765BE00BF50050020D0
:102550000148FDF75FBE00BF9C0700200148FDF762
:1025600059BE00BFE80900200148FDF753BE00BF77
:10257000340C0020704700BF704700BFB0B14B68FB
:1025800010B4A3B18B6813B343681A68816058799B
:102590009189022383400B439BB2938193899BB221
:1025A00043F0010393815DF8044B70477047436823
:1025B0001A685C7993894FF0020C0CFA04FC9BB208
:1025C0008C6823EA0C039381A4B18160E6E7446838
:1025D0002268938923F001031B041B0C9381816003
:1025E000607991895DF8044B022383400B439BB2D1
:1025F00093817047938923F001031B041B0C938183
:102600008160D0E738B5D0E9004307EE902A1B6817
:10261000354A20680139934204688DB216D002F51C
:102620008062934212D002F5705293420ED002F5AE
:10263000806293420AD002F58062934206D02B4B0F
:10264000D3F87C3E5B0807EE103A04E0274B03F614
:102650007C6393ED007ADFED266AB8EE477AF8EEF8
:10266000677A87EE270A30EE260A69F04FF81E4A8D
:1026700023880138944280B29BB212D002F5806266
:1026800094420ED0B4F1804F0BD0A2F58032944228
:1026900007D002F58062944203D002F58062944232
:1026A00002D123F070039BB2124A944212D002F579
:1026B000806294420ED023F4407302F56C429BB2C8
:1026C00094422380E56220850AD1002323860123DA
:1026D000A38238BD2380E56220850123A38238BD13
:1026E000054B9C42F1D0F8E70000014000000020BB
:1026F0000AD7233C0010004000040140024B03486D
:10270000D3F84412FEF710BD9031002000000140C4
:1027100010B5064C0648D4F84412FEF705FDD4F86F
:1027200064120448BDE81040FEF7FEBC9031002062
:10273000000001400040014010B5064C0648D4F8A6
:102740004412FEF7F1FCD4F868120448BDE81040CA
:10275000FEF7EABC90310020000001400044014037
:1027600010B5064C0648D4F84412FEF7DDFCD4F848
:102770006C120448BDE81040FEF7D6BC9031002032
:102780000000014000480140034B4FF08040D3F867
:102790004812FEF7C9BC00BF90310020024B03482D
:1027A000D3F84C12FEF7C0BC90310020000400406A
:1027B000024B0348D3F85012FEF7B6BC903100200C
:1027C00000080040024B0348D3F85412FEF7ACBC9B
:1027D00090310020000C0040024B0348D3F86012F7
:1027E000FEF7A2BC903100200004014010B5064C59
:1027F0000648D4F86012FEF797FCD4F8701204482B
:10280000BDE81040FEF790BC90310020000401406C
:102810000018004010B5064C0648D4F86012FEF7C8
:1028200083FCD4F874120448BDE81040FEF77CBC69
:102830009031002000040140001C004010B5064CFF
:102840000648D4F86012FEF76FFCD4F878120448FA
:10285000BDE81040FEF768BC903100200004014044
:10286000002000400348D0F88C3E13B100F56860AA
:1028700018477047000000200348D0F8AC3E13B161
:1028800000F56A6018477047000000200348D0F840
:10289000CC3E13B100F56C60184770470000002073
:1028A0000348D0F8EC3E13B100F56E60184770474E
:1028B000000000200348D0F80C3F13B100F5706011
:1028C00018477047000000200348D0F82C3F13B190
:1028D00000F5726018477047000000200348D0F8E8
:1028E0004C3F13B100F5746018477047000000209A
:1028F0000348D0F86C3F13B100F576601847704775
:10290000000000200348D0F88C3F13B100F5786038
:1029100018477047000000200348D0F8AC3F13B1BF
:1029200000F57A6018477047000000200348D0F88F
:10293000CC3F13B100F57C601847704700000020C1
:102940000348D0F8EC3F13B100F57E60184770479C
:10295000000000200248C36803B11847704700BF59
:10296000001000200248C36A0BB12030184770479E
:10297000001000200248C36C0BB14030184770476C
:10298000001000200248C36E0BB16030184770473A
:102990000010002002683649002310B422F0010222
:1029A000212488420260036043608360C360036146
:1029B000446138D02F4B98422ED02F4B98423CD0B8
:1029C0002E4B984240D02E4B984232D02D4B9842FD
:1029D00041D02D4B984246D02C4B984217D02C4BCF
:1029E00098423CD02B4B984216D02B4B984224D087
:1029F0002A4B984228D02A4B98421AD0294B984209
:102A000029D0294B98422ED0284B984208D14FF01C
:102A10003D5243F8AC2C03E04FF4746243F8202C91
:102A20005DF8044B7047224B5DF8044B3D229A60E1
:102A30007047204A43F8642CF2E74FF474125DF8B3
:102A4000044B43F8382C70474FF074625DF8044B28
:102A500043F8502C7047184A43F87C2CE0E73D229D
:102A600043F8082CDCE7154A43F8942CD8E700BF5C
:102A700010600240286002404060024058600240FE
:102A80007060024088600240A0600240B86002406E
:102A900010640240286402404064024058640240CE
:102AA0007064024088640240A0640240B86402403E
:102AB000006002403D000020400F002000003D204B
:102AC00000222DE9F04713460D684FF0010E032652
:102AD00004E00133102B02F1020239D00EFA03FC9C
:102AE0003CEA0504F5D1076806FA02F427EA040770
:102AF00007600F79D0F800A007FA02F9013F49EA10
:102B00000A09012FA046C0F800906FEA040411D80A
:102B100087683C4084604C79876894403C4384607B
:102B2000446824EA0C0444608C7947689C40A4B251
:102B30003C434460C46824EA0804C460CC79C76894
:102B4000944001333C43102BC46002F10202C5D112
:102B5000BDE8F0872DE9F0412348244F244E254C51
:102B600082B0382200216DF085FD002557F8251030
:102B70003246002301E054F8332091422ED0013335
:102B80000E2BF8D10020053564F00EF9192DEDD18A
:102B9000DFF85880184F08F164054FF0007698F878
:102BA000040006F0F1FE08F11408044688B1036839
:102BB00003F13F4303F57E0307EB932393F8C8002B
:102BC00064F0F2F8A3880196206800936946FFF745
:102BD00077FFA845E3D102B0BDE8F081064A02EBD9
:102BE000C30393F85C00CEE7D433002080100020AC
:102BF000000001400C170708B4160708224A936822
:102C000003F00C03042B10B421D0082B22D01F4B4F
:102C100003601D4C1E4AA168C1F30311114411F851
:102C2000141CCB404360A168C1F38221114411F808
:102C3000141C23FA01F18160A1685DF8044BC1F313
:102C400042310A4412F8142CD340C3607047114B30
:102C50000360DEE75368516813F4800F01F03F0111
:102C6000536814BF0B4A094AB2FBF1F1064A526895
:102C7000C2F30142C3F38813013201FB03F3520094
:102C8000B3FBF2F30360C4E7003802400024F40011
:102C9000F810002000127A0070B5446B8668A38992
:102CA00023F400531B041B0CA38182790546407951
:102CB00012F0040F14BF4FF4805C4FF0000C1103AE
:102CC00010F0010F4FEA02220CBF0023042302F48C
:102CD0008062800748BF43F0080342EA0C021343B6
:102CE000228A92B201F4005122F440520A43228215
:102CF000A28922F4B05222F00C021204120C1A43E0
:102D0000A281A38A23F440731B041B0C84B0A3820A
:102D10006846FFF773FF244B9C4205D003F58063A0
:102D20009C4201D0029A00E0039AA3891F491B0428
:102D300002EB82024CBF7300B30002EB8202B2FBD3
:102D4000F3F3A1FB0302A08952096426000406FBE9
:102D500012334FEA02121FD41B013233A1FB0313BB
:102D6000C3F3431313439BB22381AB796A6B13F014
:102D7000080F938A0AD09BB243F008039382938989
:102D80009BB243F40053938104B070BD23F0080359
:102D90001B041B0C9382F2E7DB003233A1FB03130D
:102DA000C3F342131343DEE7001001401F85EB51CC
:102DB0002DE9F843394C9DF820509DF82490A0420D
:102DC0000F4690461E4649D0354B98424ED0354B63
:102DD000984253D0344B98422BD0344B984255D024
:102DE000334B984221D14B462A4631460520FEF707
:102DF000D5F804460023C4E90B78C4E90733C4E9D5
:102E000009336571A66084F806902046FFF744FFF9
:102E1000EA07616B1AD4AB0713D48B899BB243F4D6
:102E200000538B812046BDE8F88300242046BDE88E
:102E3000F8834B462A4631460320FEF7AFF8044696
:102E4000D8E7CB6843F08003CB60E6E74FF6DF734B
:102E50000B80CB6843F02003CB60DCE74B462A466F
:102E600031460020FEF79AF80446C3E74B462A464F
:102E700031460120FEF792F80446BBE74B462A464E
:102E800031460220FEF78AF80446B3E74B462A464D
:102E900031460420FEF782F80446ABE700100140FB
:102EA0000044004000480040004C004000500040FA
:102EB000001401408160EFE64171EDE62DE9F04339
:102EC000794F85B0054607EBC00917F8300006F0CA
:102ED0005BFD044699F8010006F056FD064699F898
:102EE000020063F061FF6B1C4FEAC508DBB2002CE7
:102EF00000F0AC8040F60C122372E280002E00F04D
:102F0000C280337240F60C232046F38004223A211B
:102F100006F064FD042230463A2106F05FFD07EB1F
:102F20000803624A53F8044C944200F09780604BC7
:102F30009C4200F09D805F4B9C4200F0AA80474479
:102F4000FA78022A5CD0032A7ED05B4B5B4E012AC2
:102F500018BF1E46A7886846FFF750FE27F03F07B8
:102F6000029B574AB3FBF6F63F04A2FB03233F0C38
:102F700047EA9347A780228822F001021204120C2C
:102F80002280B2B2C6F30B069B0C002E59D04FF430
:102F9000967101FB03F34B49A1FB03139B0901331A
:102FA0009BB242F400422384A2832388464A9BB208
:102FB00043F001032380238823F4816323F0020379
:102FC0001B041B0C4FF4804143F480632380218158
:102FD000238823F080031B041B0C238023889BB2CF
:102FE00002EB451243F0010323800121002382F804
:102FF000805282F8811282F8823205B0BDE8F083F7
:10300000A6886846FFF7FAFD26F03F06029A2C4B89
:103010003604A3FB0213360C46EA9346A6802188A9
:1030200021F001010904090C21809B0C274901337F
:1030300092092384A1FB02329209042A38BF042298
:10304000B2E742F00102A2E7214E83E7002E3FF4EF
:1030500066AF337240F60C23F3805BE71D4B1A6AB0
:1030600042F400121A621A6A22F400121A6266E727
:1030700003F5F0331A6A42F480021A621A6A22F4E3
:1030800080021A625BE7042220463A2106F0A6FC81
:1030900045E703F5EE331A6A42F400021A621A6A2F
:1030A00022F400021A624AE7F8100020005400409F
:1030B00000580040005C0040804F1200009F240038
:1030C00083DE1B43D34D621090310020632D3E05FB
:1030D000C0270900003802402DE9F047954D90F9CE
:1030E00000408046807805EBC401013851F8041C8B
:1030F00090B014282ED8DFE810F0540127011500F5
:1031000057006100A200AA00CC01BE017D0087002B
:1031100046020E02E101C500D50030003800AB01C7
:103120009D015C01888A0C8B81B2834841EA04418D
:1031300030EA010100F02781D8E90210521A42F268
:10314000107163EB00038A4273F1000302D315236D
:1031500088F8023010B0BDE8F08798F813000882B4
:10316000C8E90223122088F80200888A0C8B80B2FA
:1031700040EA0440714C34EA000000F0B6800020C0
:103180000E900F9001200F910E900E99002900F0E3
:103190001F820F9914310F910F9909684905CBD5FA
:1031A000142388F80230D5E798F8110000F0FE00EB
:1031B0000882C8E90223052088F80200888A0C8B5F
:1031C00080B240EA04405E4C34EA000000F0A48083
:1031D00000200090019001200191009000990029A9
:1031E00000F00282019914310191019909684F059B
:1031F000D6D4A1E798F8110040F001000882C8E990
:1032000002230B2088F80200888A0C8B80B240EAE7
:1032100004404C4C34EA00006FD00020049005902C
:103220000120059104900499002900F0D7810599A7
:1032300014310591059909684D05B1D47CE798F8DA
:1032400013000882C8E90223072088F80200888A50
:103250000C8B80B240EA0440384C34EA00005FD066
:10326000002002900390012003910290029900290E
:1032700000F0C681039914310391039909684E0542
:103280008ED459E7088820F480600004000C088080
:1032900098F8110000F0FE000882C8E9022310200F
:1032A00088F80200888A0C8B80B240EA0440244CE3
:1032B00034EA000012D000200C900D9001200D91F6
:1032C0000C900C99002900F095810D9914310D9105
:1032D0000D99096848053FF563AF2DE798F813305D
:1032E000FF2B06D198F810301BB1132388F8023059
:1032F00030E7112388F802302CE7D8F814000128B1
:1033000000F09481022800F04A820E20098B88F890
:103310000200C8E902231DE7062388F8023019E7F6
:10332000D8F81400002800F07181082388F80230D2
:1033300010E700BFF8100020010003008400070020
:103340008200070002000300088820F400600004E7
:10335000000C0880088880B240F4806008800888EB
:1033600080B240F480700880032088F80200888AC8
:103370000C8B81B2AB4841EA0441C8E9022330EA30
:1033800001037FF4E7AE98F81230002B40F0D381B0
:1033900098F81330FF2B00F04682042388F802309F
:1033A000D8E6098889053FF5C7AE002388F80230C2
:1033B000D0E615F8340006F0E7FAE7003D4406468B
:1033C000687806F0E1FA984AB2F8E03201339BB22D
:1033D0008246A2F8E03216B13368B2881A83BAF195
:1033E000000F04D0DAF80030BAF804201A83112153
:1033F000304606F09FFA1121504606F09BFA4FF036
:10340000090965272EB13368B28819690A4240F06C
:103410002881013F00F0228109F0DAF804460D46C8
:1034200009F0D6F8001B61EB0501052871F10003D6
:10343000F6D3E7E7088880B240F4007008804FF6C2
:10344000FF3088820121C8E9022388F8021081E652
:10345000D8F81400002800F07281D8F8184014F849
:10346000016B0E8201381225C8E90504C8E9022360
:1034700088F802506EE6888A0C8B81B2694841EA6E
:10348000044130EA01017FF457AE0A2388F8023084
:1034900060E6088880B240F480700880092088F8CF
:1034A0000200888A0C8B81B25E4841EA0441C8E977
:1034B000022330EA01037FF44DAEE6E70024012544
:1034C0000A940B940B910A950A98002800F04A81FF
:1034D0000B9814300B900B98006846077FF52CAEC4
:1034E000D8F81400032800F07281022800F2468107
:1034F000088820F480600004000C0880088880B2EE
:1035000040F400700880098A88F81C40C8E902234A
:1035100088F802501EE600200124089009900991C5
:1035200008940898002800F0178109981430099031
:103530000998006847077FF5FFADEFF3118510206C
:1035400080F31288088880B240F400700880D8F8B0
:1035500018000E8A471CC8F81870EDB2067085F383
:1035600011880D8AD8F818106FF001004E1CC8F8A9
:1035700018600D70C8E90223C8F8140088F81C40D0
:1035800088F80240E6E500200690079001200791A8
:103590000690069C002C00F0EB80079C14340794E6
:1035A000079C246864067FF5C7AD0C8AD8F818100C
:1035B0004D1CC8F818500C70D8F8141088F81C006E
:1035C0000139C8E90223C8F8141088F80200C1E5DF
:1035D0000F9918310F910F990968ADE505991831C8
:1035E000059105990968A7E501991831019101999B
:1035F0000968A1E50D9918310D910D9909689BE5B0
:103600000399183103910399096895E5088880B2F8
:1036100040F4007008800121C8E9022388F80210F4
:1036200098E500BF0100030090310020088820F4D5
:1036300080600004000C0880EFF31184102080F3F8
:103640001288088B088880B240F40070E4B20880C9
:1036500084F311880C2188F802105AE616B13368F9
:10366000B2885A8308F0B4FF04460D4608F0B0FF54
:10367000031B61EB0501052B71F10003F6D316B1B5
:103680003368B2881A8308F0A3FF04460D4608F099
:103690009FFF031B61EB0501052B71F10003F6D3BE
:1036A000B9F101097FF4ADAE16B13368B2885A831F
:1036B00008F08EFF04460D4608F08AFF031B61EBFD
:1036C0000501052B71F10003F6D3BAF1000F04D008
:1036D000DAF80030BAF804205A8308F079FF04467B
:1036E0000D4608F075FF031B61EB0501052B71F119
:1036F0000003F6D316B13368B2881A8308F068FF66
:1037000004460D4608F064FF031B61EB0502052B20
:1037100072F10003F6D3BAF1000F04D0DAF80030EA
:10372000BAF804201A8398F90000441C3FF43DAE17
:10373000FFF7C4FB39E60F2388F802300AE5088852
:1037400080B240F4007008800121C8E9022388F8A3
:103750001C1088F80210FDE40999183109910999A3
:103760000968E9E40B9918310B910B990968E3E4B6
:1037700007991831079107990968DDE4D8F818000E
:10378000098A441CC8F818400170D8F81410C8F809
:1037900008200139C8F81410C8F80C30DAE4088899
:1037A00080B240F400600880EFF31184102080F3B1
:1037B0001288088B088820F480600004000CE4B2B2
:1037C000088084F311880D2188F80210A1E508888B
:1037D00020F480600004000C0880EFF311841020B6
:1037E00080F31288D8F818000D8A461CC8F81860B3
:1037F0000570088880B240F40070E4B2088084F359
:103800001188D8F81800098A441CC8F818400170BB
:10381000D8F814100C200239C8E90223C8F8141093
:1038200088F8020096E498F81030002B3FF4B5AD0C
:103830002BE600BF38B5184D9DF814E005EB401499
:103840004FEA401C94F8810200B938BD490084F861
:103850009322C4F8943284F891120023049984F8D6
:1038600090E2022205F5207584F89232C4F898128D
:1038700084F89C3284F88222654408F0A9FE02464E
:103880000B462846FFF728FC94F88232002BF4D12F
:1038900094F89C0238BD00BF9031002038B5184D17
:1038A0009DF814E005EB40144FEA401C94F88102A7
:1038B00000B938BD84F89322C4F894320122002361
:1038C000490005F5207584F8922284F89C32049A08
:1038D00084F890E2022384F89112C4F8982284F8C4
:1038E0008232654408F074FE02460B462846FFF714
:1038F000F3FB94F88232002BF4D194F89C0238BD8B
:1039000090310020F0B587B00023824A00930193E4
:10391000136843F48033136003E0009BB3F5A04FBA
:1039200009D0136803F400330193009B0133009323
:10393000019B002BF1D0774B1B6813F4003318BFA9
:1039400001230193019B012B01D000BFFDE7714BC7
:1039500071491A6C714842F080521A640A6842F444
:1039600040420A609A689A609A6842F400429A60FB
:103970009A6842F4A0529A6058601A6842F08072C5
:103980001A601A689201FCD5654A40F2057111600F
:10399000996821F003019960996841F00201A2F54C
:1039A00080629960936803F00C03082BFAD1936846
:1039B00003F00C03042B00F08C80082B00F08E80A9
:1039C000584D594BC5F87C3E524B58499868D5F82C
:1039D0007C2E574CC0F3031001445648097DCA4061
:1039E0005549C5F87C2EE160544A596FA260596B65
:1039F000534A21F080015963596F41F08071596732
:103A0000196B0A431A635A6B5A639A6B9A631A6C5E
:103A10004C490A431A64596C4B4A0A435A6402A936
:103A200048F2FF73002602934FF6FF770396FFF7E5
:103A300047F800F580600297FFF742F800F58060D4
:103A40000297FFF73DF800F58060FFF739F800F5C1
:103A50008060FFF735F800F58060FFF731F800F57A
:103A60008060FFF72DF800F58060FFF729F800F57A
:103A70008060FFF725F80846FFF7C0F8D4F8FC305F
:103A8000029A3249324843F08073C4F8FC30314B1B
:103A9000C3F8B01F5E60196841F001011960D5F8E4
:103AA0007C3E4FF47A71B3FBF1F3013BB3F1807FBD
:103AB0002949B2FBF1F2C0F8E42208D24FF0E0222B
:103AC000F0215361072384F823109661136107B036
:103AD000F0BD144D214BC5F87C3E75E75368516825
:103AE000104D13F4800F01F03F01536814BF1B4ABF
:103AF0000D4AB2FBF1F1074A5268C2F30142C3F327
:103B00008813013201FB03F35200B3FBF2F3C5F853
:103B10007C3E59E7003802400070004008544007DE
:103B2000003C0240000000200024F400F8100020B7
:103B300000ED00E0000002400003FA05000000086C
:103B4000FF916700FFC9FE103357070055CEACC583
:103B500090310020001000E040420F0000127A0077
:103B600082B0064B002201920193019B03EB80007F
:103B70000190019B196002B0704700BF50280040BF
:103B800010B51C2005F000FF1121044605F0D2FEFF
:103B90004CB12368A2885A83C82008F047FD2368E7
:103BA000A2881A8310BDBDE81040C82008F03EBDB1
:103BB000704700BF704700BF704700BF10B5124C80
:103BC00094F8F23223B9114B4FF480225A6110BDA0
:103BD0004FF0E022D2F8103D23F00603C2F8103D6A
:103BE000FEF778FC94F8F232002BECD0D4F8F832DF
:103BF0009B68DB07E7D5D4F8F423136823F00301AF
:103C000061F307031360DEE790310020003C0140C0
:103C10002DE9F04FB04CD4F8F4325A69D2078BB08A
:103C200002D50BB0BDE8F08F5A699B6912EA03090F
:103C3000F7D0C9F3074319F4002F009340F0DE805A
:103C4000009B590740D419F0020F5FFA89F603D0A0
:103C5000D4F8F43202225A61B9F1000FC0F2E481C3
:103C600019F4006FC9F3072540F04481330707D5E5
:103C70009A4B9B481B6B9847D4F8F43208225A6140
:103C8000F70600F1BB81EE0600F16981A90600F19B
:103C9000E680009BDA0608D5904B91481B6C98474C
:103CA000D4F8F4324FF480125A61009B9B06B8D5C9
:103CB0008A4B8B485B6C9847D4F8F4324FF400126F
:103CC0005A610BB0BDE8F08FD4F8F8229369D2693D
:103CD00013401FFA83FABAF1000FB4D0DFF8108254
:103CE000CDF80C90A8F1180500271AF0010F78D034
:103CF000FEB2D4F8F82204EB86031069D3F800135F
:103D0000536B8968F340DB01DBB203430B4013F0D4
:103D10000109D9B240F0A3810A0740F1BF81D8F868
:103D2000002008239360994619F0800F59D0D5E9F7
:103D30004CC0D5F82431D8F800E0ACEB00018B4240
:103D4000DEF8182028BF0B4692B20333B2EB930F74
:103D500047D9D4F8F82294F8EB92323604EB860374
:103D6000CDE90178674698469446874237D9D5F819
:103D70002431391A994228BF194601F1030BD5F8AD
:103D800028314FEA9B0BB9F1000F10D18AB20332F0
:103D90009210D8F8F0620AD04846013053F8047BFC
:103DA00037608242F9D1D5E94C70D5F82831084402
:103DB0000B44B842C5F82831C5F83401DEF8183094
:103DC0000AD195F81C11012202FA01F1DCF8342025
:103DD00022EA0102CCF834209BB29B45C5D3DDE931
:103DE00001785FEA5A0A07F1010708F1040805F1B2
:103DF00028057FF47AAFDDF80C9024E7D4F8F83288
:103E00009D69DB691D402D0C3FF41AAF04F53A782B
:103E1000DFF8C8B004F54F760027C24608E06D0809
:103E200007F1010706F1040608F128083FF408AF7E
:103E3000EB07F4D5F9B204EB8103D4F8F822D3F8F8
:103E40003C339B6852691340D807DAB200F13681DF
:103E5000930740F15E81336802229A60DFE7D4F86D
:103E6000F832D4F800139A680868C2F34102022AB3
:103E700006BF032262F30A006FF30A0008605A6863
:103E800042F480725A6006A8FEF7B8FED4E9BD215C
:103E9000D368079D6FF38D23D36088681149C0F301
:103EA0004100014491F8D010032900F058810E49D7
:103EB0000E480126294484F8EA6281424FF0400608
:103EC000A4F8EC6200F2A5810E2161F38D234FF47A
:103ED0000051D3605161DCE690310020F8100020E1
:103EE00078340020B4160708401E1BFF3F420F0025
:103EF0009034002000238DF8133094F8FA338DF8B5
:103F00001330B34BB3489B6B9847D4F8F832D4F8CE
:103F1000F422986894F8F2324FF400615161002B5A
:103F20003FF4A4AEC2077FF5A1AE94F8FD33012B98
:103F30007FF49CAE9DF81330032B7FF497AED4F83A
:103F4000F433A5491A6842F001021A601A6842F077
:103F500003021A600B6943F006030B6186E6D4E99D
:103F6000BD167368002723F0010373600597059B56
:103F700043F020030593059B67F38A130593059B84
:103F80000B610B690593BC46944B03E00A690592EB
:103F9000013B02D0059A9006F8D494F8E92252B178
:103FA0008F4B03EB820EFF2253F8040F8260D86B15
:103FB00073458260F8D10B2363F3070763F3070CA3
:103FC0004FF0FF33B3614FF00113F3617761C6F82F
:103FD00010C0336883486FF30A13336094F8EB2200
:103FE000D4F83C33012A186100F0B2804FF48053BA
:103FF0004B61774B77485B6B984747E6D4F8F432D0
:104000009A6922F010029A611A6AC2F343400228A8
:1040100002F00F0100F0AE80062800F085809A695A
:1040200042F010029A612EE694F8F2323BB1D4F8D5
:10403000F423136823F0030161F307031360D4F83A
:10404000F822634B6348D96B536823F00103536034
:104050008847D4F8F4324FF000425A6100E6516BC1
:10406000D8F800005A4B4FF0010C0CFA07FC21EA7B
:104070000C01516301229B6A826031465548984782
:1040800094F8EB32012B00F0B18019F0020F3FF4ED
:104090004BAED8F8003002229A60A2E6CB0604D5D7
:1040A000D8F8003010229A609BE6480658BF89462F
:1040B000EBD5D8F8003040229A6092E694F8EB22D3
:1040C000336801208242986007D11A69D8F87C339E
:1040D000C2F312029B1AC8F88C33DBF82430504626
:1040E000984794F8EB32012B7FF499AE002F7FF4C0
:1040F00096AE94F8F933052B7FF491AED4F83C33A7
:10410000384A1A61384A5A611A684FF080221A6098
:1041100085E610077FF583AEDBF82C3050469847D4
:10412000336808229A607AE601EB810104EBC10151
:10413000D4F8B863D1F87406C2F30A1202443068A6
:10414000C4F8B4083068C4F8B808C1F8742666E743
:10415000254A5A611A684FF080221A6046E700210A
:1041600084F8EA124FF40071A4F8EC12092161F30B
:104170008D23ACE647F6F07010423FF450AFC2F327
:104180000A1201EB810004EBC00002F1030C5FEAAC
:10419000AC0CD0F86866D4F8B8E34FEA810818BFD1
:1041A000002006D00130DEF8007046F8047B84451C
:1041B000F8D1414404EBC101D1F868061044C1F8BC
:1041C0006806D1F874060244C1F8742627E700BFD8
:1041D000F81000207834002000ED00E0400D0300CE
:1041E0008C34002018000860443A0020002F7FF42F
:1041F0004CAF94F8F933042B7FF447AFD4F83C3339
:104200002B4A1A612B4A5A611A684FF080221A60B1
:104210003BE72948A5F57401A1F51051814203D867
:104220000D2161F38D2352E624492548294481421A
:1042300003D20C2161F38D2349E62248A5F18C714C
:10424000A1F54341814203D80B2161F38D233EE662
:104250001D491E482944814203D20A2161F38D235E
:1042600035E61B491B482944814203D2092161F3E9
:104270008D232CE61848A5F1B771A1F5585181425C
:1042800003D2082161F38D2321E6144914482944FF
:10429000814203D2072161F38D2318E611491248A8
:1042A0002944814234BF0621052161F38D230EE6A6
:1042B00018000860443A0020DFC810002013FBFEFD
:1042C00020D61300FF69180000D3CEFE40771B00F4
:1042D000C05BB3FEC091210040AC2700C01D6AFE48
:1042E00040E13300803C36FEE09C410070B51A4D41
:1042F0001A4BC5F8DC381A4B85F8E818002683F805
:10430000276905F6DC03C0E954330D230446C0F8E1
:10431000583140F20113C0F85C6100F5A271A0F8B9
:10432000443164F071FEE378C4F8B4631F22C4F82A
:10433000B023012205F502759342C4F8A853A4F8EE
:104340009C2308BFC4F8AC5304F567712046BDE850
:10435000704064F059BE00BF903100205553425365
:1043600098200020F0B50B7813F0600683B00C465F
:10437000054633D0202E2DD14A78FE2A6BD0FF2A55
:1043800063D14A88002A40F08B80CA88002A40F016
:104390008780190600F184806148624B80F82729E4
:1043A000C5F8B423EA78012183F82812A5F89C13F4
:1043B00003F502731F21012AC5F8B013C5F8A8330D
:1043C00005F5677108BFC5F8AC33284664F01CFEDC
:1043D000002600E00026304603B0F0BD4B780A2BE3
:1043E0006AD00B2B63D0012BF5D18B88D9B21B0679
:1043F00076D40196019BC06843F010030193019BA2
:10440000036103690193484B03E002690192013B98
:1044100002D0019AD206F8D42846424F64F0E4FC58
:10442000022321794022284664F010FD97F82832B3
:10443000022B6DD094F90420002ACCDA012BCAD0CB
:1044400001212846FFF752FFC5E762F095F90226E1
:10445000304603B0F0BD4E8816BBCC88012C1FD16E
:1044600018061DD52F4FD7F840329B699847C0B228
:1044700087F8EC08A0B1022307F6EC0785F81131A4
:104480004FF48073C5E94E44C5E94A77C5E94C4607
:10449000A5F81C3105F58E71284664F047FD9AE7B2
:1044A000284662F069F90226304603B0F0BD1D4B84
:1044B0004A8883F8ED288EE7022280F811214FF414
:1044C0008072A0F81C21194A0123C0E94E33C0E9CB
:1044D0004A22C0E94C3600F58E7164F027FD7AE778
:1044E0000096009BC06843F020030093009B61F39B
:1044F0008A130093009B0361036900930A4B03E056
:1045000002690092013B87D0009A9706F8D483E7AE
:104510008121284662F068F9002387F828325AE79B
:104520009820002090310020400D03007D3A0020AB
:1045300010B50D4B93F82739022B07D0033B012B05
:1045400002D80021FFF7D2FE002010BD074B93F8E0
:104550001512044664F00AFE0028F5DA012120460F
:10456000FFF7C4FEF0E700BF982000209031002044
:10457000F8B5404E96F82759074655B1012D06D19A
:104580003D4B93F8151264F0F1FD002832DB00205A
:10459000F8BD394CB0F8B433D4F80C22C4F8E02894
:1045A0001F2BD4F81022C4F8E42808D1334BD4F8D8
:1045B00008229A4203D194F8151201291FD994F8C0
:1045C000EE3804EBC3020133DBB2042B4FF00501DC
:1045D00008BF002382F8F0184FF4005184F8EE3839
:1045E00038460223C2F8F41884F82832FCF70EFF8C
:1045F0000020F8BD29463846FFF778FEC7E794F853
:104600001632013B0F2BDAD864F0B0FD002827DB0F
:1046100096F82739013B022BB9D9B4F810391BB3EE
:10462000042286F82729164AC7F85C51C7E95422A4
:10463000D4F8102284F8E858934228BF1346D4F8DF
:10464000E428C7F8583140F20111A7F84411D31AF1
:1046500007F5A2713846C4F8E43864F0D5FC96E753
:104660003846FCF7D3FE92E719463846FFF73EFE80
:104670008DE700BF98200020903100205553424321
:10468000B46E002010B54FEA511E024400EB8E0CB0
:10469000624529D901F01F014FF0FF3404FA01F3FC
:1046A00050F82E100B4093FAA3F3B3FA83F3DBB266
:1046B000202B16D10CF104018A4202D817E08A425D
:1046C00012D98C460431DCF8003093FAA3F3B3FA24
:1046D00083F3DBB2202BF2D0ACEB000003EBC00085
:1046E00010BD03EB4E1010BD4FF0FF3010BD204643
:1046F00010BD00BF30B503694268494D83B00BB9A6
:10470000002A65D0D0ED067AC46A013377EE807A4C
:104710000361631C012BC0ED067AC36247D0D0ED64
:10472000075A90ED097AD5F8981A07EE903A30EECC
:10473000656AF8EEE76A8A1AC6EE267A81688A42C6
:1047400077EEA57A30EE670AC0ED087AA6EE007A19
:10475000C0ED077A80ED0A7A80ED097A01D803B0BE
:1047600030BD012B4EDD07EE904AF8EEE77A87EE7A
:10477000270AB5EEC00AF1EE10FA46DBB5EE400AA4
:10478000F1EE10FA44D4F1EEC07AF4EE677AF1EE6D
:1047900010FA3AD690ED057AB4EEE77AF1EE10FA17
:1047A0001AD5037B33B30323037003B030BDD5F8B0
:1047B000983A8168DFED1B7A80ED080A9A1A8A42DE
:1047C00080ED070AC0ED097AC9D9B0EE670ADAE7C9
:1047D000D5F8982A426095E7D0ED047AD0ED066AC4
:1047E000F8EE677A022386EEA77A037080ED067AE8
:1047F00003B030BDD5F8981A416000220361826190
:10480000C362ACE79FED070ABDE7DFED067AC1E7BB
:10481000019067F001F90198F0EE407AB5E700BF2A
:10482000982000200000000070B52DED028B04469A
:1048300082B000F1480503460026B1EC017AD3EDC1
:10484000067ADA6A77EE877A0132012AC3ED067AB0
:10485000DA626ED093ED075A93ED096A07EE902A5B
:1048600077EE455AF8EEE77AC5EEA76A76EE857AD6
:10487000F0EE466A37EE677AC3ED087AE5EE876AAE
:10488000C3ED077AC3ED0A6AC3ED096A1833AB4278
:10489000D3D103693A4E426801330361D6F8983A9E
:1048A0009B1A8268934240D99FED368AE36A012BB6
:1048B0004DDD013B07EE903A94ED0A7AF8EEE77A87
:1048C00087EE270AB5EEC00AF1EE10FA4EDBB5EE20
:1048D000400AF1EE10FA4CD4F1EEC07AF4EE677AA9
:1048E000F1EE10FA42D690ED057AB4EEE77AF1EEE9
:1048F00010FA24D41834AC42D8D1D0ED047AD0EDDB
:10490000066A90ED0C7AD0ED125AF8EE677A02231F
:1049100086EEA76A0370C7EE276A85EEA77A80ED58
:10492000066AC0ED0C6A80ED127A02B0BDEC028B13
:1049300070BD83ED087A83ED077A5E62A6E7037B9C
:1049400043B10323037002B0BDEC028B70BDB0EE27
:10495000480AC1E70022D6F8981A416003618261D3
:10496000C362026343648264C365DEE7F0EE487AA3
:10497000B9E7019067F050F80198F0EE407AADE7A2
:104980009820002000000000F0EEC07AB0EEE07A3F
:10499000B4EEE77AF1EE10FAD4BFB0EE676AB0EE8B
:1049A000476AB5EE406AF1EE10FA48D0B4EEE77A05
:1049B000F1EE10FA54BFF0EE675AF0EE475AC5EE2A
:1049C000866ADFED202ADFED203ADFED204A9FEDF9
:1049D000205A9FED203A9FED204A9FED206AE6EE97
:1049E000A23AA6EE834AE6EEA34AF7EE005AA6EEF6
:1049F000A45AE6EE845AA6EE856AB1EE466AC6EE81
:104A0000256AB4EEE77AF1EE10FA48BFDFED147ACA
:104A1000F5EEC00A48BF77EEE66AF1EE10FA48BF3D
:104A2000DFED107AB5EEC00A48BF77EEE66AF1EE28
:104A300010FA48BFF1EE666AB0EE660A7047DFED25
:104A40000A6ADEE739094E3DE3B59EBE88FA16BE16
:104A500045FE7FBF99FB243F69A2163EA7DFA8B49D
:104A6000DB0FC93FDB0F4940A7DFA8342DE9F04F2A
:104A700089B0CDE9011200F11009834600F1300838
:104A8000CE4607464E46054684460024CDF80C9097
:104A90006246284684B1D2ED007A01463B468946FB
:104AA000F3EC016A99ED007AE6EEC77A634501F10D
:104AB0001001C2ED007AF2D10432724500F1040017
:104AC000E8D1032C04F1010A30D062463046ABEB4A
:104AD00005099CB1D2ED047A009409EB0003294644
:104AE0000C46F3EC016A94ED007AE6EEC77A834255
:104AF00001F11001C2ED047AF2D1009CD2ED046AFA
:104B000016ED047AC6EE877A1032424500F11000A5
:104B1000C2ED007ADDD10CF1140C08F10408043563
:104B200014360EF1100E10375446B1E7DDE90229B4
:104B3000002500230135059306930793042D52F8B1
:104B4000043B049305A80BF1140418D0F2EC017A8D
:104B500004A9C0ED007A4B46B1EC017AF3EC016A8E
:104B6000E6EEC77AA342C0ED007AF5D10135042DF7
:104B700009F1100900F1040004F11404E6D1019ACE
:104B800008AE76ED017A022510320BF14004022DB9
:104B90002046A2F1040142ED017A20D02346F3EC35
:104BA000016AB2EC017AE6EEC77A9842C1ED007A6A
:104BB000F5D154ED016A87EEA67A6B1C81ED007A7F
:104BC00014D076ED017A013D0A46022DA4F11404B9
:104BD000A0F11000A2F1040142ED017ADED154ED02
:104BE000016A87EEA67A02ED017AEAE709B0BDE82C
:104BF000F08F00BFDFED257AB4EEE70AF1EE10FA90
:104C000008DD9FED237A30EE470AB4EEE70AF1EEB5
:104C100010FAF8DCDFED1F7AB4EEE70AF1EE10FAD5
:104C200008D59FED1B7A30EE070AB4EEE70AF1EEE5
:104C300010FAF8D4DFED187AB4EEE70AF1EE10FAC4
:104C400018DD30EE670A37EEC00A60EE007A9FED9D
:104C5000137A9FED136ADFED136AA7EE876A9FED63
:104C6000127AE7EE866A60EE275AA7EEA67AA5EEDC
:104C7000870A70479FED0D7AB4EEC70AF1EE10FA7D
:104C800044BF30EE270A37EE400ADEE7DB0F49402B
:104C9000DB0FC940DB0F49C0DB0FC93F9A7C2E36C2
:104CA000FAAF4FB93587083CA4AA2ABEDB0FC9BFAB
:104CB00010B53E4CB4FBF2F4A1420DD300234FF0EB
:104CC0007E52026043608360C3600361002383619E
:104CD00043610362C36110BD07EE902AB8EE677AA4
:104CE000DFED337A27EE277AB7EE006AC6EE076A61
:104CF00007EE901A9FED2F7AF8EE677AB0EE405AE1
:104D000067EE877AC7EEA64AFDEEE47A17EE902AA0
:104D10002032402A47D8B0EE640AFFF76BFFB0EEAE
:104D2000404A9FED250A34EE800AFDEEC07A17EE68
:104D3000902A2032402A31D8FFF75CFFF8EE006A53
:104D400060EE266A012B24D0F7EE007A37EEC00A17
:104D5000F6EE005A60EE255A35EE055AB7EE007AA7
:104D600084EE056A76EE077A37EE467A80EE275AA9
:104D700085EEA76AC6EEA75AC7EE276A80ED006ADD
:104D800080ED015A80ED026AC0ED035AC0ED046A5D
:104D90009CE7B0EE660AF7EE005ADDE7DFED076A42
:104DA0009FED070ACEE79FED064ABAE720A107006C
:104DB000BD378635DB0FC940DB0FC93F00000080DF
:104DC00000000000DFED077A30EE270AFDEEC07A22
:104DD00017EE903A2033402B00D80BE79FED020AE4
:104DE000704700BFDB0FC93F0000000091ED005A83
:104DF0009FED520A35EE000A08B5FDEEC07A17EEB7
:104E0000903A2033402B7DD8FFF7F4FEFDEEC57AB3
:104E1000B0EE403A17EE903A2033402B7BD8B0EEFC
:104E2000450AFFF7E7FEB0EE405AF1EE402A91ED59
:104E3000014A9FED420A34EE000AFDEEC07A17EEF9
:104E4000903A2033402B74D8FFF7D4FEF0EE404A5E
:104E5000B1EE402AFDEEC47A17EE903A2033402B93
:104E600064D8B0EE440AFFF7C5FEB0EE404AD1ED7B
:104E7000021A9FED320A31EE800AFDEEC07A17EE7B
:104E8000903A2033402B4ED8FFF7B4FEF0EE403A74
:104E9000FDEEE17A17EE903A2033402B40D8B0EE89
:104EA000610AFFF7A7FE63EE836A20EE037A63EEE2
:104EB000857A20EE055AF0EE475AB0EE666AE7EEC4
:104EC000845AA5EE446AE7EE047AA6EEC45A63EE6D
:104ED000A43A62EEA42A22EE000A64EE834AC0EDF0
:104EE000003A80ED010A80ED024AC0ED035A80EDE0
:104EF000046AC0ED052A80ED065AC0ED077AC0EDC0
:104F0000084A08BDFDEEC57A9FED0D3A17EE903ABE
:104F10002033402B83D9DFED0B2A9FED095A86E71A
:104F20009FED070ABFE7DFED063AB1E79FED044AC0
:104F30009DE79FED042ADFED024A8BE7DB0FC93FB7
:104F400000000000000000802DE9F04F83B005460E
:104F50009DF830400D9E0192002C14BF4FF0300997
:104F60004FF020091C1E88464ADB16F8010B01464B
:104F700000286CD0002C65D04FF0000A324601E0CA
:104F8000002C34D012F8013B2746013C002BF7D10E
:104F9000BAF1000F3CD1023F002C65D0BA4645451E
:104FA0000AF1FF3A4946284601D2019B9847BAF1D7
:104FB000FF3FF4D10D9A107823463C1B01469B46D7
:104FC00088B14FF0000A01339F1B454506EB070BE4
:104FD000284601D2019B984716F8011B0029F4D1FD
:104FE000BAF1000F18D1584603B0BDE8F08FBAF1FE
:104FF000000F31D0014683460028F4D02346E2E773
:1050000016F8010B634258B31C464FF0010AB5E78E
:10501000014683460028D6D1002C04F1FF36E2DD9C
:105020003446454506F1FF364946284601D2019BE4
:105030009847731CF5D10BF1010BA344584603B0FC
:10504000BDE8F08F2346A2464FF0FF34BBE7671E52
:10505000A346002CA2D1C6E723464FF0FF34ADE7AC
:10506000E64383463446DCE723463C46A6E700BFDA
:105070000FB430B583B006AB0C4853F8042BD0F80E
:10508000EC19D0F8E809019364F064FC084C05467B
:10509000D4F8600A03685B6998470028F8D028466E
:1050A00003B0BDE8304004B0704700BF903100202D
:1050B000982000200EB410B583B005AB044653F819
:1050C000042B0749009301A8019464F043FC019B61
:1050D00000221A7003B0BDE8104003B0704700BF53
:1050E000150A00080CB470B5334CD4F8F039A4B0EC
:1050F000002B4BD094F8F83999423FD82F4B304AC7
:10510000D3F8983AA2FB031292094FF47A7101FB8B
:10511000123304A82B49FFF7CDFF04AA29AB0244A0
:10512000CDE902322849289A064603A864F012FC09
:10513000039BD4F8F0595A1C03920A221A70039B5D
:105140005A1C039200221A702DB32B681B6A1BB1E4
:1051500028469847D4F8F0599DF8101049B10DF140
:1051600011042B6828461B68984714F8011B002976
:10517000F7D124B0BDE8704002B07047D4F8FC29E4
:10518000012303FA00F01042B8D1F2E7D4F8F43961
:10519000002BAFD1EDE7D4F8F439002BE9D030443F
:1051A0000222009204A98218FD2033F0FFFB24B0F4
:1051B000BDE8704002B07047903100209820002078
:1051C000D34D6210D4BF0708090A000830B54FF468
:1051D000004087B030F068FF58B14FF400410446FA
:1051E00031F018FB022806D1226848F201039A42E6
:1051F00024D007B030BD00234FF46121022294F97E
:1052000004008DE80E001A464FF4004131F00CFB0B
:105210001C4BC3F8F0090028EBD01B4A1B4B1C4C5D
:105220001C481D490091CDE90332CDE901041B4B17
:105230001B4A02210020FFF755FFDAE7114C002539
:105240004FF4004084F8945C60F066FD0028D0D0F4
:10525000D4F8003A83420AD0D4F8DC3A83420BD027
:10526000D4F8B83B98420AD0C4F8F459C1E704F521
:105270002063C4F8F439D0E704F6DC23F9E704F638
:10528000B833F6E790310020F8BF070804C00708DC
:1052900010C007081CC0070824C0070820BF070863
:1052A000E0BF070838B5194CD4F8985C033005EB1B
:1052B0009003B3F5007F19D820F003021448C4F816
:1052C000983C00EB8101C3F50073D1F8A40304F608
:1052D0009C441044C1F8A4030E4A04EB85049B00CF
:1052E00004210020FFF7FEFE204638BD00210846BD
:1052F000094AFFF7F7FE094AD2F89430002443F038
:105300000073C2F89430204638BD00BF90310020B1
:105310008842002030C0070854C007080000001071
:10532000F0B5254B0268254983B00646002401E00C
:1053300051F834309A4209D001340E2CF8D10021B2
:105340001F4A0520FFF7CEFE002113E01D4F07EB9B
:105350008407D7F8445285B1717901EB410305EB1D
:10536000C30300221820C3E9032200FB01559E60FD
:105370001A75291D084603B0F0BD07216420FFF708
:1053800091FF0146C7F8440270B1294664226BF0D0
:1053900071F90A4BD7F8445203EBC404C5E9004540
:1053A000ED616D63ED64D7E70190074A0520FFF7D3
:1053B00099FE0199DEE700BF000001400C170708C5
:1053C00064C00708903100208CC0070838B5056814
:1053D000EB690446E3B1987800B938BD9A88D2BA2F
:1053E00007EE902AF8EEE77A0120C4ED047ADA8815
:1053F000D2BA07EE902AF8EEE77AC4ED057A1B8957
:10540000DBBA07EE903AF8EEE77AC4ED067A38BDDB
:1054100009211420FFF746FF0346E861DBE700BFE0
:1054200038B50468E3690D467BB1987800B938BD9A
:105430005B89094ADBBA82FB0312DB17C3EB221339
:1054400003F26D132B80012038BD09211420FFF7D2
:1054500029FF0346E061E8E77978787803681A461F
:10546000591C016012F8021B0260587841EA0020C2
:10547000704700BF02681146531C036011F802CB4D
:105480000160D31C5178036093781B0443EA012325
:10549000111D0160D07843EA0C0343EA00607047B5
:1054A00012B370B50446864604E0981B17D114EB7E
:1054B0000C0C15D01EF8013BA3F14100192811F87E
:1054C000010BA0F1410598BF2033192DA2EB0E0C62
:1054D00000F12006E9D91B1A04D10028E7D170BDDC
:1054E000604670BD184670BD1046704710B4028803
:1054F000C378184CA2F5FA6202F0030140F2B55CE1
:105500009208013B0CFB0233827801EB4101013A26
:1055100002EB810204EB42010279B1F8E4404179E7
:10552000234403EB430302EBC30384790A4A008953
:10553000C3EB031301EB8303C3EB0313224402EB1E
:10554000830200214FF47A73C2FB03015DF8044B20
:10555000704700BFB416070880436D382DE9F0414D
:1055600017461E4605464FF47A72002338463146E8
:1055700065F058FA4449454A014482FB0143C81783
:105580000B44C0EB631382FB03021A44D817404C50
:10559000C0EB621284FB02044FEAE27C3D48CCEB94
:1055A000A40C80FB0C404FEAEC74C4EBE010C3EB9E
:1055B0000314A1EB8401A971C2EB0211A3EB8103D7
:1055C0006B710CEB4C03A2EBC30240F2B55303FB2F
:1055D00010CCBCF5896F2A714FEA800045DA40F2A1
:1055E000DA239C4548DCBCF5B77FB4BF002201221A
:1055F000294B02EB420103EBC1034FEA4208B3F827
:10560000FA3091B2254C08EB020E04EBCE041634AE
:105610004FF00B0E01E034F8023D634520DDBEF192
:10562000010EF8D11C4B424403EBC2024FF0010EB5
:10563000B2F8E43085F802E000F5FA600CF1010CF4
:105640000844ACEB030C288085F803C04FF47A7251
:1056500000233846314665F0E5F92A81BDE8F0813E
:105660000EF1010E5FFA8EFEE4E7032140F296533D
:105670000A464FF00608C5E7022140F229430A46D0
:105680004FF00408BEE700BF80BC92C789888888B5
:10569000ABAAAA2A73B06D16B416070898170708A4
:1056A00030B52E4D84468E460FCD8DB06C460FC45E
:1056B0000FCD0FC495E80F001CF0030F84E80F0016
:1056C0000DD1274B274A03FB0CF3B2EBB30F43D3A7
:1056D000254AB2EB331F2CBF1D241C2400E01C24E0
:1056E0000CF1FF33002B40F26D12194602FB0CF255
:1056F000B8BF0CF1020102EBA1021C491C4D019440
:1057000081FB0301DB17A3EB61100244C3EBE11340
:105710001A44253285FB02301044D317C3EBA00096
:10572000C0EBC000ADF10403101A0DF1040C03EB43
:105730008E0E01E05CF8044F031985FB0320C218AC
:10574000D817C0EBA200C0EBC000E645A3EB0000F9
:10575000F0D1201A0DB030BD1D24C1E7F81707089D
:10576000295C8FC2285C8F020AD7A3001F85EB51EA
:105770009324499208B50E4BD3F83024D3F834342F
:1057800052EA030C09D1002340F2011242808380C7
:10579000837103800381184608BD0649D1F8981A21
:1057A0008A1843F10003FFF7D9FE012008BD00BFAE
:1057B000884200209820002088422DE9F0414FF0D7
:1057C00001043DD301FB04F4B0FBF4FC8C45F9D299
:1057D0003CB3002616E0BCF1090F274698462C463C
:1057E00023DD002A14BF4FF0370E4FF0570EF4445C
:1057F000B94288F800C003F1010306F1010610D890
:10580000B0FBF5FCB4FBF1F504FB1C00002EE2D16B
:10581000BCF1000FDFDCA1420AD90CF1300C03F817
:1058200001CB00221A70BDE8F0814FF0300EDEE7A8
:10583000B0FBF5FC2C4605FB1C00B5FBF1F5E7E7DA
:105840008446C6E790422DE9F0410B4604461546D2
:105850000AD2B0FBF5F6134A05FB16441846135D51
:1058600000F8013BBDE8F081B0FBF2F69642B6FBD2
:10587000F2F706D20B4A05FB1767D15D03F8011B4F
:10588000EAE7BA42B7FBF2F807D9064A05FB1878EF
:1058900012F8081003F8011BEDE74046FFF7D2FFAE
:1058A0000346F2E7A8C00708B5EEC00ADFED347A78
:1058B000F1EE10FACCBF30EE270A30EE670ADFEDCA
:1058C000317A20EE270A70B5FDEEC07A86B017EE69
:1058D000904A054684EAE470002303A9A0EBE47033
:1058E000CDE90033029361F085FA002CACBF202390
:1058F0002D2303A88DF8003064F06CFA01286E4661
:1059000028D0022832D003281CD003A930466BF0DF
:1059100001FE304664F05EFA0338C4B222463146D6
:10592000284668F007FD00232B55284664F052FAFC
:105930002E232B540130311928446BF007FE2846E2
:1059400006B070BD302303A930468DF801306BF0EE
:10595000E1FDDEE7302303A930468DF801308DF8F4
:1059600002308DF803306BF0D5FDD2E7302303A968
:1059700030468DF801308DF802306BF0CBFDC8E772
:105980006F12033A00007A440278202A034600F19D
:105990000100F9D0092AF7D02D2A29D02B2A03BFDC
:1059A0005A78B7EE000A0346B7EE000AA2F13001BA
:1059B000C8B20928DFED4C7A10D8F2EE046A07EE7F
:1059C000101AB8EEC77A13F8012FA7EEA67AA2F143
:1059D0003001C8B20928F0EE477AF0D92E2A49D012
:1059E000197801F0DF01452907D020EE270A70471A
:1059F0005A78BFEE000A0346D8E710B459782D292B
:105A000062D02B2954D0A1F13002092A03F10103FD
:105A100055D80024002202EB820201EB420213F867
:105A2000011FA1F130000928A2F13002F3D9B2F52B
:105A30009A7F134628BF4FF49A73072A50D9DFED97
:105A40002B6A1A46B7EE007A083A072A27EE267A1A
:105A5000FAD803F007032BB1F2EE046A013B27EEFC
:105A6000267AFBD16CB3C7EE877A5DF8044B20EE43
:105A7000270A70475978A1F13002D0B2092803F102
:105A80000103AED8F2EE046AF0EE665A07EE102A71
:105A9000B8EEC77A13F8011F87EE266AA1F130022B
:105AA000D0B2092866EEA56A77EE867AEED998E735
:105AB0009978A1F13002092A03F10203A9D9B7EEBE
:105AC000007A67EE877AD0E79978A1F13002092A47
:105AD00003F1020388BFB7EE007AC4D8012499E726
